{"contracts/CAPY.sol":{"CAPY":{"abi":[{"inputs":[{"internalType":"address","name":"admin","type":"address"},{"internalType":"address","name":"_treasury","type":"address"},{"internalType":"address","name":"_dao","type":"address"}],"stateMutability":"nonpayable","type":"constructor"},{"inputs":[],"name":"AdminMustBeContract","type":"error"},{"inputs":[],"name":"AllowanceOverflow","type":"error"},{"inputs":[],"name":"AllowanceUnderflow","type":"error"},{"inputs":[],"name":"AlreadyInitialized","type":"error"},{"inputs":[],"name":"InsufficientAllowance","type":"error"},{"inputs":[],"name":"InsufficientBalance","type":"error"},{"inputs":[],"name":"InvalidAmount","type":"error"},{"inputs":[],"name":"InvalidMarketValue","type":"error"},{"inputs":[],"name":"InvalidPermit","type":"error"},{"inputs":[],"name":"InvalidRevenue","type":"error"},{"inputs":[],"name":"MaxSupplyExceeded","type":"error"},{"inputs":[],"name":"MintAllocationExceeded","type":"error"},{"inputs":[],"name":"NewOwnerIsZeroAddress","type":"error"},{"inputs":[],"name":"NoHandoverRequest","type":"error"},{"inputs":[],"name":"Permit2AllowanceIsFixedAtInfinity","type":"error"},{"inputs":[],"name":"PermitExpired","type":"error"},{"inputs":[],"name":"TotalSupplyOverflow","type":"error"},{"inputs":[],"name":"Unauthorized","type":"error"},{"inputs":[],"name":"ZeroAddress","type":"error"},{"anonymous":false,"inputs":[{"indexed":true,"internalType":"address","name":"owner","type":"address"},{"indexed":true,"internalType":"address","name":"spender","type":"address"},{"indexed":false,"internalType":"uint256","name":"amount","type":"uint256"}],"name":"Approval","type":"event"},{"anonymous":false,"inputs":[{"indexed":true,"internalType":"address","name":"oldDao","type":"address"},{"indexed":true,"internalType":"address","name":"newDao","type":"address"}],"name":"DaoAddressUpdated","type":"event"},{"anonymous":false,"inputs":[{"indexed":true,"internalType":"address","name":"account","type":"address"},{"indexed":false,"internalType":"bool","name":"exempt","type":"bool"}],"name":"ExemptionUpdated","type":"event"},{"anonymous":false,"inputs":[{"indexed":true,"internalType":"address","name":"to","type":"address"},{"indexed":false,"internalType":"uint256","name":"amount","type":"uint256"},{"indexed":true,"internalType":"uint256","name":"role","type":"uint256"}],"name":"Mint","type":"event"},{"anonymous":false,"inputs":[{"indexed":true,"internalType":"address","name":"pendingOwner","type":"address"}],"name":"OwnershipHandoverCanceled","type":"event"},{"anonymous":false,"inputs":[{"indexed":true,"internalType":"address","name":"pendingOwner","type":"address"}],"name":"OwnershipHandoverRequested","type":"event"},{"anonymous":false,"inputs":[{"indexed":true,"internalType":"address","name":"oldOwner","type":"address"},{"indexed":true,"internalType":"address","name":"newOwner","type":"address"}],"name":"OwnershipTransferred","type":"event"},{"anonymous":false,"inputs":[{"indexed":false,"internalType":"address","name":"account","type":"address"}],"name":"Paused","type":"event"},{"anonymous":false,"inputs":[{"indexed":false,"internalType":"uint256","name":"revenue","type":"uint256"},{"indexed":false,"internalType":"uint256","name":"marketValue","type":"uint256"},{"indexed":false,"internalType":"uint256","name":"tokensMinted","type":"uint256"}],"name":"RevenueMint","type":"event"},{"anonymous":false,"inputs":[{"indexed":true,"internalType":"uint256","name":"role","type":"uint256"},{"indexed":true,"internalType":"address","name":"account","type":"address"},{"indexed":true,"internalType":"address","name":"sender","type":"address"}],"name":"RoleGranted","type":"event"},{"anonymous":false,"inputs":[{"indexed":true,"internalType":"uint256","name":"role","type":"uint256"},{"indexed":true,"internalType":"address","name":"account","type":"address"},{"indexed":true,"internalType":"address","name":"sender","type":"address"}],"name":"RoleRevoked","type":"event"},{"anonymous":false,"inputs":[{"indexed":true,"internalType":"address","name":"user","type":"address"},{"indexed":true,"internalType":"uint256","name":"roles","type":"uint256"}],"name":"RolesUpdated","type":"event"},{"anonymous":false,"inputs":[{"indexed":true,"internalType":"address","name":"from","type":"address"},{"indexed":true,"internalType":"address","name":"to","type":"address"},{"indexed":false,"internalType":"uint256","name":"amount","type":"uint256"}],"name":"Transfer","type":"event"},{"anonymous":false,"inputs":[{"indexed":true,"internalType":"address","name":"oldTreasury","type":"address"},{"indexed":true,"internalType":"address","name":"newTreasury","type":"address"}],"name":"TreasuryAddressUpdated","type":"event"},{"anonymous":false,"inputs":[{"indexed":true,"internalType":"address","name":"from","type":"address"},{"indexed":true,"internalType":"address","name":"to","type":"address"},{"indexed":false,"internalType":"uint256","name":"amount","type":"uint256"}],"name":"TreasuryFee","type":"event"},{"anonymous":false,"inputs":[{"indexed":false,"internalType":"address","name":"account","type":"address"}],"name":"Unpaused","type":"event"},{"inputs":[],"name":"DAO_MINTER_ROLE","outputs":[{"internalType":"uint256","name":"","type":"uint256"}],"stateMutability":"view","type":"function"},{"inputs":[],"name":"DEFAULT_ADMIN_ROLE","outputs":[{"internalType":"bytes32","name":"","type":"bytes32"}],"stateMutability":"pure","type":"function"},{"inputs":[],"name":"DOMAIN_SEPARATOR","outputs":[{"internalType":"bytes32","name":"result","type":"bytes32"}],"stateMutability":"view","type":"function"},{"inputs":[],"name":"TEAM_MINTER_ROLE","outputs":[{"internalType":"uint256","name":"","type":"uint256"}],"stateMutability":"view","type":"function"},{"inputs":[],"name":"TREASURY_MINTER_ROLE","outputs":[{"internalType":"uint256","name":"","type":"uint256"}],"stateMutability":"view","type":"function"},{"inputs":[{"internalType":"address","name":"owner","type":"address"},{"internalType":"address","name":"spender","type":"address"}],"name":"allowance","outputs":[{"internalType":"uint256","name":"result","type":"uint256"}],"stateMutability":"view","type":"function"},{"inputs":[{"internalType":"address","name":"spender","type":"address"},{"internalType":"uint256","name":"amount","type":"uint256"}],"name":"approve","outputs":[{"internalType":"bool","name":"","type":"bool"}],"stateMutability":"nonpayable","type":"function"},{"inputs":[{"internalType":"address","name":"owner","type":"address"}],"name":"balanceOf","outputs":[{"internalType":"uint256","name":"result","type":"uint256"}],"stateMutability":"view","type":"function"},{"inputs":[{"internalType":"uint256","name":"amount","type":"uint256"}],"name":"burn","outputs":[],"stateMutability":"nonpayable","type":"function"},{"inputs":[{"internalType":"address","name":"from","type":"address"},{"internalType":"uint256","name":"amount","type":"uint256"}],"name":"burnFrom","outputs":[],"stateMutability":"nonpayable","type":"function"},{"inputs":[],"name":"cancelOwnershipHandover","outputs":[],"stateMutability":"payable","type":"function"},{"inputs":[{"internalType":"address","name":"pendingOwner","type":"address"}],"name":"completeOwnershipHandover","outputs":[],"stateMutability":"payable","type":"function"},{"inputs":[{"internalType":"address","name":"to","type":"address"},{"internalType":"uint256","name":"amount","type":"uint256"}],"name":"daoMint","outputs":[],"stateMutability":"nonpayable","type":"function"},{"inputs":[],"name":"decimals","outputs":[{"internalType":"uint8","name":"","type":"uint8"}],"stateMutability":"view","type":"function"},{"inputs":[],"name":"getDaoAddress","outputs":[{"internalType":"address","name":"","type":"address"}],"stateMutability":"view","type":"function"},{"inputs":[],"name":"getMaxSupply","outputs":[{"internalType":"uint256","name":"","type":"uint256"}],"stateMutability":"pure","type":"function"},{"inputs":[],"name":"getMintAllocation","outputs":[{"components":[{"internalType":"uint256","name":"teamMinted","type":"uint256"},{"internalType":"uint256","name":"treasuryMinted","type":"uint256"},{"internalType":"uint256","name":"daoMinted","type":"uint256"}],"internalType":"struct ICAPY.MintAllocation","name":"","type":"tuple"}],"stateMutability":"view","type":"function"},{"inputs":[],"name":"getTreasuryAddress","outputs":[{"internalType":"address","name":"","type":"address"}],"stateMutability":"view","type":"function"},{"inputs":[{"internalType":"address","name":"user","type":"address"},{"internalType":"uint256","name":"roles","type":"uint256"}],"name":"grantRoles","outputs":[],"stateMutability":"payable","type":"function"},{"inputs":[{"internalType":"address","name":"user","type":"address"},{"internalType":"uint256","name":"roles","type":"uint256"}],"name":"hasAllRoles","outputs":[{"internalType":"bool","name":"","type":"bool"}],"stateMutability":"view","type":"function"},{"inputs":[{"internalType":"address","name":"user","type":"address"},{"internalType":"uint256","name":"roles","type":"uint256"}],"name":"hasAnyRole","outputs":[{"internalType":"bool","name":"","type":"bool"}],"stateMutability":"view","type":"function"},{"inputs":[{"internalType":"uint256","name":"role","type":"uint256"},{"internalType":"address","name":"user","type":"address"}],"name":"hasRole","outputs":[{"internalType":"bool","name":"","type":"bool"}],"stateMutability":"view","type":"function"},{"inputs":[{"internalType":"address","name":"account","type":"address"}],"name":"isExempt","outputs":[{"internalType":"bool","name":"","type":"bool"}],"stateMutability":"view","type":"function"},{"inputs":[],"name":"isOwnerMultisig","outputs":[{"internalType":"bool","name":"","type":"bool"}],"stateMutability":"view","type":"function"},{"inputs":[],"name":"name","outputs":[{"internalType":"string","name":"","type":"string"}],"stateMutability":"pure","type":"function"},{"inputs":[{"internalType":"address","name":"owner","type":"address"}],"name":"nonces","outputs":[{"internalType":"uint256","name":"result","type":"uint256"}],"stateMutability":"view","type":"function"},{"inputs":[],"name":"owner","outputs":[{"internalType":"address","name":"result","type":"address"}],"stateMutability":"view","type":"function"},{"inputs":[{"internalType":"address","name":"pendingOwner","type":"address"}],"name":"ownershipHandoverExpiresAt","outputs":[{"internalType":"uint256","name":"result","type":"uint256"}],"stateMutability":"view","type":"function"},{"inputs":[],"name":"pause","outputs":[],"stateMutability":"nonpayable","type":"function"},{"inputs":[],"name":"paused","outputs":[{"internalType":"bool","name":"","type":"bool"}],"stateMutability":"view","type":"function"},{"inputs":[{"internalType":"address","name":"owner","type":"address"},{"internalType":"address","name":"spender","type":"address"},{"internalType":"uint256","name":"value","type":"uint256"},{"internalType":"uint256","name":"deadline","type":"uint256"},{"internalType":"uint8","name":"v","type":"uint8"},{"internalType":"bytes32","name":"r","type":"bytes32"},{"internalType":"bytes32","name":"s","type":"bytes32"}],"name":"permit","outputs":[],"stateMutability":"nonpayable","type":"function"},{"inputs":[],"name":"renounceOwnership","outputs":[],"stateMutability":"payable","type":"function"},{"inputs":[{"internalType":"uint256","name":"roles","type":"uint256"}],"name":"renounceRoles","outputs":[],"stateMutability":"payable","type":"function"},{"inputs":[],"name":"requestOwnershipHandover","outputs":[],"stateMutability":"payable","type":"function"},{"inputs":[{"internalType":"uint256","name":"revenue","type":"uint256"},{"internalType":"uint256","name":"marketValue","type":"uint256"}],"name":"revenueMint","outputs":[],"stateMutability":"nonpayable","type":"function"},{"inputs":[{"internalType":"address","name":"user","type":"address"},{"internalType":"uint256","name":"roles","type":"uint256"}],"name":"revokeRoles","outputs":[],"stateMutability":"payable","type":"function"},{"inputs":[{"internalType":"address","name":"user","type":"address"}],"name":"rolesOf","outputs":[{"internalType":"uint256","name":"roles","type":"uint256"}],"stateMutability":"view","type":"function"},{"inputs":[{"internalType":"address","name":"newDao","type":"address"}],"name":"setDaoAddress","outputs":[],"stateMutability":"nonpayable","type":"function"},{"inputs":[{"internalType":"address","name":"account","type":"address"},{"internalType":"bool","name":"exempt","type":"bool"}],"name":"setExemption","outputs":[],"stateMutability":"nonpayable","type":"function"},{"inputs":[{"internalType":"address","name":"newTreasury","type":"address"}],"name":"setTreasuryAddress","outputs":[],"stateMutability":"nonpayable","type":"function"},{"inputs":[],"name":"symbol","outputs":[{"internalType":"string","name":"","type":"string"}],"stateMutability":"pure","type":"function"},{"inputs":[{"internalType":"address","name":"to","type":"address"},{"internalType":"uint256","name":"amount","type":"uint256"}],"name":"teamMint","outputs":[],"stateMutability":"nonpayable","type":"function"},{"inputs":[],"name":"totalSupply","outputs":[{"internalType":"uint256","name":"result","type":"uint256"}],"stateMutability":"view","type":"function"},{"inputs":[{"internalType":"address","name":"to","type":"address"},{"internalType":"uint256","name":"amount","type":"uint256"}],"name":"transfer","outputs":[{"internalType":"bool","name":"","type":"bool"}],"stateMutability":"nonpayable","type":"function"},{"inputs":[{"internalType":"address","name":"from","type":"address"},{"internalType":"address","name":"to","type":"address"},{"internalType":"uint256","name":"amount","type":"uint256"}],"name":"transferFrom","outputs":[{"internalType":"bool","name":"","type":"bool"}],"stateMutability":"nonpayable","type":"function"},{"inputs":[{"internalType":"address","name":"newOwner","type":"address"}],"name":"transferOwnership","outputs":[],"stateMutability":"payable","type":"function"},{"inputs":[{"internalType":"address","name":"to","type":"address"},{"internalType":"uint256","name":"amount","type":"uint256"}],"name":"treasuryMint","outputs":[],"stateMutability":"nonpayable","type":"function"},{"inputs":[],"name":"unpause","outputs":[],"stateMutability":"nonpayable","type":"function"}],"evm":{"bytecode":{"linkReferences":{},"object":"608060405234801561001057600080fd5b5060405161214a38038061214a83398101604081905261002f916102cb565b6000805460ff191690556001600160a01b0383166100605760405163d92e233d60e01b815260040160405180910390fd5b6001600160a01b0382166100875760405163d92e233d60e01b815260040160405180910390fd5b6001600160a01b0381166100ae5760405163d92e233d60e01b815260040160405180910390fd5b823b6100cd5760405163b597f86560e01b815260040160405180910390fd5b6100d68361020a565b6100e1836007610246565b60008054610100600160a81b0319166101006001600160a01b03858116918202929092178355600180546001600160a01b031916928516928317815581845260036020526040808520805460ff199081168417909155938552808520805490941690911790925590519091907f430359a6d97ced2b6f93c77a91e7ce9dfd43252eb91e916adba170485cd8a6a4908290a36040516001600160a01b038216906000907f75b7fe723ac984bff13d3b320ed1a920035692e4a8e56fb2457774e7535c0d1d908290a3604051600181526001600160a01b0383169060008051602061212a8339815191529060200160405180910390a2604051600181526001600160a01b0382169060008051602061212a8339815191529060200160405180910390a250505061030e565b6001600160a01b0316638b78c6d8198190558060007f8be0079c531659141344cd1fd0a4f28419497f9722a3daafe3b4186f6b6457e08180a350565b61025282826001610256565b5050565b638b78c6d8600c52826000526020600c20805483811783610278575080841681185b80835580600c5160601c7f715ad5ce61fc9595c7b415289d59cf203f23a94fa06f04af7e489a0a76e1fe26600080a3505050505050565b80516001600160a01b03811681146102c657600080fd5b919050565b6000806000606084860312156102e057600080fd5b6102e9846102af565b92506102f7602085016102af565b9150610305604085016102af565b90509250925092565b611e0d8061031d6000396000f3fe6080604052600436106102935760003560e01c80636605bfda1161015a578063aa35cca3116100c1578063dd62ed3e1161007a578063dd62ed3e146107a8578063e0024604146107c8578063ec2606c0146107eb578063f04e283e1461080b578063f2fde38b1461081e578063fee81cf41461083157600080fd5b8063aa35cca3146106e5578063ad5dff7314610705578063add5a4fa1461073e578063c33cd4cb1461075e578063ceeb69f914610773578063d505accf1461078857600080fd5b80638456cb59116101135780638456cb59146106635780638da5cb5b1461067857806395d89b41146102985780639a3cac6a14610691578063a217fddf146106b1578063a9059cbb146106c557600080fd5b80636605bfda146105a057806370a08231146105c0578063715018a6146105f357806379cc6790146105fb5780637a6e223c1461061b5780637ecebe001461063057600080fd5b80632de94807116101fe5780634a4ee7b1116101b75780634a4ee7b1146105035780634c0f38c214610516578063514e62fc1461053457806354d1f13d1461056b5780635c975abb146105735780635fd6a41b1461058b57600080fd5b80632de948071461044a578063313ce5671461047d5780633644e515146104995780633ea6e071146104ae5780633f4ba83a146104ce57806342966c68146104e357600080fd5b80631c10893f116102505780631c10893f1461036f5780631cd64df4146103825780631d68702d146103b9578063213ab527146103eb57806323b872dd14610422578063256929621461044257600080fd5b806306fdde0314610298578063095ea7b3146102c35780631051a512146102f357806314866aef1461031557806318160ddd14610335578063183a4f6e1461035c575b600080fd5b3480156102a457600080fd5b506102ad610864565b6040516102ba9190611b16565b60405180910390f35b3480156102cf57600080fd5b506102e36102de366004611b80565b610882565b60405190151581526020016102ba565b3480156102ff57600080fd5b5061031361030e366004611baa565b610907565b005b34801561032157600080fd5b50610313610330366004611b80565b610a33565b34801561034157600080fd5b506805345cdf77eb68f44c545b6040519081526020016102ba565b61031361036a366004611bcc565b610b41565b61031361037d366004611b80565b610b4e565b34801561038e57600080fd5b506102e361039d366004611b80565b638b78c6d8600c90815260009290925260209091205481161490565b3480156103c557600080fd5b506001546001600160a01b03165b6040516001600160a01b0390911681526020016102ba565b3480156103f757600080fd5b50610400610b9c565b60408051825181526020808401519082015291810151908201526060016102ba565b34801561042e57600080fd5b506102e361043d366004611be5565b610be5565b610313610c0f565b34801561045657600080fd5b5061034e610465366004611c22565b638b78c6d8600c908152600091909152602090205490565b34801561048957600080fd5b50604051601281526020016102ba565b3480156104a557600080fd5b5061034e610c5f565b3480156104ba57600080fd5b506103136104c9366004611c3d565b610cdc565b3480156104da57600080fd5b50610313610d5b565b3480156104ef57600080fd5b506103136104fe366004611bcc565b610d6d565b610313610511366004611b80565b610d77565b34801561052257600080fd5b506a52b7d2dcc80cd2e400000061034e565b34801561054057600080fd5b506102e361054f366004611b80565b638b78c6d8600c90815260009290925260209091205416151590565b610313610dc5565b34801561057f57600080fd5b5060005460ff166102e3565b34801561059757600080fd5b5061034e600481565b3480156105ac57600080fd5b506103136105bb366004611c22565b610e01565b3480156105cc57600080fd5b5061034e6105db366004611c22565b6387a211a2600c908152600091909152602090205490565b610313610f02565b34801561060757600080fd5b50610313610616366004611b80565b610f57565b34801561062757600080fd5b5061034e600181565b34801561063c57600080fd5b5061034e61064b366004611c22565b6338377508600c908152600091909152602090205490565b34801561066f57600080fd5b50610313610f70565b34801561068457600080fd5b50638b78c6d819546103d3565b34801561069d57600080fd5b506103136106ac366004611c22565b610f80565b3480156106bd57600080fd5b50600061034e565b3480156106d157600080fd5b506102e36106e0366004611b80565b61104f565b3480156106f157600080fd5b50610313610700366004611b80565b61106d565b34801561071157600080fd5b506102e3610720366004611c22565b6001600160a01b031660009081526003602052604090205460ff1690565b34801561074a57600080fd5b50610313610759366004611b80565b61116c565b34801561076a57600080fd5b506102e361126b565b34801561077f57600080fd5b5061034e600281565b34801561079457600080fd5b506103136107a3366004611c79565b611288565b3480156107b457600080fd5b5061034e6107c3366004611cec565b611444565b3480156107d457600080fd5b5060005461010090046001600160a01b03166103d3565b3480156107f757600080fd5b506102e3610806366004611d1f565b61148b565b610313610819366004611c22565b6114ac565b61031361082c366004611c22565b6114dc565b34801561083d57600080fd5b5061034e61084c366004611c22565b63389a75e1600c908152600091909152602090205490565b6040805180820190915260048152634341505960e01b602082015290565b60006001600160a01b0383166e22d473030f116ddee9f6b43ac78ba318821915176108b557633f68539a6000526004601cfd5b82602052637f5e9f20600c5233600052816034600c205581600052602c5160601c337f8c5be1e5ebec7d5bd14f71427d1e84f3dd0314c0f7b2291e5b200ac8c7c3b92560206000a35060015b92915050565b61090f61150c565b610917611527565b600082116109385760405163a34477b560e01b815260040160405180910390fd5b6000811161095957604051634ad34ed160e01b815260040160405180910390fd5b60006109658284611d58565b9050600081116109885760405163162908e360e11b815260040160405180910390fd5b6a52b7d2dcc80cd2e4000000816002546109a29190611d7a565b11156109c157604051638a164f6360e01b815260040160405180910390fd5b806002546109cf9190611d7a565b6002556000546109ed9061010090046001600160a01b03168261156d565b60408051848152602081018490529081018290527fa2873c389c7faf6dc0b7d62bb1e3f2a07e31219d74ab22a42c3278ee693734ee9060600160405180910390a1505050565b6004610a3e816115ec565b610a46611527565b826001600160a01b038116610a6e5760405163d92e233d60e01b815260040160405180910390fd5b8260008111610a905760405163162908e360e11b815260040160405180910390fd5b6a52b7d2dcc80cd2e400000084600254610aaa9190611d7a565b1115610ac957604051638a164f6360e01b815260040160405180910390fd5b83600254610ad79190611d7a565b600255600654610ae8908590611d7a565b600655610af5858561156d565b6004856001600160a01b03167f4c209b5fc8ad50758f13e2e1088ba56a560dff690a1c6fef26394f4c03821c4f86604051610b3291815260200190565b60405180910390a35050505050565b610b4b3382611612565b50565b610b5661150c565b610b60828261161e565b60405133906001600160a01b0384169083907f1ec1667fba5e43c5c76fff54e76d7a4a20a4fecf7b49724ad8d52a3f726e9dbd90600090a45050565b610bc060405180606001604052806000815260200160008152602001600081525090565b5060408051606081018252600454815260055460208201526006549181019190915290565b6000610bef611527565b610bfa843384611630565b610c05848484611696565b5060019392505050565b60006202a30067ffffffffffffffff164201905063389a75e1600c5233600052806020600c2055337fdbf36a107da19e49527a7176a1babf963b4b0ff8cde35ee35d6cd8f1f9ac7e1d600080a250565b600080610c6a610864565b805190602001209050604080517f8b73c3c69bb8fe3d512ecc4cf759cc79239f7b179b0ffacaa9a75d522b39400f815260208101929092527fc89efdaa54c0f20c7adf612882df0950f5a951637e0307cdcb4c672f298b8bc69082015246606082015230608082015260a09020919050565b610ce461150c565b816001600160a01b038116610d0c5760405163d92e233d60e01b815260040160405180910390fd5b6001600160a01b038316600081815260036020908152604091829020805460ff19168615159081179091559151918252600080516020611db883398151915291015b60405180910390a2505050565b610d6361150c565b610d6b611833565b565b610b4b3382611885565b610d7f61150c565b610d8982826118fc565b60405133906001600160a01b0384169083907fe0df21b65c73c27081b8f042a012b124085b41d78d27b7e3c4780f5650f5ebb890600090a45050565b63389a75e1600c523360005260006020600c2055337ffa7b8eab7da67f412cc9575ed43464468f9bfbae89d1675917346ca6d8fe3c92600080a2565b610e0961150c565b806001600160a01b038116610e315760405163d92e233d60e01b815260040160405180910390fd5b600080546001600160a01b03848116610100818102610100600160a81b031985161785559092041680835260036020526040808420805460ff199081169091558385528185208054909116600117905551909283917f430359a6d97ced2b6f93c77a91e7ce9dfd43252eb91e916adba170485cd8a6a49190a3604051600081526001600160a01b03821690600080516020611db8833981519152906020015b60405180910390a2604051600181526001600160a01b03841690600080516020611db883398151915290602001610d4e565b610f0a61150c565b60405162461bcd60e51b815260206004820152601d60248201527f4f776e6572736869702063616e6e6f742062652072656e6f756e63656400000060448201526064015b60405180910390fd5b610f62823383611630565b610f6c8282611885565b5050565b610f7861150c565b610d6b61190e565b610f8861150c565b806001600160a01b038116610fb05760405163d92e233d60e01b815260040160405180910390fd5b600180546001600160a01b038481166001600160a01b03198316811784559116600081815260036020526040808220805460ff1990811690915584835281832080549091169095179094559251909283917f75b7fe723ac984bff13d3b320ed1a920035692e4a8e56fb2457774e7535c0d1d9190a3604051600081526001600160a01b03821690600080516020611db883398151915290602001610ed0565b6000611059611527565b611064338484611696565b50600192915050565b6002611078816115ec565b611080611527565b826001600160a01b0381166110a85760405163d92e233d60e01b815260040160405180910390fd5b82600081116110ca5760405163162908e360e11b815260040160405180910390fd5b6a52b7d2dcc80cd2e4000000846002546110e49190611d7a565b111561110357604051638a164f6360e01b815260040160405180910390fd5b836002546111119190611d7a565b600255600554611122908590611d7a565b60055561112f858561156d565b6002856001600160a01b03167f4c209b5fc8ad50758f13e2e1088ba56a560dff690a1c6fef26394f4c03821c4f86604051610b3291815260200190565b6001611177816115ec565b61117f611527565b826001600160a01b0381166111a75760405163d92e233d60e01b815260040160405180910390fd5b82600081116111c95760405163162908e360e11b815260040160405180910390fd5b6a52b7d2dcc80cd2e4000000846002546111e39190611d7a565b111561120257604051638a164f6360e01b815260040160405180910390fd5b836002546112109190611d7a565b600255600454611221908590611d7a565b60045561122e858561156d565b6001856001600160a01b03167f4c209b5fc8ad50758f13e2e1088ba56a560dff690a1c6fef26394f4c03821c4f86604051610b3291815260200190565b600061128361127d638b78c6d8195490565b3b151590565b905090565b6001600160a01b0386166e22d473030f116ddee9f6b43ac78ba318851915176112b957633f68539a6000526004601cfd5b60006112c3610864565b8051906020012090507fc89efdaa54c0f20c7adf612882df0950f5a951637e0307cdcb4c672f298b8bc64286101561130357631a15a3cc6000526004601cfd5b6040518960601b60601c99508860601b60601c985065383775081901600e52896000526020600c2080547f8b73c3c69bb8fe3d512ecc4cf759cc79239f7b179b0ffacaa9a75d522b39400f835284602084015283604084015246606084015230608084015260a08320602e527f6e71edae12b1b97f4d1f60370fef10105fa2faae0126114a169c64845d6126c983528b60208401528a60408401528960608401528060808401528860a084015260c08320604e526042602c206000528760ff1660205286604052856060526020806080600060015afa8c3d51146113ef5763ddafbaef6000526004601cfd5b0190556303faf4f960a51b89176040526034602c20889055888a7f8c5be1e5ebec7d5bd14f71427d1e84f3dd0314c0f7b2291e5b200ac8c7c3b925602060608501a36040525050600060605250505050505050565b60006e22d473030f116ddee9f6b43ac78ba2196001600160a01b0383160161146f5750600019610901565b50602052637f5e9f20600c908152600091909152603490205490565b638b78c6d8600c9081526000828152602090912054831683145b9392505050565b6114b461150c565b803b6114d35760405163b597f86560e01b815260040160405180910390fd5b610b4b8161194b565b6114e461150c565b803b6115035760405163b597f86560e01b815260040160405180910390fd5b610b4b81611988565b638b78c6d819543314610d6b576382b429006000526004601cfd5b60005460ff1615610d6b5760405162461bcd60e51b815260206004820152601060248201526f14185d5cd8589b194e881c185d5cd95960821b6044820152606401610f4e565b6805345cdf77eb68f44c54818101818110156115915763e5cfe9576000526004601cfd5b806805345cdf77eb68f44c5550506387a211a2600c52816000526020600c208181540181555080602052600c5160601c60007fddf252ad1be2c89b69c2b068fc378daa952ba7f163c4a11628f55a4df523b3ef602080a35050565b638b78c6d8600c5233600052806020600c205416610b4b576382b429006000526004601cfd5b610f6c828260006119af565b61162661150c565b610f6c8282611a08565b6e22d473030f116ddee9f6b43ac78ba2196001600160a01b0383160161165557505050565b81602052637f5e9f20600c52826000526034600c20805480191561168f5780831115611689576313be252b6000526004601cfd5b82810382555b5050505050565b6001600160a01b0383166116bd5760405163d92e233d60e01b815260040160405180910390fd5b6001600160a01b0382166116e45760405163d92e233d60e01b815260040160405180910390fd5b600081116117055760405163162908e360e11b815260040160405180910390fd5b6001600160a01b03831660009081526003602052604090205460ff168061174457506001600160a01b03821660009081526003602052604090205460ff165b1561175957611754838383611a14565b505050565b60006064611768600184611d8d565b6117729190611d58565b905060006064611783600185611d8d565b61178d9190611d58565b905060008161179c8486611da4565b6117a69190611da4565b90506117b28684611885565b6000546117cf90879061010090046001600160a01b031684611a14565b6000546040516001600160a01b036101009092048216918816907fe9b448cce44ad73a5e65365743b806bdf42d8f3b588a8e4e21650497d969ea52906118189086815260200190565b60405180910390a361182b868683611a14565b505050505050565b61183b611a8f565b6000805460ff191690557f5db9ee0a495bf2e6ff9c91a7834c1ba4fdd244a5e8aa4e537bd38aeae4b073aa335b6040516001600160a01b03909116815260200160405180910390a1565b6387a211a2600c52816000526020600c208054808311156118ae5763f4d678b86000526004601cfd5b82900390556805345cdf77eb68f44c8054829003905560008181526001600160a01b0383167fddf252ad1be2c89b69c2b068fc378daa952ba7f163c4a11628f55a4df523b3ef602083a35050565b61190461150c565b610f6c8282611612565b611916611527565b6000805460ff191660011790557f62e78cea01bee320cd4e420270b5ea74000d11b0c9f74754ebdbfc544b05a2586118683390565b61195361150c565b63389a75e1600c52806000526020600c20805442111561197b57636f5e88186000526004601cfd5b60009055610b4b81611ad8565b61199061150c565b8060601b6119a657637448fbae6000526004601cfd5b610b4b81611ad8565b638b78c6d8600c52826000526020600c208054838117836119d1575080841681185b80835580600c5160601c7f715ad5ce61fc9595c7b415289d59cf203f23a94fa06f04af7e489a0a76e1fe26600080a3505050505050565b610f6c828260016119af565b8260601b6387a211a28117600c526020600c20805480841115611a3f5763f4d678b86000526004601cfd5b83810382555050826000526020600c208281540181555081602052600c5160601c8160601c7fddf252ad1be2c89b69c2b068fc378daa952ba7f163c4a11628f55a4df523b3ef602080a350505050565b60005460ff16610d6b5760405162461bcd60e51b815260206004820152601460248201527314185d5cd8589b194e881b9bdd081c185d5cd95960621b6044820152606401610f4e565b638b78c6d81980546001600160a01b039092169182907f8be0079c531659141344cd1fd0a4f28419497f9722a3daafe3b4186f6b6457e0600080a355565b602081526000825180602084015260005b81811015611b445760208186018101516040868401015201611b27565b506000604082850101526040601f19601f83011684010191505092915050565b80356001600160a01b0381168114611b7b57600080fd5b919050565b60008060408385031215611b9357600080fd5b611b9c83611b64565b946020939093013593505050565b60008060408385031215611bbd57600080fd5b50508035926020909101359150565b600060208284031215611bde57600080fd5b5035919050565b600080600060608486031215611bfa57600080fd5b611c0384611b64565b9250611c1160208501611b64565b929592945050506040919091013590565b600060208284031215611c3457600080fd5b6114a582611b64565b60008060408385031215611c5057600080fd5b611c5983611b64565b915060208301358015158114611c6e57600080fd5b809150509250929050565b600080600080600080600060e0888a031215611c9457600080fd5b611c9d88611b64565b9650611cab60208901611b64565b95506040880135945060608801359350608088013560ff81168114611ccf57600080fd5b9699959850939692959460a0840135945060c09093013592915050565b60008060408385031215611cff57600080fd5b611d0883611b64565b9150611d1660208401611b64565b90509250929050565b60008060408385031215611d3257600080fd5b82359150611d1660208401611b64565b634e487b7160e01b600052601160045260246000fd5b600082611d7557634e487b7160e01b600052601260045260246000fd5b500490565b8082018082111561090157610901611d42565b808202811582820484141761090157610901611d42565b8181038181111561090157610901611d4256fe6c3adfee332544f29232690459f4fe23a1c9573efbaac65c9fc033355fb413f0a26469706673582212202d730ec58f356fecd413e750470fdbc62f475ac149c45e65077ec83915d1e00464736f6c634300081e00336c3adfee332544f29232690459f4fe23a1c9573efbaac65c9fc033355fb413f0","opcodes":"PUSH1 0x80 PUSH1 0x40 MSTORE CALLVALUE DUP1 ISZERO PUSH2 0x10 JUMPI PUSH1 0x0 DUP1 REVERT JUMPDEST POP PUSH1 0x40 MLOAD PUSH2 0x214A CODESIZE SUB DUP1 PUSH2 0x214A DUP4 CODECOPY DUP2 ADD PUSH1 0x40 DUP2 SWAP1 MSTORE PUSH2 0x2F SWAP2 PUSH2 0x2CB JUMP JUMPDEST PUSH1 0x0 DUP1 SLOAD PUSH1 0xFF NOT AND SWAP1 SSTORE PUSH1 0x1 PUSH1 0x1 PUSH1 0xA0 SHL SUB DUP4 AND PUSH2 0x60 JUMPI PUSH1 0x40 MLOAD PUSH4 0xD92E233D PUSH1 0xE0 SHL DUP2 MSTORE PUSH1 0x4 ADD PUSH1 0x40 MLOAD DUP1 SWAP2 SUB SWAP1 REVERT JUMPDEST PUSH1 0x1 PUSH1 0x1 PUSH1 0xA0 SHL SUB DUP3 AND PUSH2 0x87 JUMPI PUSH1 0x40 MLOAD PUSH4 0xD92E233D PUSH1 0xE0 SHL DUP2 MSTORE PUSH1 0x4 ADD PUSH1 0x40 MLOAD DUP1 SWAP2 SUB SWAP1 REVERT JUMPDEST PUSH1 0x1 PUSH1 0x1 PUSH1 0xA0 SHL SUB DUP2 AND PUSH2 0xAE JUMPI PUSH1 0x40 MLOAD PUSH4 0xD92E233D PUSH1 0xE0 SHL DUP2 MSTORE PUSH1 0x4 ADD PUSH1 0x40 MLOAD DUP1 SWAP2 SUB SWAP1 REVERT JUMPDEST DUP3 EXTCODESIZE PUSH2 0xCD JUMPI PUSH1 0x40 MLOAD PUSH4 0xB597F865 PUSH1 0xE0 SHL DUP2 MSTORE PUSH1 0x4 ADD PUSH1 0x40 MLOAD DUP1 SWAP2 SUB SWAP1 REVERT JUMPDEST PUSH2 0xD6 DUP4 PUSH2 0x20A JUMP JUMPDEST PUSH2 0xE1 DUP4 PUSH1 0x7 PUSH2 0x246 JUMP JUMPDEST PUSH1 0x0 DUP1 SLOAD PUSH2 0x100 PUSH1 0x1 PUSH1 0xA8 SHL SUB NOT AND PUSH2 0x100 PUSH1 0x1 PUSH1 0x1 PUSH1 0xA0 SHL SUB DUP6 DUP2 AND SWAP2 DUP3 MUL SWAP3 SWAP1 SWAP3 OR DUP4 SSTORE PUSH1 0x1 DUP1 SLOAD PUSH1 0x1 PUSH1 0x1 PUSH1 0xA0 SHL SUB NOT AND SWAP3 DUP6 AND SWAP3 DUP4 OR DUP2 SSTORE DUP2 DUP5 MSTORE PUSH1 0x3 PUSH1 0x20 MSTORE PUSH1 0x40 DUP1 DUP6 KECCAK256 DUP1 SLOAD PUSH1 0xFF NOT SWAP1 DUP2 AND DUP5 OR SWAP1 SWAP2 SSTORE SWAP4 DUP6 MSTORE DUP1 DUP6 KECCAK256 DUP1 SLOAD SWAP1 SWAP5 AND SWAP1 SWAP2 OR SWAP1 SWAP3 SSTORE SWAP1 MLOAD SWAP1 SWAP2 SWAP1 PUSH32 0x430359A6D97CED2B6F93C77A91E7CE9DFD43252EB91E916ADBA170485CD8A6A4 SWAP1 DUP3 SWAP1 LOG3 PUSH1 0x40 MLOAD PUSH1 0x1 PUSH1 0x1 PUSH1 0xA0 SHL SUB DUP3 AND SWAP1 PUSH1 0x0 SWAP1 PUSH32 0x75B7FE723AC984BFF13D3B320ED1A920035692E4A8E56FB2457774E7535C0D1D SWAP1 DUP3 SWAP1 LOG3 PUSH1 0x40 MLOAD PUSH1 0x1 DUP2 MSTORE PUSH1 0x1 PUSH1 0x1 PUSH1 0xA0 SHL SUB DUP4 AND SWAP1 PUSH1 0x0 DUP1 MLOAD PUSH1 0x20 PUSH2 0x212A DUP4 CODECOPY DUP2 MLOAD SWAP2 MSTORE SWAP1 PUSH1 0x20 ADD PUSH1 0x40 MLOAD DUP1 SWAP2 SUB SWAP1 LOG2 PUSH1 0x40 MLOAD PUSH1 0x1 DUP2 MSTORE PUSH1 0x1 PUSH1 0x1 PUSH1 0xA0 SHL SUB DUP3 AND SWAP1 PUSH1 0x0 DUP1 MLOAD PUSH1 0x20 PUSH2 0x212A DUP4 CODECOPY DUP2 MLOAD SWAP2 MSTORE SWAP1 PUSH1 0x20 ADD PUSH1 0x40 MLOAD DUP1 SWAP2 SUB SWAP1 LOG2 POP POP POP PUSH2 0x30E JUMP JUMPDEST PUSH1 0x1 PUSH1 0x1 PUSH1 0xA0 SHL SUB AND PUSH4 0x8B78C6D8 NOT DUP2 SWAP1 SSTORE DUP1 PUSH1 0x0 PUSH32 0x8BE0079C531659141344CD1FD0A4F28419497F9722A3DAAFE3B4186F6B6457E0 DUP2 DUP1 LOG3 POP JUMP JUMPDEST PUSH2 0x252 DUP3 DUP3 PUSH1 0x1 PUSH2 0x256 JUMP JUMPDEST POP POP JUMP JUMPDEST PUSH4 0x8B78C6D8 PUSH1 0xC MSTORE DUP3 PUSH1 0x0 MSTORE PUSH1 0x20 PUSH1 0xC KECCAK256 DUP1 SLOAD DUP4 DUP2 OR DUP4 PUSH2 0x278 JUMPI POP DUP1 DUP5 AND DUP2 XOR JUMPDEST DUP1 DUP4 SSTORE DUP1 PUSH1 0xC MLOAD PUSH1 0x60 SHR PUSH32 0x715AD5CE61FC9595C7B415289D59CF203F23A94FA06F04AF7E489A0A76E1FE26 PUSH1 0x0 DUP1 LOG3 POP POP POP POP POP POP JUMP JUMPDEST DUP1 MLOAD PUSH1 0x1 PUSH1 0x1 PUSH1 0xA0 SHL SUB DUP2 AND DUP2 EQ PUSH2 0x2C6 JUMPI PUSH1 0x0 DUP1 REVERT JUMPDEST SWAP2 SWAP1 POP JUMP JUMPDEST PUSH1 0x0 DUP1 PUSH1 0x0 PUSH1 0x60 DUP5 DUP7 SUB SLT ISZERO PUSH2 0x2E0 JUMPI PUSH1 0x0 DUP1 REVERT JUMPDEST PUSH2 0x2E9 DUP5 PUSH2 0x2AF JUMP JUMPDEST SWAP3 POP PUSH2 0x2F7 PUSH1 0x20 DUP6 ADD PUSH2 0x2AF JUMP JUMPDEST SWAP2 POP PUSH2 0x305 PUSH1 0x40 DUP6 ADD PUSH2 0x2AF JUMP JUMPDEST SWAP1 POP SWAP3 POP SWAP3 POP SWAP3 JUMP JUMPDEST PUSH2 0x1E0D DUP1 PUSH2 0x31D PUSH1 0x0 CODECOPY PUSH1 0x0 RETURN INVALID PUSH1 0x80 PUSH1 0x40 MSTORE PUSH1 0x4 CALLDATASIZE LT PUSH2 0x293 JUMPI PUSH1 0x0 CALLDATALOAD PUSH1 0xE0 SHR DUP1 PUSH4 0x6605BFDA GT PUSH2 0x15A JUMPI DUP1 PUSH4 0xAA35CCA3 GT PUSH2 0xC1 JUMPI DUP1 PUSH4 0xDD62ED3E GT PUSH2 0x7A JUMPI DUP1 PUSH4 0xDD62ED3E EQ PUSH2 0x7A8 JUMPI DUP1 PUSH4 0xE0024604 EQ PUSH2 0x7C8 JUMPI DUP1 PUSH4 0xEC2606C0 EQ PUSH2 0x7EB JUMPI DUP1 PUSH4 0xF04E283E EQ PUSH2 0x80B JUMPI DUP1 PUSH4 0xF2FDE38B EQ PUSH2 0x81E JUMPI DUP1 PUSH4 0xFEE81CF4 EQ PUSH2 0x831 JUMPI PUSH1 0x0 DUP1 REVERT JUMPDEST DUP1 PUSH4 0xAA35CCA3 EQ PUSH2 0x6E5 JUMPI DUP1 PUSH4 0xAD5DFF73 EQ PUSH2 0x705 JUMPI DUP1 PUSH4 0xADD5A4FA EQ PUSH2 0x73E JUMPI DUP1 PUSH4 0xC33CD4CB EQ PUSH2 0x75E JUMPI DUP1 PUSH4 0xCEEB69F9 EQ PUSH2 0x773 JUMPI DUP1 PUSH4 0xD505ACCF EQ PUSH2 0x788 JUMPI PUSH1 0x0 DUP1 REVERT JUMPDEST DUP1 PUSH4 0x8456CB59 GT PUSH2 0x113 JUMPI DUP1 PUSH4 0x8456CB59 EQ PUSH2 0x663 JUMPI DUP1 PUSH4 0x8DA5CB5B EQ PUSH2 0x678 JUMPI DUP1 PUSH4 0x95D89B41 EQ PUSH2 0x298 JUMPI DUP1 PUSH4 0x9A3CAC6A EQ PUSH2 0x691 JUMPI DUP1 PUSH4 0xA217FDDF EQ PUSH2 0x6B1 JUMPI DUP1 PUSH4 0xA9059CBB EQ PUSH2 0x6C5 JUMPI PUSH1 0x0 DUP1 REVERT JUMPDEST DUP1 PUSH4 0x6605BFDA EQ PUSH2 0x5A0 JUMPI DUP1 PUSH4 0x70A08231 EQ PUSH2 0x5C0 JUMPI DUP1 PUSH4 0x715018A6 EQ PUSH2 0x5F3 JUMPI DUP1 PUSH4 0x79CC6790 EQ PUSH2 0x5FB JUMPI DUP1 PUSH4 0x7A6E223C EQ PUSH2 0x61B JUMPI DUP1 PUSH4 0x7ECEBE00 EQ PUSH2 0x630 JUMPI PUSH1 0x0 DUP1 REVERT JUMPDEST DUP1 PUSH4 0x2DE94807 GT PUSH2 0x1FE JUMPI DUP1 PUSH4 0x4A4EE7B1 GT PUSH2 0x1B7 JUMPI DUP1 PUSH4 0x4A4EE7B1 EQ PUSH2 0x503 JUMPI DUP1 PUSH4 0x4C0F38C2 EQ PUSH2 0x516 JUMPI DUP1 PUSH4 0x514E62FC EQ PUSH2 0x534 JUMPI DUP1 PUSH4 0x54D1F13D EQ PUSH2 0x56B JUMPI DUP1 PUSH4 0x5C975ABB EQ PUSH2 0x573 JUMPI DUP1 PUSH4 0x5FD6A41B EQ PUSH2 0x58B JUMPI PUSH1 0x0 DUP1 REVERT JUMPDEST DUP1 PUSH4 0x2DE94807 EQ PUSH2 0x44A JUMPI DUP1 PUSH4 0x313CE567 EQ PUSH2 0x47D JUMPI DUP1 PUSH4 0x3644E515 EQ PUSH2 0x499 JUMPI DUP1 PUSH4 0x3EA6E071 EQ PUSH2 0x4AE JUMPI DUP1 PUSH4 0x3F4BA83A EQ PUSH2 0x4CE JUMPI DUP1 PUSH4 0x42966C68 EQ PUSH2 0x4E3 JUMPI PUSH1 0x0 DUP1 REVERT JUMPDEST DUP1 PUSH4 0x1C10893F GT PUSH2 0x250 JUMPI DUP1 PUSH4 0x1C10893F EQ PUSH2 0x36F JUMPI DUP1 PUSH4 0x1CD64DF4 EQ PUSH2 0x382 JUMPI DUP1 PUSH4 0x1D68702D EQ PUSH2 0x3B9 JUMPI DUP1 PUSH4 0x213AB527 EQ PUSH2 0x3EB JUMPI DUP1 PUSH4 0x23B872DD EQ PUSH2 0x422 JUMPI DUP1 PUSH4 0x25692962 EQ PUSH2 0x442 JUMPI PUSH1 0x0 DUP1 REVERT JUMPDEST DUP1 PUSH4 0x6FDDE03 EQ PUSH2 0x298 JUMPI DUP1 PUSH4 0x95EA7B3 EQ PUSH2 0x2C3 JUMPI DUP1 PUSH4 0x1051A512 EQ PUSH2 0x2F3 JUMPI DUP1 PUSH4 0x14866AEF EQ PUSH2 0x315 JUMPI DUP1 PUSH4 0x18160DDD EQ PUSH2 0x335 JUMPI DUP1 PUSH4 0x183A4F6E EQ PUSH2 0x35C JUMPI JUMPDEST PUSH1 0x0 DUP1 REVERT JUMPDEST CALLVALUE DUP1 ISZERO PUSH2 0x2A4 JUMPI PUSH1 0x0 DUP1 REVERT JUMPDEST POP PUSH2 0x2AD PUSH2 0x864 JUMP JUMPDEST PUSH1 0x40 MLOAD PUSH2 0x2BA SWAP2 SWAP1 PUSH2 0x1B16 JUMP JUMPDEST PUSH1 0x40 MLOAD DUP1 SWAP2 SUB SWAP1 RETURN JUMPDEST CALLVALUE DUP1 ISZERO PUSH2 0x2CF JUMPI PUSH1 0x0 DUP1 REVERT JUMPDEST POP PUSH2 0x2E3 PUSH2 0x2DE CALLDATASIZE PUSH1 0x4 PUSH2 0x1B80 JUMP JUMPDEST PUSH2 0x882 JUMP JUMPDEST PUSH1 0x40 MLOAD SWAP1 ISZERO ISZERO DUP2 MSTORE PUSH1 0x20 ADD PUSH2 0x2BA JUMP JUMPDEST CALLVALUE DUP1 ISZERO PUSH2 0x2FF JUMPI PUSH1 0x0 DUP1 REVERT JUMPDEST POP PUSH2 0x313 PUSH2 0x30E CALLDATASIZE PUSH1 0x4 PUSH2 0x1BAA JUMP JUMPDEST PUSH2 0x907 JUMP JUMPDEST STOP JUMPDEST CALLVALUE DUP1 ISZERO PUSH2 0x321 JUMPI PUSH1 0x0 DUP1 REVERT JUMPDEST POP PUSH2 0x313 PUSH2 0x330 CALLDATASIZE PUSH1 0x4 PUSH2 0x1B80 JUMP JUMPDEST PUSH2 0xA33 JUMP JUMPDEST CALLVALUE DUP1 ISZERO PUSH2 0x341 JUMPI PUSH1 0x0 DUP1 REVERT JUMPDEST POP PUSH9 0x5345CDF77EB68F44C SLOAD JUMPDEST PUSH1 0x40 MLOAD SWAP1 DUP2 MSTORE PUSH1 0x20 ADD PUSH2 0x2BA JUMP JUMPDEST PUSH2 0x313 PUSH2 0x36A CALLDATASIZE PUSH1 0x4 PUSH2 0x1BCC JUMP JUMPDEST PUSH2 0xB41 JUMP JUMPDEST PUSH2 0x313 PUSH2 0x37D CALLDATASIZE PUSH1 0x4 PUSH2 0x1B80 JUMP JUMPDEST PUSH2 0xB4E JUMP JUMPDEST CALLVALUE DUP1 ISZERO PUSH2 0x38E JUMPI PUSH1 0x0 DUP1 REVERT JUMPDEST POP PUSH2 0x2E3 PUSH2 0x39D CALLDATASIZE PUSH1 0x4 PUSH2 0x1B80 JUMP JUMPDEST PUSH4 0x8B78C6D8 PUSH1 0xC SWAP1 DUP2 MSTORE PUSH1 0x0 SWAP3 SWAP1 SWAP3 MSTORE PUSH1 0x20 SWAP1 SWAP2 KECCAK256 SLOAD DUP2 AND EQ SWAP1 JUMP JUMPDEST CALLVALUE DUP1 ISZERO PUSH2 0x3C5 JUMPI PUSH1 0x0 DUP1 REVERT JUMPDEST POP PUSH1 0x1 SLOAD PUSH1 0x1 PUSH1 0x1 PUSH1 0xA0 SHL SUB AND JUMPDEST PUSH1 0x40 MLOAD PUSH1 0x1 PUSH1 0x1 PUSH1 0xA0 SHL SUB SWAP1 SWAP2 AND DUP2 MSTORE PUSH1 0x20 ADD PUSH2 0x2BA JUMP JUMPDEST CALLVALUE DUP1 ISZERO PUSH2 0x3F7 JUMPI PUSH1 0x0 DUP1 REVERT JUMPDEST POP PUSH2 0x400 PUSH2 0xB9C JUMP JUMPDEST PUSH1 0x40 DUP1 MLOAD DUP3 MLOAD DUP2 MSTORE PUSH1 0x20 DUP1 DUP5 ADD MLOAD SWAP1 DUP3 ADD MSTORE SWAP2 DUP2 ADD MLOAD SWAP1 DUP3 ADD MSTORE PUSH1 0x60 ADD PUSH2 0x2BA JUMP JUMPDEST CALLVALUE DUP1 ISZERO PUSH2 0x42E JUMPI PUSH1 0x0 DUP1 REVERT JUMPDEST POP PUSH2 0x2E3 PUSH2 0x43D CALLDATASIZE PUSH1 0x4 PUSH2 0x1BE5 JUMP JUMPDEST PUSH2 0xBE5 JUMP JUMPDEST PUSH2 0x313 PUSH2 0xC0F JUMP JUMPDEST CALLVALUE DUP1 ISZERO PUSH2 0x456 JUMPI PUSH1 0x0 DUP1 REVERT JUMPDEST POP PUSH2 0x34E PUSH2 0x465 CALLDATASIZE PUSH1 0x4 PUSH2 0x1C22 JUMP JUMPDEST PUSH4 0x8B78C6D8 PUSH1 0xC SWAP1 DUP2 MSTORE PUSH1 0x0 SWAP2 SWAP1 SWAP2 MSTORE PUSH1 0x20 SWAP1 KECCAK256 SLOAD SWAP1 JUMP JUMPDEST CALLVALUE DUP1 ISZERO PUSH2 0x489 JUMPI PUSH1 0x0 DUP1 REVERT JUMPDEST POP PUSH1 0x40 MLOAD PUSH1 0x12 DUP2 MSTORE PUSH1 0x20 ADD PUSH2 0x2BA JUMP JUMPDEST CALLVALUE DUP1 ISZERO PUSH2 0x4A5 JUMPI PUSH1 0x0 DUP1 REVERT JUMPDEST POP PUSH2 0x34E PUSH2 0xC5F JUMP JUMPDEST CALLVALUE DUP1 ISZERO PUSH2 0x4BA JUMPI PUSH1 0x0 DUP1 REVERT JUMPDEST POP PUSH2 0x313 PUSH2 0x4C9 CALLDATASIZE PUSH1 0x4 PUSH2 0x1C3D JUMP JUMPDEST PUSH2 0xCDC JUMP JUMPDEST CALLVALUE DUP1 ISZERO PUSH2 0x4DA JUMPI PUSH1 0x0 DUP1 REVERT JUMPDEST POP PUSH2 0x313 PUSH2 0xD5B JUMP JUMPDEST CALLVALUE DUP1 ISZERO PUSH2 0x4EF JUMPI PUSH1 0x0 DUP1 REVERT JUMPDEST POP PUSH2 0x313 PUSH2 0x4FE CALLDATASIZE PUSH1 0x4 PUSH2 0x1BCC JUMP JUMPDEST PUSH2 0xD6D JUMP JUMPDEST PUSH2 0x313 PUSH2 0x511 CALLDATASIZE PUSH1 0x4 PUSH2 0x1B80 JUMP JUMPDEST PUSH2 0xD77 JUMP JUMPDEST CALLVALUE DUP1 ISZERO PUSH2 0x522 JUMPI PUSH1 0x0 DUP1 REVERT JUMPDEST POP PUSH11 0x52B7D2DCC80CD2E4000000 PUSH2 0x34E JUMP JUMPDEST CALLVALUE DUP1 ISZERO PUSH2 0x540 JUMPI PUSH1 0x0 DUP1 REVERT JUMPDEST POP PUSH2 0x2E3 PUSH2 0x54F CALLDATASIZE PUSH1 0x4 PUSH2 0x1B80 JUMP JUMPDEST PUSH4 0x8B78C6D8 PUSH1 0xC SWAP1 DUP2 MSTORE PUSH1 0x0 SWAP3 SWAP1 SWAP3 MSTORE PUSH1 0x20 SWAP1 SWAP2 KECCAK256 SLOAD AND ISZERO ISZERO SWAP1 JUMP JUMPDEST PUSH2 0x313 PUSH2 0xDC5 JUMP JUMPDEST CALLVALUE DUP1 ISZERO PUSH2 0x57F JUMPI PUSH1 0x0 DUP1 REVERT JUMPDEST POP PUSH1 0x0 SLOAD PUSH1 0xFF AND PUSH2 0x2E3 JUMP JUMPDEST CALLVALUE DUP1 ISZERO PUSH2 0x597 JUMPI PUSH1 0x0 DUP1 REVERT JUMPDEST POP PUSH2 0x34E PUSH1 0x4 DUP2 JUMP JUMPDEST CALLVALUE DUP1 ISZERO PUSH2 0x5AC JUMPI PUSH1 0x0 DUP1 REVERT JUMPDEST POP PUSH2 0x313 PUSH2 0x5BB CALLDATASIZE PUSH1 0x4 PUSH2 0x1C22 JUMP JUMPDEST PUSH2 0xE01 JUMP JUMPDEST CALLVALUE DUP1 ISZERO PUSH2 0x5CC JUMPI PUSH1 0x0 DUP1 REVERT JUMPDEST POP PUSH2 0x34E PUSH2 0x5DB CALLDATASIZE PUSH1 0x4 PUSH2 0x1C22 JUMP JUMPDEST PUSH4 0x87A211A2 PUSH1 0xC SWAP1 DUP2 MSTORE PUSH1 0x0 SWAP2 SWAP1 SWAP2 MSTORE PUSH1 0x20 SWAP1 KECCAK256 SLOAD SWAP1 JUMP JUMPDEST PUSH2 0x313 PUSH2 0xF02 JUMP JUMPDEST CALLVALUE DUP1 ISZERO PUSH2 0x607 JUMPI PUSH1 0x0 DUP1 REVERT JUMPDEST POP PUSH2 0x313 PUSH2 0x616 CALLDATASIZE PUSH1 0x4 PUSH2 0x1B80 JUMP JUMPDEST PUSH2 0xF57 JUMP JUMPDEST CALLVALUE DUP1 ISZERO PUSH2 0x627 JUMPI PUSH1 0x0 DUP1 REVERT JUMPDEST POP PUSH2 0x34E PUSH1 0x1 DUP2 JUMP JUMPDEST CALLVALUE DUP1 ISZERO PUSH2 0x63C JUMPI PUSH1 0x0 DUP1 REVERT JUMPDEST POP PUSH2 0x34E PUSH2 0x64B CALLDATASIZE PUSH1 0x4 PUSH2 0x1C22 JUMP JUMPDEST PUSH4 0x38377508 PUSH1 0xC SWAP1 DUP2 MSTORE PUSH1 0x0 SWAP2 SWAP1 SWAP2 MSTORE PUSH1 0x20 SWAP1 KECCAK256 SLOAD SWAP1 JUMP JUMPDEST CALLVALUE DUP1 ISZERO PUSH2 0x66F JUMPI PUSH1 0x0 DUP1 REVERT JUMPDEST POP PUSH2 0x313 PUSH2 0xF70 JUMP JUMPDEST CALLVALUE DUP1 ISZERO PUSH2 0x684 JUMPI PUSH1 0x0 DUP1 REVERT JUMPDEST POP PUSH4 0x8B78C6D8 NOT SLOAD PUSH2 0x3D3 JUMP JUMPDEST CALLVALUE DUP1 ISZERO PUSH2 0x69D JUMPI PUSH1 0x0 DUP1 REVERT JUMPDEST POP PUSH2 0x313 PUSH2 0x6AC CALLDATASIZE PUSH1 0x4 PUSH2 0x1C22 JUMP JUMPDEST PUSH2 0xF80 JUMP JUMPDEST CALLVALUE DUP1 ISZERO PUSH2 0x6BD JUMPI PUSH1 0x0 DUP1 REVERT JUMPDEST POP PUSH1 0x0 PUSH2 0x34E JUMP JUMPDEST CALLVALUE DUP1 ISZERO PUSH2 0x6D1 JUMPI PUSH1 0x0 DUP1 REVERT JUMPDEST POP PUSH2 0x2E3 PUSH2 0x6E0 CALLDATASIZE PUSH1 0x4 PUSH2 0x1B80 JUMP JUMPDEST PUSH2 0x104F JUMP JUMPDEST CALLVALUE DUP1 ISZERO PUSH2 0x6F1 JUMPI PUSH1 0x0 DUP1 REVERT JUMPDEST POP PUSH2 0x313 PUSH2 0x700 CALLDATASIZE PUSH1 0x4 PUSH2 0x1B80 JUMP JUMPDEST PUSH2 0x106D JUMP JUMPDEST CALLVALUE DUP1 ISZERO PUSH2 0x711 JUMPI PUSH1 0x0 DUP1 REVERT JUMPDEST POP PUSH2 0x2E3 PUSH2 0x720 CALLDATASIZE PUSH1 0x4 PUSH2 0x1C22 JUMP JUMPDEST PUSH1 0x1 PUSH1 0x1 PUSH1 0xA0 SHL SUB AND PUSH1 0x0 SWAP1 DUP2 MSTORE PUSH1 0x3 PUSH1 0x20 MSTORE PUSH1 0x40 SWAP1 KECCAK256 SLOAD PUSH1 0xFF AND SWAP1 JUMP JUMPDEST CALLVALUE DUP1 ISZERO PUSH2 0x74A JUMPI PUSH1 0x0 DUP1 REVERT JUMPDEST POP PUSH2 0x313 PUSH2 0x759 CALLDATASIZE PUSH1 0x4 PUSH2 0x1B80 JUMP JUMPDEST PUSH2 0x116C JUMP JUMPDEST CALLVALUE DUP1 ISZERO PUSH2 0x76A JUMPI PUSH1 0x0 DUP1 REVERT JUMPDEST POP PUSH2 0x2E3 PUSH2 0x126B JUMP JUMPDEST CALLVALUE DUP1 ISZERO PUSH2 0x77F JUMPI PUSH1 0x0 DUP1 REVERT JUMPDEST POP PUSH2 0x34E PUSH1 0x2 DUP2 JUMP JUMPDEST CALLVALUE DUP1 ISZERO PUSH2 0x794 JUMPI PUSH1 0x0 DUP1 REVERT JUMPDEST POP PUSH2 0x313 PUSH2 0x7A3 CALLDATASIZE PUSH1 0x4 PUSH2 0x1C79 JUMP JUMPDEST PUSH2 0x1288 JUMP JUMPDEST CALLVALUE DUP1 ISZERO PUSH2 0x7B4 JUMPI PUSH1 0x0 DUP1 REVERT JUMPDEST POP PUSH2 0x34E PUSH2 0x7C3 CALLDATASIZE PUSH1 0x4 PUSH2 0x1CEC JUMP JUMPDEST PUSH2 0x1444 JUMP JUMPDEST CALLVALUE DUP1 ISZERO PUSH2 0x7D4 JUMPI PUSH1 0x0 DUP1 REVERT JUMPDEST POP PUSH1 0x0 SLOAD PUSH2 0x100 SWAP1 DIV PUSH1 0x1 PUSH1 0x1 PUSH1 0xA0 SHL SUB AND PUSH2 0x3D3 JUMP JUMPDEST CALLVALUE DUP1 ISZERO PUSH2 0x7F7 JUMPI PUSH1 0x0 DUP1 REVERT JUMPDEST POP PUSH2 0x2E3 PUSH2 0x806 CALLDATASIZE PUSH1 0x4 PUSH2 0x1D1F JUMP JUMPDEST PUSH2 0x148B JUMP JUMPDEST PUSH2 0x313 PUSH2 0x819 CALLDATASIZE PUSH1 0x4 PUSH2 0x1C22 JUMP JUMPDEST PUSH2 0x14AC JUMP JUMPDEST PUSH2 0x313 PUSH2 0x82C CALLDATASIZE PUSH1 0x4 PUSH2 0x1C22 JUMP JUMPDEST PUSH2 0x14DC JUMP JUMPDEST CALLVALUE DUP1 ISZERO PUSH2 0x83D JUMPI PUSH1 0x0 DUP1 REVERT JUMPDEST POP PUSH2 0x34E PUSH2 0x84C CALLDATASIZE PUSH1 0x4 PUSH2 0x1C22 JUMP JUMPDEST PUSH4 0x389A75E1 PUSH1 0xC SWAP1 DUP2 MSTORE PUSH1 0x0 SWAP2 SWAP1 SWAP2 MSTORE PUSH1 0x20 SWAP1 KECCAK256 SLOAD SWAP1 JUMP JUMPDEST PUSH1 0x40 DUP1 MLOAD DUP1 DUP3 ADD SWAP1 SWAP2 MSTORE PUSH1 0x4 DUP2 MSTORE PUSH4 0x43415059 PUSH1 0xE0 SHL PUSH1 0x20 DUP3 ADD MSTORE SWAP1 JUMP JUMPDEST PUSH1 0x0 PUSH1 0x1 PUSH1 0x1 PUSH1 0xA0 SHL SUB DUP4 AND PUSH15 0x22D473030F116DDEE9F6B43AC78BA3 XOR DUP3 NOT ISZERO OR PUSH2 0x8B5 JUMPI PUSH4 0x3F68539A PUSH1 0x0 MSTORE PUSH1 0x4 PUSH1 0x1C REVERT JUMPDEST DUP3 PUSH1 0x20 MSTORE PUSH4 0x7F5E9F20 PUSH1 0xC MSTORE CALLER PUSH1 0x0 MSTORE DUP2 PUSH1 0x34 PUSH1 0xC KECCAK256 SSTORE DUP2 PUSH1 0x0 MSTORE PUSH1 0x2C MLOAD PUSH1 0x60 SHR CALLER PUSH32 0x8C5BE1E5EBEC7D5BD14F71427D1E84F3DD0314C0F7B2291E5B200AC8C7C3B925 PUSH1 0x20 PUSH1 0x0 LOG3 POP PUSH1 0x1 JUMPDEST SWAP3 SWAP2 POP POP JUMP JUMPDEST PUSH2 0x90F PUSH2 0x150C JUMP JUMPDEST PUSH2 0x917 PUSH2 0x1527 JUMP JUMPDEST PUSH1 0x0 DUP3 GT PUSH2 0x938 JUMPI PUSH1 0x40 MLOAD PUSH4 0xA34477B5 PUSH1 0xE0 SHL DUP2 MSTORE PUSH1 0x4 ADD PUSH1 0x40 MLOAD DUP1 SWAP2 SUB SWAP1 REVERT JUMPDEST PUSH1 0x0 DUP2 GT PUSH2 0x959 JUMPI PUSH1 0x40 MLOAD PUSH4 0x4AD34ED1 PUSH1 0xE0 SHL DUP2 MSTORE PUSH1 0x4 ADD PUSH1 0x40 MLOAD DUP1 SWAP2 SUB SWAP1 REVERT JUMPDEST PUSH1 0x0 PUSH2 0x965 DUP3 DUP5 PUSH2 0x1D58 JUMP JUMPDEST SWAP1 POP PUSH1 0x0 DUP2 GT PUSH2 0x988 JUMPI PUSH1 0x40 MLOAD PUSH4 0x162908E3 PUSH1 0xE1 SHL DUP2 MSTORE PUSH1 0x4 ADD PUSH1 0x40 MLOAD DUP1 SWAP2 SUB SWAP1 REVERT JUMPDEST PUSH11 0x52B7D2DCC80CD2E4000000 DUP2 PUSH1 0x2 SLOAD PUSH2 0x9A2 SWAP2 SWAP1 PUSH2 0x1D7A JUMP JUMPDEST GT ISZERO PUSH2 0x9C1 JUMPI PUSH1 0x40 MLOAD PUSH4 0x8A164F63 PUSH1 0xE0 SHL DUP2 MSTORE PUSH1 0x4 ADD PUSH1 0x40 MLOAD DUP1 SWAP2 SUB SWAP1 REVERT JUMPDEST DUP1 PUSH1 0x2 SLOAD PUSH2 0x9CF SWAP2 SWAP1 PUSH2 0x1D7A JUMP JUMPDEST PUSH1 0x2 SSTORE PUSH1 0x0 SLOAD PUSH2 0x9ED SWAP1 PUSH2 0x100 SWAP1 DIV PUSH1 0x1 PUSH1 0x1 PUSH1 0xA0 SHL SUB AND DUP3 PUSH2 0x156D JUMP JUMPDEST PUSH1 0x40 DUP1 MLOAD DUP5 DUP2 MSTORE PUSH1 0x20 DUP2 ADD DUP5 SWAP1 MSTORE SWAP1 DUP2 ADD DUP3 SWAP1 MSTORE PUSH32 0xA2873C389C7FAF6DC0B7D62BB1E3F2A07E31219D74AB22A42C3278EE693734EE SWAP1 PUSH1 0x60 ADD PUSH1 0x40 MLOAD DUP1 SWAP2 SUB SWAP1 LOG1 POP POP POP JUMP JUMPDEST PUSH1 0x4 PUSH2 0xA3E DUP2 PUSH2 0x15EC JUMP JUMPDEST PUSH2 0xA46 PUSH2 0x1527 JUMP JUMPDEST DUP3 PUSH1 0x1 PUSH1 0x1 PUSH1 0xA0 SHL SUB DUP2 AND PUSH2 0xA6E JUMPI PUSH1 0x40 MLOAD PUSH4 0xD92E233D PUSH1 0xE0 SHL DUP2 MSTORE PUSH1 0x4 ADD PUSH1 0x40 MLOAD DUP1 SWAP2 SUB SWAP1 REVERT JUMPDEST DUP3 PUSH1 0x0 DUP2 GT PUSH2 0xA90 JUMPI PUSH1 0x40 MLOAD PUSH4 0x162908E3 PUSH1 0xE1 SHL DUP2 MSTORE PUSH1 0x4 ADD PUSH1 0x40 MLOAD DUP1 SWAP2 SUB SWAP1 REVERT JUMPDEST PUSH11 0x52B7D2DCC80CD2E4000000 DUP5 PUSH1 0x2 SLOAD PUSH2 0xAAA SWAP2 SWAP1 PUSH2 0x1D7A JUMP JUMPDEST GT ISZERO PUSH2 0xAC9 JUMPI PUSH1 0x40 MLOAD PUSH4 0x8A164F63 PUSH1 0xE0 SHL DUP2 MSTORE PUSH1 0x4 ADD PUSH1 0x40 MLOAD DUP1 SWAP2 SUB SWAP1 REVERT JUMPDEST DUP4 PUSH1 0x2 SLOAD PUSH2 0xAD7 SWAP2 SWAP1 PUSH2 0x1D7A JUMP JUMPDEST PUSH1 0x2 SSTORE PUSH1 0x6 SLOAD PUSH2 0xAE8 SWAP1 DUP6 SWAP1 PUSH2 0x1D7A JUMP JUMPDEST PUSH1 0x6 SSTORE PUSH2 0xAF5 DUP6 DUP6 PUSH2 0x156D JUMP JUMPDEST PUSH1 0x4 DUP6 PUSH1 0x1 PUSH1 0x1 PUSH1 0xA0 SHL SUB AND PUSH32 0x4C209B5FC8AD50758F13E2E1088BA56A560DFF690A1C6FEF26394F4C03821C4F DUP7 PUSH1 0x40 MLOAD PUSH2 0xB32 SWAP2 DUP2 MSTORE PUSH1 0x20 ADD SWAP1 JUMP JUMPDEST PUSH1 0x40 MLOAD DUP1 SWAP2 SUB SWAP1 LOG3 POP POP POP POP POP JUMP JUMPDEST PUSH2 0xB4B CALLER DUP3 PUSH2 0x1612 JUMP JUMPDEST POP JUMP JUMPDEST PUSH2 0xB56 PUSH2 0x150C JUMP JUMPDEST PUSH2 0xB60 DUP3 DUP3 PUSH2 0x161E JUMP JUMPDEST PUSH1 0x40 MLOAD CALLER SWAP1 PUSH1 0x1 PUSH1 0x1 PUSH1 0xA0 SHL SUB DUP5 AND SWAP1 DUP4 SWAP1 PUSH32 0x1EC1667FBA5E43C5C76FFF54E76D7A4A20A4FECF7B49724AD8D52A3F726E9DBD SWAP1 PUSH1 0x0 SWAP1 LOG4 POP POP JUMP JUMPDEST PUSH2 0xBC0 PUSH1 0x40 MLOAD DUP1 PUSH1 0x60 ADD PUSH1 0x40 MSTORE DUP1 PUSH1 0x0 DUP2 MSTORE PUSH1 0x20 ADD PUSH1 0x0 DUP2 MSTORE PUSH1 0x20 ADD PUSH1 0x0 DUP2 MSTORE POP SWAP1 JUMP JUMPDEST POP PUSH1 0x40 DUP1 MLOAD PUSH1 0x60 DUP2 ADD DUP3 MSTORE PUSH1 0x4 SLOAD DUP2 MSTORE PUSH1 0x5 SLOAD PUSH1 0x20 DUP3 ADD MSTORE PUSH1 0x6 SLOAD SWAP2 DUP2 ADD SWAP2 SWAP1 SWAP2 MSTORE SWAP1 JUMP JUMPDEST PUSH1 0x0 PUSH2 0xBEF PUSH2 0x1527 JUMP JUMPDEST PUSH2 0xBFA DUP5 CALLER DUP5 PUSH2 0x1630 JUMP JUMPDEST PUSH2 0xC05 DUP5 DUP5 DUP5 PUSH2 0x1696 JUMP JUMPDEST POP PUSH1 0x1 SWAP4 SWAP3 POP POP POP JUMP JUMPDEST PUSH1 0x0 PUSH3 0x2A300 PUSH8 0xFFFFFFFFFFFFFFFF AND TIMESTAMP ADD SWAP1 POP PUSH4 0x389A75E1 PUSH1 0xC MSTORE CALLER PUSH1 0x0 MSTORE DUP1 PUSH1 0x20 PUSH1 0xC KECCAK256 SSTORE CALLER PUSH32 0xDBF36A107DA19E49527A7176A1BABF963B4B0FF8CDE35EE35D6CD8F1F9AC7E1D PUSH1 0x0 DUP1 LOG2 POP JUMP JUMPDEST PUSH1 0x0 DUP1 PUSH2 0xC6A PUSH2 0x864 JUMP JUMPDEST DUP1 MLOAD SWAP1 PUSH1 0x20 ADD KECCAK256 SWAP1 POP PUSH1 0x40 DUP1 MLOAD PUSH32 0x8B73C3C69BB8FE3D512ECC4CF759CC79239F7B179B0FFACAA9A75D522B39400F DUP2 MSTORE PUSH1 0x20 DUP2 ADD SWAP3 SWAP1 SWAP3 MSTORE PUSH32 0xC89EFDAA54C0F20C7ADF612882DF0950F5A951637E0307CDCB4C672F298B8BC6 SWAP1 DUP3 ADD MSTORE CHAINID PUSH1 0x60 DUP3 ADD MSTORE ADDRESS PUSH1 0x80 DUP3 ADD MSTORE PUSH1 0xA0 SWAP1 KECCAK256 SWAP2 SWAP1 POP JUMP JUMPDEST PUSH2 0xCE4 PUSH2 0x150C JUMP JUMPDEST DUP2 PUSH1 0x1 PUSH1 0x1 PUSH1 0xA0 SHL SUB DUP2 AND PUSH2 0xD0C JUMPI PUSH1 0x40 MLOAD PUSH4 0xD92E233D PUSH1 0xE0 SHL DUP2 MSTORE PUSH1 0x4 ADD PUSH1 0x40 MLOAD DUP1 SWAP2 SUB SWAP1 REVERT JUMPDEST PUSH1 0x1 PUSH1 0x1 PUSH1 0xA0 SHL SUB DUP4 AND PUSH1 0x0 DUP2 DUP2 MSTORE PUSH1 0x3 PUSH1 0x20 SWAP1 DUP2 MSTORE PUSH1 0x40 SWAP2 DUP3 SWAP1 KECCAK256 DUP1 SLOAD PUSH1 0xFF NOT AND DUP7 ISZERO ISZERO SWAP1 DUP2 OR SWAP1 SWAP2 SSTORE SWAP2 MLOAD SWAP2 DUP3 MSTORE PUSH1 0x0 DUP1 MLOAD PUSH1 0x20 PUSH2 0x1DB8 DUP4 CODECOPY DUP2 MLOAD SWAP2 MSTORE SWAP2 ADD JUMPDEST PUSH1 0x40 MLOAD DUP1 SWAP2 SUB SWAP1 LOG2 POP POP POP JUMP JUMPDEST PUSH2 0xD63 PUSH2 0x150C JUMP JUMPDEST PUSH2 0xD6B PUSH2 0x1833 JUMP JUMPDEST JUMP JUMPDEST PUSH2 0xB4B CALLER DUP3 PUSH2 0x1885 JUMP JUMPDEST PUSH2 0xD7F PUSH2 0x150C JUMP JUMPDEST PUSH2 0xD89 DUP3 DUP3 PUSH2 0x18FC JUMP JUMPDEST PUSH1 0x40 MLOAD CALLER SWAP1 PUSH1 0x1 PUSH1 0x1 PUSH1 0xA0 SHL SUB DUP5 AND SWAP1 DUP4 SWAP1 PUSH32 0xE0DF21B65C73C27081B8F042A012B124085B41D78D27B7E3C4780F5650F5EBB8 SWAP1 PUSH1 0x0 SWAP1 LOG4 POP POP JUMP JUMPDEST PUSH4 0x389A75E1 PUSH1 0xC MSTORE CALLER PUSH1 0x0 MSTORE PUSH1 0x0 PUSH1 0x20 PUSH1 0xC KECCAK256 SSTORE CALLER PUSH32 0xFA7B8EAB7DA67F412CC9575ED43464468F9BFBAE89D1675917346CA6D8FE3C92 PUSH1 0x0 DUP1 LOG2 JUMP JUMPDEST PUSH2 0xE09 PUSH2 0x150C JUMP JUMPDEST DUP1 PUSH1 0x1 PUSH1 0x1 PUSH1 0xA0 SHL SUB DUP2 AND PUSH2 0xE31 JUMPI PUSH1 0x40 MLOAD PUSH4 0xD92E233D PUSH1 0xE0 SHL DUP2 MSTORE PUSH1 0x4 ADD PUSH1 0x40 MLOAD DUP1 SWAP2 SUB SWAP1 REVERT JUMPDEST PUSH1 0x0 DUP1 SLOAD PUSH1 0x1 PUSH1 0x1 PUSH1 0xA0 SHL SUB DUP5 DUP2 AND PUSH2 0x100 DUP2 DUP2 MUL PUSH2 0x100 PUSH1 0x1 PUSH1 0xA8 SHL SUB NOT DUP6 AND OR DUP6 SSTORE SWAP1 SWAP3 DIV AND DUP1 DUP4 MSTORE PUSH1 0x3 PUSH1 0x20 MSTORE PUSH1 0x40 DUP1 DUP5 KECCAK256 DUP1 SLOAD PUSH1 0xFF NOT SWAP1 DUP2 AND SWAP1 SWAP2 SSTORE DUP4 DUP6 MSTORE DUP2 DUP6 KECCAK256 DUP1 SLOAD SWAP1 SWAP2 AND PUSH1 0x1 OR SWAP1 SSTORE MLOAD SWAP1 SWAP3 DUP4 SWAP2 PUSH32 0x430359A6D97CED2B6F93C77A91E7CE9DFD43252EB91E916ADBA170485CD8A6A4 SWAP2 SWAP1 LOG3 PUSH1 0x40 MLOAD PUSH1 0x0 DUP2 MSTORE PUSH1 0x1 PUSH1 0x1 PUSH1 0xA0 SHL SUB DUP3 AND SWAP1 PUSH1 0x0 DUP1 MLOAD PUSH1 0x20 PUSH2 0x1DB8 DUP4 CODECOPY DUP2 MLOAD SWAP2 MSTORE SWAP1 PUSH1 0x20 ADD JUMPDEST PUSH1 0x40 MLOAD DUP1 SWAP2 SUB SWAP1 LOG2 PUSH1 0x40 MLOAD PUSH1 0x1 DUP2 MSTORE PUSH1 0x1 PUSH1 0x1 PUSH1 0xA0 SHL SUB DUP5 AND SWAP1 PUSH1 0x0 DUP1 MLOAD PUSH1 0x20 PUSH2 0x1DB8 DUP4 CODECOPY DUP2 MLOAD SWAP2 MSTORE SWAP1 PUSH1 0x20 ADD PUSH2 0xD4E JUMP JUMPDEST PUSH2 0xF0A PUSH2 0x150C JUMP JUMPDEST PUSH1 0x40 MLOAD PUSH3 0x461BCD PUSH1 0xE5 SHL DUP2 MSTORE PUSH1 0x20 PUSH1 0x4 DUP3 ADD MSTORE PUSH1 0x1D PUSH1 0x24 DUP3 ADD MSTORE PUSH32 0x4F776E6572736869702063616E6E6F742062652072656E6F756E636564000000 PUSH1 0x44 DUP3 ADD MSTORE PUSH1 0x64 ADD JUMPDEST PUSH1 0x40 MLOAD DUP1 SWAP2 SUB SWAP1 REVERT JUMPDEST PUSH2 0xF62 DUP3 CALLER DUP4 PUSH2 0x1630 JUMP JUMPDEST PUSH2 0xF6C DUP3 DUP3 PUSH2 0x1885 JUMP JUMPDEST POP POP JUMP JUMPDEST PUSH2 0xF78 PUSH2 0x150C JUMP JUMPDEST PUSH2 0xD6B PUSH2 0x190E JUMP JUMPDEST PUSH2 0xF88 PUSH2 0x150C JUMP JUMPDEST DUP1 PUSH1 0x1 PUSH1 0x1 PUSH1 0xA0 SHL SUB DUP2 AND PUSH2 0xFB0 JUMPI PUSH1 0x40 MLOAD PUSH4 0xD92E233D PUSH1 0xE0 SHL DUP2 MSTORE PUSH1 0x4 ADD PUSH1 0x40 MLOAD DUP1 SWAP2 SUB SWAP1 REVERT JUMPDEST PUSH1 0x1 DUP1 SLOAD PUSH1 0x1 PUSH1 0x1 PUSH1 0xA0 SHL SUB DUP5 DUP2 AND PUSH1 0x1 PUSH1 0x1 PUSH1 0xA0 SHL SUB NOT DUP4 AND DUP2 OR DUP5 SSTORE SWAP2 AND PUSH1 0x0 DUP2 DUP2 MSTORE PUSH1 0x3 PUSH1 0x20 MSTORE PUSH1 0x40 DUP1 DUP3 KECCAK256 DUP1 SLOAD PUSH1 0xFF NOT SWAP1 DUP2 AND SWAP1 SWAP2 SSTORE DUP5 DUP4 MSTORE DUP2 DUP4 KECCAK256 DUP1 SLOAD SWAP1 SWAP2 AND SWAP1 SWAP6 OR SWAP1 SWAP5 SSTORE SWAP3 MLOAD SWAP1 SWAP3 DUP4 SWAP2 PUSH32 0x75B7FE723AC984BFF13D3B320ED1A920035692E4A8E56FB2457774E7535C0D1D SWAP2 SWAP1 LOG3 PUSH1 0x40 MLOAD PUSH1 0x0 DUP2 MSTORE PUSH1 0x1 PUSH1 0x1 PUSH1 0xA0 SHL SUB DUP3 AND SWAP1 PUSH1 0x0 DUP1 MLOAD PUSH1 0x20 PUSH2 0x1DB8 DUP4 CODECOPY DUP2 MLOAD SWAP2 MSTORE SWAP1 PUSH1 0x20 ADD PUSH2 0xED0 JUMP JUMPDEST PUSH1 0x0 PUSH2 0x1059 PUSH2 0x1527 JUMP JUMPDEST PUSH2 0x1064 CALLER DUP5 DUP5 PUSH2 0x1696 JUMP JUMPDEST POP PUSH1 0x1 SWAP3 SWAP2 POP POP JUMP JUMPDEST PUSH1 0x2 PUSH2 0x1078 DUP2 PUSH2 0x15EC JUMP JUMPDEST PUSH2 0x1080 PUSH2 0x1527 JUMP JUMPDEST DUP3 PUSH1 0x1 PUSH1 0x1 PUSH1 0xA0 SHL SUB DUP2 AND PUSH2 0x10A8 JUMPI PUSH1 0x40 MLOAD PUSH4 0xD92E233D PUSH1 0xE0 SHL DUP2 MSTORE PUSH1 0x4 ADD PUSH1 0x40 MLOAD DUP1 SWAP2 SUB SWAP1 REVERT JUMPDEST DUP3 PUSH1 0x0 DUP2 GT PUSH2 0x10CA JUMPI PUSH1 0x40 MLOAD PUSH4 0x162908E3 PUSH1 0xE1 SHL DUP2 MSTORE PUSH1 0x4 ADD PUSH1 0x40 MLOAD DUP1 SWAP2 SUB SWAP1 REVERT JUMPDEST PUSH11 0x52B7D2DCC80CD2E4000000 DUP5 PUSH1 0x2 SLOAD PUSH2 0x10E4 SWAP2 SWAP1 PUSH2 0x1D7A JUMP JUMPDEST GT ISZERO PUSH2 0x1103 JUMPI PUSH1 0x40 MLOAD PUSH4 0x8A164F63 PUSH1 0xE0 SHL DUP2 MSTORE PUSH1 0x4 ADD PUSH1 0x40 MLOAD DUP1 SWAP2 SUB SWAP1 REVERT JUMPDEST DUP4 PUSH1 0x2 SLOAD PUSH2 0x1111 SWAP2 SWAP1 PUSH2 0x1D7A JUMP JUMPDEST PUSH1 0x2 SSTORE PUSH1 0x5 SLOAD PUSH2 0x1122 SWAP1 DUP6 SWAP1 PUSH2 0x1D7A JUMP JUMPDEST PUSH1 0x5 SSTORE PUSH2 0x112F DUP6 DUP6 PUSH2 0x156D JUMP JUMPDEST PUSH1 0x2 DUP6 PUSH1 0x1 PUSH1 0x1 PUSH1 0xA0 SHL SUB AND PUSH32 0x4C209B5FC8AD50758F13E2E1088BA56A560DFF690A1C6FEF26394F4C03821C4F DUP7 PUSH1 0x40 MLOAD PUSH2 0xB32 SWAP2 DUP2 MSTORE PUSH1 0x20 ADD SWAP1 JUMP JUMPDEST PUSH1 0x1 PUSH2 0x1177 DUP2 PUSH2 0x15EC JUMP JUMPDEST PUSH2 0x117F PUSH2 0x1527 JUMP JUMPDEST DUP3 PUSH1 0x1 PUSH1 0x1 PUSH1 0xA0 SHL SUB DUP2 AND PUSH2 0x11A7 JUMPI PUSH1 0x40 MLOAD PUSH4 0xD92E233D PUSH1 0xE0 SHL DUP2 MSTORE PUSH1 0x4 ADD PUSH1 0x40 MLOAD DUP1 SWAP2 SUB SWAP1 REVERT JUMPDEST DUP3 PUSH1 0x0 DUP2 GT PUSH2 0x11C9 JUMPI PUSH1 0x40 MLOAD PUSH4 0x162908E3 PUSH1 0xE1 SHL DUP2 MSTORE PUSH1 0x4 ADD PUSH1 0x40 MLOAD DUP1 SWAP2 SUB SWAP1 REVERT JUMPDEST PUSH11 0x52B7D2DCC80CD2E4000000 DUP5 PUSH1 0x2 SLOAD PUSH2 0x11E3 SWAP2 SWAP1 PUSH2 0x1D7A JUMP JUMPDEST GT ISZERO PUSH2 0x1202 JUMPI PUSH1 0x40 MLOAD PUSH4 0x8A164F63 PUSH1 0xE0 SHL DUP2 MSTORE PUSH1 0x4 ADD PUSH1 0x40 MLOAD DUP1 SWAP2 SUB SWAP1 REVERT JUMPDEST DUP4 PUSH1 0x2 SLOAD PUSH2 0x1210 SWAP2 SWAP1 PUSH2 0x1D7A JUMP JUMPDEST PUSH1 0x2 SSTORE PUSH1 0x4 SLOAD PUSH2 0x1221 SWAP1 DUP6 SWAP1 PUSH2 0x1D7A JUMP JUMPDEST PUSH1 0x4 SSTORE PUSH2 0x122E DUP6 DUP6 PUSH2 0x156D JUMP JUMPDEST PUSH1 0x1 DUP6 PUSH1 0x1 PUSH1 0x1 PUSH1 0xA0 SHL SUB AND PUSH32 0x4C209B5FC8AD50758F13E2E1088BA56A560DFF690A1C6FEF26394F4C03821C4F DUP7 PUSH1 0x40 MLOAD PUSH2 0xB32 SWAP2 DUP2 MSTORE PUSH1 0x20 ADD SWAP1 JUMP JUMPDEST PUSH1 0x0 PUSH2 0x1283 PUSH2 0x127D PUSH4 0x8B78C6D8 NOT SLOAD SWAP1 JUMP JUMPDEST EXTCODESIZE ISZERO ISZERO SWAP1 JUMP JUMPDEST SWAP1 POP SWAP1 JUMP JUMPDEST PUSH1 0x1 PUSH1 0x1 PUSH1 0xA0 SHL SUB DUP7 AND PUSH15 0x22D473030F116DDEE9F6B43AC78BA3 XOR DUP6 NOT ISZERO OR PUSH2 0x12B9 JUMPI PUSH4 0x3F68539A PUSH1 0x0 MSTORE PUSH1 0x4 PUSH1 0x1C REVERT JUMPDEST PUSH1 0x0 PUSH2 0x12C3 PUSH2 0x864 JUMP JUMPDEST DUP1 MLOAD SWAP1 PUSH1 0x20 ADD KECCAK256 SWAP1 POP PUSH32 0xC89EFDAA54C0F20C7ADF612882DF0950F5A951637E0307CDCB4C672F298B8BC6 TIMESTAMP DUP7 LT ISZERO PUSH2 0x1303 JUMPI PUSH4 0x1A15A3CC PUSH1 0x0 MSTORE PUSH1 0x4 PUSH1 0x1C REVERT JUMPDEST PUSH1 0x40 MLOAD DUP10 PUSH1 0x60 SHL PUSH1 0x60 SHR SWAP10 POP DUP9 PUSH1 0x60 SHL PUSH1 0x60 SHR SWAP9 POP PUSH6 0x383775081901 PUSH1 0xE MSTORE DUP10 PUSH1 0x0 MSTORE PUSH1 0x20 PUSH1 0xC KECCAK256 DUP1 SLOAD PUSH32 0x8B73C3C69BB8FE3D512ECC4CF759CC79239F7B179B0FFACAA9A75D522B39400F DUP4 MSTORE DUP5 PUSH1 0x20 DUP5 ADD MSTORE DUP4 PUSH1 0x40 DUP5 ADD MSTORE CHAINID PUSH1 0x60 DUP5 ADD MSTORE ADDRESS PUSH1 0x80 DUP5 ADD MSTORE PUSH1 0xA0 DUP4 KECCAK256 PUSH1 0x2E MSTORE PUSH32 0x6E71EDAE12B1B97F4D1F60370FEF10105FA2FAAE0126114A169C64845D6126C9 DUP4 MSTORE DUP12 PUSH1 0x20 DUP5 ADD MSTORE DUP11 PUSH1 0x40 DUP5 ADD MSTORE DUP10 PUSH1 0x60 DUP5 ADD MSTORE DUP1 PUSH1 0x80 DUP5 ADD MSTORE DUP9 PUSH1 0xA0 DUP5 ADD MSTORE PUSH1 0xC0 DUP4 KECCAK256 PUSH1 0x4E MSTORE PUSH1 0x42 PUSH1 0x2C KECCAK256 PUSH1 0x0 MSTORE DUP8 PUSH1 0xFF AND PUSH1 0x20 MSTORE DUP7 PUSH1 0x40 MSTORE DUP6 PUSH1 0x60 MSTORE PUSH1 0x20 DUP1 PUSH1 0x80 PUSH1 0x0 PUSH1 0x1 GAS STATICCALL DUP13 RETURNDATASIZE MLOAD EQ PUSH2 0x13EF JUMPI PUSH4 0xDDAFBAEF PUSH1 0x0 MSTORE PUSH1 0x4 PUSH1 0x1C REVERT JUMPDEST ADD SWAP1 SSTORE PUSH4 0x3FAF4F9 PUSH1 0xA5 SHL DUP10 OR PUSH1 0x40 MSTORE PUSH1 0x34 PUSH1 0x2C KECCAK256 DUP9 SWAP1 SSTORE DUP9 DUP11 PUSH32 0x8C5BE1E5EBEC7D5BD14F71427D1E84F3DD0314C0F7B2291E5B200AC8C7C3B925 PUSH1 0x20 PUSH1 0x60 DUP6 ADD LOG3 PUSH1 0x40 MSTORE POP POP PUSH1 0x0 PUSH1 0x60 MSTORE POP POP POP POP POP POP POP JUMP JUMPDEST PUSH1 0x0 PUSH15 0x22D473030F116DDEE9F6B43AC78BA2 NOT PUSH1 0x1 PUSH1 0x1 PUSH1 0xA0 SHL SUB DUP4 AND ADD PUSH2 0x146F JUMPI POP PUSH1 0x0 NOT PUSH2 0x901 JUMP JUMPDEST POP PUSH1 0x20 MSTORE PUSH4 0x7F5E9F20 PUSH1 0xC SWAP1 DUP2 MSTORE PUSH1 0x0 SWAP2 SWAP1 SWAP2 MSTORE PUSH1 0x34 SWAP1 KECCAK256 SLOAD SWAP1 JUMP JUMPDEST PUSH4 0x8B78C6D8 PUSH1 0xC SWAP1 DUP2 MSTORE PUSH1 0x0 DUP3 DUP2 MSTORE PUSH1 0x20 SWAP1 SWAP2 KECCAK256 SLOAD DUP4 AND DUP4 EQ JUMPDEST SWAP4 SWAP3 POP POP POP JUMP JUMPDEST PUSH2 0x14B4 PUSH2 0x150C JUMP JUMPDEST DUP1 EXTCODESIZE PUSH2 0x14D3 JUMPI PUSH1 0x40 MLOAD PUSH4 0xB597F865 PUSH1 0xE0 SHL DUP2 MSTORE PUSH1 0x4 ADD PUSH1 0x40 MLOAD DUP1 SWAP2 SUB SWAP1 REVERT JUMPDEST PUSH2 0xB4B DUP2 PUSH2 0x194B JUMP JUMPDEST PUSH2 0x14E4 PUSH2 0x150C JUMP JUMPDEST DUP1 EXTCODESIZE PUSH2 0x1503 JUMPI PUSH1 0x40 MLOAD PUSH4 0xB597F865 PUSH1 0xE0 SHL DUP2 MSTORE PUSH1 0x4 ADD PUSH1 0x40 MLOAD DUP1 SWAP2 SUB SWAP1 REVERT JUMPDEST PUSH2 0xB4B DUP2 PUSH2 0x1988 JUMP JUMPDEST PUSH4 0x8B78C6D8 NOT SLOAD CALLER EQ PUSH2 0xD6B JUMPI PUSH4 0x82B42900 PUSH1 0x0 MSTORE PUSH1 0x4 PUSH1 0x1C REVERT JUMPDEST PUSH1 0x0 SLOAD PUSH1 0xFF AND ISZERO PUSH2 0xD6B JUMPI PUSH1 0x40 MLOAD PUSH3 0x461BCD PUSH1 0xE5 SHL DUP2 MSTORE PUSH1 0x20 PUSH1 0x4 DUP3 ADD MSTORE PUSH1 0x10 PUSH1 0x24 DUP3 ADD MSTORE PUSH16 0x14185D5CD8589B194E881C185D5CD959 PUSH1 0x82 SHL PUSH1 0x44 DUP3 ADD MSTORE PUSH1 0x64 ADD PUSH2 0xF4E JUMP JUMPDEST PUSH9 0x5345CDF77EB68F44C SLOAD DUP2 DUP2 ADD DUP2 DUP2 LT ISZERO PUSH2 0x1591 JUMPI PUSH4 0xE5CFE957 PUSH1 0x0 MSTORE PUSH1 0x4 PUSH1 0x1C REVERT JUMPDEST DUP1 PUSH9 0x5345CDF77EB68F44C SSTORE POP POP PUSH4 0x87A211A2 PUSH1 0xC MSTORE DUP2 PUSH1 0x0 MSTORE PUSH1 0x20 PUSH1 0xC KECCAK256 DUP2 DUP2 SLOAD ADD DUP2 SSTORE POP DUP1 PUSH1 0x20 MSTORE PUSH1 0xC MLOAD PUSH1 0x60 SHR PUSH1 0x0 PUSH32 0xDDF252AD1BE2C89B69C2B068FC378DAA952BA7F163C4A11628F55A4DF523B3EF PUSH1 0x20 DUP1 LOG3 POP POP JUMP JUMPDEST PUSH4 0x8B78C6D8 PUSH1 0xC MSTORE CALLER PUSH1 0x0 MSTORE DUP1 PUSH1 0x20 PUSH1 0xC KECCAK256 SLOAD AND PUSH2 0xB4B JUMPI PUSH4 0x82B42900 PUSH1 0x0 MSTORE PUSH1 0x4 PUSH1 0x1C REVERT JUMPDEST PUSH2 0xF6C DUP3 DUP3 PUSH1 0x0 PUSH2 0x19AF JUMP JUMPDEST PUSH2 0x1626 PUSH2 0x150C JUMP JUMPDEST PUSH2 0xF6C DUP3 DUP3 PUSH2 0x1A08 JUMP JUMPDEST PUSH15 0x22D473030F116DDEE9F6B43AC78BA2 NOT PUSH1 0x1 PUSH1 0x1 PUSH1 0xA0 SHL SUB DUP4 AND ADD PUSH2 0x1655 JUMPI POP POP POP JUMP JUMPDEST DUP2 PUSH1 0x20 MSTORE PUSH4 0x7F5E9F20 PUSH1 0xC MSTORE DUP3 PUSH1 0x0 MSTORE PUSH1 0x34 PUSH1 0xC KECCAK256 DUP1 SLOAD DUP1 NOT ISZERO PUSH2 0x168F JUMPI DUP1 DUP4 GT ISZERO PUSH2 0x1689 JUMPI PUSH4 0x13BE252B PUSH1 0x0 MSTORE PUSH1 0x4 PUSH1 0x1C REVERT JUMPDEST DUP3 DUP2 SUB DUP3 SSTORE JUMPDEST POP POP POP POP POP JUMP JUMPDEST PUSH1 0x1 PUSH1 0x1 PUSH1 0xA0 SHL SUB DUP4 AND PUSH2 0x16BD JUMPI PUSH1 0x40 MLOAD PUSH4 0xD92E233D PUSH1 0xE0 SHL DUP2 MSTORE PUSH1 0x4 ADD PUSH1 0x40 MLOAD DUP1 SWAP2 SUB SWAP1 REVERT JUMPDEST PUSH1 0x1 PUSH1 0x1 PUSH1 0xA0 SHL SUB DUP3 AND PUSH2 0x16E4 JUMPI PUSH1 0x40 MLOAD PUSH4 0xD92E233D PUSH1 0xE0 SHL DUP2 MSTORE PUSH1 0x4 ADD PUSH1 0x40 MLOAD DUP1 SWAP2 SUB SWAP1 REVERT JUMPDEST PUSH1 0x0 DUP2 GT PUSH2 0x1705 JUMPI PUSH1 0x40 MLOAD PUSH4 0x162908E3 PUSH1 0xE1 SHL DUP2 MSTORE PUSH1 0x4 ADD PUSH1 0x40 MLOAD DUP1 SWAP2 SUB SWAP1 REVERT JUMPDEST PUSH1 0x1 PUSH1 0x1 PUSH1 0xA0 SHL SUB DUP4 AND PUSH1 0x0 SWAP1 DUP2 MSTORE PUSH1 0x3 PUSH1 0x20 MSTORE PUSH1 0x40 SWAP1 KECCAK256 SLOAD PUSH1 0xFF AND DUP1 PUSH2 0x1744 JUMPI POP PUSH1 0x1 PUSH1 0x1 PUSH1 0xA0 SHL SUB DUP3 AND PUSH1 0x0 SWAP1 DUP2 MSTORE PUSH1 0x3 PUSH1 0x20 MSTORE PUSH1 0x40 SWAP1 KECCAK256 SLOAD PUSH1 0xFF AND JUMPDEST ISZERO PUSH2 0x1759 JUMPI PUSH2 0x1754 DUP4 DUP4 DUP4 PUSH2 0x1A14 JUMP JUMPDEST POP POP POP JUMP JUMPDEST PUSH1 0x0 PUSH1 0x64 PUSH2 0x1768 PUSH1 0x1 DUP5 PUSH2 0x1D8D JUMP JUMPDEST PUSH2 0x1772 SWAP2 SWAP1 PUSH2 0x1D58 JUMP JUMPDEST SWAP1 POP PUSH1 0x0 PUSH1 0x64 PUSH2 0x1783 PUSH1 0x1 DUP6 PUSH2 0x1D8D JUMP JUMPDEST PUSH2 0x178D SWAP2 SWAP1 PUSH2 0x1D58 JUMP JUMPDEST SWAP1 POP PUSH1 0x0 DUP2 PUSH2 0x179C DUP5 DUP7 PUSH2 0x1DA4 JUMP JUMPDEST PUSH2 0x17A6 SWAP2 SWAP1 PUSH2 0x1DA4 JUMP JUMPDEST SWAP1 POP PUSH2 0x17B2 DUP7 DUP5 PUSH2 0x1885 JUMP JUMPDEST PUSH1 0x0 SLOAD PUSH2 0x17CF SWAP1 DUP8 SWAP1 PUSH2 0x100 SWAP1 DIV PUSH1 0x1 PUSH1 0x1 PUSH1 0xA0 SHL SUB AND DUP5 PUSH2 0x1A14 JUMP JUMPDEST PUSH1 0x0 SLOAD PUSH1 0x40 MLOAD PUSH1 0x1 PUSH1 0x1 PUSH1 0xA0 SHL SUB PUSH2 0x100 SWAP1 SWAP3 DIV DUP3 AND SWAP2 DUP9 AND SWAP1 PUSH32 0xE9B448CCE44AD73A5E65365743B806BDF42D8F3B588A8E4E21650497D969EA52 SWAP1 PUSH2 0x1818 SWAP1 DUP7 DUP2 MSTORE PUSH1 0x20 ADD SWAP1 JUMP JUMPDEST PUSH1 0x40 MLOAD DUP1 SWAP2 SUB SWAP1 LOG3 PUSH2 0x182B DUP7 DUP7 DUP4 PUSH2 0x1A14 JUMP JUMPDEST POP POP POP POP POP POP JUMP JUMPDEST PUSH2 0x183B PUSH2 0x1A8F JUMP JUMPDEST PUSH1 0x0 DUP1 SLOAD PUSH1 0xFF NOT AND SWAP1 SSTORE PUSH32 0x5DB9EE0A495BF2E6FF9C91A7834C1BA4FDD244A5E8AA4E537BD38AEAE4B073AA CALLER JUMPDEST PUSH1 0x40 MLOAD PUSH1 0x1 PUSH1 0x1 PUSH1 0xA0 SHL SUB SWAP1 SWAP2 AND DUP2 MSTORE PUSH1 0x20 ADD PUSH1 0x40 MLOAD DUP1 SWAP2 SUB SWAP1 LOG1 JUMP JUMPDEST PUSH4 0x87A211A2 PUSH1 0xC MSTORE DUP2 PUSH1 0x0 MSTORE PUSH1 0x20 PUSH1 0xC KECCAK256 DUP1 SLOAD DUP1 DUP4 GT ISZERO PUSH2 0x18AE JUMPI PUSH4 0xF4D678B8 PUSH1 0x0 MSTORE PUSH1 0x4 PUSH1 0x1C REVERT JUMPDEST DUP3 SWAP1 SUB SWAP1 SSTORE PUSH9 0x5345CDF77EB68F44C DUP1 SLOAD DUP3 SWAP1 SUB SWAP1 SSTORE PUSH1 0x0 DUP2 DUP2 MSTORE PUSH1 0x1 PUSH1 0x1 PUSH1 0xA0 SHL SUB DUP4 AND PUSH32 0xDDF252AD1BE2C89B69C2B068FC378DAA952BA7F163C4A11628F55A4DF523B3EF PUSH1 0x20 DUP4 LOG3 POP POP JUMP JUMPDEST PUSH2 0x1904 PUSH2 0x150C JUMP JUMPDEST PUSH2 0xF6C DUP3 DUP3 PUSH2 0x1612 JUMP JUMPDEST PUSH2 0x1916 PUSH2 0x1527 JUMP JUMPDEST PUSH1 0x0 DUP1 SLOAD PUSH1 0xFF NOT AND PUSH1 0x1 OR SWAP1 SSTORE PUSH32 0x62E78CEA01BEE320CD4E420270B5EA74000D11B0C9F74754EBDBFC544B05A258 PUSH2 0x1868 CALLER SWAP1 JUMP JUMPDEST PUSH2 0x1953 PUSH2 0x150C JUMP JUMPDEST PUSH4 0x389A75E1 PUSH1 0xC MSTORE DUP1 PUSH1 0x0 MSTORE PUSH1 0x20 PUSH1 0xC KECCAK256 DUP1 SLOAD TIMESTAMP GT ISZERO PUSH2 0x197B JUMPI PUSH4 0x6F5E8818 PUSH1 0x0 MSTORE PUSH1 0x4 PUSH1 0x1C REVERT JUMPDEST PUSH1 0x0 SWAP1 SSTORE PUSH2 0xB4B DUP2 PUSH2 0x1AD8 JUMP JUMPDEST PUSH2 0x1990 PUSH2 0x150C JUMP JUMPDEST DUP1 PUSH1 0x60 SHL PUSH2 0x19A6 JUMPI PUSH4 0x7448FBAE PUSH1 0x0 MSTORE PUSH1 0x4 PUSH1 0x1C REVERT JUMPDEST PUSH2 0xB4B DUP2 PUSH2 0x1AD8 JUMP JUMPDEST PUSH4 0x8B78C6D8 PUSH1 0xC MSTORE DUP3 PUSH1 0x0 MSTORE PUSH1 0x20 PUSH1 0xC KECCAK256 DUP1 SLOAD DUP4 DUP2 OR DUP4 PUSH2 0x19D1 JUMPI POP DUP1 DUP5 AND DUP2 XOR JUMPDEST DUP1 DUP4 SSTORE DUP1 PUSH1 0xC MLOAD PUSH1 0x60 SHR PUSH32 0x715AD5CE61FC9595C7B415289D59CF203F23A94FA06F04AF7E489A0A76E1FE26 PUSH1 0x0 DUP1 LOG3 POP POP POP POP POP POP JUMP JUMPDEST PUSH2 0xF6C DUP3 DUP3 PUSH1 0x1 PUSH2 0x19AF JUMP JUMPDEST DUP3 PUSH1 0x60 SHL PUSH4 0x87A211A2 DUP2 OR PUSH1 0xC MSTORE PUSH1 0x20 PUSH1 0xC KECCAK256 DUP1 SLOAD DUP1 DUP5 GT ISZERO PUSH2 0x1A3F JUMPI PUSH4 0xF4D678B8 PUSH1 0x0 MSTORE PUSH1 0x4 PUSH1 0x1C REVERT JUMPDEST DUP4 DUP2 SUB DUP3 SSTORE POP POP DUP3 PUSH1 0x0 MSTORE PUSH1 0x20 PUSH1 0xC KECCAK256 DUP3 DUP2 SLOAD ADD DUP2 SSTORE POP DUP2 PUSH1 0x20 MSTORE PUSH1 0xC MLOAD PUSH1 0x60 SHR DUP2 PUSH1 0x60 SHR PUSH32 0xDDF252AD1BE2C89B69C2B068FC378DAA952BA7F163C4A11628F55A4DF523B3EF PUSH1 0x20 DUP1 LOG3 POP POP POP POP JUMP JUMPDEST PUSH1 0x0 SLOAD PUSH1 0xFF AND PUSH2 0xD6B JUMPI PUSH1 0x40 MLOAD PUSH3 0x461BCD PUSH1 0xE5 SHL DUP2 MSTORE PUSH1 0x20 PUSH1 0x4 DUP3 ADD MSTORE PUSH1 0x14 PUSH1 0x24 DUP3 ADD MSTORE PUSH20 0x14185D5CD8589B194E881B9BDD081C185D5CD959 PUSH1 0x62 SHL PUSH1 0x44 DUP3 ADD MSTORE PUSH1 0x64 ADD PUSH2 0xF4E JUMP JUMPDEST PUSH4 0x8B78C6D8 NOT DUP1 SLOAD PUSH1 0x1 PUSH1 0x1 PUSH1 0xA0 SHL SUB SWAP1 SWAP3 AND SWAP2 DUP3 SWAP1 PUSH32 0x8BE0079C531659141344CD1FD0A4F28419497F9722A3DAAFE3B4186F6B6457E0 PUSH1 0x0 DUP1 LOG3 SSTORE JUMP JUMPDEST PUSH1 0x20 DUP2 MSTORE PUSH1 0x0 DUP3 MLOAD DUP1 PUSH1 0x20 DUP5 ADD MSTORE PUSH1 0x0 JUMPDEST DUP2 DUP2 LT ISZERO PUSH2 0x1B44 JUMPI PUSH1 0x20 DUP2 DUP7 ADD DUP2 ADD MLOAD PUSH1 0x40 DUP7 DUP5 ADD ADD MSTORE ADD PUSH2 0x1B27 JUMP JUMPDEST POP PUSH1 0x0 PUSH1 0x40 DUP3 DUP6 ADD ADD MSTORE PUSH1 0x40 PUSH1 0x1F NOT PUSH1 0x1F DUP4 ADD AND DUP5 ADD ADD SWAP2 POP POP SWAP3 SWAP2 POP POP JUMP JUMPDEST DUP1 CALLDATALOAD PUSH1 0x1 PUSH1 0x1 PUSH1 0xA0 SHL SUB DUP2 AND DUP2 EQ PUSH2 0x1B7B JUMPI PUSH1 0x0 DUP1 REVERT JUMPDEST SWAP2 SWAP1 POP JUMP JUMPDEST PUSH1 0x0 DUP1 PUSH1 0x40 DUP4 DUP6 SUB SLT ISZERO PUSH2 0x1B93 JUMPI PUSH1 0x0 DUP1 REVERT JUMPDEST PUSH2 0x1B9C DUP4 PUSH2 0x1B64 JUMP JUMPDEST SWAP5 PUSH1 0x20 SWAP4 SWAP1 SWAP4 ADD CALLDATALOAD SWAP4 POP POP POP JUMP JUMPDEST PUSH1 0x0 DUP1 PUSH1 0x40 DUP4 DUP6 SUB SLT ISZERO PUSH2 0x1BBD JUMPI PUSH1 0x0 DUP1 REVERT JUMPDEST POP POP DUP1 CALLDATALOAD SWAP3 PUSH1 0x20 SWAP1 SWAP2 ADD CALLDATALOAD SWAP2 POP JUMP JUMPDEST PUSH1 0x0 PUSH1 0x20 DUP3 DUP5 SUB SLT ISZERO PUSH2 0x1BDE JUMPI PUSH1 0x0 DUP1 REVERT JUMPDEST POP CALLDATALOAD SWAP2 SWAP1 POP JUMP JUMPDEST PUSH1 0x0 DUP1 PUSH1 0x0 PUSH1 0x60 DUP5 DUP7 SUB SLT ISZERO PUSH2 0x1BFA JUMPI PUSH1 0x0 DUP1 REVERT JUMPDEST PUSH2 0x1C03 DUP5 PUSH2 0x1B64 JUMP JUMPDEST SWAP3 POP PUSH2 0x1C11 PUSH1 0x20 DUP6 ADD PUSH2 0x1B64 JUMP JUMPDEST SWAP3 SWAP6 SWAP3 SWAP5 POP POP POP PUSH1 0x40 SWAP2 SWAP1 SWAP2 ADD CALLDATALOAD SWAP1 JUMP JUMPDEST PUSH1 0x0 PUSH1 0x20 DUP3 DUP5 SUB SLT ISZERO PUSH2 0x1C34 JUMPI PUSH1 0x0 DUP1 REVERT JUMPDEST PUSH2 0x14A5 DUP3 PUSH2 0x1B64 JUMP JUMPDEST PUSH1 0x0 DUP1 PUSH1 0x40 DUP4 DUP6 SUB SLT ISZERO PUSH2 0x1C50 JUMPI PUSH1 0x0 DUP1 REVERT JUMPDEST PUSH2 0x1C59 DUP4 PUSH2 0x1B64 JUMP JUMPDEST SWAP2 POP PUSH1 0x20 DUP4 ADD CALLDATALOAD DUP1 ISZERO ISZERO DUP2 EQ PUSH2 0x1C6E JUMPI PUSH1 0x0 DUP1 REVERT JUMPDEST DUP1 SWAP2 POP POP SWAP3 POP SWAP3 SWAP1 POP JUMP JUMPDEST PUSH1 0x0 DUP1 PUSH1 0x0 DUP1 PUSH1 0x0 DUP1 PUSH1 0x0 PUSH1 0xE0 DUP9 DUP11 SUB SLT ISZERO PUSH2 0x1C94 JUMPI PUSH1 0x0 DUP1 REVERT JUMPDEST PUSH2 0x1C9D DUP9 PUSH2 0x1B64 JUMP JUMPDEST SWAP7 POP PUSH2 0x1CAB PUSH1 0x20 DUP10 ADD PUSH2 0x1B64 JUMP JUMPDEST SWAP6 POP PUSH1 0x40 DUP9 ADD CALLDATALOAD SWAP5 POP PUSH1 0x60 DUP9 ADD CALLDATALOAD SWAP4 POP PUSH1 0x80 DUP9 ADD CALLDATALOAD PUSH1 0xFF DUP2 AND DUP2 EQ PUSH2 0x1CCF JUMPI PUSH1 0x0 DUP1 REVERT JUMPDEST SWAP7 SWAP10 SWAP6 SWAP9 POP SWAP4 SWAP7 SWAP3 SWAP6 SWAP5 PUSH1 0xA0 DUP5 ADD CALLDATALOAD SWAP5 POP PUSH1 0xC0 SWAP1 SWAP4 ADD CALLDATALOAD SWAP3 SWAP2 POP POP JUMP JUMPDEST PUSH1 0x0 DUP1 PUSH1 0x40 DUP4 DUP6 SUB SLT ISZERO PUSH2 0x1CFF JUMPI PUSH1 0x0 DUP1 REVERT JUMPDEST PUSH2 0x1D08 DUP4 PUSH2 0x1B64 JUMP JUMPDEST SWAP2 POP PUSH2 0x1D16 PUSH1 0x20 DUP5 ADD PUSH2 0x1B64 JUMP JUMPDEST SWAP1 POP SWAP3 POP SWAP3 SWAP1 POP JUMP JUMPDEST PUSH1 0x0 DUP1 PUSH1 0x40 DUP4 DUP6 SUB SLT ISZERO PUSH2 0x1D32 JUMPI PUSH1 0x0 DUP1 REVERT JUMPDEST DUP3 CALLDATALOAD SWAP2 POP PUSH2 0x1D16 PUSH1 0x20 DUP5 ADD PUSH2 0x1B64 JUMP JUMPDEST PUSH4 0x4E487B71 PUSH1 0xE0 SHL PUSH1 0x0 MSTORE PUSH1 0x11 PUSH1 0x4 MSTORE PUSH1 0x24 PUSH1 0x0 REVERT JUMPDEST PUSH1 0x0 DUP3 PUSH2 0x1D75 JUMPI PUSH4 0x4E487B71 PUSH1 0xE0 SHL PUSH1 0x0 MSTORE PUSH1 0x12 PUSH1 0x4 MSTORE PUSH1 0x24 PUSH1 0x0 REVERT JUMPDEST POP DIV SWAP1 JUMP JUMPDEST DUP1 DUP3 ADD DUP1 DUP3 GT ISZERO PUSH2 0x901 JUMPI PUSH2 0x901 PUSH2 0x1D42 JUMP JUMPDEST DUP1 DUP3 MUL DUP2 ISZERO DUP3 DUP3 DIV DUP5 EQ OR PUSH2 0x901 JUMPI PUSH2 0x901 PUSH2 0x1D42 JUMP JUMPDEST DUP2 DUP2 SUB DUP2 DUP2 GT ISZERO PUSH2 0x901 JUMPI PUSH2 0x901 PUSH2 0x1D42 JUMP INVALID PUSH13 0x3ADFEE332544F29232690459F4 INVALID 0x23 LOG1 0xC9 JUMPI RETURNDATACOPY EXTSTATICCALL 0xAA 0xC6 TLOAD SWAP16 0xC0 CALLER CALLDATALOAD PUSH0 0xB4 SGT CREATE LOG2 PUSH5 0x6970667358 0x22 SLT KECCAK256 0x2D PUSH20 0xEC58F356FECD413E750470FDBC62F475AC149C4 MCOPY PUSH6 0x77EC83915D1 RJUMP 0x464 PUSH20 0x6F6C634300081E00336C3ADFEE332544F2923269 DIV MSIZE DELEGATECALL INVALID 0x23 LOG1 0xC9 JUMPI RETURNDATACOPY EXTSTATICCALL 0xAA 0xC6 TLOAD SWAP16 0xC0 CALLER CALLDATALOAD PUSH0 0xB4 SGT CREATE "},"methodIdentifiers":{"DAO_MINTER_ROLE()":"5fd6a41b","DEFAULT_ADMIN_ROLE()":"a217fddf","DOMAIN_SEPARATOR()":"3644e515","TEAM_MINTER_ROLE()":"7a6e223c","TREASURY_MINTER_ROLE()":"ceeb69f9","allowance(address,address)":"dd62ed3e","approve(address,uint256)":"095ea7b3","balanceOf(address)":"70a08231","burn(uint256)":"42966c68","burnFrom(address,uint256)":"79cc6790","cancelOwnershipHandover()":"54d1f13d","completeOwnershipHandover(address)":"f04e283e","daoMint(address,uint256)":"14866aef","decimals()":"313ce567","getDaoAddress()":"1d68702d","getMaxSupply()":"4c0f38c2","getMintAllocation()":"213ab527","getTreasuryAddress()":"e0024604","grantRoles(address,uint256)":"1c10893f","hasAllRoles(address,uint256)":"1cd64df4","hasAnyRole(address,uint256)":"514e62fc","hasRole(uint256,address)":"ec2606c0","isExempt(address)":"ad5dff73","isOwnerMultisig()":"c33cd4cb","name()":"06fdde03","nonces(address)":"7ecebe00","owner()":"8da5cb5b","ownershipHandoverExpiresAt(address)":"fee81cf4","pause()":"8456cb59","paused()":"5c975abb","permit(address,address,uint256,uint256,uint8,bytes32,bytes32)":"d505accf","renounceOwnership()":"715018a6","renounceRoles(uint256)":"183a4f6e","requestOwnershipHandover()":"25692962","revenueMint(uint256,uint256)":"1051a512","revokeRoles(address,uint256)":"4a4ee7b1","rolesOf(address)":"2de94807","setDaoAddress(address)":"9a3cac6a","setExemption(address,bool)":"3ea6e071","setTreasuryAddress(address)":"6605bfda","symbol()":"95d89b41","teamMint(address,uint256)":"add5a4fa","totalSupply()":"18160ddd","transfer(address,uint256)":"a9059cbb","transferFrom(address,address,uint256)":"23b872dd","transferOwnership(address)":"f2fde38b","treasuryMint(address,uint256)":"aa35cca3","unpause()":"3f4ba83a"}}}}}