{"contracts/SEED.sol":{"SEED":{"abi":[{"inputs":[{"internalType":"address","name":"admin","type":"address"}],"stateMutability":"nonpayable","type":"constructor"},{"inputs":[],"name":"AdminMustBeContract","type":"error"},{"inputs":[],"name":"AllowanceOverflow","type":"error"},{"inputs":[],"name":"AllowanceUnderflow","type":"error"},{"inputs":[],"name":"AlreadyInitialized","type":"error"},{"inputs":[],"name":"InsufficientAllowance","type":"error"},{"inputs":[],"name":"InsufficientBalance","type":"error"},{"inputs":[],"name":"InvalidAmount","type":"error"},{"inputs":[],"name":"InvalidPermit","type":"error"},{"inputs":[],"name":"MaxSupplyExceeded","type":"error"},{"inputs":[],"name":"NewOwnerIsZeroAddress","type":"error"},{"inputs":[],"name":"NoHandoverRequest","type":"error"},{"inputs":[],"name":"Permit2AllowanceIsFixedAtInfinity","type":"error"},{"inputs":[],"name":"PermitExpired","type":"error"},{"inputs":[],"name":"TotalSupplyOverflow","type":"error"},{"inputs":[],"name":"Unauthorized","type":"error"},{"inputs":[],"name":"ZeroAddress","type":"error"},{"anonymous":false,"inputs":[{"indexed":true,"internalType":"address","name":"owner","type":"address"},{"indexed":true,"internalType":"address","name":"spender","type":"address"},{"indexed":false,"internalType":"uint256","name":"amount","type":"uint256"}],"name":"Approval","type":"event"},{"anonymous":false,"inputs":[{"indexed":true,"internalType":"address","name":"pendingOwner","type":"address"}],"name":"OwnershipHandoverCanceled","type":"event"},{"anonymous":false,"inputs":[{"indexed":true,"internalType":"address","name":"pendingOwner","type":"address"}],"name":"OwnershipHandoverRequested","type":"event"},{"anonymous":false,"inputs":[{"indexed":true,"internalType":"address","name":"oldOwner","type":"address"},{"indexed":true,"internalType":"address","name":"newOwner","type":"address"}],"name":"OwnershipTransferred","type":"event"},{"anonymous":false,"inputs":[{"indexed":false,"internalType":"address","name":"account","type":"address"}],"name":"Paused","type":"event"},{"anonymous":false,"inputs":[{"indexed":true,"internalType":"address","name":"to","type":"address"},{"indexed":false,"internalType":"uint256","name":"amount","type":"uint256"},{"indexed":true,"internalType":"uint256","name":"role","type":"uint256"}],"name":"RewardMint","type":"event"},{"anonymous":false,"inputs":[{"indexed":true,"internalType":"uint256","name":"role","type":"uint256"},{"indexed":true,"internalType":"address","name":"account","type":"address"},{"indexed":true,"internalType":"address","name":"sender","type":"address"}],"name":"RoleGranted","type":"event"},{"anonymous":false,"inputs":[{"indexed":true,"internalType":"uint256","name":"role","type":"uint256"},{"indexed":true,"internalType":"address","name":"account","type":"address"},{"indexed":true,"internalType":"address","name":"sender","type":"address"}],"name":"RoleRevoked","type":"event"},{"anonymous":false,"inputs":[{"indexed":true,"internalType":"address","name":"user","type":"address"},{"indexed":true,"internalType":"uint256","name":"roles","type":"uint256"}],"name":"RolesUpdated","type":"event"},{"anonymous":false,"inputs":[{"indexed":true,"internalType":"address","name":"from","type":"address"},{"indexed":true,"internalType":"address","name":"to","type":"address"},{"indexed":false,"internalType":"uint256","name":"amount","type":"uint256"}],"name":"Transfer","type":"event"},{"anonymous":false,"inputs":[{"indexed":false,"internalType":"address","name":"account","type":"address"}],"name":"Unpaused","type":"event"},{"inputs":[],"name":"DEFAULT_ADMIN_ROLE","outputs":[{"internalType":"bytes32","name":"","type":"bytes32"}],"stateMutability":"pure","type":"function"},{"inputs":[],"name":"DOMAIN_SEPARATOR","outputs":[{"internalType":"bytes32","name":"result","type":"bytes32"}],"stateMutability":"view","type":"function"},{"inputs":[],"name":"REWARD_MINTER_ROLE","outputs":[{"internalType":"uint256","name":"","type":"uint256"}],"stateMutability":"view","type":"function"},{"inputs":[{"internalType":"address","name":"owner","type":"address"},{"internalType":"address","name":"spender","type":"address"}],"name":"allowance","outputs":[{"internalType":"uint256","name":"result","type":"uint256"}],"stateMutability":"view","type":"function"},{"inputs":[{"internalType":"address","name":"spender","type":"address"},{"internalType":"uint256","name":"amount","type":"uint256"}],"name":"approve","outputs":[{"internalType":"bool","name":"","type":"bool"}],"stateMutability":"nonpayable","type":"function"},{"inputs":[{"internalType":"address","name":"owner","type":"address"}],"name":"balanceOf","outputs":[{"internalType":"uint256","name":"result","type":"uint256"}],"stateMutability":"view","type":"function"},{"inputs":[{"internalType":"uint256","name":"amount","type":"uint256"}],"name":"burn","outputs":[],"stateMutability":"nonpayable","type":"function"},{"inputs":[{"internalType":"address","name":"from","type":"address"},{"internalType":"uint256","name":"amount","type":"uint256"}],"name":"burnFrom","outputs":[],"stateMutability":"nonpayable","type":"function"},{"inputs":[],"name":"cancelOwnershipHandover","outputs":[],"stateMutability":"payable","type":"function"},{"inputs":[{"internalType":"address","name":"pendingOwner","type":"address"}],"name":"completeOwnershipHandover","outputs":[],"stateMutability":"payable","type":"function"},{"inputs":[],"name":"decimals","outputs":[{"internalType":"uint8","name":"","type":"uint8"}],"stateMutability":"view","type":"function"},{"inputs":[],"name":"getMaxSupply","outputs":[{"internalType":"uint256","name":"","type":"uint256"}],"stateMutability":"pure","type":"function"},{"inputs":[],"name":"getTotalMinted","outputs":[{"internalType":"uint256","name":"","type":"uint256"}],"stateMutability":"view","type":"function"},{"inputs":[{"internalType":"address","name":"user","type":"address"},{"internalType":"uint256","name":"roles","type":"uint256"}],"name":"grantRoles","outputs":[],"stateMutability":"payable","type":"function"},{"inputs":[{"internalType":"address","name":"user","type":"address"},{"internalType":"uint256","name":"roles","type":"uint256"}],"name":"hasAllRoles","outputs":[{"internalType":"bool","name":"","type":"bool"}],"stateMutability":"view","type":"function"},{"inputs":[{"internalType":"address","name":"user","type":"address"},{"internalType":"uint256","name":"roles","type":"uint256"}],"name":"hasAnyRole","outputs":[{"internalType":"bool","name":"","type":"bool"}],"stateMutability":"view","type":"function"},{"inputs":[{"internalType":"uint256","name":"role","type":"uint256"},{"internalType":"address","name":"user","type":"address"}],"name":"hasRole","outputs":[{"internalType":"bool","name":"","type":"bool"}],"stateMutability":"view","type":"function"},{"inputs":[],"name":"isOwnerMultisig","outputs":[{"internalType":"bool","name":"","type":"bool"}],"stateMutability":"view","type":"function"},{"inputs":[],"name":"name","outputs":[{"internalType":"string","name":"","type":"string"}],"stateMutability":"pure","type":"function"},{"inputs":[{"internalType":"address","name":"owner","type":"address"}],"name":"nonces","outputs":[{"internalType":"uint256","name":"result","type":"uint256"}],"stateMutability":"view","type":"function"},{"inputs":[],"name":"owner","outputs":[{"internalType":"address","name":"result","type":"address"}],"stateMutability":"view","type":"function"},{"inputs":[{"internalType":"address","name":"pendingOwner","type":"address"}],"name":"ownershipHandoverExpiresAt","outputs":[{"internalType":"uint256","name":"result","type":"uint256"}],"stateMutability":"view","type":"function"},{"inputs":[],"name":"pause","outputs":[],"stateMutability":"nonpayable","type":"function"},{"inputs":[],"name":"paused","outputs":[{"internalType":"bool","name":"","type":"bool"}],"stateMutability":"view","type":"function"},{"inputs":[{"internalType":"address","name":"owner","type":"address"},{"internalType":"address","name":"spender","type":"address"},{"internalType":"uint256","name":"value","type":"uint256"},{"internalType":"uint256","name":"deadline","type":"uint256"},{"internalType":"uint8","name":"v","type":"uint8"},{"internalType":"bytes32","name":"r","type":"bytes32"},{"internalType":"bytes32","name":"s","type":"bytes32"}],"name":"permit","outputs":[],"stateMutability":"nonpayable","type":"function"},{"inputs":[],"name":"renounceOwnership","outputs":[],"stateMutability":"payable","type":"function"},{"inputs":[{"internalType":"uint256","name":"roles","type":"uint256"}],"name":"renounceRoles","outputs":[],"stateMutability":"payable","type":"function"},{"inputs":[],"name":"requestOwnershipHandover","outputs":[],"stateMutability":"payable","type":"function"},{"inputs":[{"internalType":"address","name":"user","type":"address"},{"internalType":"uint256","name":"roles","type":"uint256"}],"name":"revokeRoles","outputs":[],"stateMutability":"payable","type":"function"},{"inputs":[{"internalType":"address","name":"to","type":"address"},{"internalType":"uint256","name":"amount","type":"uint256"}],"name":"rewardMint","outputs":[],"stateMutability":"nonpayable","type":"function"},{"inputs":[{"internalType":"address","name":"user","type":"address"}],"name":"rolesOf","outputs":[{"internalType":"uint256","name":"roles","type":"uint256"}],"stateMutability":"view","type":"function"},{"inputs":[],"name":"symbol","outputs":[{"internalType":"string","name":"","type":"string"}],"stateMutability":"pure","type":"function"},{"inputs":[],"name":"totalSupply","outputs":[{"internalType":"uint256","name":"result","type":"uint256"}],"stateMutability":"view","type":"function"},{"inputs":[{"internalType":"address","name":"to","type":"address"},{"internalType":"uint256","name":"amount","type":"uint256"}],"name":"transfer","outputs":[{"internalType":"bool","name":"","type":"bool"}],"stateMutability":"nonpayable","type":"function"},{"inputs":[{"internalType":"address","name":"from","type":"address"},{"internalType":"address","name":"to","type":"address"},{"internalType":"uint256","name":"amount","type":"uint256"}],"name":"transferFrom","outputs":[{"internalType":"bool","name":"","type":"bool"}],"stateMutability":"nonpayable","type":"function"},{"inputs":[{"internalType":"address","name":"newOwner","type":"address"}],"name":"transferOwnership","outputs":[],"stateMutability":"payable","type":"function"},{"inputs":[],"name":"unpause","outputs":[],"stateMutability":"nonpayable","type":"function"}],"evm":{"bytecode":{"linkReferences":{},"object":"608060405234801561001057600080fd5b5060405161164c38038061164c83398101604081905261002f9161013e565b6000805460ff191690556001600160a01b0381166100605760405163d92e233d60e01b815260040160405180910390fd5b803b61007f5760405163b597f86560e01b815260040160405180910390fd5b61008881610099565b6100938160016100d5565b5061016e565b6001600160a01b0316638b78c6d8198190558060007f8be0079c531659141344cd1fd0a4f28419497f9722a3daafe3b4186f6b6457e08180a350565b6100e1828260016100e5565b5050565b638b78c6d8600c52826000526020600c20805483811783610107575080841681185b80835580600c5160601c7f715ad5ce61fc9595c7b415289d59cf203f23a94fa06f04af7e489a0a76e1fe26600080a3505050505050565b60006020828403121561015057600080fd5b81516001600160a01b038116811461016757600080fd5b9392505050565b6114cf8061017d6000396000f3fe60806040526004361061021a5760003560e01c80635c975abb11610123578063a217fddf116100ab578063de9bb6351161006f578063de9bb635146105d7578063ec2606c0146105ec578063f04e283e1461060c578063f2fde38b1461061f578063fee81cf41461063257600080fd5b8063a217fddf1461054e578063a9059cbb14610562578063c33cd4cb14610582578063d505accf14610597578063dd62ed3e146105b757600080fd5b806379cc6790116100f257806379cc6790146104ba5780637ecebe00146104da5780638456cb591461050d5780638da5cb5b1461052257806395d89b411461021f57600080fd5b80635c975abb1461044757806370a082311461045f578063715018a614610492578063721042051461049a57600080fd5b80632de94807116101a657806342966c681161017557806342966c68146103b65780634a4ee7b1146103d65780634c0f38c2146103e9578063514e62fc1461040857806354d1f13d1461043f57600080fd5b80632de948071461033d578063313ce567146103705780633644e5151461038c5780633f4ba83a146103a157600080fd5b8063183a4f6e116101ed578063183a4f6e146102b65780631c10893f146102cb5780631cd64df4146102de57806323b872dd14610315578063256929621461033557600080fd5b806306fdde031461021f578063095ea7b31461024a5780630ca1c5c91461027a57806318160ddd14610299575b600080fd5b34801561022b57600080fd5b50610234610665565b604051610241919061128a565b60405180910390f35b34801561025657600080fd5b5061026a6102653660046112f4565b610683565b6040519015158152602001610241565b34801561028657600080fd5b506001545b604051908152602001610241565b3480156102a557600080fd5b506805345cdf77eb68f44c5461028b565b6102c96102c436600461131e565b610708565b005b6102c96102d93660046112f4565b610715565b3480156102ea57600080fd5b5061026a6102f93660046112f4565b638b78c6d8600c90815260009290925260209091205481161490565b34801561032157600080fd5b5061026a610330366004611337565b610763565b6102c9610780565b34801561034957600080fd5b5061028b610358366004611374565b638b78c6d8600c908152600091909152602090205490565b34801561037c57600080fd5b5060405160128152602001610241565b34801561039857600080fd5b5061028b6107d0565b3480156103ad57600080fd5b506102c961084d565b3480156103c257600080fd5b506102c96103d136600461131e565b61085f565b6102c96103e43660046112f4565b61088a565b3480156103f557600080fd5b506b204fce5e3e2502611000000061028b565b34801561041457600080fd5b5061026a6104233660046112f4565b638b78c6d8600c90815260009290925260209091205416151590565b6102c96108d8565b34801561045357600080fd5b5060005460ff1661026a565b34801561046b57600080fd5b5061028b61047a366004611374565b6387a211a2600c908152600091909152602090205490565b6102c9610914565b3480156104a657600080fd5b506102c96104b53660046112f4565b610969565b3480156104c657600080fd5b506102c96104d53660046112f4565b610a8e565b3480156104e657600080fd5b5061028b6104f5366004611374565b6338377508600c908152600091909152602090205490565b34801561051957600080fd5b506102c9610aef565b34801561052e57600080fd5b50638b78c6d819546040516001600160a01b039091168152602001610241565b34801561055a57600080fd5b50600061028b565b34801561056e57600080fd5b5061026a61057d3660046112f4565b610aff565b34801561058e57600080fd5b5061026a610b1a565b3480156105a357600080fd5b506102c96105b236600461138f565b610b37565b3480156105c357600080fd5b5061028b6105d2366004611402565b610cf3565b3480156105e357600080fd5b5061028b600181565b3480156105f857600080fd5b5061026a610607366004611435565b610d3a565b6102c961061a366004611374565b610d58565b6102c961062d366004611374565b610d88565b34801561063e57600080fd5b5061028b61064d366004611374565b63389a75e1600c908152600091909152602090205490565b60408051808201909152600481526314d1515160e21b602082015290565b60006001600160a01b0383166e22d473030f116ddee9f6b43ac78ba318821915176106b657633f68539a6000526004601cfd5b82602052637f5e9f20600c5233600052816034600c205581600052602c5160601c337f8c5be1e5ebec7d5bd14f71427d1e84f3dd0314c0f7b2291e5b200ac8c7c3b92560206000a35060015b92915050565b6107123382610db8565b50565b61071d610dc4565b6107278282610ddf565b60405133906001600160a01b0384169083907f1ec1667fba5e43c5c76fff54e76d7a4a20a4fecf7b49724ad8d52a3f726e9dbd90600090a45050565b600061076d610df1565b610778848484610e37565b949350505050565b60006202a30067ffffffffffffffff164201905063389a75e1600c5233600052806020600c2055337fdbf36a107da19e49527a7176a1babf963b4b0ff8cde35ee35d6cd8f1f9ac7e1d600080a250565b6000806107db610665565b805190602001209050604080517f8b73c3c69bb8fe3d512ecc4cf759cc79239f7b179b0ffacaa9a75d522b39400f815260208101929092527fc89efdaa54c0f20c7adf612882df0950f5a951637e0307cdcb4c672f298b8bc69082015246606082015230608082015260a09020919050565b610855610dc4565b61085d610ef8565b565b600081116108805760405163162908e360e11b815260040160405180910390fd5b6107123382610f4a565b610892610dc4565b61089c8282610faf565b60405133906001600160a01b0384169083907fe0df21b65c73c27081b8f042a012b124085b41d78d27b7e3c4780f5650f5ebb890600090a45050565b63389a75e1600c523360005260006020600c2055337ffa7b8eab7da67f412cc9575ed43464468f9bfbae89d1675917346ca6d8fe3c92600080a2565b61091c610dc4565b60405162461bcd60e51b815260206004820152601d60248201527f4f776e6572736869702063616e6e6f742062652072656e6f756e63656400000060448201526064015b60405180910390fd5b610971610df1565b638b78c6d8600c908152336000526020902054600190811681146109a7576040516282b42960e81b815260040160405180910390fd5b6001600160a01b0383166109ce5760405163d92e233d60e01b815260040160405180910390fd5b600082116109ef5760405163162908e360e11b815260040160405180910390fd5b6b204fce5e3e2502611000000082600154610a0a9190611458565b1115610a2957604051638a164f6360e01b815260040160405180910390fd5b81600154610a379190611458565b600155610a448383610fc1565b6001836001600160a01b03167fe52fa6d3d16281c545e97068f2521bb0f18b167a26b1012badb3ab471be0adb784604051610a8191815260200190565b60405180910390a3505050565b6001600160a01b038216610ab55760405163d92e233d60e01b815260040160405180910390fd5b60008111610ad65760405163162908e360e11b815260040160405180910390fd5b610ae182338361102e565b610aeb8282610f4a565b5050565b610af7610dc4565b61085d611094565b6000610b09610df1565b610b1383836110d1565b9392505050565b6000610b32610b2c638b78c6d8195490565b3b151590565b905090565b6001600160a01b0386166e22d473030f116ddee9f6b43ac78ba31885191517610b6857633f68539a6000526004601cfd5b6000610b72610665565b8051906020012090507fc89efdaa54c0f20c7adf612882df0950f5a951637e0307cdcb4c672f298b8bc642861015610bb257631a15a3cc6000526004601cfd5b6040518960601b60601c99508860601b60601c985065383775081901600e52896000526020600c2080547f8b73c3c69bb8fe3d512ecc4cf759cc79239f7b179b0ffacaa9a75d522b39400f835284602084015283604084015246606084015230608084015260a08320602e527f6e71edae12b1b97f4d1f60370fef10105fa2faae0126114a169c64845d6126c983528b60208401528a60408401528960608401528060808401528860a084015260c08320604e526042602c206000528760ff1660205286604052856060526020806080600060015afa8c3d5114610c9e5763ddafbaef6000526004601cfd5b0190556303faf4f960a51b89176040526034602c20889055888a7f8c5be1e5ebec7d5bd14f71427d1e84f3dd0314c0f7b2291e5b200ac8c7c3b925602060608501a36040525050600060605250505050505050565b60006e22d473030f116ddee9f6b43ac78ba2196001600160a01b03831601610d1e5750600019610702565b50602052637f5e9f20600c908152600091909152603490205490565b638b78c6d8600c908152600082815260209091205483168314610b13565b610d60610dc4565b803b610d7f5760405163b597f86560e01b815260040160405180910390fd5b6107128161113a565b610d90610dc4565b803b610daf5760405163b597f86560e01b815260040160405180910390fd5b61071281611177565b610aeb8282600061119e565b638b78c6d81954331461085d576382b429006000526004601cfd5b610de7610dc4565b610aeb82826111f7565b60005460ff161561085d5760405162461bcd60e51b815260206004820152601060248201526f14185d5cd8589b194e881c185d5cd95960821b6044820152606401610960565b60008360601b6e22d473030f116ddee9f6b43ac78ba33314610e8e5733602052637f5e9f208117600c526034600c208054801915610e8b5780851115610e85576313be252b6000526004601cfd5b84810382555b50505b6387a211a28117600c526020600c20805480851115610eb55763f4d678b86000526004601cfd5b84810382555050836000526020600c208381540181555082602052600c5160601c8160601c60008051602061147a833981519152602080a3505060019392505050565b610f00611203565b6000805460ff191690557f5db9ee0a495bf2e6ff9c91a7834c1ba4fdd244a5e8aa4e537bd38aeae4b073aa335b6040516001600160a01b03909116815260200160405180910390a1565b6387a211a2600c52816000526020600c20805480831115610f735763f4d678b86000526004601cfd5b82900390556805345cdf77eb68f44c8054829003905560008181526001600160a01b03831660008051602061147a833981519152602083a35050565b610fb7610dc4565b610aeb8282610db8565b6805345cdf77eb68f44c5481810181811015610fe55763e5cfe9576000526004601cfd5b806805345cdf77eb68f44c5550506387a211a2600c52816000526020600c208181540181555080602052600c5160601c600060008051602061147a833981519152602080a35050565b6e22d473030f116ddee9f6b43ac78ba2196001600160a01b0383160161105357505050565b81602052637f5e9f20600c52826000526034600c20805480191561108d5780831115611087576313be252b6000526004601cfd5b82810382555b5050505050565b61109c610df1565b6000805460ff191660011790557f62e78cea01bee320cd4e420270b5ea74000d11b0c9f74754ebdbfc544b05a258610f2d3390565b60006387a211a2600c52336000526020600c208054808411156110fc5763f4d678b86000526004601cfd5b83810382555050826000526020600c208281540181555081602052600c5160601c3360008051602061147a833981519152602080a350600192915050565b611142610dc4565b63389a75e1600c52806000526020600c20805442111561116a57636f5e88186000526004601cfd5b600090556107128161124c565b61117f610dc4565b8060601b61119557637448fbae6000526004601cfd5b6107128161124c565b638b78c6d8600c52826000526020600c208054838117836111c0575080841681185b80835580600c5160601c7f715ad5ce61fc9595c7b415289d59cf203f23a94fa06f04af7e489a0a76e1fe26600080a3505050505050565b610aeb8282600161119e565b60005460ff1661085d5760405162461bcd60e51b815260206004820152601460248201527314185d5cd8589b194e881b9bdd081c185d5cd95960621b6044820152606401610960565b638b78c6d81980546001600160a01b039092169182907f8be0079c531659141344cd1fd0a4f28419497f9722a3daafe3b4186f6b6457e0600080a355565b602081526000825180602084015260005b818110156112b8576020818601810151604086840101520161129b565b506000604082850101526040601f19601f83011684010191505092915050565b80356001600160a01b03811681146112ef57600080fd5b919050565b6000806040838503121561130757600080fd5b611310836112d8565b946020939093013593505050565b60006020828403121561133057600080fd5b5035919050565b60008060006060848603121561134c57600080fd5b611355846112d8565b9250611363602085016112d8565b929592945050506040919091013590565b60006020828403121561138657600080fd5b610b13826112d8565b600080600080600080600060e0888a0312156113aa57600080fd5b6113b3886112d8565b96506113c1602089016112d8565b95506040880135945060608801359350608088013560ff811681146113e557600080fd5b9699959850939692959460a0840135945060c09093013592915050565b6000806040838503121561141557600080fd5b61141e836112d8565b915061142c602084016112d8565b90509250929050565b6000806040838503121561144857600080fd5b8235915061142c602084016112d8565b8082018082111561070257634e487b7160e01b600052601160045260246000fdfeddf252ad1be2c89b69c2b068fc378daa952ba7f163c4a11628f55a4df523b3efa264697066735822122078ee760e7d436309b9be789553449d418f59c7fb18ea6775bb977d8f6a3d1e3864736f6c634300081e0033","opcodes":"PUSH1 0x80 PUSH1 0x40 MSTORE CALLVALUE DUP1 ISZERO PUSH2 0x10 JUMPI PUSH1 0x0 DUP1 REVERT JUMPDEST POP PUSH1 0x40 MLOAD PUSH2 0x164C CODESIZE SUB DUP1 PUSH2 0x164C DUP4 CODECOPY DUP2 ADD PUSH1 0x40 DUP2 SWAP1 MSTORE PUSH2 0x2F SWAP2 PUSH2 0x13E JUMP JUMPDEST PUSH1 0x0 DUP1 SLOAD PUSH1 0xFF NOT AND SWAP1 SSTORE PUSH1 0x1 PUSH1 0x1 PUSH1 0xA0 SHL SUB DUP2 AND PUSH2 0x60 JUMPI PUSH1 0x40 MLOAD PUSH4 0xD92E233D PUSH1 0xE0 SHL DUP2 MSTORE PUSH1 0x4 ADD PUSH1 0x40 MLOAD DUP1 SWAP2 SUB SWAP1 REVERT JUMPDEST DUP1 EXTCODESIZE PUSH2 0x7F JUMPI PUSH1 0x40 MLOAD PUSH4 0xB597F865 PUSH1 0xE0 SHL DUP2 MSTORE PUSH1 0x4 ADD PUSH1 0x40 MLOAD DUP1 SWAP2 SUB SWAP1 REVERT JUMPDEST PUSH2 0x88 DUP2 PUSH2 0x99 JUMP JUMPDEST PUSH2 0x93 DUP2 PUSH1 0x1 PUSH2 0xD5 JUMP JUMPDEST POP PUSH2 0x16E JUMP JUMPDEST PUSH1 0x1 PUSH1 0x1 PUSH1 0xA0 SHL SUB AND PUSH4 0x8B78C6D8 NOT DUP2 SWAP1 SSTORE DUP1 PUSH1 0x0 PUSH32 0x8BE0079C531659141344CD1FD0A4F28419497F9722A3DAAFE3B4186F6B6457E0 DUP2 DUP1 LOG3 POP JUMP JUMPDEST PUSH2 0xE1 DUP3 DUP3 PUSH1 0x1 PUSH2 0xE5 JUMP JUMPDEST POP POP JUMP JUMPDEST PUSH4 0x8B78C6D8 PUSH1 0xC MSTORE DUP3 PUSH1 0x0 MSTORE PUSH1 0x20 PUSH1 0xC KECCAK256 DUP1 SLOAD DUP4 DUP2 OR DUP4 PUSH2 0x107 JUMPI POP DUP1 DUP5 AND DUP2 XOR JUMPDEST DUP1 DUP4 SSTORE DUP1 PUSH1 0xC MLOAD PUSH1 0x60 SHR PUSH32 0x715AD5CE61FC9595C7B415289D59CF203F23A94FA06F04AF7E489A0A76E1FE26 PUSH1 0x0 DUP1 LOG3 POP POP POP POP POP POP JUMP JUMPDEST PUSH1 0x0 PUSH1 0x20 DUP3 DUP5 SUB SLT ISZERO PUSH2 0x150 JUMPI PUSH1 0x0 DUP1 REVERT JUMPDEST DUP2 MLOAD PUSH1 0x1 PUSH1 0x1 PUSH1 0xA0 SHL SUB DUP2 AND DUP2 EQ PUSH2 0x167 JUMPI PUSH1 0x0 DUP1 REVERT JUMPDEST SWAP4 SWAP3 POP POP POP JUMP JUMPDEST PUSH2 0x14CF DUP1 PUSH2 0x17D PUSH1 0x0 CODECOPY PUSH1 0x0 RETURN INVALID PUSH1 0x80 PUSH1 0x40 MSTORE PUSH1 0x4 CALLDATASIZE LT PUSH2 0x21A JUMPI PUSH1 0x0 CALLDATALOAD PUSH1 0xE0 SHR DUP1 PUSH4 0x5C975ABB GT PUSH2 0x123 JUMPI DUP1 PUSH4 0xA217FDDF GT PUSH2 0xAB JUMPI DUP1 PUSH4 0xDE9BB635 GT PUSH2 0x6F JUMPI DUP1 PUSH4 0xDE9BB635 EQ PUSH2 0x5D7 JUMPI DUP1 PUSH4 0xEC2606C0 EQ PUSH2 0x5EC JUMPI DUP1 PUSH4 0xF04E283E EQ PUSH2 0x60C JUMPI DUP1 PUSH4 0xF2FDE38B EQ PUSH2 0x61F JUMPI DUP1 PUSH4 0xFEE81CF4 EQ PUSH2 0x632 JUMPI PUSH1 0x0 DUP1 REVERT JUMPDEST DUP1 PUSH4 0xA217FDDF EQ PUSH2 0x54E JUMPI DUP1 PUSH4 0xA9059CBB EQ PUSH2 0x562 JUMPI DUP1 PUSH4 0xC33CD4CB EQ PUSH2 0x582 JUMPI DUP1 PUSH4 0xD505ACCF EQ PUSH2 0x597 JUMPI DUP1 PUSH4 0xDD62ED3E EQ PUSH2 0x5B7 JUMPI PUSH1 0x0 DUP1 REVERT JUMPDEST DUP1 PUSH4 0x79CC6790 GT PUSH2 0xF2 JUMPI DUP1 PUSH4 0x79CC6790 EQ PUSH2 0x4BA JUMPI DUP1 PUSH4 0x7ECEBE00 EQ PUSH2 0x4DA JUMPI DUP1 PUSH4 0x8456CB59 EQ PUSH2 0x50D JUMPI DUP1 PUSH4 0x8DA5CB5B EQ PUSH2 0x522 JUMPI DUP1 PUSH4 0x95D89B41 EQ PUSH2 0x21F JUMPI PUSH1 0x0 DUP1 REVERT JUMPDEST DUP1 PUSH4 0x5C975ABB EQ PUSH2 0x447 JUMPI DUP1 PUSH4 0x70A08231 EQ PUSH2 0x45F JUMPI DUP1 PUSH4 0x715018A6 EQ PUSH2 0x492 JUMPI DUP1 PUSH4 0x72104205 EQ PUSH2 0x49A JUMPI PUSH1 0x0 DUP1 REVERT JUMPDEST DUP1 PUSH4 0x2DE94807 GT PUSH2 0x1A6 JUMPI DUP1 PUSH4 0x42966C68 GT PUSH2 0x175 JUMPI DUP1 PUSH4 0x42966C68 EQ PUSH2 0x3B6 JUMPI DUP1 PUSH4 0x4A4EE7B1 EQ PUSH2 0x3D6 JUMPI DUP1 PUSH4 0x4C0F38C2 EQ PUSH2 0x3E9 JUMPI DUP1 PUSH4 0x514E62FC EQ PUSH2 0x408 JUMPI DUP1 PUSH4 0x54D1F13D EQ PUSH2 0x43F JUMPI PUSH1 0x0 DUP1 REVERT JUMPDEST DUP1 PUSH4 0x2DE94807 EQ PUSH2 0x33D JUMPI DUP1 PUSH4 0x313CE567 EQ PUSH2 0x370 JUMPI DUP1 PUSH4 0x3644E515 EQ PUSH2 0x38C JUMPI DUP1 PUSH4 0x3F4BA83A EQ PUSH2 0x3A1 JUMPI PUSH1 0x0 DUP1 REVERT JUMPDEST DUP1 PUSH4 0x183A4F6E GT PUSH2 0x1ED JUMPI DUP1 PUSH4 0x183A4F6E EQ PUSH2 0x2B6 JUMPI DUP1 PUSH4 0x1C10893F EQ PUSH2 0x2CB JUMPI DUP1 PUSH4 0x1CD64DF4 EQ PUSH2 0x2DE JUMPI DUP1 PUSH4 0x23B872DD EQ PUSH2 0x315 JUMPI DUP1 PUSH4 0x25692962 EQ PUSH2 0x335 JUMPI PUSH1 0x0 DUP1 REVERT JUMPDEST DUP1 PUSH4 0x6FDDE03 EQ PUSH2 0x21F JUMPI DUP1 PUSH4 0x95EA7B3 EQ PUSH2 0x24A JUMPI DUP1 PUSH4 0xCA1C5C9 EQ PUSH2 0x27A JUMPI DUP1 PUSH4 0x18160DDD EQ PUSH2 0x299 JUMPI JUMPDEST PUSH1 0x0 DUP1 REVERT JUMPDEST CALLVALUE DUP1 ISZERO PUSH2 0x22B JUMPI PUSH1 0x0 DUP1 REVERT JUMPDEST POP PUSH2 0x234 PUSH2 0x665 JUMP JUMPDEST PUSH1 0x40 MLOAD PUSH2 0x241 SWAP2 SWAP1 PUSH2 0x128A JUMP JUMPDEST PUSH1 0x40 MLOAD DUP1 SWAP2 SUB SWAP1 RETURN JUMPDEST CALLVALUE DUP1 ISZERO PUSH2 0x256 JUMPI PUSH1 0x0 DUP1 REVERT JUMPDEST POP PUSH2 0x26A PUSH2 0x265 CALLDATASIZE PUSH1 0x4 PUSH2 0x12F4 JUMP JUMPDEST PUSH2 0x683 JUMP JUMPDEST PUSH1 0x40 MLOAD SWAP1 ISZERO ISZERO DUP2 MSTORE PUSH1 0x20 ADD PUSH2 0x241 JUMP JUMPDEST CALLVALUE DUP1 ISZERO PUSH2 0x286 JUMPI PUSH1 0x0 DUP1 REVERT JUMPDEST POP PUSH1 0x1 SLOAD JUMPDEST PUSH1 0x40 MLOAD SWAP1 DUP2 MSTORE PUSH1 0x20 ADD PUSH2 0x241 JUMP JUMPDEST CALLVALUE DUP1 ISZERO PUSH2 0x2A5 JUMPI PUSH1 0x0 DUP1 REVERT JUMPDEST POP PUSH9 0x5345CDF77EB68F44C SLOAD PUSH2 0x28B JUMP JUMPDEST PUSH2 0x2C9 PUSH2 0x2C4 CALLDATASIZE PUSH1 0x4 PUSH2 0x131E JUMP JUMPDEST PUSH2 0x708 JUMP JUMPDEST STOP JUMPDEST PUSH2 0x2C9 PUSH2 0x2D9 CALLDATASIZE PUSH1 0x4 PUSH2 0x12F4 JUMP JUMPDEST PUSH2 0x715 JUMP JUMPDEST CALLVALUE DUP1 ISZERO PUSH2 0x2EA JUMPI PUSH1 0x0 DUP1 REVERT JUMPDEST POP PUSH2 0x26A PUSH2 0x2F9 CALLDATASIZE PUSH1 0x4 PUSH2 0x12F4 JUMP JUMPDEST PUSH4 0x8B78C6D8 PUSH1 0xC SWAP1 DUP2 MSTORE PUSH1 0x0 SWAP3 SWAP1 SWAP3 MSTORE PUSH1 0x20 SWAP1 SWAP2 KECCAK256 SLOAD DUP2 AND EQ SWAP1 JUMP JUMPDEST CALLVALUE DUP1 ISZERO PUSH2 0x321 JUMPI PUSH1 0x0 DUP1 REVERT JUMPDEST POP PUSH2 0x26A PUSH2 0x330 CALLDATASIZE PUSH1 0x4 PUSH2 0x1337 JUMP JUMPDEST PUSH2 0x763 JUMP JUMPDEST PUSH2 0x2C9 PUSH2 0x780 JUMP JUMPDEST CALLVALUE DUP1 ISZERO PUSH2 0x349 JUMPI PUSH1 0x0 DUP1 REVERT JUMPDEST POP PUSH2 0x28B PUSH2 0x358 CALLDATASIZE PUSH1 0x4 PUSH2 0x1374 JUMP JUMPDEST PUSH4 0x8B78C6D8 PUSH1 0xC SWAP1 DUP2 MSTORE PUSH1 0x0 SWAP2 SWAP1 SWAP2 MSTORE PUSH1 0x20 SWAP1 KECCAK256 SLOAD SWAP1 JUMP JUMPDEST CALLVALUE DUP1 ISZERO PUSH2 0x37C JUMPI PUSH1 0x0 DUP1 REVERT JUMPDEST POP PUSH1 0x40 MLOAD PUSH1 0x12 DUP2 MSTORE PUSH1 0x20 ADD PUSH2 0x241 JUMP JUMPDEST CALLVALUE DUP1 ISZERO PUSH2 0x398 JUMPI PUSH1 0x0 DUP1 REVERT JUMPDEST POP PUSH2 0x28B PUSH2 0x7D0 JUMP JUMPDEST CALLVALUE DUP1 ISZERO PUSH2 0x3AD JUMPI PUSH1 0x0 DUP1 REVERT JUMPDEST POP PUSH2 0x2C9 PUSH2 0x84D JUMP JUMPDEST CALLVALUE DUP1 ISZERO PUSH2 0x3C2 JUMPI PUSH1 0x0 DUP1 REVERT JUMPDEST POP PUSH2 0x2C9 PUSH2 0x3D1 CALLDATASIZE PUSH1 0x4 PUSH2 0x131E JUMP JUMPDEST PUSH2 0x85F JUMP JUMPDEST PUSH2 0x2C9 PUSH2 0x3E4 CALLDATASIZE PUSH1 0x4 PUSH2 0x12F4 JUMP JUMPDEST PUSH2 0x88A JUMP JUMPDEST CALLVALUE DUP1 ISZERO PUSH2 0x3F5 JUMPI PUSH1 0x0 DUP1 REVERT JUMPDEST POP PUSH12 0x204FCE5E3E25026110000000 PUSH2 0x28B JUMP JUMPDEST CALLVALUE DUP1 ISZERO PUSH2 0x414 JUMPI PUSH1 0x0 DUP1 REVERT JUMPDEST POP PUSH2 0x26A PUSH2 0x423 CALLDATASIZE PUSH1 0x4 PUSH2 0x12F4 JUMP JUMPDEST PUSH4 0x8B78C6D8 PUSH1 0xC SWAP1 DUP2 MSTORE PUSH1 0x0 SWAP3 SWAP1 SWAP3 MSTORE PUSH1 0x20 SWAP1 SWAP2 KECCAK256 SLOAD AND ISZERO ISZERO SWAP1 JUMP JUMPDEST PUSH2 0x2C9 PUSH2 0x8D8 JUMP JUMPDEST CALLVALUE DUP1 ISZERO PUSH2 0x453 JUMPI PUSH1 0x0 DUP1 REVERT JUMPDEST POP PUSH1 0x0 SLOAD PUSH1 0xFF AND PUSH2 0x26A JUMP JUMPDEST CALLVALUE DUP1 ISZERO PUSH2 0x46B JUMPI PUSH1 0x0 DUP1 REVERT JUMPDEST POP PUSH2 0x28B PUSH2 0x47A CALLDATASIZE PUSH1 0x4 PUSH2 0x1374 JUMP JUMPDEST PUSH4 0x87A211A2 PUSH1 0xC SWAP1 DUP2 MSTORE PUSH1 0x0 SWAP2 SWAP1 SWAP2 MSTORE PUSH1 0x20 SWAP1 KECCAK256 SLOAD SWAP1 JUMP JUMPDEST PUSH2 0x2C9 PUSH2 0x914 JUMP JUMPDEST CALLVALUE DUP1 ISZERO PUSH2 0x4A6 JUMPI PUSH1 0x0 DUP1 REVERT JUMPDEST POP PUSH2 0x2C9 PUSH2 0x4B5 CALLDATASIZE PUSH1 0x4 PUSH2 0x12F4 JUMP JUMPDEST PUSH2 0x969 JUMP JUMPDEST CALLVALUE DUP1 ISZERO PUSH2 0x4C6 JUMPI PUSH1 0x0 DUP1 REVERT JUMPDEST POP PUSH2 0x2C9 PUSH2 0x4D5 CALLDATASIZE PUSH1 0x4 PUSH2 0x12F4 JUMP JUMPDEST PUSH2 0xA8E JUMP JUMPDEST CALLVALUE DUP1 ISZERO PUSH2 0x4E6 JUMPI PUSH1 0x0 DUP1 REVERT JUMPDEST POP PUSH2 0x28B PUSH2 0x4F5 CALLDATASIZE PUSH1 0x4 PUSH2 0x1374 JUMP JUMPDEST PUSH4 0x38377508 PUSH1 0xC SWAP1 DUP2 MSTORE PUSH1 0x0 SWAP2 SWAP1 SWAP2 MSTORE PUSH1 0x20 SWAP1 KECCAK256 SLOAD SWAP1 JUMP JUMPDEST CALLVALUE DUP1 ISZERO PUSH2 0x519 JUMPI PUSH1 0x0 DUP1 REVERT JUMPDEST POP PUSH2 0x2C9 PUSH2 0xAEF JUMP JUMPDEST CALLVALUE DUP1 ISZERO PUSH2 0x52E JUMPI PUSH1 0x0 DUP1 REVERT JUMPDEST POP PUSH4 0x8B78C6D8 NOT SLOAD PUSH1 0x40 MLOAD PUSH1 0x1 PUSH1 0x1 PUSH1 0xA0 SHL SUB SWAP1 SWAP2 AND DUP2 MSTORE PUSH1 0x20 ADD PUSH2 0x241 JUMP JUMPDEST CALLVALUE DUP1 ISZERO PUSH2 0x55A JUMPI PUSH1 0x0 DUP1 REVERT JUMPDEST POP PUSH1 0x0 PUSH2 0x28B JUMP JUMPDEST CALLVALUE DUP1 ISZERO PUSH2 0x56E JUMPI PUSH1 0x0 DUP1 REVERT JUMPDEST POP PUSH2 0x26A PUSH2 0x57D CALLDATASIZE PUSH1 0x4 PUSH2 0x12F4 JUMP JUMPDEST PUSH2 0xAFF JUMP JUMPDEST CALLVALUE DUP1 ISZERO PUSH2 0x58E JUMPI PUSH1 0x0 DUP1 REVERT JUMPDEST POP PUSH2 0x26A PUSH2 0xB1A JUMP JUMPDEST CALLVALUE DUP1 ISZERO PUSH2 0x5A3 JUMPI PUSH1 0x0 DUP1 REVERT JUMPDEST POP PUSH2 0x2C9 PUSH2 0x5B2 CALLDATASIZE PUSH1 0x4 PUSH2 0x138F JUMP JUMPDEST PUSH2 0xB37 JUMP JUMPDEST CALLVALUE DUP1 ISZERO PUSH2 0x5C3 JUMPI PUSH1 0x0 DUP1 REVERT JUMPDEST POP PUSH2 0x28B PUSH2 0x5D2 CALLDATASIZE PUSH1 0x4 PUSH2 0x1402 JUMP JUMPDEST PUSH2 0xCF3 JUMP JUMPDEST CALLVALUE DUP1 ISZERO PUSH2 0x5E3 JUMPI PUSH1 0x0 DUP1 REVERT JUMPDEST POP PUSH2 0x28B PUSH1 0x1 DUP2 JUMP JUMPDEST CALLVALUE DUP1 ISZERO PUSH2 0x5F8 JUMPI PUSH1 0x0 DUP1 REVERT JUMPDEST POP PUSH2 0x26A PUSH2 0x607 CALLDATASIZE PUSH1 0x4 PUSH2 0x1435 JUMP JUMPDEST PUSH2 0xD3A JUMP JUMPDEST PUSH2 0x2C9 PUSH2 0x61A CALLDATASIZE PUSH1 0x4 PUSH2 0x1374 JUMP JUMPDEST PUSH2 0xD58 JUMP JUMPDEST PUSH2 0x2C9 PUSH2 0x62D CALLDATASIZE PUSH1 0x4 PUSH2 0x1374 JUMP JUMPDEST PUSH2 0xD88 JUMP JUMPDEST CALLVALUE DUP1 ISZERO PUSH2 0x63E JUMPI PUSH1 0x0 DUP1 REVERT JUMPDEST POP PUSH2 0x28B PUSH2 0x64D CALLDATASIZE PUSH1 0x4 PUSH2 0x1374 JUMP JUMPDEST PUSH4 0x389A75E1 PUSH1 0xC SWAP1 DUP2 MSTORE PUSH1 0x0 SWAP2 SWAP1 SWAP2 MSTORE PUSH1 0x20 SWAP1 KECCAK256 SLOAD SWAP1 JUMP JUMPDEST PUSH1 0x40 DUP1 MLOAD DUP1 DUP3 ADD SWAP1 SWAP2 MSTORE PUSH1 0x4 DUP2 MSTORE PUSH4 0x14D15151 PUSH1 0xE2 SHL PUSH1 0x20 DUP3 ADD MSTORE SWAP1 JUMP JUMPDEST PUSH1 0x0 PUSH1 0x1 PUSH1 0x1 PUSH1 0xA0 SHL SUB DUP4 AND PUSH15 0x22D473030F116DDEE9F6B43AC78BA3 XOR DUP3 NOT ISZERO OR PUSH2 0x6B6 JUMPI PUSH4 0x3F68539A PUSH1 0x0 MSTORE PUSH1 0x4 PUSH1 0x1C REVERT JUMPDEST DUP3 PUSH1 0x20 MSTORE PUSH4 0x7F5E9F20 PUSH1 0xC MSTORE CALLER PUSH1 0x0 MSTORE DUP2 PUSH1 0x34 PUSH1 0xC KECCAK256 SSTORE DUP2 PUSH1 0x0 MSTORE PUSH1 0x2C MLOAD PUSH1 0x60 SHR CALLER PUSH32 0x8C5BE1E5EBEC7D5BD14F71427D1E84F3DD0314C0F7B2291E5B200AC8C7C3B925 PUSH1 0x20 PUSH1 0x0 LOG3 POP PUSH1 0x1 JUMPDEST SWAP3 SWAP2 POP POP JUMP JUMPDEST PUSH2 0x712 CALLER DUP3 PUSH2 0xDB8 JUMP JUMPDEST POP JUMP JUMPDEST PUSH2 0x71D PUSH2 0xDC4 JUMP JUMPDEST PUSH2 0x727 DUP3 DUP3 PUSH2 0xDDF JUMP JUMPDEST PUSH1 0x40 MLOAD CALLER SWAP1 PUSH1 0x1 PUSH1 0x1 PUSH1 0xA0 SHL SUB DUP5 AND SWAP1 DUP4 SWAP1 PUSH32 0x1EC1667FBA5E43C5C76FFF54E76D7A4A20A4FECF7B49724AD8D52A3F726E9DBD SWAP1 PUSH1 0x0 SWAP1 LOG4 POP POP JUMP JUMPDEST PUSH1 0x0 PUSH2 0x76D PUSH2 0xDF1 JUMP JUMPDEST PUSH2 0x778 DUP5 DUP5 DUP5 PUSH2 0xE37 JUMP JUMPDEST SWAP5 SWAP4 POP POP POP POP JUMP JUMPDEST PUSH1 0x0 PUSH3 0x2A300 PUSH8 0xFFFFFFFFFFFFFFFF AND TIMESTAMP ADD SWAP1 POP PUSH4 0x389A75E1 PUSH1 0xC MSTORE CALLER PUSH1 0x0 MSTORE DUP1 PUSH1 0x20 PUSH1 0xC KECCAK256 SSTORE CALLER PUSH32 0xDBF36A107DA19E49527A7176A1BABF963B4B0FF8CDE35EE35D6CD8F1F9AC7E1D PUSH1 0x0 DUP1 LOG2 POP JUMP JUMPDEST PUSH1 0x0 DUP1 PUSH2 0x7DB PUSH2 0x665 JUMP JUMPDEST DUP1 MLOAD SWAP1 PUSH1 0x20 ADD KECCAK256 SWAP1 POP PUSH1 0x40 DUP1 MLOAD PUSH32 0x8B73C3C69BB8FE3D512ECC4CF759CC79239F7B179B0FFACAA9A75D522B39400F DUP2 MSTORE PUSH1 0x20 DUP2 ADD SWAP3 SWAP1 SWAP3 MSTORE PUSH32 0xC89EFDAA54C0F20C7ADF612882DF0950F5A951637E0307CDCB4C672F298B8BC6 SWAP1 DUP3 ADD MSTORE CHAINID PUSH1 0x60 DUP3 ADD MSTORE ADDRESS PUSH1 0x80 DUP3 ADD MSTORE PUSH1 0xA0 SWAP1 KECCAK256 SWAP2 SWAP1 POP JUMP JUMPDEST PUSH2 0x855 PUSH2 0xDC4 JUMP JUMPDEST PUSH2 0x85D PUSH2 0xEF8 JUMP JUMPDEST JUMP JUMPDEST PUSH1 0x0 DUP2 GT PUSH2 0x880 JUMPI PUSH1 0x40 MLOAD PUSH4 0x162908E3 PUSH1 0xE1 SHL DUP2 MSTORE PUSH1 0x4 ADD PUSH1 0x40 MLOAD DUP1 SWAP2 SUB SWAP1 REVERT JUMPDEST PUSH2 0x712 CALLER DUP3 PUSH2 0xF4A JUMP JUMPDEST PUSH2 0x892 PUSH2 0xDC4 JUMP JUMPDEST PUSH2 0x89C DUP3 DUP3 PUSH2 0xFAF JUMP JUMPDEST PUSH1 0x40 MLOAD CALLER SWAP1 PUSH1 0x1 PUSH1 0x1 PUSH1 0xA0 SHL SUB DUP5 AND SWAP1 DUP4 SWAP1 PUSH32 0xE0DF21B65C73C27081B8F042A012B124085B41D78D27B7E3C4780F5650F5EBB8 SWAP1 PUSH1 0x0 SWAP1 LOG4 POP POP JUMP JUMPDEST PUSH4 0x389A75E1 PUSH1 0xC MSTORE CALLER PUSH1 0x0 MSTORE PUSH1 0x0 PUSH1 0x20 PUSH1 0xC KECCAK256 SSTORE CALLER PUSH32 0xFA7B8EAB7DA67F412CC9575ED43464468F9BFBAE89D1675917346CA6D8FE3C92 PUSH1 0x0 DUP1 LOG2 JUMP JUMPDEST PUSH2 0x91C PUSH2 0xDC4 JUMP JUMPDEST PUSH1 0x40 MLOAD PUSH3 0x461BCD PUSH1 0xE5 SHL DUP2 MSTORE PUSH1 0x20 PUSH1 0x4 DUP3 ADD MSTORE PUSH1 0x1D PUSH1 0x24 DUP3 ADD MSTORE PUSH32 0x4F776E6572736869702063616E6E6F742062652072656E6F756E636564000000 PUSH1 0x44 DUP3 ADD MSTORE PUSH1 0x64 ADD JUMPDEST PUSH1 0x40 MLOAD DUP1 SWAP2 SUB SWAP1 REVERT JUMPDEST PUSH2 0x971 PUSH2 0xDF1 JUMP JUMPDEST PUSH4 0x8B78C6D8 PUSH1 0xC SWAP1 DUP2 MSTORE CALLER PUSH1 0x0 MSTORE PUSH1 0x20 SWAP1 KECCAK256 SLOAD PUSH1 0x1 SWAP1 DUP2 AND DUP2 EQ PUSH2 0x9A7 JUMPI PUSH1 0x40 MLOAD PUSH3 0x82B429 PUSH1 0xE8 SHL DUP2 MSTORE PUSH1 0x4 ADD PUSH1 0x40 MLOAD DUP1 SWAP2 SUB SWAP1 REVERT JUMPDEST PUSH1 0x1 PUSH1 0x1 PUSH1 0xA0 SHL SUB DUP4 AND PUSH2 0x9CE JUMPI PUSH1 0x40 MLOAD PUSH4 0xD92E233D PUSH1 0xE0 SHL DUP2 MSTORE PUSH1 0x4 ADD PUSH1 0x40 MLOAD DUP1 SWAP2 SUB SWAP1 REVERT JUMPDEST PUSH1 0x0 DUP3 GT PUSH2 0x9EF JUMPI PUSH1 0x40 MLOAD PUSH4 0x162908E3 PUSH1 0xE1 SHL DUP2 MSTORE PUSH1 0x4 ADD PUSH1 0x40 MLOAD DUP1 SWAP2 SUB SWAP1 REVERT JUMPDEST PUSH12 0x204FCE5E3E25026110000000 DUP3 PUSH1 0x1 SLOAD PUSH2 0xA0A SWAP2 SWAP1 PUSH2 0x1458 JUMP JUMPDEST GT ISZERO PUSH2 0xA29 JUMPI PUSH1 0x40 MLOAD PUSH4 0x8A164F63 PUSH1 0xE0 SHL DUP2 MSTORE PUSH1 0x4 ADD PUSH1 0x40 MLOAD DUP1 SWAP2 SUB SWAP1 REVERT JUMPDEST DUP2 PUSH1 0x1 SLOAD PUSH2 0xA37 SWAP2 SWAP1 PUSH2 0x1458 JUMP JUMPDEST PUSH1 0x1 SSTORE PUSH2 0xA44 DUP4 DUP4 PUSH2 0xFC1 JUMP JUMPDEST PUSH1 0x1 DUP4 PUSH1 0x1 PUSH1 0x1 PUSH1 0xA0 SHL SUB AND PUSH32 0xE52FA6D3D16281C545E97068F2521BB0F18B167A26B1012BADB3AB471BE0ADB7 DUP5 PUSH1 0x40 MLOAD PUSH2 0xA81 SWAP2 DUP2 MSTORE PUSH1 0x20 ADD SWAP1 JUMP JUMPDEST PUSH1 0x40 MLOAD DUP1 SWAP2 SUB SWAP1 LOG3 POP POP POP JUMP JUMPDEST PUSH1 0x1 PUSH1 0x1 PUSH1 0xA0 SHL SUB DUP3 AND PUSH2 0xAB5 JUMPI PUSH1 0x40 MLOAD PUSH4 0xD92E233D PUSH1 0xE0 SHL DUP2 MSTORE PUSH1 0x4 ADD PUSH1 0x40 MLOAD DUP1 SWAP2 SUB SWAP1 REVERT JUMPDEST PUSH1 0x0 DUP2 GT PUSH2 0xAD6 JUMPI PUSH1 0x40 MLOAD PUSH4 0x162908E3 PUSH1 0xE1 SHL DUP2 MSTORE PUSH1 0x4 ADD PUSH1 0x40 MLOAD DUP1 SWAP2 SUB SWAP1 REVERT JUMPDEST PUSH2 0xAE1 DUP3 CALLER DUP4 PUSH2 0x102E JUMP JUMPDEST PUSH2 0xAEB DUP3 DUP3 PUSH2 0xF4A JUMP JUMPDEST POP POP JUMP JUMPDEST PUSH2 0xAF7 PUSH2 0xDC4 JUMP JUMPDEST PUSH2 0x85D PUSH2 0x1094 JUMP JUMPDEST PUSH1 0x0 PUSH2 0xB09 PUSH2 0xDF1 JUMP JUMPDEST PUSH2 0xB13 DUP4 DUP4 PUSH2 0x10D1 JUMP JUMPDEST SWAP4 SWAP3 POP POP POP JUMP JUMPDEST PUSH1 0x0 PUSH2 0xB32 PUSH2 0xB2C PUSH4 0x8B78C6D8 NOT SLOAD SWAP1 JUMP JUMPDEST EXTCODESIZE ISZERO ISZERO SWAP1 JUMP JUMPDEST SWAP1 POP SWAP1 JUMP JUMPDEST PUSH1 0x1 PUSH1 0x1 PUSH1 0xA0 SHL SUB DUP7 AND PUSH15 0x22D473030F116DDEE9F6B43AC78BA3 XOR DUP6 NOT ISZERO OR PUSH2 0xB68 JUMPI PUSH4 0x3F68539A PUSH1 0x0 MSTORE PUSH1 0x4 PUSH1 0x1C REVERT JUMPDEST PUSH1 0x0 PUSH2 0xB72 PUSH2 0x665 JUMP JUMPDEST DUP1 MLOAD SWAP1 PUSH1 0x20 ADD KECCAK256 SWAP1 POP PUSH32 0xC89EFDAA54C0F20C7ADF612882DF0950F5A951637E0307CDCB4C672F298B8BC6 TIMESTAMP DUP7 LT ISZERO PUSH2 0xBB2 JUMPI PUSH4 0x1A15A3CC PUSH1 0x0 MSTORE PUSH1 0x4 PUSH1 0x1C REVERT JUMPDEST PUSH1 0x40 MLOAD DUP10 PUSH1 0x60 SHL PUSH1 0x60 SHR SWAP10 POP DUP9 PUSH1 0x60 SHL PUSH1 0x60 SHR SWAP9 POP PUSH6 0x383775081901 PUSH1 0xE MSTORE DUP10 PUSH1 0x0 MSTORE PUSH1 0x20 PUSH1 0xC KECCAK256 DUP1 SLOAD PUSH32 0x8B73C3C69BB8FE3D512ECC4CF759CC79239F7B179B0FFACAA9A75D522B39400F DUP4 MSTORE DUP5 PUSH1 0x20 DUP5 ADD MSTORE DUP4 PUSH1 0x40 DUP5 ADD MSTORE CHAINID PUSH1 0x60 DUP5 ADD MSTORE ADDRESS PUSH1 0x80 DUP5 ADD MSTORE PUSH1 0xA0 DUP4 KECCAK256 PUSH1 0x2E MSTORE PUSH32 0x6E71EDAE12B1B97F4D1F60370FEF10105FA2FAAE0126114A169C64845D6126C9 DUP4 MSTORE DUP12 PUSH1 0x20 DUP5 ADD MSTORE DUP11 PUSH1 0x40 DUP5 ADD MSTORE DUP10 PUSH1 0x60 DUP5 ADD MSTORE DUP1 PUSH1 0x80 DUP5 ADD MSTORE DUP9 PUSH1 0xA0 DUP5 ADD MSTORE PUSH1 0xC0 DUP4 KECCAK256 PUSH1 0x4E MSTORE PUSH1 0x42 PUSH1 0x2C KECCAK256 PUSH1 0x0 MSTORE DUP8 PUSH1 0xFF AND PUSH1 0x20 MSTORE DUP7 PUSH1 0x40 MSTORE DUP6 PUSH1 0x60 MSTORE PUSH1 0x20 DUP1 PUSH1 0x80 PUSH1 0x0 PUSH1 0x1 GAS STATICCALL DUP13 RETURNDATASIZE MLOAD EQ PUSH2 0xC9E JUMPI PUSH4 0xDDAFBAEF PUSH1 0x0 MSTORE PUSH1 0x4 PUSH1 0x1C REVERT JUMPDEST ADD SWAP1 SSTORE PUSH4 0x3FAF4F9 PUSH1 0xA5 SHL DUP10 OR PUSH1 0x40 MSTORE PUSH1 0x34 PUSH1 0x2C KECCAK256 DUP9 SWAP1 SSTORE DUP9 DUP11 PUSH32 0x8C5BE1E5EBEC7D5BD14F71427D1E84F3DD0314C0F7B2291E5B200AC8C7C3B925 PUSH1 0x20 PUSH1 0x60 DUP6 ADD LOG3 PUSH1 0x40 MSTORE POP POP PUSH1 0x0 PUSH1 0x60 MSTORE POP POP POP POP POP POP POP JUMP JUMPDEST PUSH1 0x0 PUSH15 0x22D473030F116DDEE9F6B43AC78BA2 NOT PUSH1 0x1 PUSH1 0x1 PUSH1 0xA0 SHL SUB DUP4 AND ADD PUSH2 0xD1E JUMPI POP PUSH1 0x0 NOT PUSH2 0x702 JUMP JUMPDEST POP PUSH1 0x20 MSTORE PUSH4 0x7F5E9F20 PUSH1 0xC SWAP1 DUP2 MSTORE PUSH1 0x0 SWAP2 SWAP1 SWAP2 MSTORE PUSH1 0x34 SWAP1 KECCAK256 SLOAD SWAP1 JUMP JUMPDEST PUSH4 0x8B78C6D8 PUSH1 0xC SWAP1 DUP2 MSTORE PUSH1 0x0 DUP3 DUP2 MSTORE PUSH1 0x20 SWAP1 SWAP2 KECCAK256 SLOAD DUP4 AND DUP4 EQ PUSH2 0xB13 JUMP JUMPDEST PUSH2 0xD60 PUSH2 0xDC4 JUMP JUMPDEST DUP1 EXTCODESIZE PUSH2 0xD7F JUMPI PUSH1 0x40 MLOAD PUSH4 0xB597F865 PUSH1 0xE0 SHL DUP2 MSTORE PUSH1 0x4 ADD PUSH1 0x40 MLOAD DUP1 SWAP2 SUB SWAP1 REVERT JUMPDEST PUSH2 0x712 DUP2 PUSH2 0x113A JUMP JUMPDEST PUSH2 0xD90 PUSH2 0xDC4 JUMP JUMPDEST DUP1 EXTCODESIZE PUSH2 0xDAF JUMPI PUSH1 0x40 MLOAD PUSH4 0xB597F865 PUSH1 0xE0 SHL DUP2 MSTORE PUSH1 0x4 ADD PUSH1 0x40 MLOAD DUP1 SWAP2 SUB SWAP1 REVERT JUMPDEST PUSH2 0x712 DUP2 PUSH2 0x1177 JUMP JUMPDEST PUSH2 0xAEB DUP3 DUP3 PUSH1 0x0 PUSH2 0x119E JUMP JUMPDEST PUSH4 0x8B78C6D8 NOT SLOAD CALLER EQ PUSH2 0x85D JUMPI PUSH4 0x82B42900 PUSH1 0x0 MSTORE PUSH1 0x4 PUSH1 0x1C REVERT JUMPDEST PUSH2 0xDE7 PUSH2 0xDC4 JUMP JUMPDEST PUSH2 0xAEB DUP3 DUP3 PUSH2 0x11F7 JUMP JUMPDEST PUSH1 0x0 SLOAD PUSH1 0xFF AND ISZERO PUSH2 0x85D JUMPI PUSH1 0x40 MLOAD PUSH3 0x461BCD PUSH1 0xE5 SHL DUP2 MSTORE PUSH1 0x20 PUSH1 0x4 DUP3 ADD MSTORE PUSH1 0x10 PUSH1 0x24 DUP3 ADD MSTORE PUSH16 0x14185D5CD8589B194E881C185D5CD959 PUSH1 0x82 SHL PUSH1 0x44 DUP3 ADD MSTORE PUSH1 0x64 ADD PUSH2 0x960 JUMP JUMPDEST PUSH1 0x0 DUP4 PUSH1 0x60 SHL PUSH15 0x22D473030F116DDEE9F6B43AC78BA3 CALLER EQ PUSH2 0xE8E JUMPI CALLER PUSH1 0x20 MSTORE PUSH4 0x7F5E9F20 DUP2 OR PUSH1 0xC MSTORE PUSH1 0x34 PUSH1 0xC KECCAK256 DUP1 SLOAD DUP1 NOT ISZERO PUSH2 0xE8B JUMPI DUP1 DUP6 GT ISZERO PUSH2 0xE85 JUMPI PUSH4 0x13BE252B PUSH1 0x0 MSTORE PUSH1 0x4 PUSH1 0x1C REVERT JUMPDEST DUP5 DUP2 SUB DUP3 SSTORE JUMPDEST POP POP JUMPDEST PUSH4 0x87A211A2 DUP2 OR PUSH1 0xC MSTORE PUSH1 0x20 PUSH1 0xC KECCAK256 DUP1 SLOAD DUP1 DUP6 GT ISZERO PUSH2 0xEB5 JUMPI PUSH4 0xF4D678B8 PUSH1 0x0 MSTORE PUSH1 0x4 PUSH1 0x1C REVERT JUMPDEST DUP5 DUP2 SUB DUP3 SSTORE POP POP DUP4 PUSH1 0x0 MSTORE PUSH1 0x20 PUSH1 0xC KECCAK256 DUP4 DUP2 SLOAD ADD DUP2 SSTORE POP DUP3 PUSH1 0x20 MSTORE PUSH1 0xC MLOAD PUSH1 0x60 SHR DUP2 PUSH1 0x60 SHR PUSH1 0x0 DUP1 MLOAD PUSH1 0x20 PUSH2 0x147A DUP4 CODECOPY DUP2 MLOAD SWAP2 MSTORE PUSH1 0x20 DUP1 LOG3 POP POP PUSH1 0x1 SWAP4 SWAP3 POP POP POP JUMP JUMPDEST PUSH2 0xF00 PUSH2 0x1203 JUMP JUMPDEST PUSH1 0x0 DUP1 SLOAD PUSH1 0xFF NOT AND SWAP1 SSTORE PUSH32 0x5DB9EE0A495BF2E6FF9C91A7834C1BA4FDD244A5E8AA4E537BD38AEAE4B073AA CALLER JUMPDEST PUSH1 0x40 MLOAD PUSH1 0x1 PUSH1 0x1 PUSH1 0xA0 SHL SUB SWAP1 SWAP2 AND DUP2 MSTORE PUSH1 0x20 ADD PUSH1 0x40 MLOAD DUP1 SWAP2 SUB SWAP1 LOG1 JUMP JUMPDEST PUSH4 0x87A211A2 PUSH1 0xC MSTORE DUP2 PUSH1 0x0 MSTORE PUSH1 0x20 PUSH1 0xC KECCAK256 DUP1 SLOAD DUP1 DUP4 GT ISZERO PUSH2 0xF73 JUMPI PUSH4 0xF4D678B8 PUSH1 0x0 MSTORE PUSH1 0x4 PUSH1 0x1C REVERT JUMPDEST DUP3 SWAP1 SUB SWAP1 SSTORE PUSH9 0x5345CDF77EB68F44C DUP1 SLOAD DUP3 SWAP1 SUB SWAP1 SSTORE PUSH1 0x0 DUP2 DUP2 MSTORE PUSH1 0x1 PUSH1 0x1 PUSH1 0xA0 SHL SUB DUP4 AND PUSH1 0x0 DUP1 MLOAD PUSH1 0x20 PUSH2 0x147A DUP4 CODECOPY DUP2 MLOAD SWAP2 MSTORE PUSH1 0x20 DUP4 LOG3 POP POP JUMP JUMPDEST PUSH2 0xFB7 PUSH2 0xDC4 JUMP JUMPDEST PUSH2 0xAEB DUP3 DUP3 PUSH2 0xDB8 JUMP JUMPDEST PUSH9 0x5345CDF77EB68F44C SLOAD DUP2 DUP2 ADD DUP2 DUP2 LT ISZERO PUSH2 0xFE5 JUMPI PUSH4 0xE5CFE957 PUSH1 0x0 MSTORE PUSH1 0x4 PUSH1 0x1C REVERT JUMPDEST DUP1 PUSH9 0x5345CDF77EB68F44C SSTORE POP POP PUSH4 0x87A211A2 PUSH1 0xC MSTORE DUP2 PUSH1 0x0 MSTORE PUSH1 0x20 PUSH1 0xC KECCAK256 DUP2 DUP2 SLOAD ADD DUP2 SSTORE POP DUP1 PUSH1 0x20 MSTORE PUSH1 0xC MLOAD PUSH1 0x60 SHR PUSH1 0x0 PUSH1 0x0 DUP1 MLOAD PUSH1 0x20 PUSH2 0x147A DUP4 CODECOPY DUP2 MLOAD SWAP2 MSTORE PUSH1 0x20 DUP1 LOG3 POP POP JUMP JUMPDEST PUSH15 0x22D473030F116DDEE9F6B43AC78BA2 NOT PUSH1 0x1 PUSH1 0x1 PUSH1 0xA0 SHL SUB DUP4 AND ADD PUSH2 0x1053 JUMPI POP POP POP JUMP JUMPDEST DUP2 PUSH1 0x20 MSTORE PUSH4 0x7F5E9F20 PUSH1 0xC MSTORE DUP3 PUSH1 0x0 MSTORE PUSH1 0x34 PUSH1 0xC KECCAK256 DUP1 SLOAD DUP1 NOT ISZERO PUSH2 0x108D JUMPI DUP1 DUP4 GT ISZERO PUSH2 0x1087 JUMPI PUSH4 0x13BE252B PUSH1 0x0 MSTORE PUSH1 0x4 PUSH1 0x1C REVERT JUMPDEST DUP3 DUP2 SUB DUP3 SSTORE JUMPDEST POP POP POP POP POP JUMP JUMPDEST PUSH2 0x109C PUSH2 0xDF1 JUMP JUMPDEST PUSH1 0x0 DUP1 SLOAD PUSH1 0xFF NOT AND PUSH1 0x1 OR SWAP1 SSTORE PUSH32 0x62E78CEA01BEE320CD4E420270B5EA74000D11B0C9F74754EBDBFC544B05A258 PUSH2 0xF2D CALLER SWAP1 JUMP JUMPDEST PUSH1 0x0 PUSH4 0x87A211A2 PUSH1 0xC MSTORE CALLER PUSH1 0x0 MSTORE PUSH1 0x20 PUSH1 0xC KECCAK256 DUP1 SLOAD DUP1 DUP5 GT ISZERO PUSH2 0x10FC JUMPI PUSH4 0xF4D678B8 PUSH1 0x0 MSTORE PUSH1 0x4 PUSH1 0x1C REVERT JUMPDEST DUP4 DUP2 SUB DUP3 SSTORE POP POP DUP3 PUSH1 0x0 MSTORE PUSH1 0x20 PUSH1 0xC KECCAK256 DUP3 DUP2 SLOAD ADD DUP2 SSTORE POP DUP2 PUSH1 0x20 MSTORE PUSH1 0xC MLOAD PUSH1 0x60 SHR CALLER PUSH1 0x0 DUP1 MLOAD PUSH1 0x20 PUSH2 0x147A DUP4 CODECOPY DUP2 MLOAD SWAP2 MSTORE PUSH1 0x20 DUP1 LOG3 POP PUSH1 0x1 SWAP3 SWAP2 POP POP JUMP JUMPDEST PUSH2 0x1142 PUSH2 0xDC4 JUMP JUMPDEST PUSH4 0x389A75E1 PUSH1 0xC MSTORE DUP1 PUSH1 0x0 MSTORE PUSH1 0x20 PUSH1 0xC KECCAK256 DUP1 SLOAD TIMESTAMP GT ISZERO PUSH2 0x116A JUMPI PUSH4 0x6F5E8818 PUSH1 0x0 MSTORE PUSH1 0x4 PUSH1 0x1C REVERT JUMPDEST PUSH1 0x0 SWAP1 SSTORE PUSH2 0x712 DUP2 PUSH2 0x124C JUMP JUMPDEST PUSH2 0x117F PUSH2 0xDC4 JUMP JUMPDEST DUP1 PUSH1 0x60 SHL PUSH2 0x1195 JUMPI PUSH4 0x7448FBAE PUSH1 0x0 MSTORE PUSH1 0x4 PUSH1 0x1C REVERT JUMPDEST PUSH2 0x712 DUP2 PUSH2 0x124C JUMP JUMPDEST PUSH4 0x8B78C6D8 PUSH1 0xC MSTORE DUP3 PUSH1 0x0 MSTORE PUSH1 0x20 PUSH1 0xC KECCAK256 DUP1 SLOAD DUP4 DUP2 OR DUP4 PUSH2 0x11C0 JUMPI POP DUP1 DUP5 AND DUP2 XOR JUMPDEST DUP1 DUP4 SSTORE DUP1 PUSH1 0xC MLOAD PUSH1 0x60 SHR PUSH32 0x715AD5CE61FC9595C7B415289D59CF203F23A94FA06F04AF7E489A0A76E1FE26 PUSH1 0x0 DUP1 LOG3 POP POP POP POP POP POP JUMP JUMPDEST PUSH2 0xAEB DUP3 DUP3 PUSH1 0x1 PUSH2 0x119E JUMP JUMPDEST PUSH1 0x0 SLOAD PUSH1 0xFF AND PUSH2 0x85D JUMPI PUSH1 0x40 MLOAD PUSH3 0x461BCD PUSH1 0xE5 SHL DUP2 MSTORE PUSH1 0x20 PUSH1 0x4 DUP3 ADD MSTORE PUSH1 0x14 PUSH1 0x24 DUP3 ADD MSTORE PUSH20 0x14185D5CD8589B194E881B9BDD081C185D5CD959 PUSH1 0x62 SHL PUSH1 0x44 DUP3 ADD MSTORE PUSH1 0x64 ADD PUSH2 0x960 JUMP JUMPDEST PUSH4 0x8B78C6D8 NOT DUP1 SLOAD PUSH1 0x1 PUSH1 0x1 PUSH1 0xA0 SHL SUB SWAP1 SWAP3 AND SWAP2 DUP3 SWAP1 PUSH32 0x8BE0079C531659141344CD1FD0A4F28419497F9722A3DAAFE3B4186F6B6457E0 PUSH1 0x0 DUP1 LOG3 SSTORE JUMP JUMPDEST PUSH1 0x20 DUP2 MSTORE PUSH1 0x0 DUP3 MLOAD DUP1 PUSH1 0x20 DUP5 ADD MSTORE PUSH1 0x0 JUMPDEST DUP2 DUP2 LT ISZERO PUSH2 0x12B8 JUMPI PUSH1 0x20 DUP2 DUP7 ADD DUP2 ADD MLOAD PUSH1 0x40 DUP7 DUP5 ADD ADD MSTORE ADD PUSH2 0x129B JUMP JUMPDEST POP PUSH1 0x0 PUSH1 0x40 DUP3 DUP6 ADD ADD MSTORE PUSH1 0x40 PUSH1 0x1F NOT PUSH1 0x1F DUP4 ADD AND DUP5 ADD ADD SWAP2 POP POP SWAP3 SWAP2 POP POP JUMP JUMPDEST DUP1 CALLDATALOAD PUSH1 0x1 PUSH1 0x1 PUSH1 0xA0 SHL SUB DUP2 AND DUP2 EQ PUSH2 0x12EF JUMPI PUSH1 0x0 DUP1 REVERT JUMPDEST SWAP2 SWAP1 POP JUMP JUMPDEST PUSH1 0x0 DUP1 PUSH1 0x40 DUP4 DUP6 SUB SLT ISZERO PUSH2 0x1307 JUMPI PUSH1 0x0 DUP1 REVERT JUMPDEST PUSH2 0x1310 DUP4 PUSH2 0x12D8 JUMP JUMPDEST SWAP5 PUSH1 0x20 SWAP4 SWAP1 SWAP4 ADD CALLDATALOAD SWAP4 POP POP POP JUMP JUMPDEST PUSH1 0x0 PUSH1 0x20 DUP3 DUP5 SUB SLT ISZERO PUSH2 0x1330 JUMPI PUSH1 0x0 DUP1 REVERT JUMPDEST POP CALLDATALOAD SWAP2 SWAP1 POP JUMP JUMPDEST PUSH1 0x0 DUP1 PUSH1 0x0 PUSH1 0x60 DUP5 DUP7 SUB SLT ISZERO PUSH2 0x134C JUMPI PUSH1 0x0 DUP1 REVERT JUMPDEST PUSH2 0x1355 DUP5 PUSH2 0x12D8 JUMP JUMPDEST SWAP3 POP PUSH2 0x1363 PUSH1 0x20 DUP6 ADD PUSH2 0x12D8 JUMP JUMPDEST SWAP3 SWAP6 SWAP3 SWAP5 POP POP POP PUSH1 0x40 SWAP2 SWAP1 SWAP2 ADD CALLDATALOAD SWAP1 JUMP JUMPDEST PUSH1 0x0 PUSH1 0x20 DUP3 DUP5 SUB SLT ISZERO PUSH2 0x1386 JUMPI PUSH1 0x0 DUP1 REVERT JUMPDEST PUSH2 0xB13 DUP3 PUSH2 0x12D8 JUMP JUMPDEST PUSH1 0x0 DUP1 PUSH1 0x0 DUP1 PUSH1 0x0 DUP1 PUSH1 0x0 PUSH1 0xE0 DUP9 DUP11 SUB SLT ISZERO PUSH2 0x13AA JUMPI PUSH1 0x0 DUP1 REVERT JUMPDEST PUSH2 0x13B3 DUP9 PUSH2 0x12D8 JUMP JUMPDEST SWAP7 POP PUSH2 0x13C1 PUSH1 0x20 DUP10 ADD PUSH2 0x12D8 JUMP JUMPDEST SWAP6 POP PUSH1 0x40 DUP9 ADD CALLDATALOAD SWAP5 POP PUSH1 0x60 DUP9 ADD CALLDATALOAD SWAP4 POP PUSH1 0x80 DUP9 ADD CALLDATALOAD PUSH1 0xFF DUP2 AND DUP2 EQ PUSH2 0x13E5 JUMPI PUSH1 0x0 DUP1 REVERT JUMPDEST SWAP7 SWAP10 SWAP6 SWAP9 POP SWAP4 SWAP7 SWAP3 SWAP6 SWAP5 PUSH1 0xA0 DUP5 ADD CALLDATALOAD SWAP5 POP PUSH1 0xC0 SWAP1 SWAP4 ADD CALLDATALOAD SWAP3 SWAP2 POP POP JUMP JUMPDEST PUSH1 0x0 DUP1 PUSH1 0x40 DUP4 DUP6 SUB SLT ISZERO PUSH2 0x1415 JUMPI PUSH1 0x0 DUP1 REVERT JUMPDEST PUSH2 0x141E DUP4 PUSH2 0x12D8 JUMP JUMPDEST SWAP2 POP PUSH2 0x142C PUSH1 0x20 DUP5 ADD PUSH2 0x12D8 JUMP JUMPDEST SWAP1 POP SWAP3 POP SWAP3 SWAP1 POP JUMP JUMPDEST PUSH1 0x0 DUP1 PUSH1 0x40 DUP4 DUP6 SUB SLT ISZERO PUSH2 0x1448 JUMPI PUSH1 0x0 DUP1 REVERT JUMPDEST DUP3 CALLDATALOAD SWAP2 POP PUSH2 0x142C PUSH1 0x20 DUP5 ADD PUSH2 0x12D8 JUMP JUMPDEST DUP1 DUP3 ADD DUP1 DUP3 GT ISZERO PUSH2 0x702 JUMPI PUSH4 0x4E487B71 PUSH1 0xE0 SHL PUSH1 0x0 MSTORE PUSH1 0x11 PUSH1 0x4 MSTORE PUSH1 0x24 PUSH1 0x0 REVERT INVALID 0xDD CALLCODE MSTORE 0xAD SHL 0xE2 0xC8 SWAP12 PUSH10 0xC2B068FC378DAA952BA7 CALL PUSH4 0xC4A11628 CREATE2 GAS 0x4D CREATE2 0x23 0xB3 0xEF LOG2 PUSH5 0x6970667358 0x22 SLT KECCAK256 PUSH25 0xEE760E7D436309B9BE789553449D418F59C7FB18EA6775BB97 PUSH30 0x8F6A3D1E3864736F6C634300081E00330000000000000000000000000000 "},"methodIdentifiers":{"DEFAULT_ADMIN_ROLE()":"a217fddf","DOMAIN_SEPARATOR()":"3644e515","REWARD_MINTER_ROLE()":"de9bb635","allowance(address,address)":"dd62ed3e","approve(address,uint256)":"095ea7b3","balanceOf(address)":"70a08231","burn(uint256)":"42966c68","burnFrom(address,uint256)":"79cc6790","cancelOwnershipHandover()":"54d1f13d","completeOwnershipHandover(address)":"f04e283e","decimals()":"313ce567","getMaxSupply()":"4c0f38c2","getTotalMinted()":"0ca1c5c9","grantRoles(address,uint256)":"1c10893f","hasAllRoles(address,uint256)":"1cd64df4","hasAnyRole(address,uint256)":"514e62fc","hasRole(uint256,address)":"ec2606c0","isOwnerMultisig()":"c33cd4cb","name()":"06fdde03","nonces(address)":"7ecebe00","owner()":"8da5cb5b","ownershipHandoverExpiresAt(address)":"fee81cf4","pause()":"8456cb59","paused()":"5c975abb","permit(address,address,uint256,uint256,uint8,bytes32,bytes32)":"d505accf","renounceOwnership()":"715018a6","renounceRoles(uint256)":"183a4f6e","requestOwnershipHandover()":"25692962","revokeRoles(address,uint256)":"4a4ee7b1","rewardMint(address,uint256)":"72104205","rolesOf(address)":"2de94807","symbol()":"95d89b41","totalSupply()":"18160ddd","transfer(address,uint256)":"a9059cbb","transferFrom(address,address,uint256)":"23b872dd","transferOwnership(address)":"f2fde38b","unpause()":"3f4ba83a"}}}}}