{"contracts/CAPX.sol":{"CAPX":{"abi":[{"inputs":[{"internalType":"address","name":"_treasuryAddress","type":"address"},{"internalType":"address","name":"_daoAddress","type":"address"},{"internalType":"address","name":"_adminAddress","type":"address"}],"stateMutability":"nonpayable","type":"constructor"},{"anonymous":false,"inputs":[{"indexed":true,"internalType":"address","name":"owner","type":"address"},{"indexed":true,"internalType":"address","name":"spender","type":"address"},{"indexed":false,"internalType":"uint256","name":"value","type":"uint256"}],"name":"Approval","type":"event"},{"anonymous":false,"inputs":[{"indexed":true,"internalType":"address","name":"oldAddress","type":"address"},{"indexed":true,"internalType":"address","name":"newAddress","type":"address"}],"name":"DAOAddressUpdated","type":"event"},{"anonymous":false,"inputs":[{"indexed":true,"internalType":"address","name":"account","type":"address"},{"indexed":false,"internalType":"bool","name":"isExempt","type":"bool"}],"name":"ExemptionUpdated","type":"event"},{"anonymous":false,"inputs":[{"indexed":false,"internalType":"address","name":"account","type":"address"}],"name":"Paused","type":"event"},{"anonymous":false,"inputs":[{"indexed":true,"internalType":"address","name":"to","type":"address"},{"indexed":false,"internalType":"uint256","name":"amount","type":"uint256"},{"indexed":false,"internalType":"uint256","name":"revenue","type":"uint256"},{"indexed":false,"internalType":"uint256","name":"marketValue","type":"uint256"}],"name":"RevenueMint","type":"event"},{"anonymous":false,"inputs":[{"indexed":true,"internalType":"bytes32","name":"role","type":"bytes32"},{"indexed":true,"internalType":"bytes32","name":"previousAdminRole","type":"bytes32"},{"indexed":true,"internalType":"bytes32","name":"newAdminRole","type":"bytes32"}],"name":"RoleAdminChanged","type":"event"},{"anonymous":false,"inputs":[{"indexed":true,"internalType":"bytes32","name":"role","type":"bytes32"},{"indexed":true,"internalType":"address","name":"account","type":"address"},{"indexed":true,"internalType":"address","name":"sender","type":"address"}],"name":"RoleGranted","type":"event"},{"anonymous":false,"inputs":[{"indexed":true,"internalType":"bytes32","name":"role","type":"bytes32"},{"indexed":true,"internalType":"address","name":"account","type":"address"},{"indexed":true,"internalType":"address","name":"sender","type":"address"}],"name":"RoleRevoked","type":"event"},{"anonymous":false,"inputs":[{"indexed":true,"internalType":"address","name":"from","type":"address"},{"indexed":true,"internalType":"address","name":"to","type":"address"},{"indexed":false,"internalType":"uint256","name":"value","type":"uint256"}],"name":"Transfer","type":"event"},{"anonymous":false,"inputs":[{"indexed":true,"internalType":"address","name":"oldAddress","type":"address"},{"indexed":true,"internalType":"address","name":"newAddress","type":"address"}],"name":"TreasuryAddressUpdated","type":"event"},{"anonymous":false,"inputs":[{"indexed":true,"internalType":"address","name":"from","type":"address"},{"indexed":true,"internalType":"address","name":"to","type":"address"},{"indexed":false,"internalType":"uint256","name":"amount","type":"uint256"}],"name":"TreasuryFee","type":"event"},{"anonymous":false,"inputs":[{"indexed":false,"internalType":"address","name":"account","type":"address"}],"name":"Unpaused","type":"event"},{"inputs":[],"name":"BURN_FEE_PERCENT","outputs":[{"internalType":"uint256","name":"","type":"uint256"}],"stateMutability":"view","type":"function"},{"inputs":[],"name":"DAO_MINTER_ROLE","outputs":[{"internalType":"bytes32","name":"","type":"bytes32"}],"stateMutability":"view","type":"function"},{"inputs":[],"name":"DEFAULT_ADMIN_ROLE","outputs":[{"internalType":"bytes32","name":"","type":"bytes32"}],"stateMutability":"view","type":"function"},{"inputs":[],"name":"MAX_SUPPLY","outputs":[{"internalType":"uint256","name":"","type":"uint256"}],"stateMutability":"view","type":"function"},{"inputs":[],"name":"PAUSER_ROLE","outputs":[{"internalType":"bytes32","name":"","type":"bytes32"}],"stateMutability":"view","type":"function"},{"inputs":[],"name":"TEAM_MINTER_ROLE","outputs":[{"internalType":"bytes32","name":"","type":"bytes32"}],"stateMutability":"view","type":"function"},{"inputs":[],"name":"TREASURY_FEE_PERCENT","outputs":[{"internalType":"uint256","name":"","type":"uint256"}],"stateMutability":"view","type":"function"},{"inputs":[],"name":"TREASURY_MINTER_ROLE","outputs":[{"internalType":"bytes32","name":"","type":"bytes32"}],"stateMutability":"view","type":"function"},{"inputs":[{"internalType":"address","name":"owner","type":"address"},{"internalType":"address","name":"spender","type":"address"}],"name":"allowance","outputs":[{"internalType":"uint256","name":"","type":"uint256"}],"stateMutability":"view","type":"function"},{"inputs":[{"internalType":"address","name":"spender","type":"address"},{"internalType":"uint256","name":"amount","type":"uint256"}],"name":"approve","outputs":[{"internalType":"bool","name":"","type":"bool"}],"stateMutability":"nonpayable","type":"function"},{"inputs":[{"internalType":"address","name":"account","type":"address"}],"name":"balanceOf","outputs":[{"internalType":"uint256","name":"","type":"uint256"}],"stateMutability":"view","type":"function"},{"inputs":[{"internalType":"uint256","name":"amount","type":"uint256"}],"name":"burn","outputs":[],"stateMutability":"nonpayable","type":"function"},{"inputs":[{"internalType":"address","name":"account","type":"address"},{"internalType":"uint256","name":"amount","type":"uint256"}],"name":"burnFrom","outputs":[],"stateMutability":"nonpayable","type":"function"},{"inputs":[{"internalType":"uint256","name":"amount","type":"uint256"}],"name":"canMint","outputs":[{"internalType":"bool","name":"","type":"bool"}],"stateMutability":"view","type":"function"},{"inputs":[],"name":"daoAddress","outputs":[{"internalType":"address","name":"","type":"address"}],"stateMutability":"view","type":"function"},{"inputs":[{"internalType":"address","name":"to","type":"address"},{"internalType":"uint256","name":"amount","type":"uint256"}],"name":"daoMint","outputs":[],"stateMutability":"nonpayable","type":"function"},{"inputs":[],"name":"decimals","outputs":[{"internalType":"uint8","name":"","type":"uint8"}],"stateMutability":"pure","type":"function"},{"inputs":[{"internalType":"address","name":"spender","type":"address"},{"internalType":"uint256","name":"subtractedValue","type":"uint256"}],"name":"decreaseAllowance","outputs":[{"internalType":"bool","name":"","type":"bool"}],"stateMutability":"nonpayable","type":"function"},{"inputs":[{"internalType":"bytes32","name":"role","type":"bytes32"}],"name":"getRoleAdmin","outputs":[{"internalType":"bytes32","name":"","type":"bytes32"}],"stateMutability":"view","type":"function"},{"inputs":[{"internalType":"bytes32","name":"role","type":"bytes32"},{"internalType":"address","name":"account","type":"address"}],"name":"grantRole","outputs":[],"stateMutability":"nonpayable","type":"function"},{"inputs":[{"internalType":"bytes32","name":"role","type":"bytes32"},{"internalType":"address","name":"account","type":"address"}],"name":"hasRole","outputs":[{"internalType":"bool","name":"","type":"bool"}],"stateMutability":"view","type":"function"},{"inputs":[{"internalType":"address","name":"spender","type":"address"},{"internalType":"uint256","name":"addedValue","type":"uint256"}],"name":"increaseAllowance","outputs":[{"internalType":"bool","name":"","type":"bool"}],"stateMutability":"nonpayable","type":"function"},{"inputs":[{"internalType":"address","name":"","type":"address"}],"name":"isExemptFromFees","outputs":[{"internalType":"bool","name":"","type":"bool"}],"stateMutability":"view","type":"function"},{"inputs":[],"name":"name","outputs":[{"internalType":"string","name":"","type":"string"}],"stateMutability":"view","type":"function"},{"inputs":[],"name":"pause","outputs":[],"stateMutability":"nonpayable","type":"function"},{"inputs":[],"name":"paused","outputs":[{"internalType":"bool","name":"","type":"bool"}],"stateMutability":"view","type":"function"},{"inputs":[],"name":"remainingMintableSupply","outputs":[{"internalType":"uint256","name":"","type":"uint256"}],"stateMutability":"view","type":"function"},{"inputs":[{"internalType":"bytes32","name":"role","type":"bytes32"},{"internalType":"address","name":"account","type":"address"}],"name":"renounceRole","outputs":[],"stateMutability":"nonpayable","type":"function"},{"inputs":[{"internalType":"address","name":"to","type":"address"},{"internalType":"uint256","name":"revenue","type":"uint256"},{"internalType":"uint256","name":"marketValue","type":"uint256"}],"name":"revenueMint","outputs":[],"stateMutability":"nonpayable","type":"function"},{"inputs":[{"internalType":"bytes32","name":"role","type":"bytes32"},{"internalType":"address","name":"account","type":"address"}],"name":"revokeRole","outputs":[],"stateMutability":"nonpayable","type":"function"},{"inputs":[{"internalType":"address","name":"account","type":"address"},{"internalType":"bool","name":"exempt","type":"bool"}],"name":"setExemption","outputs":[],"stateMutability":"nonpayable","type":"function"},{"inputs":[{"internalType":"bytes4","name":"interfaceId","type":"bytes4"}],"name":"supportsInterface","outputs":[{"internalType":"bool","name":"","type":"bool"}],"stateMutability":"view","type":"function"},{"inputs":[],"name":"symbol","outputs":[{"internalType":"string","name":"","type":"string"}],"stateMutability":"view","type":"function"},{"inputs":[{"internalType":"address","name":"to","type":"address"},{"internalType":"uint256","name":"amount","type":"uint256"}],"name":"teamMint","outputs":[],"stateMutability":"nonpayable","type":"function"},{"inputs":[],"name":"totalMinted","outputs":[{"internalType":"uint256","name":"","type":"uint256"}],"stateMutability":"view","type":"function"},{"inputs":[],"name":"totalSupply","outputs":[{"internalType":"uint256","name":"","type":"uint256"}],"stateMutability":"view","type":"function"},{"inputs":[{"internalType":"address","name":"to","type":"address"},{"internalType":"uint256","name":"amount","type":"uint256"}],"name":"transfer","outputs":[{"internalType":"bool","name":"","type":"bool"}],"stateMutability":"nonpayable","type":"function"},{"inputs":[{"internalType":"address","name":"from","type":"address"},{"internalType":"address","name":"to","type":"address"},{"internalType":"uint256","name":"amount","type":"uint256"}],"name":"transferFrom","outputs":[{"internalType":"bool","name":"","type":"bool"}],"stateMutability":"nonpayable","type":"function"},{"inputs":[],"name":"treasuryAddress","outputs":[{"internalType":"address","name":"","type":"address"}],"stateMutability":"view","type":"function"},{"inputs":[{"internalType":"address","name":"to","type":"address"},{"internalType":"uint256","name":"amount","type":"uint256"}],"name":"treasuryMint","outputs":[],"stateMutability":"nonpayable","type":"function"},{"inputs":[],"name":"unpause","outputs":[],"stateMutability":"nonpayable","type":"function"},{"inputs":[{"internalType":"address","name":"newDAO","type":"address"}],"name":"updateDAOAddress","outputs":[],"stateMutability":"nonpayable","type":"function"},{"inputs":[{"internalType":"address","name":"newTreasury","type":"address"}],"name":"updateTreasuryAddress","outputs":[],"stateMutability":"nonpayable","type":"function"}],"evm":{"bytecode":{"linkReferences":{},"object":"60806040523480156200001157600080fd5b5060405162002524380380620025248339810160408190526200003491620003f7565b6040518060400160405280600f81526020016e21a0a829b434b2b632102a37b5b2b760891b815250604051806040016040528060048152602001634341505960e01b81525081600390816200008a9190620004e6565b506004620000998282620004e6565b50506005805460ff19169055506001600160a01b038316620001025760405162461bcd60e51b815260206004820152601f60248201527f547265617375727920616464726573732063616e6e6f74206265207a65726f0060448201526064015b60405180910390fd5b6001600160a01b0382166200015a5760405162461bcd60e51b815260206004820152601a60248201527f44414f20616464726573732063616e6e6f74206265207a65726f0000000000006044820152606401620000f9565b6001600160a01b038116620001b25760405162461bcd60e51b815260206004820152601c60248201527f41646d696e20616464726573732063616e6e6f74206265207a65726f000000006044820152606401620000f9565b600780546001600160a01b038086166001600160a01b0319928316179092556008805492851692909116919091179055620001ef60008262000335565b6200021b7f65d7a28e3265b37a6474929f336521b332c1681b933f6cb9f3376673440d862a8262000335565b620002477fd85a4cf5d37a04dd33dd5be180981c3f745ce2f4ee8a4dbd26e87bff585770238262000335565b620002737f18f2e6085d5811142b8c6597e0f2141f5a661e3eaa75b261016dce0b6f99208b8262000335565b6200029f7f58dddaa4dace832ab03be4aaaec7240b427c5fea2d9055ce503e15d7ea09ce248262000335565b6001600160a01b038381166000818152600a602090815260408083208054600160ff199182168117909255958816845292819020805490951683179094559251908152909160008051602062002504833981519152910160405180910390a2604051600181526001600160a01b03831690600080516020620025048339815191529060200160405180910390a2505050620005b2565b60008281526006602090815260408083206001600160a01b038516845290915290205460ff16620003d65760008281526006602090815260408083206001600160a01b03851684529091529020805460ff19166001179055620003953390565b6001600160a01b0316816001600160a01b0316837f2f8788117e7eff1d82e926ec794901d17c78024a50270940304540a733656f0d60405160405180910390a45b5050565b80516001600160a01b0381168114620003f257600080fd5b919050565b6000806000606084860312156200040d57600080fd5b6200041884620003da565b92506200042860208501620003da565b91506200043860408501620003da565b90509250925092565b634e487b7160e01b600052604160045260246000fd5b600181811c908216806200046c57607f821691505b6020821081036200048d57634e487b7160e01b600052602260045260246000fd5b50919050565b601f821115620004e157600081815260208120601f850160051c81016020861015620004bc5750805b601f850160051c820191505b81811015620004dd57828155600101620004c8565b5050505b505050565b81516001600160401b0381111562000502576200050262000441565b6200051a8162000513845462000457565b8462000493565b602080601f831160018114620005525760008415620005395750858301515b600019600386901b1c1916600185901b178555620004dd565b600085815260208120601f198616915b82811015620005835788860151825594840194600190910190840162000562565b5085821015620005a25787850151600019600388901b60f8161c191681555b5050505050600190811b01905550565b611f4280620005c26000396000f3fe608060405234801561001057600080fd5b50600436106102695760003560e01c806360fd098911610151578063a9059cbb116100c3578063d3f34ff111610087578063d3f34ff114610577578063d547741f1461058a578063dd62ed3e1461059d578063e111703a146105b0578063e63ab1e9146105b8578063fad5c5b3146105b057600080fd5b8063a9059cbb14610504578063aa35cca314610517578063add5a4fa1461052a578063c5f956af1461053d578063ceeb69f91461055057600080fd5b80638456cb59116101155780638456cb59146104bd57806391d14854146104c557806395d89b41146104d8578063a217fddf146104e0578063a2309ff8146104e8578063a457c2d7146104f157600080fd5b806360fd09891461042457806370a082311461044757806379cc6790146104705780637a6e223c14610483578063841e4561146104aa57600080fd5b8063313ce567116101ea5780633ea6e071116101ae5780633ea6e071146103b15780633f4ba83a146103c457806342966c68146103cc5780635c975abb146103df5780635dd871a3146103ea5780635fd6a41b146103fd57600080fd5b8063313ce5671461036c57806332cb6b0c1461037b578063349f0b901461038357806336568abe1461038b578063395093511461039e57600080fd5b806318160ddd1161023157806318160ddd146102e65780632131c68c146102f857806323b872dd14610323578063248a9ca3146103365780632f2ff15d1461035957600080fd5b806301ffc9a71461026e57806306fdde0314610296578063095ea7b3146102ab57806313bf50c5146102be57806314866aef146102d3575b600080fd5b61028161027c366004611a0e565b6105df565b60405190151581526020015b60405180910390f35b61029e610616565b60405161028d9190611a5c565b6102816102b9366004611aab565b6106a8565b6102d16102cc366004611ad5565b6106c0565b005b6102d16102e1366004611aab565b610875565b6002545b60405190815260200161028d565b60085461030b906001600160a01b031681565b6040516001600160a01b03909116815260200161028d565b610281610331366004611b08565b6108b6565b6102ea610344366004611b44565b60009081526006602052604090206001015490565b6102d1610367366004611b5d565b6108da565b6040516012815260200161028d565b6102ea6108ff565b6102ea61091c565b6102d1610399366004611b5d565b61094b565b6102816103ac366004611aab565b6109c9565b6102d16103bf366004611b89565b6109eb565b6102d1610aa9565b6102d16103da366004611b44565b610ade565b60055460ff16610281565b6102816103f8366004611b44565b610ae8565b6102ea7f58dddaa4dace832ab03be4aaaec7240b427c5fea2d9055ce503e15d7ea09ce2481565b610281610432366004611bc5565b600a6020526000908152604090205460ff1681565b6102ea610455366004611bc5565b6001600160a01b031660009081526020819052604090205490565b6102d161047e366004611aab565b610b1a565b6102ea7fd85a4cf5d37a04dd33dd5be180981c3f745ce2f4ee8a4dbd26e87bff5857702381565b6102d16104b8366004611bc5565b610b2f565b6102d1610c60565b6102816104d3366004611b5d565b610c92565b61029e610cbd565b6102ea600081565b6102ea60095481565b6102816104ff366004611aab565b610ccc565b610281610512366004611aab565b610d47565b6102d1610525366004611aab565b610d55565b6102d1610538366004611aab565b610d7f565b60075461030b906001600160a01b031681565b6102ea7f18f2e6085d5811142b8c6597e0f2141f5a661e3eaa75b261016dce0b6f99208b81565b6102d1610585366004611bc5565b610da9565b6102d1610598366004611b5d565b610eac565b6102ea6105ab366004611be0565b610ed1565b6102ea600181565b6102ea7f65d7a28e3265b37a6474929f336521b332c1681b933f6cb9f3376673440d862a81565b60006001600160e01b03198216637965db0b60e01b148061061057506301ffc9a760e01b6001600160e01b03198316145b92915050565b60606003805461062590611c0a565b80601f016020809104026020016040519081016040528092919081815260200182805461065190611c0a565b801561069e5780601f106106735761010080835404028352916020019161069e565b820191906000526020600020905b81548152906001019060200180831161068157829003601f168201915b5050505050905090565b6000336106b6818585610efc565b5060019392505050565b7f18f2e6085d5811142b8c6597e0f2141f5a661e3eaa75b261016dce0b6f99208b6106ea81611020565b6106f261102a565b600083116107475760405162461bcd60e51b815260206004820152601e60248201527f526576656e7565206d7573742062652067726561746572207468616e2030000060448201526064015b60405180910390fd5b600082116107a35760405162461bcd60e51b815260206004820152602360248201527f4d61726b65742076616c7565206d75737420626520677265617465722074686160448201526206e20360ec1b606482015260840161073e565b6000826107b26012600a611d3e565b6107bc9086611d4d565b6107c69190611d64565b9050600081116108185760405162461bcd60e51b815260206004820152601b60248201527f43616c63756c61746564206d696e7420616d6f756e7420697320300000000000604482015260640161073e565b6108228582611072565b60408051828152602081018690529081018490526001600160a01b038616907fa5ecdf360f29f7a15c93888df8fe32e8fb7efe5859c95d321f4aed31149b47509060600160405180910390a25050505050565b7f58dddaa4dace832ab03be4aaaec7240b427c5fea2d9055ce503e15d7ea09ce2461089f81611020565b6108a761102a565b6108b18383611072565b505050565b6000336108c485828561110a565b6108cf858585611184565b506001949350505050565b6000828152600660205260409020600101546108f581611020565b6108b183836112f5565b61090b6012600a611d3e565b610919906305f5e100611d4d565b81565b60095460009061092e6012600a611d3e565b61093c906305f5e100611d4d565b6109469190611d86565b905090565b6001600160a01b03811633146109bb5760405162461bcd60e51b815260206004820152602f60248201527f416363657373436f6e74726f6c3a2063616e206f6e6c792072656e6f756e636560448201526e103937b632b9903337b91039b2b63360891b606482015260840161073e565b6109c5828261137b565b5050565b6000336106b68185856109dc8383610ed1565b6109e69190611d99565b610efc565b60006109f681611020565b6001600160a01b038316610a5a5760405162461bcd60e51b815260206004820152602560248201527f43616e6e6f7420736574206578656d7074696f6e20666f72207a65726f206164604482015264647265737360d81b606482015260840161073e565b6001600160a01b0383166000818152600a6020908152604091829020805460ff19168615159081179091559151918252600080516020611eed83398151915291015b60405180910390a2505050565b7f65d7a28e3265b37a6474929f336521b332c1681b933f6cb9f3376673440d862a610ad381611020565b610adb6113e2565b50565b610adb3382611434565b6000610af66012600a611d3e565b610b04906305f5e100611d4d565b82600954610b129190611d99565b111592915050565b610b2582338361110a565b6109c58282611434565b6000610b3a81611020565b6001600160a01b038216610b905760405162461bcd60e51b815260206004820152601f60248201527f547265617375727920616464726573732063616e6e6f74206265207a65726f00604482015260640161073e565b600780546001600160a01b039081166000818152600a6020526040808220805460ff19908116909155938716808352818320805490951660011790945584546001600160a01b03191684179094559251909283917f430359a6d97ced2b6f93c77a91e7ce9dfd43252eb91e916adba170485cd8a6a49190a3604051600081526001600160a01b03821690600080516020611eed833981519152906020015b60405180910390a2604051600181526001600160a01b03841690600080516020611eed83398151915290602001610a9c565b7f65d7a28e3265b37a6474929f336521b332c1681b933f6cb9f3376673440d862a610c8a81611020565b610adb611572565b60009182526006602090815260408084206001600160a01b0393909316845291905290205460ff1690565b60606004805461062590611c0a565b60003381610cda8286610ed1565b905083811015610d3a5760405162461bcd60e51b815260206004820152602560248201527f45524332303a2064656372656173656420616c6c6f77616e63652062656c6f77604482015264207a65726f60d81b606482015260840161073e565b6108cf8286868403610efc565b6000336106b6818585611184565b7f18f2e6085d5811142b8c6597e0f2141f5a661e3eaa75b261016dce0b6f99208b61089f81611020565b7fd85a4cf5d37a04dd33dd5be180981c3f745ce2f4ee8a4dbd26e87bff5857702361089f81611020565b6000610db481611020565b6001600160a01b038216610e0a5760405162461bcd60e51b815260206004820152601a60248201527f44414f20616464726573732063616e6e6f74206265207a65726f000000000000604482015260640161073e565b600880546001600160a01b039081166000818152600a6020526040808220805460ff19908116909155938716808352818320805490951660011790945584546001600160a01b03191684179094559251909283917f71f214b1b2613615a479cc45e38993fe86141a5ceb7ccf4330a76479b29d86da9190a3604051600081526001600160a01b03821690600080516020611eed83398151915290602001610c2e565b600082815260066020526040902060010154610ec781611020565b6108b1838361137b565b6001600160a01b03918216600090815260016020908152604080832093909416825291909152205490565b6001600160a01b038316610f5e5760405162461bcd60e51b8152602060048201526024808201527f45524332303a20617070726f76652066726f6d20746865207a65726f206164646044820152637265737360e01b606482015260840161073e565b6001600160a01b038216610fbf5760405162461bcd60e51b815260206004820152602260248201527f45524332303a20617070726f766520746f20746865207a65726f206164647265604482015261737360f01b606482015260840161073e565b6001600160a01b0383811660008181526001602090815260408083209487168084529482529182902085905590518481527f8c5be1e5ebec7d5bd14f71427d1e84f3dd0314c0f7b2291e5b200ac8c7c3b925910160405180910390a3505050565b610adb81336115af565b60055460ff16156110705760405162461bcd60e51b815260206004820152601060248201526f14185d5cd8589b194e881c185d5cd95960821b604482015260640161073e565b565b61107e6012600a611d3e565b61108c906305f5e100611d4d565b8160095461109a9190611d99565b11156110e85760405162461bcd60e51b815260206004820152601f60248201527f4d696e74696e6720776f756c6420657863656564206d617820737570706c7900604482015260640161073e565b80600960008282546110fa9190611d99565b909155506109c590508282611608565b60006111168484610ed1565b9050600019811461117e57818110156111715760405162461bcd60e51b815260206004820152601d60248201527f45524332303a20696e73756666696369656e7420616c6c6f77616e6365000000604482015260640161073e565b61117e8484848403610efc565b50505050565b6001600160a01b0383166111aa5760405162461bcd60e51b815260040161073e90611dac565b6001600160a01b0382166111d05760405162461bcd60e51b815260040161073e90611df1565b6001600160a01b0383166000908152600a602052604090205460ff168061120f57506001600160a01b0382166000908152600a602052604090205460ff165b1561121f576108b18383836116d3565b6000606461122e600184611d4d565b6112389190611d64565b905060006064611249600185611d4d565b6112539190611d64565b90506000816112628486611d86565b61126c9190611d86565b90506112798686836116d3565b8215611289576112898684611434565b81156112ed576007546112a79087906001600160a01b0316846116d3565b6007546040518381526001600160a01b03918216918816907fe9b448cce44ad73a5e65365743b806bdf42d8f3b588a8e4e21650497d969ea529060200160405180910390a35b505050505050565b6112ff8282610c92565b6109c55760008281526006602090815260408083206001600160a01b03851684529091529020805460ff191660011790556113373390565b6001600160a01b0316816001600160a01b0316837f2f8788117e7eff1d82e926ec794901d17c78024a50270940304540a733656f0d60405160405180910390a45050565b6113858282610c92565b156109c55760008281526006602090815260408083206001600160a01b0385168085529252808320805460ff1916905551339285917ff6391f5c32d9c69d2a47ea670b442974b53935d1edc7fd64eb21e047a839171b9190a45050565b6113ea611808565b6005805460ff191690557f5db9ee0a495bf2e6ff9c91a7834c1ba4fdd244a5e8aa4e537bd38aeae4b073aa335b6040516001600160a01b03909116815260200160405180910390a1565b6001600160a01b0382166114945760405162461bcd60e51b815260206004820152602160248201527f45524332303a206275726e2066726f6d20746865207a65726f206164647265736044820152607360f81b606482015260840161073e565b6114a082600083611851565b6001600160a01b038216600090815260208190526040902054818110156115145760405162461bcd60e51b815260206004820152602260248201527f45524332303a206275726e20616d6f756e7420657863656564732062616c616e604482015261636560f01b606482015260840161073e565b6001600160a01b0383166000818152602081815260408083208686039055600280548790039055518581529192917fddf252ad1be2c89b69c2b068fc378daa952ba7f163c4a11628f55a4df523b3ef910160405180910390a3505050565b61157a61102a565b6005805460ff191660011790557f62e78cea01bee320cd4e420270b5ea74000d11b0c9f74754ebdbfc544b05a2586114173390565b6115b98282610c92565b6109c5576115c681611859565b6115d183602061186b565b6040516020016115e2929190611e34565b60408051601f198184030181529082905262461bcd60e51b825261073e91600401611a5c565b6001600160a01b03821661165e5760405162461bcd60e51b815260206004820152601f60248201527f45524332303a206d696e7420746f20746865207a65726f206164647265737300604482015260640161073e565b61166a60008383611851565b806002600082825461167c9190611d99565b90915550506001600160a01b038216600081815260208181526040808320805486019055518481527fddf252ad1be2c89b69c2b068fc378daa952ba7f163c4a11628f55a4df523b3ef910160405180910390a35050565b6001600160a01b0383166116f95760405162461bcd60e51b815260040161073e90611dac565b6001600160a01b03821661171f5760405162461bcd60e51b815260040161073e90611df1565b61172a838383611851565b6001600160a01b038316600090815260208190526040902054818110156117a25760405162461bcd60e51b815260206004820152602660248201527f45524332303a207472616e7366657220616d6f756e7420657863656564732062604482015265616c616e636560d01b606482015260840161073e565b6001600160a01b03848116600081815260208181526040808320878703905593871680835291849020805487019055925185815290927fddf252ad1be2c89b69c2b068fc378daa952ba7f163c4a11628f55a4df523b3ef910160405180910390a361117e565b60055460ff166110705760405162461bcd60e51b815260206004820152601460248201527314185d5cd8589b194e881b9bdd081c185d5cd95960621b604482015260640161073e565b6108b161102a565b60606106106001600160a01b03831660145b6060600061187a836002611d4d565b611885906002611d99565b67ffffffffffffffff81111561189d5761189d611ea9565b6040519080825280601f01601f1916602001820160405280156118c7576020820181803683370190505b509050600360fc1b816000815181106118e2576118e2611ebf565b60200101906001600160f81b031916908160001a905350600f60fb1b8160018151811061191157611911611ebf565b60200101906001600160f81b031916908160001a9053506000611935846002611d4d565b611940906001611d99565b90505b60018111156119b8576f181899199a1a9b1b9c1cb0b131b232b360811b85600f166010811061197457611974611ebf565b1a60f81b82828151811061198a5761198a611ebf565b60200101906001600160f81b031916908160001a90535060049490941c936119b181611ed5565b9050611943565b508315611a075760405162461bcd60e51b815260206004820181905260248201527f537472696e67733a20686578206c656e67746820696e73756666696369656e74604482015260640161073e565b9392505050565b600060208284031215611a2057600080fd5b81356001600160e01b031981168114611a0757600080fd5b60005b83811015611a53578181015183820152602001611a3b565b50506000910152565b6020815260008251806020840152611a7b816040850160208701611a38565b601f01601f19169190910160400192915050565b80356001600160a01b0381168114611aa657600080fd5b919050565b60008060408385031215611abe57600080fd5b611ac783611a8f565b946020939093013593505050565b600080600060608486031215611aea57600080fd5b611af384611a8f565b95602085013595506040909401359392505050565b600080600060608486031215611b1d57600080fd5b611b2684611a8f565b9250611b3460208501611a8f565b9150604084013590509250925092565b600060208284031215611b5657600080fd5b5035919050565b60008060408385031215611b7057600080fd5b82359150611b8060208401611a8f565b90509250929050565b60008060408385031215611b9c57600080fd5b611ba583611a8f565b915060208301358015158114611bba57600080fd5b809150509250929050565b600060208284031215611bd757600080fd5b611a0782611a8f565b60008060408385031215611bf357600080fd5b611bfc83611a8f565b9150611b8060208401611a8f565b600181811c90821680611c1e57607f821691505b602082108103611c3e57634e487b7160e01b600052602260045260246000fd5b50919050565b634e487b7160e01b600052601160045260246000fd5b600181815b80851115611c95578160001904821115611c7b57611c7b611c44565b80851615611c8857918102915b93841c9390800290611c5f565b509250929050565b600082611cac57506001610610565b81611cb957506000610610565b8160018114611ccf5760028114611cd957611cf5565b6001915050610610565b60ff841115611cea57611cea611c44565b50506001821b610610565b5060208310610133831016604e8410600b8410161715611d18575081810a610610565b611d228383611c5a565b8060001904821115611d3657611d36611c44565b029392505050565b6000611a0760ff841683611c9d565b808202811582820484141761061057610610611c44565b600082611d8157634e487b7160e01b600052601260045260246000fd5b500490565b8181038181111561061057610610611c44565b8082018082111561061057610610611c44565b60208082526025908201527f45524332303a207472616e736665722066726f6d20746865207a65726f206164604082015264647265737360d81b606082015260800190565b60208082526023908201527f45524332303a207472616e7366657220746f20746865207a65726f206164647260408201526265737360e81b606082015260800190565b7f416363657373436f6e74726f6c3a206163636f756e7420000000000000000000815260008351611e6c816017850160208801611a38565b7001034b99036b4b9b9b4b733903937b6329607d1b6017918401918201528351611e9d816028840160208801611a38565b01602801949350505050565b634e487b7160e01b600052604160045260246000fd5b634e487b7160e01b600052603260045260246000fd5b600081611ee457611ee4611c44565b50600019019056fe6c3adfee332544f29232690459f4fe23a1c9573efbaac65c9fc033355fb413f0a26469706673582212205457b4931def04cf6e94a9459c4ed8f7e6c67c5515158804607108a1d126785064736f6c634300081300336c3adfee332544f29232690459f4fe23a1c9573efbaac65c9fc033355fb413f0","opcodes":"PUSH1 0x80 PUSH1 0x40 MSTORE CALLVALUE DUP1 ISZERO PUSH3 0x11 JUMPI PUSH1 0x0 DUP1 REVERT JUMPDEST POP PUSH1 0x40 MLOAD PUSH3 0x2524 CODESIZE SUB DUP1 PUSH3 0x2524 DUP4 CODECOPY DUP2 ADD PUSH1 0x40 DUP2 SWAP1 MSTORE PUSH3 0x34 SWAP2 PUSH3 0x3F7 JUMP JUMPDEST PUSH1 0x40 MLOAD DUP1 PUSH1 0x40 ADD PUSH1 0x40 MSTORE DUP1 PUSH1 0xF DUP2 MSTORE PUSH1 0x20 ADD PUSH15 0x21A0A829B434B2B632102A37B5B2B7 PUSH1 0x89 SHL DUP2 MSTORE POP PUSH1 0x40 MLOAD DUP1 PUSH1 0x40 ADD PUSH1 0x40 MSTORE DUP1 PUSH1 0x4 DUP2 MSTORE PUSH1 0x20 ADD PUSH4 0x43415059 PUSH1 0xE0 SHL DUP2 MSTORE POP DUP2 PUSH1 0x3 SWAP1 DUP2 PUSH3 0x8A SWAP2 SWAP1 PUSH3 0x4E6 JUMP JUMPDEST POP PUSH1 0x4 PUSH3 0x99 DUP3 DUP3 PUSH3 0x4E6 JUMP JUMPDEST POP POP PUSH1 0x5 DUP1 SLOAD PUSH1 0xFF NOT AND SWAP1 SSTORE POP PUSH1 0x1 PUSH1 0x1 PUSH1 0xA0 SHL SUB DUP4 AND PUSH3 0x102 JUMPI PUSH1 0x40 MLOAD PUSH3 0x461BCD PUSH1 0xE5 SHL DUP2 MSTORE PUSH1 0x20 PUSH1 0x4 DUP3 ADD MSTORE PUSH1 0x1F PUSH1 0x24 DUP3 ADD MSTORE PUSH32 0x547265617375727920616464726573732063616E6E6F74206265207A65726F00 PUSH1 0x44 DUP3 ADD MSTORE PUSH1 0x64 ADD JUMPDEST PUSH1 0x40 MLOAD DUP1 SWAP2 SUB SWAP1 REVERT JUMPDEST PUSH1 0x1 PUSH1 0x1 PUSH1 0xA0 SHL SUB DUP3 AND PUSH3 0x15A JUMPI PUSH1 0x40 MLOAD PUSH3 0x461BCD PUSH1 0xE5 SHL DUP2 MSTORE PUSH1 0x20 PUSH1 0x4 DUP3 ADD MSTORE PUSH1 0x1A PUSH1 0x24 DUP3 ADD MSTORE PUSH32 0x44414F20616464726573732063616E6E6F74206265207A65726F000000000000 PUSH1 0x44 DUP3 ADD MSTORE PUSH1 0x64 ADD PUSH3 0xF9 JUMP JUMPDEST PUSH1 0x1 PUSH1 0x1 PUSH1 0xA0 SHL SUB DUP2 AND PUSH3 0x1B2 JUMPI PUSH1 0x40 MLOAD PUSH3 0x461BCD PUSH1 0xE5 SHL DUP2 MSTORE PUSH1 0x20 PUSH1 0x4 DUP3 ADD MSTORE PUSH1 0x1C PUSH1 0x24 DUP3 ADD MSTORE PUSH32 0x41646D696E20616464726573732063616E6E6F74206265207A65726F00000000 PUSH1 0x44 DUP3 ADD MSTORE PUSH1 0x64 ADD PUSH3 0xF9 JUMP JUMPDEST PUSH1 0x7 DUP1 SLOAD PUSH1 0x1 PUSH1 0x1 PUSH1 0xA0 SHL SUB DUP1 DUP7 AND PUSH1 0x1 PUSH1 0x1 PUSH1 0xA0 SHL SUB NOT SWAP3 DUP4 AND OR SWAP1 SWAP3 SSTORE PUSH1 0x8 DUP1 SLOAD SWAP3 DUP6 AND SWAP3 SWAP1 SWAP2 AND SWAP2 SWAP1 SWAP2 OR SWAP1 SSTORE PUSH3 0x1EF PUSH1 0x0 DUP3 PUSH3 0x335 JUMP JUMPDEST PUSH3 0x21B PUSH32 0x65D7A28E3265B37A6474929F336521B332C1681B933F6CB9F3376673440D862A DUP3 PUSH3 0x335 JUMP JUMPDEST PUSH3 0x247 PUSH32 0xD85A4CF5D37A04DD33DD5BE180981C3F745CE2F4EE8A4DBD26E87BFF58577023 DUP3 PUSH3 0x335 JUMP JUMPDEST PUSH3 0x273 PUSH32 0x18F2E6085D5811142B8C6597E0F2141F5A661E3EAA75B261016DCE0B6F99208B DUP3 PUSH3 0x335 JUMP JUMPDEST PUSH3 0x29F PUSH32 0x58DDDAA4DACE832AB03BE4AAAEC7240B427C5FEA2D9055CE503E15D7EA09CE24 DUP3 PUSH3 0x335 JUMP JUMPDEST PUSH1 0x1 PUSH1 0x1 PUSH1 0xA0 SHL SUB DUP4 DUP2 AND PUSH1 0x0 DUP2 DUP2 MSTORE PUSH1 0xA PUSH1 0x20 SWAP1 DUP2 MSTORE PUSH1 0x40 DUP1 DUP4 KECCAK256 DUP1 SLOAD PUSH1 0x1 PUSH1 0xFF NOT SWAP2 DUP3 AND DUP2 OR SWAP1 SWAP3 SSTORE SWAP6 DUP9 AND DUP5 MSTORE SWAP3 DUP2 SWAP1 KECCAK256 DUP1 SLOAD SWAP1 SWAP6 AND DUP4 OR SWAP1 SWAP5 SSTORE SWAP3 MLOAD SWAP1 DUP2 MSTORE SWAP1 SWAP2 PUSH1 0x0 DUP1 MLOAD PUSH1 0x20 PUSH3 0x2504 DUP4 CODECOPY DUP2 MLOAD SWAP2 MSTORE SWAP2 ADD PUSH1 0x40 MLOAD DUP1 SWAP2 SUB SWAP1 LOG2 PUSH1 0x40 MLOAD PUSH1 0x1 DUP2 MSTORE PUSH1 0x1 PUSH1 0x1 PUSH1 0xA0 SHL SUB DUP4 AND SWAP1 PUSH1 0x0 DUP1 MLOAD PUSH1 0x20 PUSH3 0x2504 DUP4 CODECOPY DUP2 MLOAD SWAP2 MSTORE SWAP1 PUSH1 0x20 ADD PUSH1 0x40 MLOAD DUP1 SWAP2 SUB SWAP1 LOG2 POP POP POP PUSH3 0x5B2 JUMP JUMPDEST PUSH1 0x0 DUP3 DUP2 MSTORE PUSH1 0x6 PUSH1 0x20 SWAP1 DUP2 MSTORE PUSH1 0x40 DUP1 DUP4 KECCAK256 PUSH1 0x1 PUSH1 0x1 PUSH1 0xA0 SHL SUB DUP6 AND DUP5 MSTORE SWAP1 SWAP2 MSTORE SWAP1 KECCAK256 SLOAD PUSH1 0xFF AND PUSH3 0x3D6 JUMPI PUSH1 0x0 DUP3 DUP2 MSTORE PUSH1 0x6 PUSH1 0x20 SWAP1 DUP2 MSTORE PUSH1 0x40 DUP1 DUP4 KECCAK256 PUSH1 0x1 PUSH1 0x1 PUSH1 0xA0 SHL SUB DUP6 AND DUP5 MSTORE SWAP1 SWAP2 MSTORE SWAP1 KECCAK256 DUP1 SLOAD PUSH1 0xFF NOT AND PUSH1 0x1 OR SWAP1 SSTORE PUSH3 0x395 CALLER SWAP1 JUMP JUMPDEST PUSH1 0x1 PUSH1 0x1 PUSH1 0xA0 SHL SUB AND DUP2 PUSH1 0x1 PUSH1 0x1 PUSH1 0xA0 SHL SUB AND DUP4 PUSH32 0x2F8788117E7EFF1D82E926EC794901D17C78024A50270940304540A733656F0D PUSH1 0x40 MLOAD PUSH1 0x40 MLOAD DUP1 SWAP2 SUB SWAP1 LOG4 JUMPDEST POP POP JUMP JUMPDEST DUP1 MLOAD PUSH1 0x1 PUSH1 0x1 PUSH1 0xA0 SHL SUB DUP2 AND DUP2 EQ PUSH3 0x3F2 JUMPI PUSH1 0x0 DUP1 REVERT JUMPDEST SWAP2 SWAP1 POP JUMP JUMPDEST PUSH1 0x0 DUP1 PUSH1 0x0 PUSH1 0x60 DUP5 DUP7 SUB SLT ISZERO PUSH3 0x40D JUMPI PUSH1 0x0 DUP1 REVERT JUMPDEST PUSH3 0x418 DUP5 PUSH3 0x3DA JUMP JUMPDEST SWAP3 POP PUSH3 0x428 PUSH1 0x20 DUP6 ADD PUSH3 0x3DA JUMP JUMPDEST SWAP2 POP PUSH3 0x438 PUSH1 0x40 DUP6 ADD PUSH3 0x3DA JUMP JUMPDEST SWAP1 POP SWAP3 POP SWAP3 POP SWAP3 JUMP JUMPDEST PUSH4 0x4E487B71 PUSH1 0xE0 SHL PUSH1 0x0 MSTORE PUSH1 0x41 PUSH1 0x4 MSTORE PUSH1 0x24 PUSH1 0x0 REVERT JUMPDEST PUSH1 0x1 DUP2 DUP2 SHR SWAP1 DUP3 AND DUP1 PUSH3 0x46C JUMPI PUSH1 0x7F DUP3 AND SWAP2 POP JUMPDEST PUSH1 0x20 DUP3 LT DUP2 SUB PUSH3 0x48D JUMPI PUSH4 0x4E487B71 PUSH1 0xE0 SHL PUSH1 0x0 MSTORE PUSH1 0x22 PUSH1 0x4 MSTORE PUSH1 0x24 PUSH1 0x0 REVERT JUMPDEST POP SWAP2 SWAP1 POP JUMP JUMPDEST PUSH1 0x1F DUP3 GT ISZERO PUSH3 0x4E1 JUMPI PUSH1 0x0 DUP2 DUP2 MSTORE PUSH1 0x20 DUP2 KECCAK256 PUSH1 0x1F DUP6 ADD PUSH1 0x5 SHR DUP2 ADD PUSH1 0x20 DUP7 LT ISZERO PUSH3 0x4BC JUMPI POP DUP1 JUMPDEST PUSH1 0x1F DUP6 ADD PUSH1 0x5 SHR DUP3 ADD SWAP2 POP JUMPDEST DUP2 DUP2 LT ISZERO PUSH3 0x4DD JUMPI DUP3 DUP2 SSTORE PUSH1 0x1 ADD PUSH3 0x4C8 JUMP JUMPDEST POP POP POP JUMPDEST POP POP POP JUMP JUMPDEST DUP2 MLOAD PUSH1 0x1 PUSH1 0x1 PUSH1 0x40 SHL SUB DUP2 GT ISZERO PUSH3 0x502 JUMPI PUSH3 0x502 PUSH3 0x441 JUMP JUMPDEST PUSH3 0x51A DUP2 PUSH3 0x513 DUP5 SLOAD PUSH3 0x457 JUMP JUMPDEST DUP5 PUSH3 0x493 JUMP JUMPDEST PUSH1 0x20 DUP1 PUSH1 0x1F DUP4 GT PUSH1 0x1 DUP2 EQ PUSH3 0x552 JUMPI PUSH1 0x0 DUP5 ISZERO PUSH3 0x539 JUMPI POP DUP6 DUP4 ADD MLOAD JUMPDEST PUSH1 0x0 NOT PUSH1 0x3 DUP7 SWAP1 SHL SHR NOT AND PUSH1 0x1 DUP6 SWAP1 SHL OR DUP6 SSTORE PUSH3 0x4DD JUMP JUMPDEST PUSH1 0x0 DUP6 DUP2 MSTORE PUSH1 0x20 DUP2 KECCAK256 PUSH1 0x1F NOT DUP7 AND SWAP2 JUMPDEST DUP3 DUP2 LT ISZERO PUSH3 0x583 JUMPI DUP9 DUP7 ADD MLOAD DUP3 SSTORE SWAP5 DUP5 ADD SWAP5 PUSH1 0x1 SWAP1 SWAP2 ADD SWAP1 DUP5 ADD PUSH3 0x562 JUMP JUMPDEST POP DUP6 DUP3 LT ISZERO PUSH3 0x5A2 JUMPI DUP8 DUP6 ADD MLOAD PUSH1 0x0 NOT PUSH1 0x3 DUP9 SWAP1 SHL PUSH1 0xF8 AND SHR NOT AND DUP2 SSTORE JUMPDEST POP POP POP POP POP PUSH1 0x1 SWAP1 DUP2 SHL ADD SWAP1 SSTORE POP JUMP JUMPDEST PUSH2 0x1F42 DUP1 PUSH3 0x5C2 PUSH1 0x0 CODECOPY PUSH1 0x0 RETURN INVALID PUSH1 0x80 PUSH1 0x40 MSTORE CALLVALUE DUP1 ISZERO PUSH2 0x10 JUMPI PUSH1 0x0 DUP1 REVERT JUMPDEST POP PUSH1 0x4 CALLDATASIZE LT PUSH2 0x269 JUMPI PUSH1 0x0 CALLDATALOAD PUSH1 0xE0 SHR DUP1 PUSH4 0x60FD0989 GT PUSH2 0x151 JUMPI DUP1 PUSH4 0xA9059CBB GT PUSH2 0xC3 JUMPI DUP1 PUSH4 0xD3F34FF1 GT PUSH2 0x87 JUMPI DUP1 PUSH4 0xD3F34FF1 EQ PUSH2 0x577 JUMPI DUP1 PUSH4 0xD547741F EQ PUSH2 0x58A JUMPI DUP1 PUSH4 0xDD62ED3E EQ PUSH2 0x59D JUMPI DUP1 PUSH4 0xE111703A EQ PUSH2 0x5B0 JUMPI DUP1 PUSH4 0xE63AB1E9 EQ PUSH2 0x5B8 JUMPI DUP1 PUSH4 0xFAD5C5B3 EQ PUSH2 0x5B0 JUMPI PUSH1 0x0 DUP1 REVERT JUMPDEST DUP1 PUSH4 0xA9059CBB EQ PUSH2 0x504 JUMPI DUP1 PUSH4 0xAA35CCA3 EQ PUSH2 0x517 JUMPI DUP1 PUSH4 0xADD5A4FA EQ PUSH2 0x52A JUMPI DUP1 PUSH4 0xC5F956AF EQ PUSH2 0x53D JUMPI DUP1 PUSH4 0xCEEB69F9 EQ PUSH2 0x550 JUMPI PUSH1 0x0 DUP1 REVERT JUMPDEST DUP1 PUSH4 0x8456CB59 GT PUSH2 0x115 JUMPI DUP1 PUSH4 0x8456CB59 EQ PUSH2 0x4BD JUMPI DUP1 PUSH4 0x91D14854 EQ PUSH2 0x4C5 JUMPI DUP1 PUSH4 0x95D89B41 EQ PUSH2 0x4D8 JUMPI DUP1 PUSH4 0xA217FDDF EQ PUSH2 0x4E0 JUMPI DUP1 PUSH4 0xA2309FF8 EQ PUSH2 0x4E8 JUMPI DUP1 PUSH4 0xA457C2D7 EQ PUSH2 0x4F1 JUMPI PUSH1 0x0 DUP1 REVERT JUMPDEST DUP1 PUSH4 0x60FD0989 EQ PUSH2 0x424 JUMPI DUP1 PUSH4 0x70A08231 EQ PUSH2 0x447 JUMPI DUP1 PUSH4 0x79CC6790 EQ PUSH2 0x470 JUMPI DUP1 PUSH4 0x7A6E223C EQ PUSH2 0x483 JUMPI DUP1 PUSH4 0x841E4561 EQ PUSH2 0x4AA JUMPI PUSH1 0x0 DUP1 REVERT JUMPDEST DUP1 PUSH4 0x313CE567 GT PUSH2 0x1EA JUMPI DUP1 PUSH4 0x3EA6E071 GT PUSH2 0x1AE JUMPI DUP1 PUSH4 0x3EA6E071 EQ PUSH2 0x3B1 JUMPI DUP1 PUSH4 0x3F4BA83A EQ PUSH2 0x3C4 JUMPI DUP1 PUSH4 0x42966C68 EQ PUSH2 0x3CC JUMPI DUP1 PUSH4 0x5C975ABB EQ PUSH2 0x3DF JUMPI DUP1 PUSH4 0x5DD871A3 EQ PUSH2 0x3EA JUMPI DUP1 PUSH4 0x5FD6A41B EQ PUSH2 0x3FD JUMPI PUSH1 0x0 DUP1 REVERT JUMPDEST DUP1 PUSH4 0x313CE567 EQ PUSH2 0x36C JUMPI DUP1 PUSH4 0x32CB6B0C EQ PUSH2 0x37B JUMPI DUP1 PUSH4 0x349F0B90 EQ PUSH2 0x383 JUMPI DUP1 PUSH4 0x36568ABE EQ PUSH2 0x38B JUMPI DUP1 PUSH4 0x39509351 EQ PUSH2 0x39E JUMPI PUSH1 0x0 DUP1 REVERT JUMPDEST DUP1 PUSH4 0x18160DDD GT PUSH2 0x231 JUMPI DUP1 PUSH4 0x18160DDD EQ PUSH2 0x2E6 JUMPI DUP1 PUSH4 0x2131C68C EQ PUSH2 0x2F8 JUMPI DUP1 PUSH4 0x23B872DD EQ PUSH2 0x323 JUMPI DUP1 PUSH4 0x248A9CA3 EQ PUSH2 0x336 JUMPI DUP1 PUSH4 0x2F2FF15D EQ PUSH2 0x359 JUMPI PUSH1 0x0 DUP1 REVERT JUMPDEST DUP1 PUSH4 0x1FFC9A7 EQ PUSH2 0x26E JUMPI DUP1 PUSH4 0x6FDDE03 EQ PUSH2 0x296 JUMPI DUP1 PUSH4 0x95EA7B3 EQ PUSH2 0x2AB JUMPI DUP1 PUSH4 0x13BF50C5 EQ PUSH2 0x2BE JUMPI DUP1 PUSH4 0x14866AEF EQ PUSH2 0x2D3 JUMPI JUMPDEST PUSH1 0x0 DUP1 REVERT JUMPDEST PUSH2 0x281 PUSH2 0x27C CALLDATASIZE PUSH1 0x4 PUSH2 0x1A0E JUMP JUMPDEST PUSH2 0x5DF JUMP JUMPDEST PUSH1 0x40 MLOAD SWAP1 ISZERO ISZERO DUP2 MSTORE PUSH1 0x20 ADD JUMPDEST PUSH1 0x40 MLOAD DUP1 SWAP2 SUB SWAP1 RETURN JUMPDEST PUSH2 0x29E PUSH2 0x616 JUMP JUMPDEST PUSH1 0x40 MLOAD PUSH2 0x28D SWAP2 SWAP1 PUSH2 0x1A5C JUMP JUMPDEST PUSH2 0x281 PUSH2 0x2B9 CALLDATASIZE PUSH1 0x4 PUSH2 0x1AAB JUMP JUMPDEST PUSH2 0x6A8 JUMP JUMPDEST PUSH2 0x2D1 PUSH2 0x2CC CALLDATASIZE PUSH1 0x4 PUSH2 0x1AD5 JUMP JUMPDEST PUSH2 0x6C0 JUMP JUMPDEST STOP JUMPDEST PUSH2 0x2D1 PUSH2 0x2E1 CALLDATASIZE PUSH1 0x4 PUSH2 0x1AAB JUMP JUMPDEST PUSH2 0x875 JUMP JUMPDEST PUSH1 0x2 SLOAD JUMPDEST PUSH1 0x40 MLOAD SWAP1 DUP2 MSTORE PUSH1 0x20 ADD PUSH2 0x28D JUMP JUMPDEST PUSH1 0x8 SLOAD PUSH2 0x30B SWAP1 PUSH1 0x1 PUSH1 0x1 PUSH1 0xA0 SHL SUB AND DUP2 JUMP JUMPDEST PUSH1 0x40 MLOAD PUSH1 0x1 PUSH1 0x1 PUSH1 0xA0 SHL SUB SWAP1 SWAP2 AND DUP2 MSTORE PUSH1 0x20 ADD PUSH2 0x28D JUMP JUMPDEST PUSH2 0x281 PUSH2 0x331 CALLDATASIZE PUSH1 0x4 PUSH2 0x1B08 JUMP JUMPDEST PUSH2 0x8B6 JUMP JUMPDEST PUSH2 0x2EA PUSH2 0x344 CALLDATASIZE PUSH1 0x4 PUSH2 0x1B44 JUMP JUMPDEST PUSH1 0x0 SWAP1 DUP2 MSTORE PUSH1 0x6 PUSH1 0x20 MSTORE PUSH1 0x40 SWAP1 KECCAK256 PUSH1 0x1 ADD SLOAD SWAP1 JUMP JUMPDEST PUSH2 0x2D1 PUSH2 0x367 CALLDATASIZE PUSH1 0x4 PUSH2 0x1B5D JUMP JUMPDEST PUSH2 0x8DA JUMP JUMPDEST PUSH1 0x40 MLOAD PUSH1 0x12 DUP2 MSTORE PUSH1 0x20 ADD PUSH2 0x28D JUMP JUMPDEST PUSH2 0x2EA PUSH2 0x8FF JUMP JUMPDEST PUSH2 0x2EA PUSH2 0x91C JUMP JUMPDEST PUSH2 0x2D1 PUSH2 0x399 CALLDATASIZE PUSH1 0x4 PUSH2 0x1B5D JUMP JUMPDEST PUSH2 0x94B JUMP JUMPDEST PUSH2 0x281 PUSH2 0x3AC CALLDATASIZE PUSH1 0x4 PUSH2 0x1AAB JUMP JUMPDEST PUSH2 0x9C9 JUMP JUMPDEST PUSH2 0x2D1 PUSH2 0x3BF CALLDATASIZE PUSH1 0x4 PUSH2 0x1B89 JUMP JUMPDEST PUSH2 0x9EB JUMP JUMPDEST PUSH2 0x2D1 PUSH2 0xAA9 JUMP JUMPDEST PUSH2 0x2D1 PUSH2 0x3DA CALLDATASIZE PUSH1 0x4 PUSH2 0x1B44 JUMP JUMPDEST PUSH2 0xADE JUMP JUMPDEST PUSH1 0x5 SLOAD PUSH1 0xFF AND PUSH2 0x281 JUMP JUMPDEST PUSH2 0x281 PUSH2 0x3F8 CALLDATASIZE PUSH1 0x4 PUSH2 0x1B44 JUMP JUMPDEST PUSH2 0xAE8 JUMP JUMPDEST PUSH2 0x2EA PUSH32 0x58DDDAA4DACE832AB03BE4AAAEC7240B427C5FEA2D9055CE503E15D7EA09CE24 DUP2 JUMP JUMPDEST PUSH2 0x281 PUSH2 0x432 CALLDATASIZE PUSH1 0x4 PUSH2 0x1BC5 JUMP JUMPDEST PUSH1 0xA PUSH1 0x20 MSTORE PUSH1 0x0 SWAP1 DUP2 MSTORE PUSH1 0x40 SWAP1 KECCAK256 SLOAD PUSH1 0xFF AND DUP2 JUMP JUMPDEST PUSH2 0x2EA PUSH2 0x455 CALLDATASIZE PUSH1 0x4 PUSH2 0x1BC5 JUMP JUMPDEST PUSH1 0x1 PUSH1 0x1 PUSH1 0xA0 SHL SUB AND PUSH1 0x0 SWAP1 DUP2 MSTORE PUSH1 0x20 DUP2 SWAP1 MSTORE PUSH1 0x40 SWAP1 KECCAK256 SLOAD SWAP1 JUMP JUMPDEST PUSH2 0x2D1 PUSH2 0x47E CALLDATASIZE PUSH1 0x4 PUSH2 0x1AAB JUMP JUMPDEST PUSH2 0xB1A JUMP JUMPDEST PUSH2 0x2EA PUSH32 0xD85A4CF5D37A04DD33DD5BE180981C3F745CE2F4EE8A4DBD26E87BFF58577023 DUP2 JUMP JUMPDEST PUSH2 0x2D1 PUSH2 0x4B8 CALLDATASIZE PUSH1 0x4 PUSH2 0x1BC5 JUMP JUMPDEST PUSH2 0xB2F JUMP JUMPDEST PUSH2 0x2D1 PUSH2 0xC60 JUMP JUMPDEST PUSH2 0x281 PUSH2 0x4D3 CALLDATASIZE PUSH1 0x4 PUSH2 0x1B5D JUMP JUMPDEST PUSH2 0xC92 JUMP JUMPDEST PUSH2 0x29E PUSH2 0xCBD JUMP JUMPDEST PUSH2 0x2EA PUSH1 0x0 DUP2 JUMP JUMPDEST PUSH2 0x2EA PUSH1 0x9 SLOAD DUP2 JUMP JUMPDEST PUSH2 0x281 PUSH2 0x4FF CALLDATASIZE PUSH1 0x4 PUSH2 0x1AAB JUMP JUMPDEST PUSH2 0xCCC JUMP JUMPDEST PUSH2 0x281 PUSH2 0x512 CALLDATASIZE PUSH1 0x4 PUSH2 0x1AAB JUMP JUMPDEST PUSH2 0xD47 JUMP JUMPDEST PUSH2 0x2D1 PUSH2 0x525 CALLDATASIZE PUSH1 0x4 PUSH2 0x1AAB JUMP JUMPDEST PUSH2 0xD55 JUMP JUMPDEST PUSH2 0x2D1 PUSH2 0x538 CALLDATASIZE PUSH1 0x4 PUSH2 0x1AAB JUMP JUMPDEST PUSH2 0xD7F JUMP JUMPDEST PUSH1 0x7 SLOAD PUSH2 0x30B SWAP1 PUSH1 0x1 PUSH1 0x1 PUSH1 0xA0 SHL SUB AND DUP2 JUMP JUMPDEST PUSH2 0x2EA PUSH32 0x18F2E6085D5811142B8C6597E0F2141F5A661E3EAA75B261016DCE0B6F99208B DUP2 JUMP JUMPDEST PUSH2 0x2D1 PUSH2 0x585 CALLDATASIZE PUSH1 0x4 PUSH2 0x1BC5 JUMP JUMPDEST PUSH2 0xDA9 JUMP JUMPDEST PUSH2 0x2D1 PUSH2 0x598 CALLDATASIZE PUSH1 0x4 PUSH2 0x1B5D JUMP JUMPDEST PUSH2 0xEAC JUMP JUMPDEST PUSH2 0x2EA PUSH2 0x5AB CALLDATASIZE PUSH1 0x4 PUSH2 0x1BE0 JUMP JUMPDEST PUSH2 0xED1 JUMP JUMPDEST PUSH2 0x2EA PUSH1 0x1 DUP2 JUMP JUMPDEST PUSH2 0x2EA PUSH32 0x65D7A28E3265B37A6474929F336521B332C1681B933F6CB9F3376673440D862A DUP2 JUMP JUMPDEST PUSH1 0x0 PUSH1 0x1 PUSH1 0x1 PUSH1 0xE0 SHL SUB NOT DUP3 AND PUSH4 0x7965DB0B PUSH1 0xE0 SHL EQ DUP1 PUSH2 0x610 JUMPI POP PUSH4 0x1FFC9A7 PUSH1 0xE0 SHL PUSH1 0x1 PUSH1 0x1 PUSH1 0xE0 SHL SUB NOT DUP4 AND EQ JUMPDEST SWAP3 SWAP2 POP POP JUMP JUMPDEST PUSH1 0x60 PUSH1 0x3 DUP1 SLOAD PUSH2 0x625 SWAP1 PUSH2 0x1C0A JUMP JUMPDEST DUP1 PUSH1 0x1F ADD PUSH1 0x20 DUP1 SWAP2 DIV MUL PUSH1 0x20 ADD PUSH1 0x40 MLOAD SWAP1 DUP2 ADD PUSH1 0x40 MSTORE DUP1 SWAP3 SWAP2 SWAP1 DUP2 DUP2 MSTORE PUSH1 0x20 ADD DUP3 DUP1 SLOAD PUSH2 0x651 SWAP1 PUSH2 0x1C0A JUMP JUMPDEST DUP1 ISZERO PUSH2 0x69E JUMPI DUP1 PUSH1 0x1F LT PUSH2 0x673 JUMPI PUSH2 0x100 DUP1 DUP4 SLOAD DIV MUL DUP4 MSTORE SWAP2 PUSH1 0x20 ADD SWAP2 PUSH2 0x69E JUMP JUMPDEST DUP3 ADD SWAP2 SWAP1 PUSH1 0x0 MSTORE PUSH1 0x20 PUSH1 0x0 KECCAK256 SWAP1 JUMPDEST DUP2 SLOAD DUP2 MSTORE SWAP1 PUSH1 0x1 ADD SWAP1 PUSH1 0x20 ADD DUP1 DUP4 GT PUSH2 0x681 JUMPI DUP3 SWAP1 SUB PUSH1 0x1F AND DUP3 ADD SWAP2 JUMPDEST POP POP POP POP POP SWAP1 POP SWAP1 JUMP JUMPDEST PUSH1 0x0 CALLER PUSH2 0x6B6 DUP2 DUP6 DUP6 PUSH2 0xEFC JUMP JUMPDEST POP PUSH1 0x1 SWAP4 SWAP3 POP POP POP JUMP JUMPDEST PUSH32 0x18F2E6085D5811142B8C6597E0F2141F5A661E3EAA75B261016DCE0B6F99208B PUSH2 0x6EA DUP2 PUSH2 0x1020 JUMP JUMPDEST PUSH2 0x6F2 PUSH2 0x102A JUMP JUMPDEST PUSH1 0x0 DUP4 GT PUSH2 0x747 JUMPI PUSH1 0x40 MLOAD PUSH3 0x461BCD PUSH1 0xE5 SHL DUP2 MSTORE PUSH1 0x20 PUSH1 0x4 DUP3 ADD MSTORE PUSH1 0x1E PUSH1 0x24 DUP3 ADD MSTORE PUSH32 0x526576656E7565206D7573742062652067726561746572207468616E20300000 PUSH1 0x44 DUP3 ADD MSTORE PUSH1 0x64 ADD JUMPDEST PUSH1 0x40 MLOAD DUP1 SWAP2 SUB SWAP1 REVERT JUMPDEST PUSH1 0x0 DUP3 GT PUSH2 0x7A3 JUMPI PUSH1 0x40 MLOAD PUSH3 0x461BCD PUSH1 0xE5 SHL DUP2 MSTORE PUSH1 0x20 PUSH1 0x4 DUP3 ADD MSTORE PUSH1 0x23 PUSH1 0x24 DUP3 ADD MSTORE PUSH32 0x4D61726B65742076616C7565206D757374206265206772656174657220746861 PUSH1 0x44 DUP3 ADD MSTORE PUSH3 0x6E203 PUSH1 0xEC SHL PUSH1 0x64 DUP3 ADD MSTORE PUSH1 0x84 ADD PUSH2 0x73E JUMP JUMPDEST PUSH1 0x0 DUP3 PUSH2 0x7B2 PUSH1 0x12 PUSH1 0xA PUSH2 0x1D3E JUMP JUMPDEST PUSH2 0x7BC SWAP1 DUP7 PUSH2 0x1D4D JUMP JUMPDEST PUSH2 0x7C6 SWAP2 SWAP1 PUSH2 0x1D64 JUMP JUMPDEST SWAP1 POP PUSH1 0x0 DUP2 GT PUSH2 0x818 JUMPI PUSH1 0x40 MLOAD PUSH3 0x461BCD PUSH1 0xE5 SHL DUP2 MSTORE PUSH1 0x20 PUSH1 0x4 DUP3 ADD MSTORE PUSH1 0x1B PUSH1 0x24 DUP3 ADD MSTORE PUSH32 0x43616C63756C61746564206D696E7420616D6F756E7420697320300000000000 PUSH1 0x44 DUP3 ADD MSTORE PUSH1 0x64 ADD PUSH2 0x73E JUMP JUMPDEST PUSH2 0x822 DUP6 DUP3 PUSH2 0x1072 JUMP JUMPDEST PUSH1 0x40 DUP1 MLOAD DUP3 DUP2 MSTORE PUSH1 0x20 DUP2 ADD DUP7 SWAP1 MSTORE SWAP1 DUP2 ADD DUP5 SWAP1 MSTORE PUSH1 0x1 PUSH1 0x1 PUSH1 0xA0 SHL SUB DUP7 AND SWAP1 PUSH32 0xA5ECDF360F29F7A15C93888DF8FE32E8FB7EFE5859C95D321F4AED31149B4750 SWAP1 PUSH1 0x60 ADD PUSH1 0x40 MLOAD DUP1 SWAP2 SUB SWAP1 LOG2 POP POP POP POP POP JUMP JUMPDEST PUSH32 0x58DDDAA4DACE832AB03BE4AAAEC7240B427C5FEA2D9055CE503E15D7EA09CE24 PUSH2 0x89F DUP2 PUSH2 0x1020 JUMP JUMPDEST PUSH2 0x8A7 PUSH2 0x102A JUMP JUMPDEST PUSH2 0x8B1 DUP4 DUP4 PUSH2 0x1072 JUMP JUMPDEST POP POP POP JUMP JUMPDEST PUSH1 0x0 CALLER PUSH2 0x8C4 DUP6 DUP3 DUP6 PUSH2 0x110A JUMP JUMPDEST PUSH2 0x8CF DUP6 DUP6 DUP6 PUSH2 0x1184 JUMP JUMPDEST POP PUSH1 0x1 SWAP5 SWAP4 POP POP POP POP JUMP JUMPDEST PUSH1 0x0 DUP3 DUP2 MSTORE PUSH1 0x6 PUSH1 0x20 MSTORE PUSH1 0x40 SWAP1 KECCAK256 PUSH1 0x1 ADD SLOAD PUSH2 0x8F5 DUP2 PUSH2 0x1020 JUMP JUMPDEST PUSH2 0x8B1 DUP4 DUP4 PUSH2 0x12F5 JUMP JUMPDEST PUSH2 0x90B PUSH1 0x12 PUSH1 0xA PUSH2 0x1D3E JUMP JUMPDEST PUSH2 0x919 SWAP1 PUSH4 0x5F5E100 PUSH2 0x1D4D JUMP JUMPDEST DUP2 JUMP JUMPDEST PUSH1 0x9 SLOAD PUSH1 0x0 SWAP1 PUSH2 0x92E PUSH1 0x12 PUSH1 0xA PUSH2 0x1D3E JUMP JUMPDEST PUSH2 0x93C SWAP1 PUSH4 0x5F5E100 PUSH2 0x1D4D JUMP JUMPDEST PUSH2 0x946 SWAP2 SWAP1 PUSH2 0x1D86 JUMP JUMPDEST SWAP1 POP SWAP1 JUMP JUMPDEST PUSH1 0x1 PUSH1 0x1 PUSH1 0xA0 SHL SUB DUP2 AND CALLER EQ PUSH2 0x9BB JUMPI PUSH1 0x40 MLOAD PUSH3 0x461BCD PUSH1 0xE5 SHL DUP2 MSTORE PUSH1 0x20 PUSH1 0x4 DUP3 ADD MSTORE PUSH1 0x2F PUSH1 0x24 DUP3 ADD MSTORE PUSH32 0x416363657373436F6E74726F6C3A2063616E206F6E6C792072656E6F756E6365 PUSH1 0x44 DUP3 ADD MSTORE PUSH15 0x103937B632B9903337B91039B2B633 PUSH1 0x89 SHL PUSH1 0x64 DUP3 ADD MSTORE PUSH1 0x84 ADD PUSH2 0x73E JUMP JUMPDEST PUSH2 0x9C5 DUP3 DUP3 PUSH2 0x137B JUMP JUMPDEST POP POP JUMP JUMPDEST PUSH1 0x0 CALLER PUSH2 0x6B6 DUP2 DUP6 DUP6 PUSH2 0x9DC DUP4 DUP4 PUSH2 0xED1 JUMP JUMPDEST PUSH2 0x9E6 SWAP2 SWAP1 PUSH2 0x1D99 JUMP JUMPDEST PUSH2 0xEFC JUMP JUMPDEST PUSH1 0x0 PUSH2 0x9F6 DUP2 PUSH2 0x1020 JUMP JUMPDEST PUSH1 0x1 PUSH1 0x1 PUSH1 0xA0 SHL SUB DUP4 AND PUSH2 0xA5A JUMPI PUSH1 0x40 MLOAD PUSH3 0x461BCD PUSH1 0xE5 SHL DUP2 MSTORE PUSH1 0x20 PUSH1 0x4 DUP3 ADD MSTORE PUSH1 0x25 PUSH1 0x24 DUP3 ADD MSTORE PUSH32 0x43616E6E6F7420736574206578656D7074696F6E20666F72207A65726F206164 PUSH1 0x44 DUP3 ADD MSTORE PUSH5 0x6472657373 PUSH1 0xD8 SHL PUSH1 0x64 DUP3 ADD MSTORE PUSH1 0x84 ADD PUSH2 0x73E JUMP JUMPDEST PUSH1 0x1 PUSH1 0x1 PUSH1 0xA0 SHL SUB DUP4 AND PUSH1 0x0 DUP2 DUP2 MSTORE PUSH1 0xA PUSH1 0x20 SWAP1 DUP2 MSTORE PUSH1 0x40 SWAP2 DUP3 SWAP1 KECCAK256 DUP1 SLOAD PUSH1 0xFF NOT AND DUP7 ISZERO ISZERO SWAP1 DUP2 OR SWAP1 SWAP2 SSTORE SWAP2 MLOAD SWAP2 DUP3 MSTORE PUSH1 0x0 DUP1 MLOAD PUSH1 0x20 PUSH2 0x1EED DUP4 CODECOPY DUP2 MLOAD SWAP2 MSTORE SWAP2 ADD JUMPDEST PUSH1 0x40 MLOAD DUP1 SWAP2 SUB SWAP1 LOG2 POP POP POP JUMP JUMPDEST PUSH32 0x65D7A28E3265B37A6474929F336521B332C1681B933F6CB9F3376673440D862A PUSH2 0xAD3 DUP2 PUSH2 0x1020 JUMP JUMPDEST PUSH2 0xADB PUSH2 0x13E2 JUMP JUMPDEST POP JUMP JUMPDEST PUSH2 0xADB CALLER DUP3 PUSH2 0x1434 JUMP JUMPDEST PUSH1 0x0 PUSH2 0xAF6 PUSH1 0x12 PUSH1 0xA PUSH2 0x1D3E JUMP JUMPDEST PUSH2 0xB04 SWAP1 PUSH4 0x5F5E100 PUSH2 0x1D4D JUMP JUMPDEST DUP3 PUSH1 0x9 SLOAD PUSH2 0xB12 SWAP2 SWAP1 PUSH2 0x1D99 JUMP JUMPDEST GT ISZERO SWAP3 SWAP2 POP POP JUMP JUMPDEST PUSH2 0xB25 DUP3 CALLER DUP4 PUSH2 0x110A JUMP JUMPDEST PUSH2 0x9C5 DUP3 DUP3 PUSH2 0x1434 JUMP JUMPDEST PUSH1 0x0 PUSH2 0xB3A DUP2 PUSH2 0x1020 JUMP JUMPDEST PUSH1 0x1 PUSH1 0x1 PUSH1 0xA0 SHL SUB DUP3 AND PUSH2 0xB90 JUMPI PUSH1 0x40 MLOAD PUSH3 0x461BCD PUSH1 0xE5 SHL DUP2 MSTORE PUSH1 0x20 PUSH1 0x4 DUP3 ADD MSTORE PUSH1 0x1F PUSH1 0x24 DUP3 ADD MSTORE PUSH32 0x547265617375727920616464726573732063616E6E6F74206265207A65726F00 PUSH1 0x44 DUP3 ADD MSTORE PUSH1 0x64 ADD PUSH2 0x73E JUMP JUMPDEST PUSH1 0x7 DUP1 SLOAD PUSH1 0x1 PUSH1 0x1 PUSH1 0xA0 SHL SUB SWAP1 DUP2 AND PUSH1 0x0 DUP2 DUP2 MSTORE PUSH1 0xA PUSH1 0x20 MSTORE PUSH1 0x40 DUP1 DUP3 KECCAK256 DUP1 SLOAD PUSH1 0xFF NOT SWAP1 DUP2 AND SWAP1 SWAP2 SSTORE SWAP4 DUP8 AND DUP1 DUP4 MSTORE DUP2 DUP4 KECCAK256 DUP1 SLOAD SWAP1 SWAP6 AND PUSH1 0x1 OR SWAP1 SWAP5 SSTORE DUP5 SLOAD PUSH1 0x1 PUSH1 0x1 PUSH1 0xA0 SHL SUB NOT AND DUP5 OR SWAP1 SWAP5 SSTORE SWAP3 MLOAD SWAP1 SWAP3 DUP4 SWAP2 PUSH32 0x430359A6D97CED2B6F93C77A91E7CE9DFD43252EB91E916ADBA170485CD8A6A4 SWAP2 SWAP1 LOG3 PUSH1 0x40 MLOAD PUSH1 0x0 DUP2 MSTORE PUSH1 0x1 PUSH1 0x1 PUSH1 0xA0 SHL SUB DUP3 AND SWAP1 PUSH1 0x0 DUP1 MLOAD PUSH1 0x20 PUSH2 0x1EED DUP4 CODECOPY DUP2 MLOAD SWAP2 MSTORE SWAP1 PUSH1 0x20 ADD JUMPDEST PUSH1 0x40 MLOAD DUP1 SWAP2 SUB SWAP1 LOG2 PUSH1 0x40 MLOAD PUSH1 0x1 DUP2 MSTORE PUSH1 0x1 PUSH1 0x1 PUSH1 0xA0 SHL SUB DUP5 AND SWAP1 PUSH1 0x0 DUP1 MLOAD PUSH1 0x20 PUSH2 0x1EED DUP4 CODECOPY DUP2 MLOAD SWAP2 MSTORE SWAP1 PUSH1 0x20 ADD PUSH2 0xA9C JUMP JUMPDEST PUSH32 0x65D7A28E3265B37A6474929F336521B332C1681B933F6CB9F3376673440D862A PUSH2 0xC8A DUP2 PUSH2 0x1020 JUMP JUMPDEST PUSH2 0xADB PUSH2 0x1572 JUMP JUMPDEST PUSH1 0x0 SWAP2 DUP3 MSTORE PUSH1 0x6 PUSH1 0x20 SWAP1 DUP2 MSTORE PUSH1 0x40 DUP1 DUP5 KECCAK256 PUSH1 0x1 PUSH1 0x1 PUSH1 0xA0 SHL SUB SWAP4 SWAP1 SWAP4 AND DUP5 MSTORE SWAP2 SWAP1 MSTORE SWAP1 KECCAK256 SLOAD PUSH1 0xFF AND SWAP1 JUMP JUMPDEST PUSH1 0x60 PUSH1 0x4 DUP1 SLOAD PUSH2 0x625 SWAP1 PUSH2 0x1C0A JUMP JUMPDEST PUSH1 0x0 CALLER DUP2 PUSH2 0xCDA DUP3 DUP7 PUSH2 0xED1 JUMP JUMPDEST SWAP1 POP DUP4 DUP2 LT ISZERO PUSH2 0xD3A JUMPI PUSH1 0x40 MLOAD PUSH3 0x461BCD PUSH1 0xE5 SHL DUP2 MSTORE PUSH1 0x20 PUSH1 0x4 DUP3 ADD MSTORE PUSH1 0x25 PUSH1 0x24 DUP3 ADD MSTORE PUSH32 0x45524332303A2064656372656173656420616C6C6F77616E63652062656C6F77 PUSH1 0x44 DUP3 ADD MSTORE PUSH5 0x207A65726F PUSH1 0xD8 SHL PUSH1 0x64 DUP3 ADD MSTORE PUSH1 0x84 ADD PUSH2 0x73E JUMP JUMPDEST PUSH2 0x8CF DUP3 DUP7 DUP7 DUP5 SUB PUSH2 0xEFC JUMP JUMPDEST PUSH1 0x0 CALLER PUSH2 0x6B6 DUP2 DUP6 DUP6 PUSH2 0x1184 JUMP JUMPDEST PUSH32 0x18F2E6085D5811142B8C6597E0F2141F5A661E3EAA75B261016DCE0B6F99208B PUSH2 0x89F DUP2 PUSH2 0x1020 JUMP JUMPDEST PUSH32 0xD85A4CF5D37A04DD33DD5BE180981C3F745CE2F4EE8A4DBD26E87BFF58577023 PUSH2 0x89F DUP2 PUSH2 0x1020 JUMP JUMPDEST PUSH1 0x0 PUSH2 0xDB4 DUP2 PUSH2 0x1020 JUMP JUMPDEST PUSH1 0x1 PUSH1 0x1 PUSH1 0xA0 SHL SUB DUP3 AND PUSH2 0xE0A JUMPI PUSH1 0x40 MLOAD PUSH3 0x461BCD PUSH1 0xE5 SHL DUP2 MSTORE PUSH1 0x20 PUSH1 0x4 DUP3 ADD MSTORE PUSH1 0x1A PUSH1 0x24 DUP3 ADD MSTORE PUSH32 0x44414F20616464726573732063616E6E6F74206265207A65726F000000000000 PUSH1 0x44 DUP3 ADD MSTORE PUSH1 0x64 ADD PUSH2 0x73E JUMP JUMPDEST PUSH1 0x8 DUP1 SLOAD PUSH1 0x1 PUSH1 0x1 PUSH1 0xA0 SHL SUB SWAP1 DUP2 AND PUSH1 0x0 DUP2 DUP2 MSTORE PUSH1 0xA PUSH1 0x20 MSTORE PUSH1 0x40 DUP1 DUP3 KECCAK256 DUP1 SLOAD PUSH1 0xFF NOT SWAP1 DUP2 AND SWAP1 SWAP2 SSTORE SWAP4 DUP8 AND DUP1 DUP4 MSTORE DUP2 DUP4 KECCAK256 DUP1 SLOAD SWAP1 SWAP6 AND PUSH1 0x1 OR SWAP1 SWAP5 SSTORE DUP5 SLOAD PUSH1 0x1 PUSH1 0x1 PUSH1 0xA0 SHL SUB NOT AND DUP5 OR SWAP1 SWAP5 SSTORE SWAP3 MLOAD SWAP1 SWAP3 DUP4 SWAP2 PUSH32 0x71F214B1B2613615A479CC45E38993FE86141A5CEB7CCF4330A76479B29D86DA SWAP2 SWAP1 LOG3 PUSH1 0x40 MLOAD PUSH1 0x0 DUP2 MSTORE PUSH1 0x1 PUSH1 0x1 PUSH1 0xA0 SHL SUB DUP3 AND SWAP1 PUSH1 0x0 DUP1 MLOAD PUSH1 0x20 PUSH2 0x1EED DUP4 CODECOPY DUP2 MLOAD SWAP2 MSTORE SWAP1 PUSH1 0x20 ADD PUSH2 0xC2E JUMP JUMPDEST PUSH1 0x0 DUP3 DUP2 MSTORE PUSH1 0x6 PUSH1 0x20 MSTORE PUSH1 0x40 SWAP1 KECCAK256 PUSH1 0x1 ADD SLOAD PUSH2 0xEC7 DUP2 PUSH2 0x1020 JUMP JUMPDEST PUSH2 0x8B1 DUP4 DUP4 PUSH2 0x137B JUMP JUMPDEST PUSH1 0x1 PUSH1 0x1 PUSH1 0xA0 SHL SUB SWAP2 DUP3 AND PUSH1 0x0 SWAP1 DUP2 MSTORE PUSH1 0x1 PUSH1 0x20 SWAP1 DUP2 MSTORE PUSH1 0x40 DUP1 DUP4 KECCAK256 SWAP4 SWAP1 SWAP5 AND DUP3 MSTORE SWAP2 SWAP1 SWAP2 MSTORE KECCAK256 SLOAD SWAP1 JUMP JUMPDEST PUSH1 0x1 PUSH1 0x1 PUSH1 0xA0 SHL SUB DUP4 AND PUSH2 0xF5E JUMPI PUSH1 0x40 MLOAD PUSH3 0x461BCD PUSH1 0xE5 SHL DUP2 MSTORE PUSH1 0x20 PUSH1 0x4 DUP3 ADD MSTORE PUSH1 0x24 DUP1 DUP3 ADD MSTORE PUSH32 0x45524332303A20617070726F76652066726F6D20746865207A65726F20616464 PUSH1 0x44 DUP3 ADD MSTORE PUSH4 0x72657373 PUSH1 0xE0 SHL PUSH1 0x64 DUP3 ADD MSTORE PUSH1 0x84 ADD PUSH2 0x73E JUMP JUMPDEST PUSH1 0x1 PUSH1 0x1 PUSH1 0xA0 SHL SUB DUP3 AND PUSH2 0xFBF JUMPI PUSH1 0x40 MLOAD PUSH3 0x461BCD PUSH1 0xE5 SHL DUP2 MSTORE PUSH1 0x20 PUSH1 0x4 DUP3 ADD MSTORE PUSH1 0x22 PUSH1 0x24 DUP3 ADD MSTORE PUSH32 0x45524332303A20617070726F766520746F20746865207A65726F206164647265 PUSH1 0x44 DUP3 ADD MSTORE PUSH2 0x7373 PUSH1 0xF0 SHL PUSH1 0x64 DUP3 ADD MSTORE PUSH1 0x84 ADD PUSH2 0x73E JUMP JUMPDEST PUSH1 0x1 PUSH1 0x1 PUSH1 0xA0 SHL SUB DUP4 DUP2 AND PUSH1 0x0 DUP2 DUP2 MSTORE PUSH1 0x1 PUSH1 0x20 SWAP1 DUP2 MSTORE PUSH1 0x40 DUP1 DUP4 KECCAK256 SWAP5 DUP8 AND DUP1 DUP5 MSTORE SWAP5 DUP3 MSTORE SWAP2 DUP3 SWAP1 KECCAK256 DUP6 SWAP1 SSTORE SWAP1 MLOAD DUP5 DUP2 MSTORE PUSH32 0x8C5BE1E5EBEC7D5BD14F71427D1E84F3DD0314C0F7B2291E5B200AC8C7C3B925 SWAP2 ADD PUSH1 0x40 MLOAD DUP1 SWAP2 SUB SWAP1 LOG3 POP POP POP JUMP JUMPDEST PUSH2 0xADB DUP2 CALLER PUSH2 0x15AF JUMP JUMPDEST PUSH1 0x5 SLOAD PUSH1 0xFF AND ISZERO PUSH2 0x1070 JUMPI PUSH1 0x40 MLOAD PUSH3 0x461BCD PUSH1 0xE5 SHL DUP2 MSTORE PUSH1 0x20 PUSH1 0x4 DUP3 ADD MSTORE PUSH1 0x10 PUSH1 0x24 DUP3 ADD MSTORE PUSH16 0x14185D5CD8589B194E881C185D5CD959 PUSH1 0x82 SHL PUSH1 0x44 DUP3 ADD MSTORE PUSH1 0x64 ADD PUSH2 0x73E JUMP JUMPDEST JUMP JUMPDEST PUSH2 0x107E PUSH1 0x12 PUSH1 0xA PUSH2 0x1D3E JUMP JUMPDEST PUSH2 0x108C SWAP1 PUSH4 0x5F5E100 PUSH2 0x1D4D JUMP JUMPDEST DUP2 PUSH1 0x9 SLOAD PUSH2 0x109A SWAP2 SWAP1 PUSH2 0x1D99 JUMP JUMPDEST GT ISZERO PUSH2 0x10E8 JUMPI PUSH1 0x40 MLOAD PUSH3 0x461BCD PUSH1 0xE5 SHL DUP2 MSTORE PUSH1 0x20 PUSH1 0x4 DUP3 ADD MSTORE PUSH1 0x1F PUSH1 0x24 DUP3 ADD MSTORE PUSH32 0x4D696E74696E6720776F756C6420657863656564206D617820737570706C7900 PUSH1 0x44 DUP3 ADD MSTORE PUSH1 0x64 ADD PUSH2 0x73E JUMP JUMPDEST DUP1 PUSH1 0x9 PUSH1 0x0 DUP3 DUP3 SLOAD PUSH2 0x10FA SWAP2 SWAP1 PUSH2 0x1D99 JUMP JUMPDEST SWAP1 SWAP2 SSTORE POP PUSH2 0x9C5 SWAP1 POP DUP3 DUP3 PUSH2 0x1608 JUMP JUMPDEST PUSH1 0x0 PUSH2 0x1116 DUP5 DUP5 PUSH2 0xED1 JUMP JUMPDEST SWAP1 POP PUSH1 0x0 NOT DUP2 EQ PUSH2 0x117E JUMPI DUP2 DUP2 LT ISZERO PUSH2 0x1171 JUMPI PUSH1 0x40 MLOAD PUSH3 0x461BCD PUSH1 0xE5 SHL DUP2 MSTORE PUSH1 0x20 PUSH1 0x4 DUP3 ADD MSTORE PUSH1 0x1D PUSH1 0x24 DUP3 ADD MSTORE PUSH32 0x45524332303A20696E73756666696369656E7420616C6C6F77616E6365000000 PUSH1 0x44 DUP3 ADD MSTORE PUSH1 0x64 ADD PUSH2 0x73E JUMP JUMPDEST PUSH2 0x117E DUP5 DUP5 DUP5 DUP5 SUB PUSH2 0xEFC JUMP JUMPDEST POP POP POP POP JUMP JUMPDEST PUSH1 0x1 PUSH1 0x1 PUSH1 0xA0 SHL SUB DUP4 AND PUSH2 0x11AA JUMPI PUSH1 0x40 MLOAD PUSH3 0x461BCD PUSH1 0xE5 SHL DUP2 MSTORE PUSH1 0x4 ADD PUSH2 0x73E SWAP1 PUSH2 0x1DAC JUMP JUMPDEST PUSH1 0x1 PUSH1 0x1 PUSH1 0xA0 SHL SUB DUP3 AND PUSH2 0x11D0 JUMPI PUSH1 0x40 MLOAD PUSH3 0x461BCD PUSH1 0xE5 SHL DUP2 MSTORE PUSH1 0x4 ADD PUSH2 0x73E SWAP1 PUSH2 0x1DF1 JUMP JUMPDEST PUSH1 0x1 PUSH1 0x1 PUSH1 0xA0 SHL SUB DUP4 AND PUSH1 0x0 SWAP1 DUP2 MSTORE PUSH1 0xA PUSH1 0x20 MSTORE PUSH1 0x40 SWAP1 KECCAK256 SLOAD PUSH1 0xFF AND DUP1 PUSH2 0x120F JUMPI POP PUSH1 0x1 PUSH1 0x1 PUSH1 0xA0 SHL SUB DUP3 AND PUSH1 0x0 SWAP1 DUP2 MSTORE PUSH1 0xA PUSH1 0x20 MSTORE PUSH1 0x40 SWAP1 KECCAK256 SLOAD PUSH1 0xFF AND JUMPDEST ISZERO PUSH2 0x121F JUMPI PUSH2 0x8B1 DUP4 DUP4 DUP4 PUSH2 0x16D3 JUMP JUMPDEST PUSH1 0x0 PUSH1 0x64 PUSH2 0x122E PUSH1 0x1 DUP5 PUSH2 0x1D4D JUMP JUMPDEST PUSH2 0x1238 SWAP2 SWAP1 PUSH2 0x1D64 JUMP JUMPDEST SWAP1 POP PUSH1 0x0 PUSH1 0x64 PUSH2 0x1249 PUSH1 0x1 DUP6 PUSH2 0x1D4D JUMP JUMPDEST PUSH2 0x1253 SWAP2 SWAP1 PUSH2 0x1D64 JUMP JUMPDEST SWAP1 POP PUSH1 0x0 DUP2 PUSH2 0x1262 DUP5 DUP7 PUSH2 0x1D86 JUMP JUMPDEST PUSH2 0x126C SWAP2 SWAP1 PUSH2 0x1D86 JUMP JUMPDEST SWAP1 POP PUSH2 0x1279 DUP7 DUP7 DUP4 PUSH2 0x16D3 JUMP JUMPDEST DUP3 ISZERO PUSH2 0x1289 JUMPI PUSH2 0x1289 DUP7 DUP5 PUSH2 0x1434 JUMP JUMPDEST DUP2 ISZERO PUSH2 0x12ED JUMPI PUSH1 0x7 SLOAD PUSH2 0x12A7 SWAP1 DUP8 SWAP1 PUSH1 0x1 PUSH1 0x1 PUSH1 0xA0 SHL SUB AND DUP5 PUSH2 0x16D3 JUMP JUMPDEST PUSH1 0x7 SLOAD PUSH1 0x40 MLOAD DUP4 DUP2 MSTORE PUSH1 0x1 PUSH1 0x1 PUSH1 0xA0 SHL SUB SWAP2 DUP3 AND SWAP2 DUP9 AND SWAP1 PUSH32 0xE9B448CCE44AD73A5E65365743B806BDF42D8F3B588A8E4E21650497D969EA52 SWAP1 PUSH1 0x20 ADD PUSH1 0x40 MLOAD DUP1 SWAP2 SUB SWAP1 LOG3 JUMPDEST POP POP POP POP POP POP JUMP JUMPDEST PUSH2 0x12FF DUP3 DUP3 PUSH2 0xC92 JUMP JUMPDEST PUSH2 0x9C5 JUMPI PUSH1 0x0 DUP3 DUP2 MSTORE PUSH1 0x6 PUSH1 0x20 SWAP1 DUP2 MSTORE PUSH1 0x40 DUP1 DUP4 KECCAK256 PUSH1 0x1 PUSH1 0x1 PUSH1 0xA0 SHL SUB DUP6 AND DUP5 MSTORE SWAP1 SWAP2 MSTORE SWAP1 KECCAK256 DUP1 SLOAD PUSH1 0xFF NOT AND PUSH1 0x1 OR SWAP1 SSTORE PUSH2 0x1337 CALLER SWAP1 JUMP JUMPDEST PUSH1 0x1 PUSH1 0x1 PUSH1 0xA0 SHL SUB AND DUP2 PUSH1 0x1 PUSH1 0x1 PUSH1 0xA0 SHL SUB AND DUP4 PUSH32 0x2F8788117E7EFF1D82E926EC794901D17C78024A50270940304540A733656F0D PUSH1 0x40 MLOAD PUSH1 0x40 MLOAD DUP1 SWAP2 SUB SWAP1 LOG4 POP POP JUMP JUMPDEST PUSH2 0x1385 DUP3 DUP3 PUSH2 0xC92 JUMP JUMPDEST ISZERO PUSH2 0x9C5 JUMPI PUSH1 0x0 DUP3 DUP2 MSTORE PUSH1 0x6 PUSH1 0x20 SWAP1 DUP2 MSTORE PUSH1 0x40 DUP1 DUP4 KECCAK256 PUSH1 0x1 PUSH1 0x1 PUSH1 0xA0 SHL SUB DUP6 AND DUP1 DUP6 MSTORE SWAP3 MSTORE DUP1 DUP4 KECCAK256 DUP1 SLOAD PUSH1 0xFF NOT AND SWAP1 SSTORE MLOAD CALLER SWAP3 DUP6 SWAP2 PUSH32 0xF6391F5C32D9C69D2A47EA670B442974B53935D1EDC7FD64EB21E047A839171B SWAP2 SWAP1 LOG4 POP POP JUMP JUMPDEST PUSH2 0x13EA PUSH2 0x1808 JUMP JUMPDEST PUSH1 0x5 DUP1 SLOAD PUSH1 0xFF NOT AND SWAP1 SSTORE PUSH32 0x5DB9EE0A495BF2E6FF9C91A7834C1BA4FDD244A5E8AA4E537BD38AEAE4B073AA CALLER JUMPDEST PUSH1 0x40 MLOAD PUSH1 0x1 PUSH1 0x1 PUSH1 0xA0 SHL SUB SWAP1 SWAP2 AND DUP2 MSTORE PUSH1 0x20 ADD PUSH1 0x40 MLOAD DUP1 SWAP2 SUB SWAP1 LOG1 JUMP JUMPDEST PUSH1 0x1 PUSH1 0x1 PUSH1 0xA0 SHL SUB DUP3 AND PUSH2 0x1494 JUMPI PUSH1 0x40 MLOAD PUSH3 0x461BCD PUSH1 0xE5 SHL DUP2 MSTORE PUSH1 0x20 PUSH1 0x4 DUP3 ADD MSTORE PUSH1 0x21 PUSH1 0x24 DUP3 ADD MSTORE PUSH32 0x45524332303A206275726E2066726F6D20746865207A65726F20616464726573 PUSH1 0x44 DUP3 ADD MSTORE PUSH1 0x73 PUSH1 0xF8 SHL PUSH1 0x64 DUP3 ADD MSTORE PUSH1 0x84 ADD PUSH2 0x73E JUMP JUMPDEST PUSH2 0x14A0 DUP3 PUSH1 0x0 DUP4 PUSH2 0x1851 JUMP JUMPDEST PUSH1 0x1 PUSH1 0x1 PUSH1 0xA0 SHL SUB DUP3 AND PUSH1 0x0 SWAP1 DUP2 MSTORE PUSH1 0x20 DUP2 SWAP1 MSTORE PUSH1 0x40 SWAP1 KECCAK256 SLOAD DUP2 DUP2 LT ISZERO PUSH2 0x1514 JUMPI PUSH1 0x40 MLOAD PUSH3 0x461BCD PUSH1 0xE5 SHL DUP2 MSTORE PUSH1 0x20 PUSH1 0x4 DUP3 ADD MSTORE PUSH1 0x22 PUSH1 0x24 DUP3 ADD MSTORE PUSH32 0x45524332303A206275726E20616D6F756E7420657863656564732062616C616E PUSH1 0x44 DUP3 ADD MSTORE PUSH2 0x6365 PUSH1 0xF0 SHL PUSH1 0x64 DUP3 ADD MSTORE PUSH1 0x84 ADD PUSH2 0x73E JUMP JUMPDEST PUSH1 0x1 PUSH1 0x1 PUSH1 0xA0 SHL SUB DUP4 AND PUSH1 0x0 DUP2 DUP2 MSTORE PUSH1 0x20 DUP2 DUP2 MSTORE PUSH1 0x40 DUP1 DUP4 KECCAK256 DUP7 DUP7 SUB SWAP1 SSTORE PUSH1 0x2 DUP1 SLOAD DUP8 SWAP1 SUB SWAP1 SSTORE MLOAD DUP6 DUP2 MSTORE SWAP2 SWAP3 SWAP2 PUSH32 0xDDF252AD1BE2C89B69C2B068FC378DAA952BA7F163C4A11628F55A4DF523B3EF SWAP2 ADD PUSH1 0x40 MLOAD DUP1 SWAP2 SUB SWAP1 LOG3 POP POP POP JUMP JUMPDEST PUSH2 0x157A PUSH2 0x102A JUMP JUMPDEST PUSH1 0x5 DUP1 SLOAD PUSH1 0xFF NOT AND PUSH1 0x1 OR SWAP1 SSTORE PUSH32 0x62E78CEA01BEE320CD4E420270B5EA74000D11B0C9F74754EBDBFC544B05A258 PUSH2 0x1417 CALLER SWAP1 JUMP JUMPDEST PUSH2 0x15B9 DUP3 DUP3 PUSH2 0xC92 JUMP JUMPDEST PUSH2 0x9C5 JUMPI PUSH2 0x15C6 DUP2 PUSH2 0x1859 JUMP JUMPDEST PUSH2 0x15D1 DUP4 PUSH1 0x20 PUSH2 0x186B JUMP JUMPDEST PUSH1 0x40 MLOAD PUSH1 0x20 ADD PUSH2 0x15E2 SWAP3 SWAP2 SWAP1 PUSH2 0x1E34 JUMP JUMPDEST PUSH1 0x40 DUP1 MLOAD PUSH1 0x1F NOT DUP2 DUP5 SUB ADD DUP2 MSTORE SWAP1 DUP3 SWAP1 MSTORE PUSH3 0x461BCD PUSH1 0xE5 SHL DUP3 MSTORE PUSH2 0x73E SWAP2 PUSH1 0x4 ADD PUSH2 0x1A5C JUMP JUMPDEST PUSH1 0x1 PUSH1 0x1 PUSH1 0xA0 SHL SUB DUP3 AND PUSH2 0x165E JUMPI PUSH1 0x40 MLOAD PUSH3 0x461BCD PUSH1 0xE5 SHL DUP2 MSTORE PUSH1 0x20 PUSH1 0x4 DUP3 ADD MSTORE PUSH1 0x1F PUSH1 0x24 DUP3 ADD MSTORE PUSH32 0x45524332303A206D696E7420746F20746865207A65726F206164647265737300 PUSH1 0x44 DUP3 ADD MSTORE PUSH1 0x64 ADD PUSH2 0x73E JUMP JUMPDEST PUSH2 0x166A PUSH1 0x0 DUP4 DUP4 PUSH2 0x1851 JUMP JUMPDEST DUP1 PUSH1 0x2 PUSH1 0x0 DUP3 DUP3 SLOAD PUSH2 0x167C SWAP2 SWAP1 PUSH2 0x1D99 JUMP JUMPDEST SWAP1 SWAP2 SSTORE POP POP PUSH1 0x1 PUSH1 0x1 PUSH1 0xA0 SHL SUB DUP3 AND PUSH1 0x0 DUP2 DUP2 MSTORE PUSH1 0x20 DUP2 DUP2 MSTORE PUSH1 0x40 DUP1 DUP4 KECCAK256 DUP1 SLOAD DUP7 ADD SWAP1 SSTORE MLOAD DUP5 DUP2 MSTORE PUSH32 0xDDF252AD1BE2C89B69C2B068FC378DAA952BA7F163C4A11628F55A4DF523B3EF SWAP2 ADD PUSH1 0x40 MLOAD DUP1 SWAP2 SUB SWAP1 LOG3 POP POP JUMP JUMPDEST PUSH1 0x1 PUSH1 0x1 PUSH1 0xA0 SHL SUB DUP4 AND PUSH2 0x16F9 JUMPI PUSH1 0x40 MLOAD PUSH3 0x461BCD PUSH1 0xE5 SHL DUP2 MSTORE PUSH1 0x4 ADD PUSH2 0x73E SWAP1 PUSH2 0x1DAC JUMP JUMPDEST PUSH1 0x1 PUSH1 0x1 PUSH1 0xA0 SHL SUB DUP3 AND PUSH2 0x171F JUMPI PUSH1 0x40 MLOAD PUSH3 0x461BCD PUSH1 0xE5 SHL DUP2 MSTORE PUSH1 0x4 ADD PUSH2 0x73E SWAP1 PUSH2 0x1DF1 JUMP JUMPDEST PUSH2 0x172A DUP4 DUP4 DUP4 PUSH2 0x1851 JUMP JUMPDEST PUSH1 0x1 PUSH1 0x1 PUSH1 0xA0 SHL SUB DUP4 AND PUSH1 0x0 SWAP1 DUP2 MSTORE PUSH1 0x20 DUP2 SWAP1 MSTORE PUSH1 0x40 SWAP1 KECCAK256 SLOAD DUP2 DUP2 LT ISZERO PUSH2 0x17A2 JUMPI PUSH1 0x40 MLOAD PUSH3 0x461BCD PUSH1 0xE5 SHL DUP2 MSTORE PUSH1 0x20 PUSH1 0x4 DUP3 ADD MSTORE PUSH1 0x26 PUSH1 0x24 DUP3 ADD MSTORE PUSH32 0x45524332303A207472616E7366657220616D6F756E7420657863656564732062 PUSH1 0x44 DUP3 ADD MSTORE PUSH6 0x616C616E6365 PUSH1 0xD0 SHL PUSH1 0x64 DUP3 ADD MSTORE PUSH1 0x84 ADD PUSH2 0x73E JUMP JUMPDEST PUSH1 0x1 PUSH1 0x1 PUSH1 0xA0 SHL SUB DUP5 DUP2 AND PUSH1 0x0 DUP2 DUP2 MSTORE PUSH1 0x20 DUP2 DUP2 MSTORE PUSH1 0x40 DUP1 DUP4 KECCAK256 DUP8 DUP8 SUB SWAP1 SSTORE SWAP4 DUP8 AND DUP1 DUP4 MSTORE SWAP2 DUP5 SWAP1 KECCAK256 DUP1 SLOAD DUP8 ADD SWAP1 SSTORE SWAP3 MLOAD DUP6 DUP2 MSTORE SWAP1 SWAP3 PUSH32 0xDDF252AD1BE2C89B69C2B068FC378DAA952BA7F163C4A11628F55A4DF523B3EF SWAP2 ADD PUSH1 0x40 MLOAD DUP1 SWAP2 SUB SWAP1 LOG3 PUSH2 0x117E JUMP JUMPDEST PUSH1 0x5 SLOAD PUSH1 0xFF AND PUSH2 0x1070 JUMPI PUSH1 0x40 MLOAD PUSH3 0x461BCD PUSH1 0xE5 SHL DUP2 MSTORE PUSH1 0x20 PUSH1 0x4 DUP3 ADD MSTORE PUSH1 0x14 PUSH1 0x24 DUP3 ADD MSTORE PUSH20 0x14185D5CD8589B194E881B9BDD081C185D5CD959 PUSH1 0x62 SHL PUSH1 0x44 DUP3 ADD MSTORE PUSH1 0x64 ADD PUSH2 0x73E JUMP JUMPDEST PUSH2 0x8B1 PUSH2 0x102A JUMP JUMPDEST PUSH1 0x60 PUSH2 0x610 PUSH1 0x1 PUSH1 0x1 PUSH1 0xA0 SHL SUB DUP4 AND PUSH1 0x14 JUMPDEST PUSH1 0x60 PUSH1 0x0 PUSH2 0x187A DUP4 PUSH1 0x2 PUSH2 0x1D4D JUMP JUMPDEST PUSH2 0x1885 SWAP1 PUSH1 0x2 PUSH2 0x1D99 JUMP JUMPDEST PUSH8 0xFFFFFFFFFFFFFFFF DUP2 GT ISZERO PUSH2 0x189D JUMPI PUSH2 0x189D PUSH2 0x1EA9 JUMP JUMPDEST PUSH1 0x40 MLOAD SWAP1 DUP1 DUP3 MSTORE DUP1 PUSH1 0x1F ADD PUSH1 0x1F NOT AND PUSH1 0x20 ADD DUP3 ADD PUSH1 0x40 MSTORE DUP1 ISZERO PUSH2 0x18C7 JUMPI PUSH1 0x20 DUP3 ADD DUP2 DUP1 CALLDATASIZE DUP4 CALLDATACOPY ADD SWAP1 POP JUMPDEST POP SWAP1 POP PUSH1 0x3 PUSH1 0xFC SHL DUP2 PUSH1 0x0 DUP2 MLOAD DUP2 LT PUSH2 0x18E2 JUMPI PUSH2 0x18E2 PUSH2 0x1EBF JUMP JUMPDEST PUSH1 0x20 ADD ADD SWAP1 PUSH1 0x1 PUSH1 0x1 PUSH1 0xF8 SHL SUB NOT AND SWAP1 DUP2 PUSH1 0x0 BYTE SWAP1 MSTORE8 POP PUSH1 0xF PUSH1 0xFB SHL DUP2 PUSH1 0x1 DUP2 MLOAD DUP2 LT PUSH2 0x1911 JUMPI PUSH2 0x1911 PUSH2 0x1EBF JUMP JUMPDEST PUSH1 0x20 ADD ADD SWAP1 PUSH1 0x1 PUSH1 0x1 PUSH1 0xF8 SHL SUB NOT AND SWAP1 DUP2 PUSH1 0x0 BYTE SWAP1 MSTORE8 POP PUSH1 0x0 PUSH2 0x1935 DUP5 PUSH1 0x2 PUSH2 0x1D4D JUMP JUMPDEST PUSH2 0x1940 SWAP1 PUSH1 0x1 PUSH2 0x1D99 JUMP JUMPDEST SWAP1 POP JUMPDEST PUSH1 0x1 DUP2 GT ISZERO PUSH2 0x19B8 JUMPI PUSH16 0x181899199A1A9B1B9C1CB0B131B232B3 PUSH1 0x81 SHL DUP6 PUSH1 0xF AND PUSH1 0x10 DUP2 LT PUSH2 0x1974 JUMPI PUSH2 0x1974 PUSH2 0x1EBF JUMP JUMPDEST BYTE PUSH1 0xF8 SHL DUP3 DUP3 DUP2 MLOAD DUP2 LT PUSH2 0x198A JUMPI PUSH2 0x198A PUSH2 0x1EBF JUMP JUMPDEST PUSH1 0x20 ADD ADD SWAP1 PUSH1 0x1 PUSH1 0x1 PUSH1 0xF8 SHL SUB NOT AND SWAP1 DUP2 PUSH1 0x0 BYTE SWAP1 MSTORE8 POP PUSH1 0x4 SWAP5 SWAP1 SWAP5 SHR SWAP4 PUSH2 0x19B1 DUP2 PUSH2 0x1ED5 JUMP JUMPDEST SWAP1 POP PUSH2 0x1943 JUMP JUMPDEST POP DUP4 ISZERO PUSH2 0x1A07 JUMPI PUSH1 0x40 MLOAD PUSH3 0x461BCD PUSH1 0xE5 SHL DUP2 MSTORE PUSH1 0x20 PUSH1 0x4 DUP3 ADD DUP2 SWAP1 MSTORE PUSH1 0x24 DUP3 ADD MSTORE PUSH32 0x537472696E67733A20686578206C656E67746820696E73756666696369656E74 PUSH1 0x44 DUP3 ADD MSTORE PUSH1 0x64 ADD PUSH2 0x73E JUMP JUMPDEST SWAP4 SWAP3 POP POP POP JUMP JUMPDEST PUSH1 0x0 PUSH1 0x20 DUP3 DUP5 SUB SLT ISZERO PUSH2 0x1A20 JUMPI PUSH1 0x0 DUP1 REVERT JUMPDEST DUP2 CALLDATALOAD PUSH1 0x1 PUSH1 0x1 PUSH1 0xE0 SHL SUB NOT DUP2 AND DUP2 EQ PUSH2 0x1A07 JUMPI PUSH1 0x0 DUP1 REVERT JUMPDEST PUSH1 0x0 JUMPDEST DUP4 DUP2 LT ISZERO PUSH2 0x1A53 JUMPI DUP2 DUP2 ADD MLOAD DUP4 DUP3 ADD MSTORE PUSH1 0x20 ADD PUSH2 0x1A3B JUMP JUMPDEST POP POP PUSH1 0x0 SWAP2 ADD MSTORE JUMP JUMPDEST PUSH1 0x20 DUP2 MSTORE PUSH1 0x0 DUP3 MLOAD DUP1 PUSH1 0x20 DUP5 ADD MSTORE PUSH2 0x1A7B DUP2 PUSH1 0x40 DUP6 ADD PUSH1 0x20 DUP8 ADD PUSH2 0x1A38 JUMP JUMPDEST PUSH1 0x1F ADD PUSH1 0x1F NOT AND SWAP2 SWAP1 SWAP2 ADD PUSH1 0x40 ADD SWAP3 SWAP2 POP POP JUMP JUMPDEST DUP1 CALLDATALOAD PUSH1 0x1 PUSH1 0x1 PUSH1 0xA0 SHL SUB DUP2 AND DUP2 EQ PUSH2 0x1AA6 JUMPI PUSH1 0x0 DUP1 REVERT JUMPDEST SWAP2 SWAP1 POP JUMP JUMPDEST PUSH1 0x0 DUP1 PUSH1 0x40 DUP4 DUP6 SUB SLT ISZERO PUSH2 0x1ABE JUMPI PUSH1 0x0 DUP1 REVERT JUMPDEST PUSH2 0x1AC7 DUP4 PUSH2 0x1A8F JUMP JUMPDEST SWAP5 PUSH1 0x20 SWAP4 SWAP1 SWAP4 ADD CALLDATALOAD SWAP4 POP POP POP JUMP JUMPDEST PUSH1 0x0 DUP1 PUSH1 0x0 PUSH1 0x60 DUP5 DUP7 SUB SLT ISZERO PUSH2 0x1AEA JUMPI PUSH1 0x0 DUP1 REVERT JUMPDEST PUSH2 0x1AF3 DUP5 PUSH2 0x1A8F JUMP JUMPDEST SWAP6 PUSH1 0x20 DUP6 ADD CALLDATALOAD SWAP6 POP PUSH1 0x40 SWAP1 SWAP5 ADD CALLDATALOAD SWAP4 SWAP3 POP POP POP JUMP JUMPDEST PUSH1 0x0 DUP1 PUSH1 0x0 PUSH1 0x60 DUP5 DUP7 SUB SLT ISZERO PUSH2 0x1B1D JUMPI PUSH1 0x0 DUP1 REVERT JUMPDEST PUSH2 0x1B26 DUP5 PUSH2 0x1A8F JUMP JUMPDEST SWAP3 POP PUSH2 0x1B34 PUSH1 0x20 DUP6 ADD PUSH2 0x1A8F JUMP JUMPDEST SWAP2 POP PUSH1 0x40 DUP5 ADD CALLDATALOAD SWAP1 POP SWAP3 POP SWAP3 POP SWAP3 JUMP JUMPDEST PUSH1 0x0 PUSH1 0x20 DUP3 DUP5 SUB SLT ISZERO PUSH2 0x1B56 JUMPI PUSH1 0x0 DUP1 REVERT JUMPDEST POP CALLDATALOAD SWAP2 SWAP1 POP JUMP JUMPDEST PUSH1 0x0 DUP1 PUSH1 0x40 DUP4 DUP6 SUB SLT ISZERO PUSH2 0x1B70 JUMPI PUSH1 0x0 DUP1 REVERT JUMPDEST DUP3 CALLDATALOAD SWAP2 POP PUSH2 0x1B80 PUSH1 0x20 DUP5 ADD PUSH2 0x1A8F JUMP JUMPDEST SWAP1 POP SWAP3 POP SWAP3 SWAP1 POP JUMP JUMPDEST PUSH1 0x0 DUP1 PUSH1 0x40 DUP4 DUP6 SUB SLT ISZERO PUSH2 0x1B9C JUMPI PUSH1 0x0 DUP1 REVERT JUMPDEST PUSH2 0x1BA5 DUP4 PUSH2 0x1A8F JUMP JUMPDEST SWAP2 POP PUSH1 0x20 DUP4 ADD CALLDATALOAD DUP1 ISZERO ISZERO DUP2 EQ PUSH2 0x1BBA JUMPI PUSH1 0x0 DUP1 REVERT JUMPDEST DUP1 SWAP2 POP POP SWAP3 POP SWAP3 SWAP1 POP JUMP JUMPDEST PUSH1 0x0 PUSH1 0x20 DUP3 DUP5 SUB SLT ISZERO PUSH2 0x1BD7 JUMPI PUSH1 0x0 DUP1 REVERT JUMPDEST PUSH2 0x1A07 DUP3 PUSH2 0x1A8F JUMP JUMPDEST PUSH1 0x0 DUP1 PUSH1 0x40 DUP4 DUP6 SUB SLT ISZERO PUSH2 0x1BF3 JUMPI PUSH1 0x0 DUP1 REVERT JUMPDEST PUSH2 0x1BFC DUP4 PUSH2 0x1A8F JUMP JUMPDEST SWAP2 POP PUSH2 0x1B80 PUSH1 0x20 DUP5 ADD PUSH2 0x1A8F JUMP JUMPDEST PUSH1 0x1 DUP2 DUP2 SHR SWAP1 DUP3 AND DUP1 PUSH2 0x1C1E JUMPI PUSH1 0x7F DUP3 AND SWAP2 POP JUMPDEST PUSH1 0x20 DUP3 LT DUP2 SUB PUSH2 0x1C3E JUMPI PUSH4 0x4E487B71 PUSH1 0xE0 SHL PUSH1 0x0 MSTORE PUSH1 0x22 PUSH1 0x4 MSTORE PUSH1 0x24 PUSH1 0x0 REVERT JUMPDEST POP SWAP2 SWAP1 POP JUMP JUMPDEST PUSH4 0x4E487B71 PUSH1 0xE0 SHL PUSH1 0x0 MSTORE PUSH1 0x11 PUSH1 0x4 MSTORE PUSH1 0x24 PUSH1 0x0 REVERT JUMPDEST PUSH1 0x1 DUP2 DUP2 JUMPDEST DUP1 DUP6 GT ISZERO PUSH2 0x1C95 JUMPI DUP2 PUSH1 0x0 NOT DIV DUP3 GT ISZERO PUSH2 0x1C7B JUMPI PUSH2 0x1C7B PUSH2 0x1C44 JUMP JUMPDEST DUP1 DUP6 AND ISZERO PUSH2 0x1C88 JUMPI SWAP2 DUP2 MUL SWAP2 JUMPDEST SWAP4 DUP5 SHR SWAP4 SWAP1 DUP1 MUL SWAP1 PUSH2 0x1C5F JUMP JUMPDEST POP SWAP3 POP SWAP3 SWAP1 POP JUMP JUMPDEST PUSH1 0x0 DUP3 PUSH2 0x1CAC JUMPI POP PUSH1 0x1 PUSH2 0x610 JUMP JUMPDEST DUP2 PUSH2 0x1CB9 JUMPI POP PUSH1 0x0 PUSH2 0x610 JUMP JUMPDEST DUP2 PUSH1 0x1 DUP2 EQ PUSH2 0x1CCF JUMPI PUSH1 0x2 DUP2 EQ PUSH2 0x1CD9 JUMPI PUSH2 0x1CF5 JUMP JUMPDEST PUSH1 0x1 SWAP2 POP POP PUSH2 0x610 JUMP JUMPDEST PUSH1 0xFF DUP5 GT ISZERO PUSH2 0x1CEA JUMPI PUSH2 0x1CEA PUSH2 0x1C44 JUMP JUMPDEST POP POP PUSH1 0x1 DUP3 SHL PUSH2 0x610 JUMP JUMPDEST POP PUSH1 0x20 DUP4 LT PUSH2 0x133 DUP4 LT AND PUSH1 0x4E DUP5 LT PUSH1 0xB DUP5 LT AND OR ISZERO PUSH2 0x1D18 JUMPI POP DUP2 DUP2 EXP PUSH2 0x610 JUMP JUMPDEST PUSH2 0x1D22 DUP4 DUP4 PUSH2 0x1C5A JUMP JUMPDEST DUP1 PUSH1 0x0 NOT DIV DUP3 GT ISZERO PUSH2 0x1D36 JUMPI PUSH2 0x1D36 PUSH2 0x1C44 JUMP JUMPDEST MUL SWAP4 SWAP3 POP POP POP JUMP JUMPDEST PUSH1 0x0 PUSH2 0x1A07 PUSH1 0xFF DUP5 AND DUP4 PUSH2 0x1C9D JUMP JUMPDEST DUP1 DUP3 MUL DUP2 ISZERO DUP3 DUP3 DIV DUP5 EQ OR PUSH2 0x610 JUMPI PUSH2 0x610 PUSH2 0x1C44 JUMP JUMPDEST PUSH1 0x0 DUP3 PUSH2 0x1D81 JUMPI PUSH4 0x4E487B71 PUSH1 0xE0 SHL PUSH1 0x0 MSTORE PUSH1 0x12 PUSH1 0x4 MSTORE PUSH1 0x24 PUSH1 0x0 REVERT JUMPDEST POP DIV SWAP1 JUMP JUMPDEST DUP2 DUP2 SUB DUP2 DUP2 GT ISZERO PUSH2 0x610 JUMPI PUSH2 0x610 PUSH2 0x1C44 JUMP JUMPDEST DUP1 DUP3 ADD DUP1 DUP3 GT ISZERO PUSH2 0x610 JUMPI PUSH2 0x610 PUSH2 0x1C44 JUMP JUMPDEST PUSH1 0x20 DUP1 DUP3 MSTORE PUSH1 0x25 SWAP1 DUP3 ADD MSTORE PUSH32 0x45524332303A207472616E736665722066726F6D20746865207A65726F206164 PUSH1 0x40 DUP3 ADD MSTORE PUSH5 0x6472657373 PUSH1 0xD8 SHL PUSH1 0x60 DUP3 ADD MSTORE PUSH1 0x80 ADD SWAP1 JUMP JUMPDEST PUSH1 0x20 DUP1 DUP3 MSTORE PUSH1 0x23 SWAP1 DUP3 ADD MSTORE PUSH32 0x45524332303A207472616E7366657220746F20746865207A65726F2061646472 PUSH1 0x40 DUP3 ADD MSTORE PUSH3 0x657373 PUSH1 0xE8 SHL PUSH1 0x60 DUP3 ADD MSTORE PUSH1 0x80 ADD SWAP1 JUMP JUMPDEST PUSH32 0x416363657373436F6E74726F6C3A206163636F756E7420000000000000000000 DUP2 MSTORE PUSH1 0x0 DUP4 MLOAD PUSH2 0x1E6C DUP2 PUSH1 0x17 DUP6 ADD PUSH1 0x20 DUP9 ADD PUSH2 0x1A38 JUMP JUMPDEST PUSH17 0x1034B99036B4B9B9B4B733903937B6329 PUSH1 0x7D SHL PUSH1 0x17 SWAP2 DUP5 ADD SWAP2 DUP3 ADD MSTORE DUP4 MLOAD PUSH2 0x1E9D DUP2 PUSH1 0x28 DUP5 ADD PUSH1 0x20 DUP9 ADD PUSH2 0x1A38 JUMP JUMPDEST ADD PUSH1 0x28 ADD SWAP5 SWAP4 POP POP POP POP JUMP JUMPDEST PUSH4 0x4E487B71 PUSH1 0xE0 SHL PUSH1 0x0 MSTORE PUSH1 0x41 PUSH1 0x4 MSTORE PUSH1 0x24 PUSH1 0x0 REVERT JUMPDEST PUSH4 0x4E487B71 PUSH1 0xE0 SHL PUSH1 0x0 MSTORE PUSH1 0x32 PUSH1 0x4 MSTORE PUSH1 0x24 PUSH1 0x0 REVERT JUMPDEST PUSH1 0x0 DUP2 PUSH2 0x1EE4 JUMPI PUSH2 0x1EE4 PUSH2 0x1C44 JUMP JUMPDEST POP PUSH1 0x0 NOT ADD SWAP1 JUMP INVALID PUSH13 0x3ADFEE332544F29232690459F4 INVALID 0x23 LOG1 0xC9 JUMPI RETURNDATACOPY 0xFB 0xAA 0xC6 0x5C SWAP16 0xC0 CALLER CALLDATALOAD 0x5F 0xB4 SGT CREATE LOG2 PUSH5 0x6970667358 0x22 SLT KECCAK256 SLOAD JUMPI 0xB4 SWAP4 SAR 0xEF DIV 0xCF PUSH15 0x94A9459C4ED8F7E6C67C5515158804 PUSH1 0x71 ADDMOD LOG1 0xD1 0x26 PUSH25 0x5064736F6C634300081300336C3ADFEE332544F29232690459 DELEGATECALL INVALID 0x23 LOG1 0xC9 JUMPI RETURNDATACOPY 0xFB 0xAA 0xC6 0x5C SWAP16 0xC0 CALLER CALLDATALOAD 0x5F 0xB4 SGT CREATE "},"methodIdentifiers":{"BURN_FEE_PERCENT()":"fad5c5b3","DAO_MINTER_ROLE()":"5fd6a41b","DEFAULT_ADMIN_ROLE()":"a217fddf","MAX_SUPPLY()":"32cb6b0c","PAUSER_ROLE()":"e63ab1e9","TEAM_MINTER_ROLE()":"7a6e223c","TREASURY_FEE_PERCENT()":"e111703a","TREASURY_MINTER_ROLE()":"ceeb69f9","allowance(address,address)":"dd62ed3e","approve(address,uint256)":"095ea7b3","balanceOf(address)":"70a08231","burn(uint256)":"42966c68","burnFrom(address,uint256)":"79cc6790","canMint(uint256)":"5dd871a3","daoAddress()":"2131c68c","daoMint(address,uint256)":"14866aef","decimals()":"313ce567","decreaseAllowance(address,uint256)":"a457c2d7","getRoleAdmin(bytes32)":"248a9ca3","grantRole(bytes32,address)":"2f2ff15d","hasRole(bytes32,address)":"91d14854","increaseAllowance(address,uint256)":"39509351","isExemptFromFees(address)":"60fd0989","name()":"06fdde03","pause()":"8456cb59","paused()":"5c975abb","remainingMintableSupply()":"349f0b90","renounceRole(bytes32,address)":"36568abe","revenueMint(address,uint256,uint256)":"13bf50c5","revokeRole(bytes32,address)":"d547741f","setExemption(address,bool)":"3ea6e071","supportsInterface(bytes4)":"01ffc9a7","symbol()":"95d89b41","teamMint(address,uint256)":"add5a4fa","totalMinted()":"a2309ff8","totalSupply()":"18160ddd","transfer(address,uint256)":"a9059cbb","transferFrom(address,address,uint256)":"23b872dd","treasuryAddress()":"c5f956af","treasuryMint(address,uint256)":"aa35cca3","unpause()":"3f4ba83a","updateDAOAddress(address)":"d3f34ff1","updateTreasuryAddress(address)":"841e4561"}}}}}