{
  "_format": "hh-sol-artifact-1",
  "contractName": "ANGEL",
  "sourceName": "contracts/ANGEL.sol",
  "abi": [
    {
      "inputs": [
        {
          "internalType": "address",
          "name": "_adminAddress",
          "type": "address"
        }
      ],
      "stateMutability": "nonpayable",
      "type": "constructor"
    },
    {
      "anonymous": false,
      "inputs": [
        {
          "indexed": true,
          "internalType": "address",
          "name": "owner",
          "type": "address"
        },
        {
          "indexed": true,
          "internalType": "address",
          "name": "spender",
          "type": "address"
        },
        {
          "indexed": false,
          "internalType": "uint256",
          "name": "value",
          "type": "uint256"
        }
      ],
      "name": "Approval",
      "type": "event"
    },
    {
      "anonymous": false,
      "inputs": [
        {
          "indexed": false,
          "internalType": "address",
          "name": "account",
          "type": "address"
        }
      ],
      "name": "Paused",
      "type": "event"
    },
    {
      "anonymous": false,
      "inputs": [
        {
          "indexed": true,
          "internalType": "address",
          "name": "to",
          "type": "address"
        },
        {
          "indexed": false,
          "internalType": "uint256",
          "name": "amount",
          "type": "uint256"
        },
        {
          "indexed": false,
          "internalType": "string",
          "name": "reason",
          "type": "string"
        }
      ],
      "name": "RewardMint",
      "type": "event"
    },
    {
      "anonymous": false,
      "inputs": [
        {
          "indexed": true,
          "internalType": "bytes32",
          "name": "role",
          "type": "bytes32"
        },
        {
          "indexed": true,
          "internalType": "bytes32",
          "name": "previousAdminRole",
          "type": "bytes32"
        },
        {
          "indexed": true,
          "internalType": "bytes32",
          "name": "newAdminRole",
          "type": "bytes32"
        }
      ],
      "name": "RoleAdminChanged",
      "type": "event"
    },
    {
      "anonymous": false,
      "inputs": [
        {
          "indexed": true,
          "internalType": "bytes32",
          "name": "role",
          "type": "bytes32"
        },
        {
          "indexed": true,
          "internalType": "address",
          "name": "account",
          "type": "address"
        },
        {
          "indexed": true,
          "internalType": "address",
          "name": "sender",
          "type": "address"
        }
      ],
      "name": "RoleGranted",
      "type": "event"
    },
    {
      "anonymous": false,
      "inputs": [
        {
          "indexed": true,
          "internalType": "bytes32",
          "name": "role",
          "type": "bytes32"
        },
        {
          "indexed": true,
          "internalType": "address",
          "name": "account",
          "type": "address"
        },
        {
          "indexed": true,
          "internalType": "address",
          "name": "sender",
          "type": "address"
        }
      ],
      "name": "RoleRevoked",
      "type": "event"
    },
    {
      "anonymous": false,
      "inputs": [
        {
          "indexed": true,
          "internalType": "address",
          "name": "from",
          "type": "address"
        },
        {
          "indexed": true,
          "internalType": "address",
          "name": "to",
          "type": "address"
        },
        {
          "indexed": false,
          "internalType": "uint256",
          "name": "value",
          "type": "uint256"
        }
      ],
      "name": "Transfer",
      "type": "event"
    },
    {
      "anonymous": false,
      "inputs": [
        {
          "indexed": false,
          "internalType": "address",
          "name": "account",
          "type": "address"
        }
      ],
      "name": "Unpaused",
      "type": "event"
    },
    {
      "inputs": [],
      "name": "DEFAULT_ADMIN_ROLE",
      "outputs": [
        {
          "internalType": "bytes32",
          "name": "",
          "type": "bytes32"
        }
      ],
      "stateMutability": "view",
      "type": "function"
    },
    {
      "inputs": [],
      "name": "MAX_SUPPLY",
      "outputs": [
        {
          "internalType": "uint256",
          "name": "",
          "type": "uint256"
        }
      ],
      "stateMutability": "view",
      "type": "function"
    },
    {
      "inputs": [],
      "name": "PAUSER_ROLE",
      "outputs": [
        {
          "internalType": "bytes32",
          "name": "",
          "type": "bytes32"
        }
      ],
      "stateMutability": "view",
      "type": "function"
    },
    {
      "inputs": [],
      "name": "REWARD_MINTER_ROLE",
      "outputs": [
        {
          "internalType": "bytes32",
          "name": "",
          "type": "bytes32"
        }
      ],
      "stateMutability": "view",
      "type": "function"
    },
    {
      "inputs": [
        {
          "internalType": "address",
          "name": "owner",
          "type": "address"
        },
        {
          "internalType": "address",
          "name": "spender",
          "type": "address"
        }
      ],
      "name": "allowance",
      "outputs": [
        {
          "internalType": "uint256",
          "name": "",
          "type": "uint256"
        }
      ],
      "stateMutability": "view",
      "type": "function"
    },
    {
      "inputs": [
        {
          "internalType": "address",
          "name": "spender",
          "type": "address"
        },
        {
          "internalType": "uint256",
          "name": "amount",
          "type": "uint256"
        }
      ],
      "name": "approve",
      "outputs": [
        {
          "internalType": "bool",
          "name": "",
          "type": "bool"
        }
      ],
      "stateMutability": "nonpayable",
      "type": "function"
    },
    {
      "inputs": [
        {
          "internalType": "address",
          "name": "account",
          "type": "address"
        }
      ],
      "name": "balanceOf",
      "outputs": [
        {
          "internalType": "uint256",
          "name": "",
          "type": "uint256"
        }
      ],
      "stateMutability": "view",
      "type": "function"
    },
    {
      "inputs": [
        {
          "internalType": "address[]",
          "name": "recipients",
          "type": "address[]"
        },
        {
          "internalType": "uint256[]",
          "name": "amounts",
          "type": "uint256[]"
        },
        {
          "internalType": "string",
          "name": "reason",
          "type": "string"
        }
      ],
      "name": "batchRewardMint",
      "outputs": [],
      "stateMutability": "nonpayable",
      "type": "function"
    },
    {
      "inputs": [
        {
          "internalType": "uint256",
          "name": "amount",
          "type": "uint256"
        }
      ],
      "name": "burn",
      "outputs": [],
      "stateMutability": "nonpayable",
      "type": "function"
    },
    {
      "inputs": [
        {
          "internalType": "address",
          "name": "account",
          "type": "address"
        },
        {
          "internalType": "uint256",
          "name": "amount",
          "type": "uint256"
        }
      ],
      "name": "burnFrom",
      "outputs": [],
      "stateMutability": "nonpayable",
      "type": "function"
    },
    {
      "inputs": [
        {
          "internalType": "uint256",
          "name": "amount",
          "type": "uint256"
        }
      ],
      "name": "canMint",
      "outputs": [
        {
          "internalType": "bool",
          "name": "",
          "type": "bool"
        }
      ],
      "stateMutability": "view",
      "type": "function"
    },
    {
      "inputs": [],
      "name": "decimals",
      "outputs": [
        {
          "internalType": "uint8",
          "name": "",
          "type": "uint8"
        }
      ],
      "stateMutability": "pure",
      "type": "function"
    },
    {
      "inputs": [
        {
          "internalType": "address",
          "name": "spender",
          "type": "address"
        },
        {
          "internalType": "uint256",
          "name": "subtractedValue",
          "type": "uint256"
        }
      ],
      "name": "decreaseAllowance",
      "outputs": [
        {
          "internalType": "bool",
          "name": "",
          "type": "bool"
        }
      ],
      "stateMutability": "nonpayable",
      "type": "function"
    },
    {
      "inputs": [
        {
          "internalType": "bytes32",
          "name": "role",
          "type": "bytes32"
        }
      ],
      "name": "getRoleAdmin",
      "outputs": [
        {
          "internalType": "bytes32",
          "name": "",
          "type": "bytes32"
        }
      ],
      "stateMutability": "view",
      "type": "function"
    },
    {
      "inputs": [
        {
          "internalType": "bytes32",
          "name": "role",
          "type": "bytes32"
        },
        {
          "internalType": "address",
          "name": "account",
          "type": "address"
        }
      ],
      "name": "grantRole",
      "outputs": [],
      "stateMutability": "nonpayable",
      "type": "function"
    },
    {
      "inputs": [
        {
          "internalType": "bytes32",
          "name": "role",
          "type": "bytes32"
        },
        {
          "internalType": "address",
          "name": "account",
          "type": "address"
        }
      ],
      "name": "hasRole",
      "outputs": [
        {
          "internalType": "bool",
          "name": "",
          "type": "bool"
        }
      ],
      "stateMutability": "view",
      "type": "function"
    },
    {
      "inputs": [
        {
          "internalType": "address",
          "name": "spender",
          "type": "address"
        },
        {
          "internalType": "uint256",
          "name": "addedValue",
          "type": "uint256"
        }
      ],
      "name": "increaseAllowance",
      "outputs": [
        {
          "internalType": "bool",
          "name": "",
          "type": "bool"
        }
      ],
      "stateMutability": "nonpayable",
      "type": "function"
    },
    {
      "inputs": [],
      "name": "name",
      "outputs": [
        {
          "internalType": "string",
          "name": "",
          "type": "string"
        }
      ],
      "stateMutability": "view",
      "type": "function"
    },
    {
      "inputs": [],
      "name": "pause",
      "outputs": [],
      "stateMutability": "nonpayable",
      "type": "function"
    },
    {
      "inputs": [],
      "name": "paused",
      "outputs": [
        {
          "internalType": "bool",
          "name": "",
          "type": "bool"
        }
      ],
      "stateMutability": "view",
      "type": "function"
    },
    {
      "inputs": [],
      "name": "remainingMintableSupply",
      "outputs": [
        {
          "internalType": "uint256",
          "name": "",
          "type": "uint256"
        }
      ],
      "stateMutability": "view",
      "type": "function"
    },
    {
      "inputs": [
        {
          "internalType": "bytes32",
          "name": "role",
          "type": "bytes32"
        },
        {
          "internalType": "address",
          "name": "account",
          "type": "address"
        }
      ],
      "name": "renounceRole",
      "outputs": [],
      "stateMutability": "nonpayable",
      "type": "function"
    },
    {
      "inputs": [
        {
          "internalType": "bytes32",
          "name": "role",
          "type": "bytes32"
        },
        {
          "internalType": "address",
          "name": "account",
          "type": "address"
        }
      ],
      "name": "revokeRole",
      "outputs": [],
      "stateMutability": "nonpayable",
      "type": "function"
    },
    {
      "inputs": [
        {
          "internalType": "address",
          "name": "to",
          "type": "address"
        },
        {
          "internalType": "uint256",
          "name": "amount",
          "type": "uint256"
        },
        {
          "internalType": "string",
          "name": "reason",
          "type": "string"
        }
      ],
      "name": "rewardMint",
      "outputs": [],
      "stateMutability": "nonpayable",
      "type": "function"
    },
    {
      "inputs": [
        {
          "internalType": "bytes4",
          "name": "interfaceId",
          "type": "bytes4"
        }
      ],
      "name": "supportsInterface",
      "outputs": [
        {
          "internalType": "bool",
          "name": "",
          "type": "bool"
        }
      ],
      "stateMutability": "view",
      "type": "function"
    },
    {
      "inputs": [],
      "name": "symbol",
      "outputs": [
        {
          "internalType": "string",
          "name": "",
          "type": "string"
        }
      ],
      "stateMutability": "view",
      "type": "function"
    },
    {
      "inputs": [],
      "name": "totalMinted",
      "outputs": [
        {
          "internalType": "uint256",
          "name": "",
          "type": "uint256"
        }
      ],
      "stateMutability": "view",
      "type": "function"
    },
    {
      "inputs": [],
      "name": "totalSupply",
      "outputs": [
        {
          "internalType": "uint256",
          "name": "",
          "type": "uint256"
        }
      ],
      "stateMutability": "view",
      "type": "function"
    },
    {
      "inputs": [
        {
          "internalType": "address",
          "name": "to",
          "type": "address"
        },
        {
          "internalType": "uint256",
          "name": "amount",
          "type": "uint256"
        }
      ],
      "name": "transfer",
      "outputs": [
        {
          "internalType": "bool",
          "name": "",
          "type": "bool"
        }
      ],
      "stateMutability": "nonpayable",
      "type": "function"
    },
    {
      "inputs": [
        {
          "internalType": "address",
          "name": "from",
          "type": "address"
        },
        {
          "internalType": "address",
          "name": "to",
          "type": "address"
        },
        {
          "internalType": "uint256",
          "name": "amount",
          "type": "uint256"
        }
      ],
      "name": "transferFrom",
      "outputs": [
        {
          "internalType": "bool",
          "name": "",
          "type": "bool"
        }
      ],
      "stateMutability": "nonpayable",
      "type": "function"
    },
    {
      "inputs": [],
      "name": "unpause",
      "outputs": [],
      "stateMutability": "nonpayable",
      "type": "function"
    }
  ],
  "bytecode": "0x60806040523480156200001157600080fd5b5060405162001f5538038062001f55833981016040819052620000349162000212565b6040518060400160405280600f81526020016e20b733b632a9b2b2b2102a37b5b2b760891b8152506040518060400160405280600481526020016314d1515160e21b81525081600390816200008a9190620002e9565b506004620000998282620002e9565b50506005805460ff19169055506001600160a01b038116620001015760405162461bcd60e51b815260206004820152601c60248201527f41646d696e20616464726573732063616e6e6f74206265207a65726f00000000604482015260640160405180910390fd5b6200010e6000826200016d565b6200013a7f65d7a28e3265b37a6474929f336521b332c1681b933f6cb9f3376673440d862a826200016d565b620001667f75a48258836e17db5941acb34b4037c112b76781efae1ea4e325210b38c098c7826200016d565b50620003b5565b60008281526006602090815260408083206001600160a01b038516845290915290205460ff166200020e5760008281526006602090815260408083206001600160a01b03851684529091529020805460ff19166001179055620001cd3390565b6001600160a01b0316816001600160a01b0316837f2f8788117e7eff1d82e926ec794901d17c78024a50270940304540a733656f0d60405160405180910390a45b5050565b6000602082840312156200022557600080fd5b81516001600160a01b03811681146200023d57600080fd5b9392505050565b634e487b7160e01b600052604160045260246000fd5b600181811c908216806200026f57607f821691505b6020821081036200029057634e487b7160e01b600052602260045260246000fd5b50919050565b601f821115620002e457600081815260208120601f850160051c81016020861015620002bf5750805b601f850160051c820191505b81811015620002e057828155600101620002cb565b5050505b505050565b81516001600160401b0381111562000305576200030562000244565b6200031d816200031684546200025a565b8462000296565b602080601f8311600181146200035557600084156200033c5750858301515b600019600386901b1c1916600185901b178555620002e0565b600085815260208120601f198616915b82811015620003865788860151825594840194600190910190840162000365565b5085821015620003a55787850151600019600388901b60f8161c191681555b5050505050600190811b01905550565b611b9080620003c56000396000f3fe608060405234801561001057600080fd5b50600436106101e55760003560e01c80635dd871a31161010f578063a457c2d7116100a2578063dd62ed3e11610071578063dd62ed3e146103d1578063de9bb635146103e4578063e63ab1e91461040b578063f4eef2301461043257600080fd5b8063a457c2d714610385578063a9059cbb14610398578063d547741f146103ab578063dc620d43146103be57600080fd5b806391d14854116100de57806391d148541461035957806395d89b411461036c578063a217fddf14610374578063a2309ff81461037c57600080fd5b80635dd871a31461030257806370a082311461031557806379cc67901461033e5780638456cb591461035157600080fd5b8063313ce56711610187578063395093511161015657806339509351146102c95780633f4ba83a146102dc57806342966c68146102e45780635c975abb146102f757600080fd5b8063313ce5671461029757806332cb6b0c146102a6578063349f0b90146102ae57806336568abe146102b657600080fd5b806318160ddd116101c357806318160ddd1461023a57806323b872dd1461024c578063248a9ca31461025f5780632f2ff15d1461028257600080fd5b806301ffc9a7146101ea57806306fdde0314610212578063095ea7b314610227575b600080fd5b6101fd6101f83660046115c4565b610445565b60405190151581526020015b60405180910390f35b61021a61047c565b6040516102099190611612565b6101fd610235366004611661565b61050e565b6002545b604051908152602001610209565b6101fd61025a36600461168b565b610526565b61023e61026d3660046116c7565b60009081526006602052604090206001015490565b6102956102903660046116e0565b61054a565b005b60405160128152602001610209565b61023e610574565b61023e610592565b6102956102c43660046116e0565b6105c2565b6101fd6102d7366004611661565b610645565b610295610667565b6102956102f23660046116c7565b61069c565b60055460ff166101fd565b6101fd6103103660046116c7565b6106a5565b61023e61032336600461170c565b6001600160a01b031660009081526020819052604090205490565b61029561034c366004611661565b6106d8565b6102956106e2565b6101fd6103673660046116e0565b610714565b61021a61073f565b61023e600081565b61023e60075481565b6101fd610393366004611661565b61074e565b6101fd6103a6366004611661565b6107c9565b6102956103b93660046116e0565b6107d7565b6102956103cc366004611770565b6107fc565b61023e6103df3660046117ca565b6108ca565b61023e7f75a48258836e17db5941acb34b4037c112b76781efae1ea4e325210b38c098c781565b61023e7f65d7a28e3265b37a6474929f336521b332c1681b933f6cb9f3376673440d862a81565b610295610440366004611839565b6108f5565b60006001600160e01b03198216637965db0b60e01b148061047657506301ffc9a760e01b6001600160e01b03198316145b92915050565b60606003805461048b906118d3565b80601f01602080910402602001604051908101604052809291908181526020018280546104b7906118d3565b80156105045780601f106104d957610100808354040283529160200191610504565b820191906000526020600020905b8154815290600101906020018083116104e757829003601f168201915b5050505050905090565b60003361051c818585610ae3565b5060019392505050565b600033610534858285610c07565b61053f858585610c81565b506001949350505050565b60008281526006602052604090206001015461056581610e30565b61056f8383610e3a565b505050565b6105806012600a611a07565b61058f906402540be400611a16565b81565b6007546000906105a46012600a611a07565b6105b3906402540be400611a16565b6105bd9190611a2d565b905090565b6001600160a01b03811633146106375760405162461bcd60e51b815260206004820152602f60248201527f416363657373436f6e74726f6c3a2063616e206f6e6c792072656e6f756e636560448201526e103937b632b9903337b91039b2b63360891b60648201526084015b60405180910390fd5b6106418282610ec0565b5050565b60003361051c81858561065883836108ca565b6106629190611a40565b610ae3565b7f65d7a28e3265b37a6474929f336521b332c1681b933f6cb9f3376673440d862a61069181610e30565b610699610f27565b50565b61069981610f79565b60006106b36012600a611a07565b6106c2906402540be400611a16565b826007546106d09190611a40565b111592915050565b6106418282610f83565b7f65d7a28e3265b37a6474929f336521b332c1681b933f6cb9f3376673440d862a61070c81610e30565b610699610f98565b60009182526006602090815260408084206001600160a01b0393909316845291905290205460ff1690565b60606004805461048b906118d3565b6000338161075c82866108ca565b9050838110156107bc5760405162461bcd60e51b815260206004820152602560248201527f45524332303a2064656372656173656420616c6c6f77616e63652062656c6f77604482015264207a65726f60d81b606482015260840161062e565b61053f8286868403610ae3565b60003361051c818585610c81565b6000828152600660205260409020600101546107f281610e30565b61056f8383610ec0565b7f75a48258836e17db5941acb34b4037c112b76781efae1ea4e325210b38c098c761082681610e30565b61082e610fd5565b816108745760405162461bcd60e51b8152602060048201526016602482015275526561736f6e2063616e6e6f7420626520656d70747960501b604482015260640161062e565b61087e858561101d565b846001600160a01b03167f7986c3d3af71e736d22897f465b235f3322468a906a5955d42168f77091d5add8585856040516108bb93929190611a53565b60405180910390a25050505050565b6001600160a01b03918216600090815260016020908152604080832093909416825291909152205490565b7f75a48258836e17db5941acb34b4037c112b76781efae1ea4e325210b38c098c761091f81610e30565b610927610fd5565b85841461096f5760405162461bcd60e51b8152602060048201526016602482015275082e4e4c2f2e640d8cadccee8d040dad2e6dac2e8c6d60531b604482015260640161062e565b856109ab5760405162461bcd60e51b815260206004820152600c60248201526b456d7074792061727261797360a01b604482015260640161062e565b816109f15760405162461bcd60e51b8152602060048201526016602482015275526561736f6e2063616e6e6f7420626520656d70747960501b604482015260640161062e565b60005b86811015610ad957610a44888883818110610a1157610a11611a89565b9050602002016020810190610a26919061170c565b878784818110610a3857610a38611a89565b9050602002013561101d565b878782818110610a5657610a56611a89565b9050602002016020810190610a6b919061170c565b6001600160a01b03167f7986c3d3af71e736d22897f465b235f3322468a906a5955d42168f77091d5add878784818110610aa757610aa7611a89565b905060200201358686604051610abf93929190611a53565b60405180910390a280610ad181611a9f565b9150506109f4565b5050505050505050565b6001600160a01b038316610b455760405162461bcd60e51b8152602060048201526024808201527f45524332303a20617070726f76652066726f6d20746865207a65726f206164646044820152637265737360e01b606482015260840161062e565b6001600160a01b038216610ba65760405162461bcd60e51b815260206004820152602260248201527f45524332303a20617070726f766520746f20746865207a65726f206164647265604482015261737360f01b606482015260840161062e565b6001600160a01b0383811660008181526001602090815260408083209487168084529482529182902085905590518481527f8c5be1e5ebec7d5bd14f71427d1e84f3dd0314c0f7b2291e5b200ac8c7c3b925910160405180910390a3505050565b6000610c1384846108ca565b90506000198114610c7b5781811015610c6e5760405162461bcd60e51b815260206004820152601d60248201527f45524332303a20696e73756666696369656e7420616c6c6f77616e6365000000604482015260640161062e565b610c7b8484848403610ae3565b50505050565b6001600160a01b038316610ce55760405162461bcd60e51b815260206004820152602560248201527f45524332303a207472616e736665722066726f6d20746865207a65726f206164604482015264647265737360d81b606482015260840161062e565b6001600160a01b038216610d475760405162461bcd60e51b815260206004820152602360248201527f45524332303a207472616e7366657220746f20746865207a65726f206164647260448201526265737360e81b606482015260840161062e565b610d5283838361115c565b6001600160a01b03831660009081526020819052604090205481811015610dca5760405162461bcd60e51b815260206004820152602660248201527f45524332303a207472616e7366657220616d6f756e7420657863656564732062604482015265616c616e636560d01b606482015260840161062e565b6001600160a01b03848116600081815260208181526040808320878703905593871680835291849020805487019055925185815290927fddf252ad1be2c89b69c2b068fc378daa952ba7f163c4a11628f55a4df523b3ef910160405180910390a3610c7b565b6106998133611164565b610e448282610714565b6106415760008281526006602090815260408083206001600160a01b03851684529091529020805460ff19166001179055610e7c3390565b6001600160a01b0316816001600160a01b0316837f2f8788117e7eff1d82e926ec794901d17c78024a50270940304540a733656f0d60405160405180910390a45050565b610eca8282610714565b156106415760008281526006602090815260408083206001600160a01b0385168085529252808320805460ff1916905551339285917ff6391f5c32d9c69d2a47ea670b442974b53935d1edc7fd64eb21e047a839171b9190a45050565b610f2f6111bd565b6005805460ff191690557f5db9ee0a495bf2e6ff9c91a7834c1ba4fdd244a5e8aa4e537bd38aeae4b073aa335b6040516001600160a01b03909116815260200160405180910390a1565b6106993382611206565b610f8e823383610c07565b6106418282611206565b610fa0610fd5565b6005805460ff191660011790557f62e78cea01bee320cd4e420270b5ea74000d11b0c9f74754ebdbfc544b05a258610f5c3390565b60055460ff161561101b5760405162461bcd60e51b815260206004820152601060248201526f14185d5cd8589b194e881c185d5cd95960821b604482015260640161062e565b565b6001600160a01b0382166110735760405162461bcd60e51b815260206004820152601b60248201527f43616e6e6f74206d696e7420746f207a65726f20616464726573730000000000604482015260640161062e565b600081116110c35760405162461bcd60e51b815260206004820152601d60248201527f416d6f756e74206d7573742062652067726561746572207468616e2030000000604482015260640161062e565b6110cf6012600a611a07565b6110de906402540be400611a16565b816007546110ec9190611a40565b111561113a5760405162461bcd60e51b815260206004820152601f60248201527f4d696e74696e6720776f756c6420657863656564206d617820737570706c7900604482015260640161062e565b806007600082825461114c9190611a40565b9091555061064190508282611344565b61056f610fd5565b61116e8282610714565b6106415761117b8161140f565b611186836020611421565b604051602001611197929190611ab8565b60408051601f198184030181529082905262461bcd60e51b825261062e91600401611612565b60055460ff1661101b5760405162461bcd60e51b815260206004820152601460248201527314185d5cd8589b194e881b9bdd081c185d5cd95960621b604482015260640161062e565b6001600160a01b0382166112665760405162461bcd60e51b815260206004820152602160248201527f45524332303a206275726e2066726f6d20746865207a65726f206164647265736044820152607360f81b606482015260840161062e565b6112728260008361115c565b6001600160a01b038216600090815260208190526040902054818110156112e65760405162461bcd60e51b815260206004820152602260248201527f45524332303a206275726e20616d6f756e7420657863656564732062616c616e604482015261636560f01b606482015260840161062e565b6001600160a01b0383166000818152602081815260408083208686039055600280548790039055518581529192917fddf252ad1be2c89b69c2b068fc378daa952ba7f163c4a11628f55a4df523b3ef910160405180910390a3505050565b6001600160a01b03821661139a5760405162461bcd60e51b815260206004820152601f60248201527f45524332303a206d696e7420746f20746865207a65726f206164647265737300604482015260640161062e565b6113a66000838361115c565b80600260008282546113b89190611a40565b90915550506001600160a01b038216600081815260208181526040808320805486019055518481527fddf252ad1be2c89b69c2b068fc378daa952ba7f163c4a11628f55a4df523b3ef910160405180910390a35050565b60606104766001600160a01b03831660145b60606000611430836002611a16565b61143b906002611a40565b67ffffffffffffffff81111561145357611453611b2d565b6040519080825280601f01601f19166020018201604052801561147d576020820181803683370190505b509050600360fc1b8160008151811061149857611498611a89565b60200101906001600160f81b031916908160001a905350600f60fb1b816001815181106114c7576114c7611a89565b60200101906001600160f81b031916908160001a90535060006114eb846002611a16565b6114f6906001611a40565b90505b600181111561156e576f181899199a1a9b1b9c1cb0b131b232b360811b85600f166010811061152a5761152a611a89565b1a60f81b82828151811061154057611540611a89565b60200101906001600160f81b031916908160001a90535060049490941c9361156781611b43565b90506114f9565b5083156115bd5760405162461bcd60e51b815260206004820181905260248201527f537472696e67733a20686578206c656e67746820696e73756666696369656e74604482015260640161062e565b9392505050565b6000602082840312156115d657600080fd5b81356001600160e01b0319811681146115bd57600080fd5b60005b838110156116095781810151838201526020016115f1565b50506000910152565b60208152600082518060208401526116318160408501602087016115ee565b601f01601f19169190910160400192915050565b80356001600160a01b038116811461165c57600080fd5b919050565b6000806040838503121561167457600080fd5b61167d83611645565b946020939093013593505050565b6000806000606084860312156116a057600080fd5b6116a984611645565b92506116b760208501611645565b9150604084013590509250925092565b6000602082840312156116d957600080fd5b5035919050565b600080604083850312156116f357600080fd5b8235915061170360208401611645565b90509250929050565b60006020828403121561171e57600080fd5b6115bd82611645565b60008083601f84011261173957600080fd5b50813567ffffffffffffffff81111561175157600080fd5b60208301915083602082850101111561176957600080fd5b9250929050565b6000806000806060858703121561178657600080fd5b61178f85611645565b935060208501359250604085013567ffffffffffffffff8111156117b257600080fd5b6117be87828801611727565b95989497509550505050565b600080604083850312156117dd57600080fd5b6117e683611645565b915061170360208401611645565b60008083601f84011261180657600080fd5b50813567ffffffffffffffff81111561181e57600080fd5b6020830191508360208260051b850101111561176957600080fd5b6000806000806000806060878903121561185257600080fd5b863567ffffffffffffffff8082111561186a57600080fd5b6118768a838b016117f4565b9098509650602089013591508082111561188f57600080fd5b61189b8a838b016117f4565b909650945060408901359150808211156118b457600080fd5b506118c189828a01611727565b979a9699509497509295939492505050565b600181811c908216806118e757607f821691505b60208210810361190757634e487b7160e01b600052602260045260246000fd5b50919050565b634e487b7160e01b600052601160045260246000fd5b600181815b8085111561195e5781600019048211156119445761194461190d565b8085161561195157918102915b93841c9390800290611928565b509250929050565b60008261197557506001610476565b8161198257506000610476565b816001811461199857600281146119a2576119be565b6001915050610476565b60ff8411156119b3576119b361190d565b50506001821b610476565b5060208310610133831016604e8410600b84101617156119e1575081810a610476565b6119eb8383611923565b80600019048211156119ff576119ff61190d565b029392505050565b60006115bd60ff841683611966565b80820281158282048414176104765761047661190d565b818103818111156104765761047661190d565b808201808211156104765761047661190d565b83815260406020820152816040820152818360608301376000818301606090810191909152601f909201601f1916010192915050565b634e487b7160e01b600052603260045260246000fd5b600060018201611ab157611ab161190d565b5060010190565b7f416363657373436f6e74726f6c3a206163636f756e7420000000000000000000815260008351611af08160178501602088016115ee565b7001034b99036b4b9b9b4b733903937b6329607d1b6017918401918201528351611b218160288401602088016115ee565b01602801949350505050565b634e487b7160e01b600052604160045260246000fd5b600081611b5257611b5261190d565b50600019019056fea264697066735822122010562d09e9604a289f740367ea81e94cb68aaff59b3d818b23f578a71a4c87f264736f6c63430008130033",
  "linkReferences": {},
  "deployedLinkReferences": {}
}