{
  "_format": "hh-sol-artifact-1",
  "contractName": "CAPX",
  "sourceName": "contracts/CAPX.sol",
  "abi": [
    {
      "inputs": [
        {
          "internalType": "address",
          "name": "_treasuryAddress",
          "type": "address"
        },
        {
          "internalType": "address",
          "name": "_daoAddress",
          "type": "address"
        },
        {
          "internalType": "address",
          "name": "_adminAddress",
          "type": "address"
        }
      ],
      "stateMutability": "nonpayable",
      "type": "constructor"
    },
    {
      "anonymous": false,
      "inputs": [
        {
          "indexed": true,
          "internalType": "address",
          "name": "owner",
          "type": "address"
        },
        {
          "indexed": true,
          "internalType": "address",
          "name": "spender",
          "type": "address"
        },
        {
          "indexed": false,
          "internalType": "uint256",
          "name": "value",
          "type": "uint256"
        }
      ],
      "name": "Approval",
      "type": "event"
    },
    {
      "anonymous": false,
      "inputs": [
        {
          "indexed": true,
          "internalType": "address",
          "name": "oldAddress",
          "type": "address"
        },
        {
          "indexed": true,
          "internalType": "address",
          "name": "newAddress",
          "type": "address"
        }
      ],
      "name": "DAOAddressUpdated",
      "type": "event"
    },
    {
      "anonymous": false,
      "inputs": [
        {
          "indexed": true,
          "internalType": "address",
          "name": "account",
          "type": "address"
        },
        {
          "indexed": false,
          "internalType": "bool",
          "name": "isExempt",
          "type": "bool"
        }
      ],
      "name": "ExemptionUpdated",
      "type": "event"
    },
    {
      "anonymous": false,
      "inputs": [
        {
          "indexed": false,
          "internalType": "address",
          "name": "account",
          "type": "address"
        }
      ],
      "name": "Paused",
      "type": "event"
    },
    {
      "anonymous": false,
      "inputs": [
        {
          "indexed": true,
          "internalType": "address",
          "name": "to",
          "type": "address"
        },
        {
          "indexed": false,
          "internalType": "uint256",
          "name": "amount",
          "type": "uint256"
        },
        {
          "indexed": false,
          "internalType": "uint256",
          "name": "revenue",
          "type": "uint256"
        },
        {
          "indexed": false,
          "internalType": "uint256",
          "name": "marketValue",
          "type": "uint256"
        }
      ],
      "name": "RevenueMint",
      "type": "event"
    },
    {
      "anonymous": false,
      "inputs": [
        {
          "indexed": true,
          "internalType": "bytes32",
          "name": "role",
          "type": "bytes32"
        },
        {
          "indexed": true,
          "internalType": "bytes32",
          "name": "previousAdminRole",
          "type": "bytes32"
        },
        {
          "indexed": true,
          "internalType": "bytes32",
          "name": "newAdminRole",
          "type": "bytes32"
        }
      ],
      "name": "RoleAdminChanged",
      "type": "event"
    },
    {
      "anonymous": false,
      "inputs": [
        {
          "indexed": true,
          "internalType": "bytes32",
          "name": "role",
          "type": "bytes32"
        },
        {
          "indexed": true,
          "internalType": "address",
          "name": "account",
          "type": "address"
        },
        {
          "indexed": true,
          "internalType": "address",
          "name": "sender",
          "type": "address"
        }
      ],
      "name": "RoleGranted",
      "type": "event"
    },
    {
      "anonymous": false,
      "inputs": [
        {
          "indexed": true,
          "internalType": "bytes32",
          "name": "role",
          "type": "bytes32"
        },
        {
          "indexed": true,
          "internalType": "address",
          "name": "account",
          "type": "address"
        },
        {
          "indexed": true,
          "internalType": "address",
          "name": "sender",
          "type": "address"
        }
      ],
      "name": "RoleRevoked",
      "type": "event"
    },
    {
      "anonymous": false,
      "inputs": [
        {
          "indexed": true,
          "internalType": "address",
          "name": "from",
          "type": "address"
        },
        {
          "indexed": true,
          "internalType": "address",
          "name": "to",
          "type": "address"
        },
        {
          "indexed": false,
          "internalType": "uint256",
          "name": "value",
          "type": "uint256"
        }
      ],
      "name": "Transfer",
      "type": "event"
    },
    {
      "anonymous": false,
      "inputs": [
        {
          "indexed": true,
          "internalType": "address",
          "name": "oldAddress",
          "type": "address"
        },
        {
          "indexed": true,
          "internalType": "address",
          "name": "newAddress",
          "type": "address"
        }
      ],
      "name": "TreasuryAddressUpdated",
      "type": "event"
    },
    {
      "anonymous": false,
      "inputs": [
        {
          "indexed": true,
          "internalType": "address",
          "name": "from",
          "type": "address"
        },
        {
          "indexed": true,
          "internalType": "address",
          "name": "to",
          "type": "address"
        },
        {
          "indexed": false,
          "internalType": "uint256",
          "name": "amount",
          "type": "uint256"
        }
      ],
      "name": "TreasuryFee",
      "type": "event"
    },
    {
      "anonymous": false,
      "inputs": [
        {
          "indexed": false,
          "internalType": "address",
          "name": "account",
          "type": "address"
        }
      ],
      "name": "Unpaused",
      "type": "event"
    },
    {
      "inputs": [],
      "name": "BURN_FEE_PERCENT",
      "outputs": [
        {
          "internalType": "uint256",
          "name": "",
          "type": "uint256"
        }
      ],
      "stateMutability": "view",
      "type": "function"
    },
    {
      "inputs": [],
      "name": "DAO_MINTER_ROLE",
      "outputs": [
        {
          "internalType": "bytes32",
          "name": "",
          "type": "bytes32"
        }
      ],
      "stateMutability": "view",
      "type": "function"
    },
    {
      "inputs": [],
      "name": "DEFAULT_ADMIN_ROLE",
      "outputs": [
        {
          "internalType": "bytes32",
          "name": "",
          "type": "bytes32"
        }
      ],
      "stateMutability": "view",
      "type": "function"
    },
    {
      "inputs": [],
      "name": "MAX_SUPPLY",
      "outputs": [
        {
          "internalType": "uint256",
          "name": "",
          "type": "uint256"
        }
      ],
      "stateMutability": "view",
      "type": "function"
    },
    {
      "inputs": [],
      "name": "PAUSER_ROLE",
      "outputs": [
        {
          "internalType": "bytes32",
          "name": "",
          "type": "bytes32"
        }
      ],
      "stateMutability": "view",
      "type": "function"
    },
    {
      "inputs": [],
      "name": "TEAM_MINTER_ROLE",
      "outputs": [
        {
          "internalType": "bytes32",
          "name": "",
          "type": "bytes32"
        }
      ],
      "stateMutability": "view",
      "type": "function"
    },
    {
      "inputs": [],
      "name": "TREASURY_FEE_PERCENT",
      "outputs": [
        {
          "internalType": "uint256",
          "name": "",
          "type": "uint256"
        }
      ],
      "stateMutability": "view",
      "type": "function"
    },
    {
      "inputs": [],
      "name": "TREASURY_MINTER_ROLE",
      "outputs": [
        {
          "internalType": "bytes32",
          "name": "",
          "type": "bytes32"
        }
      ],
      "stateMutability": "view",
      "type": "function"
    },
    {
      "inputs": [
        {
          "internalType": "address",
          "name": "owner",
          "type": "address"
        },
        {
          "internalType": "address",
          "name": "spender",
          "type": "address"
        }
      ],
      "name": "allowance",
      "outputs": [
        {
          "internalType": "uint256",
          "name": "",
          "type": "uint256"
        }
      ],
      "stateMutability": "view",
      "type": "function"
    },
    {
      "inputs": [
        {
          "internalType": "address",
          "name": "spender",
          "type": "address"
        },
        {
          "internalType": "uint256",
          "name": "amount",
          "type": "uint256"
        }
      ],
      "name": "approve",
      "outputs": [
        {
          "internalType": "bool",
          "name": "",
          "type": "bool"
        }
      ],
      "stateMutability": "nonpayable",
      "type": "function"
    },
    {
      "inputs": [
        {
          "internalType": "address",
          "name": "account",
          "type": "address"
        }
      ],
      "name": "balanceOf",
      "outputs": [
        {
          "internalType": "uint256",
          "name": "",
          "type": "uint256"
        }
      ],
      "stateMutability": "view",
      "type": "function"
    },
    {
      "inputs": [
        {
          "internalType": "uint256",
          "name": "amount",
          "type": "uint256"
        }
      ],
      "name": "burn",
      "outputs": [],
      "stateMutability": "nonpayable",
      "type": "function"
    },
    {
      "inputs": [
        {
          "internalType": "address",
          "name": "account",
          "type": "address"
        },
        {
          "internalType": "uint256",
          "name": "amount",
          "type": "uint256"
        }
      ],
      "name": "burnFrom",
      "outputs": [],
      "stateMutability": "nonpayable",
      "type": "function"
    },
    {
      "inputs": [
        {
          "internalType": "uint256",
          "name": "amount",
          "type": "uint256"
        }
      ],
      "name": "canMint",
      "outputs": [
        {
          "internalType": "bool",
          "name": "",
          "type": "bool"
        }
      ],
      "stateMutability": "view",
      "type": "function"
    },
    {
      "inputs": [],
      "name": "daoAddress",
      "outputs": [
        {
          "internalType": "address",
          "name": "",
          "type": "address"
        }
      ],
      "stateMutability": "view",
      "type": "function"
    },
    {
      "inputs": [
        {
          "internalType": "address",
          "name": "to",
          "type": "address"
        },
        {
          "internalType": "uint256",
          "name": "amount",
          "type": "uint256"
        }
      ],
      "name": "daoMint",
      "outputs": [],
      "stateMutability": "nonpayable",
      "type": "function"
    },
    {
      "inputs": [],
      "name": "decimals",
      "outputs": [
        {
          "internalType": "uint8",
          "name": "",
          "type": "uint8"
        }
      ],
      "stateMutability": "pure",
      "type": "function"
    },
    {
      "inputs": [
        {
          "internalType": "address",
          "name": "spender",
          "type": "address"
        },
        {
          "internalType": "uint256",
          "name": "subtractedValue",
          "type": "uint256"
        }
      ],
      "name": "decreaseAllowance",
      "outputs": [
        {
          "internalType": "bool",
          "name": "",
          "type": "bool"
        }
      ],
      "stateMutability": "nonpayable",
      "type": "function"
    },
    {
      "inputs": [
        {
          "internalType": "bytes32",
          "name": "role",
          "type": "bytes32"
        }
      ],
      "name": "getRoleAdmin",
      "outputs": [
        {
          "internalType": "bytes32",
          "name": "",
          "type": "bytes32"
        }
      ],
      "stateMutability": "view",
      "type": "function"
    },
    {
      "inputs": [
        {
          "internalType": "bytes32",
          "name": "role",
          "type": "bytes32"
        },
        {
          "internalType": "address",
          "name": "account",
          "type": "address"
        }
      ],
      "name": "grantRole",
      "outputs": [],
      "stateMutability": "nonpayable",
      "type": "function"
    },
    {
      "inputs": [
        {
          "internalType": "bytes32",
          "name": "role",
          "type": "bytes32"
        },
        {
          "internalType": "address",
          "name": "account",
          "type": "address"
        }
      ],
      "name": "hasRole",
      "outputs": [
        {
          "internalType": "bool",
          "name": "",
          "type": "bool"
        }
      ],
      "stateMutability": "view",
      "type": "function"
    },
    {
      "inputs": [
        {
          "internalType": "address",
          "name": "spender",
          "type": "address"
        },
        {
          "internalType": "uint256",
          "name": "addedValue",
          "type": "uint256"
        }
      ],
      "name": "increaseAllowance",
      "outputs": [
        {
          "internalType": "bool",
          "name": "",
          "type": "bool"
        }
      ],
      "stateMutability": "nonpayable",
      "type": "function"
    },
    {
      "inputs": [
        {
          "internalType": "address",
          "name": "",
          "type": "address"
        }
      ],
      "name": "isExemptFromFees",
      "outputs": [
        {
          "internalType": "bool",
          "name": "",
          "type": "bool"
        }
      ],
      "stateMutability": "view",
      "type": "function"
    },
    {
      "inputs": [],
      "name": "name",
      "outputs": [
        {
          "internalType": "string",
          "name": "",
          "type": "string"
        }
      ],
      "stateMutability": "view",
      "type": "function"
    },
    {
      "inputs": [],
      "name": "pause",
      "outputs": [],
      "stateMutability": "nonpayable",
      "type": "function"
    },
    {
      "inputs": [],
      "name": "paused",
      "outputs": [
        {
          "internalType": "bool",
          "name": "",
          "type": "bool"
        }
      ],
      "stateMutability": "view",
      "type": "function"
    },
    {
      "inputs": [],
      "name": "remainingMintableSupply",
      "outputs": [
        {
          "internalType": "uint256",
          "name": "",
          "type": "uint256"
        }
      ],
      "stateMutability": "view",
      "type": "function"
    },
    {
      "inputs": [
        {
          "internalType": "bytes32",
          "name": "role",
          "type": "bytes32"
        },
        {
          "internalType": "address",
          "name": "account",
          "type": "address"
        }
      ],
      "name": "renounceRole",
      "outputs": [],
      "stateMutability": "nonpayable",
      "type": "function"
    },
    {
      "inputs": [
        {
          "internalType": "address",
          "name": "to",
          "type": "address"
        },
        {
          "internalType": "uint256",
          "name": "revenue",
          "type": "uint256"
        },
        {
          "internalType": "uint256",
          "name": "marketValue",
          "type": "uint256"
        }
      ],
      "name": "revenueMint",
      "outputs": [],
      "stateMutability": "nonpayable",
      "type": "function"
    },
    {
      "inputs": [
        {
          "internalType": "bytes32",
          "name": "role",
          "type": "bytes32"
        },
        {
          "internalType": "address",
          "name": "account",
          "type": "address"
        }
      ],
      "name": "revokeRole",
      "outputs": [],
      "stateMutability": "nonpayable",
      "type": "function"
    },
    {
      "inputs": [
        {
          "internalType": "address",
          "name": "account",
          "type": "address"
        },
        {
          "internalType": "bool",
          "name": "exempt",
          "type": "bool"
        }
      ],
      "name": "setExemption",
      "outputs": [],
      "stateMutability": "nonpayable",
      "type": "function"
    },
    {
      "inputs": [
        {
          "internalType": "bytes4",
          "name": "interfaceId",
          "type": "bytes4"
        }
      ],
      "name": "supportsInterface",
      "outputs": [
        {
          "internalType": "bool",
          "name": "",
          "type": "bool"
        }
      ],
      "stateMutability": "view",
      "type": "function"
    },
    {
      "inputs": [],
      "name": "symbol",
      "outputs": [
        {
          "internalType": "string",
          "name": "",
          "type": "string"
        }
      ],
      "stateMutability": "view",
      "type": "function"
    },
    {
      "inputs": [
        {
          "internalType": "address",
          "name": "to",
          "type": "address"
        },
        {
          "internalType": "uint256",
          "name": "amount",
          "type": "uint256"
        }
      ],
      "name": "teamMint",
      "outputs": [],
      "stateMutability": "nonpayable",
      "type": "function"
    },
    {
      "inputs": [],
      "name": "totalMinted",
      "outputs": [
        {
          "internalType": "uint256",
          "name": "",
          "type": "uint256"
        }
      ],
      "stateMutability": "view",
      "type": "function"
    },
    {
      "inputs": [],
      "name": "totalSupply",
      "outputs": [
        {
          "internalType": "uint256",
          "name": "",
          "type": "uint256"
        }
      ],
      "stateMutability": "view",
      "type": "function"
    },
    {
      "inputs": [
        {
          "internalType": "address",
          "name": "to",
          "type": "address"
        },
        {
          "internalType": "uint256",
          "name": "amount",
          "type": "uint256"
        }
      ],
      "name": "transfer",
      "outputs": [
        {
          "internalType": "bool",
          "name": "",
          "type": "bool"
        }
      ],
      "stateMutability": "nonpayable",
      "type": "function"
    },
    {
      "inputs": [
        {
          "internalType": "address",
          "name": "from",
          "type": "address"
        },
        {
          "internalType": "address",
          "name": "to",
          "type": "address"
        },
        {
          "internalType": "uint256",
          "name": "amount",
          "type": "uint256"
        }
      ],
      "name": "transferFrom",
      "outputs": [
        {
          "internalType": "bool",
          "name": "",
          "type": "bool"
        }
      ],
      "stateMutability": "nonpayable",
      "type": "function"
    },
    {
      "inputs": [],
      "name": "treasuryAddress",
      "outputs": [
        {
          "internalType": "address",
          "name": "",
          "type": "address"
        }
      ],
      "stateMutability": "view",
      "type": "function"
    },
    {
      "inputs": [
        {
          "internalType": "address",
          "name": "to",
          "type": "address"
        },
        {
          "internalType": "uint256",
          "name": "amount",
          "type": "uint256"
        }
      ],
      "name": "treasuryMint",
      "outputs": [],
      "stateMutability": "nonpayable",
      "type": "function"
    },
    {
      "inputs": [],
      "name": "unpause",
      "outputs": [],
      "stateMutability": "nonpayable",
      "type": "function"
    },
    {
      "inputs": [
        {
          "internalType": "address",
          "name": "newDAO",
          "type": "address"
        }
      ],
      "name": "updateDAOAddress",
      "outputs": [],
      "stateMutability": "nonpayable",
      "type": "function"
    },
    {
      "inputs": [
        {
          "internalType": "address",
          "name": "newTreasury",
          "type": "address"
        }
      ],
      "name": "updateTreasuryAddress",
      "outputs": [],
      "stateMutability": "nonpayable",
      "type": "function"
    }
  ],
  "bytecode": "0x60806040523480156200001157600080fd5b5060405162002524380380620025248339810160408190526200003491620003f7565b6040518060400160405280600f81526020016e21a0a829b434b2b632102a37b5b2b760891b815250604051806040016040528060048152602001634341505960e01b81525081600390816200008a9190620004e6565b506004620000998282620004e6565b50506005805460ff19169055506001600160a01b038316620001025760405162461bcd60e51b815260206004820152601f60248201527f547265617375727920616464726573732063616e6e6f74206265207a65726f0060448201526064015b60405180910390fd5b6001600160a01b0382166200015a5760405162461bcd60e51b815260206004820152601a60248201527f44414f20616464726573732063616e6e6f74206265207a65726f0000000000006044820152606401620000f9565b6001600160a01b038116620001b25760405162461bcd60e51b815260206004820152601c60248201527f41646d696e20616464726573732063616e6e6f74206265207a65726f000000006044820152606401620000f9565b600780546001600160a01b038086166001600160a01b0319928316179092556008805492851692909116919091179055620001ef60008262000335565b6200021b7f65d7a28e3265b37a6474929f336521b332c1681b933f6cb9f3376673440d862a8262000335565b620002477fd85a4cf5d37a04dd33dd5be180981c3f745ce2f4ee8a4dbd26e87bff585770238262000335565b620002737f18f2e6085d5811142b8c6597e0f2141f5a661e3eaa75b261016dce0b6f99208b8262000335565b6200029f7f58dddaa4dace832ab03be4aaaec7240b427c5fea2d9055ce503e15d7ea09ce248262000335565b6001600160a01b038381166000818152600a602090815260408083208054600160ff199182168117909255958816845292819020805490951683179094559251908152909160008051602062002504833981519152910160405180910390a2604051600181526001600160a01b03831690600080516020620025048339815191529060200160405180910390a2505050620005b2565b60008281526006602090815260408083206001600160a01b038516845290915290205460ff16620003d65760008281526006602090815260408083206001600160a01b03851684529091529020805460ff19166001179055620003953390565b6001600160a01b0316816001600160a01b0316837f2f8788117e7eff1d82e926ec794901d17c78024a50270940304540a733656f0d60405160405180910390a45b5050565b80516001600160a01b0381168114620003f257600080fd5b919050565b6000806000606084860312156200040d57600080fd5b6200041884620003da565b92506200042860208501620003da565b91506200043860408501620003da565b90509250925092565b634e487b7160e01b600052604160045260246000fd5b600181811c908216806200046c57607f821691505b6020821081036200048d57634e487b7160e01b600052602260045260246000fd5b50919050565b601f821115620004e157600081815260208120601f850160051c81016020861015620004bc5750805b601f850160051c820191505b81811015620004dd57828155600101620004c8565b5050505b505050565b81516001600160401b0381111562000502576200050262000441565b6200051a8162000513845462000457565b8462000493565b602080601f831160018114620005525760008415620005395750858301515b600019600386901b1c1916600185901b178555620004dd565b600085815260208120601f198616915b82811015620005835788860151825594840194600190910190840162000562565b5085821015620005a25787850151600019600388901b60f8161c191681555b5050505050600190811b01905550565b611f4280620005c26000396000f3fe608060405234801561001057600080fd5b50600436106102695760003560e01c806360fd098911610151578063a9059cbb116100c3578063d3f34ff111610087578063d3f34ff114610577578063d547741f1461058a578063dd62ed3e1461059d578063e111703a146105b0578063e63ab1e9146105b8578063fad5c5b3146105b057600080fd5b8063a9059cbb14610504578063aa35cca314610517578063add5a4fa1461052a578063c5f956af1461053d578063ceeb69f91461055057600080fd5b80638456cb59116101155780638456cb59146104bd57806391d14854146104c557806395d89b41146104d8578063a217fddf146104e0578063a2309ff8146104e8578063a457c2d7146104f157600080fd5b806360fd09891461042457806370a082311461044757806379cc6790146104705780637a6e223c14610483578063841e4561146104aa57600080fd5b8063313ce567116101ea5780633ea6e071116101ae5780633ea6e071146103b15780633f4ba83a146103c457806342966c68146103cc5780635c975abb146103df5780635dd871a3146103ea5780635fd6a41b146103fd57600080fd5b8063313ce5671461036c57806332cb6b0c1461037b578063349f0b901461038357806336568abe1461038b578063395093511461039e57600080fd5b806318160ddd1161023157806318160ddd146102e65780632131c68c146102f857806323b872dd14610323578063248a9ca3146103365780632f2ff15d1461035957600080fd5b806301ffc9a71461026e57806306fdde0314610296578063095ea7b3146102ab57806313bf50c5146102be57806314866aef146102d3575b600080fd5b61028161027c366004611a0e565b6105df565b60405190151581526020015b60405180910390f35b61029e610616565b60405161028d9190611a5c565b6102816102b9366004611aab565b6106a8565b6102d16102cc366004611ad5565b6106c0565b005b6102d16102e1366004611aab565b610875565b6002545b60405190815260200161028d565b60085461030b906001600160a01b031681565b6040516001600160a01b03909116815260200161028d565b610281610331366004611b08565b6108b6565b6102ea610344366004611b44565b60009081526006602052604090206001015490565b6102d1610367366004611b5d565b6108da565b6040516012815260200161028d565b6102ea6108ff565b6102ea61091c565b6102d1610399366004611b5d565b61094b565b6102816103ac366004611aab565b6109c9565b6102d16103bf366004611b89565b6109eb565b6102d1610aa9565b6102d16103da366004611b44565b610ade565b60055460ff16610281565b6102816103f8366004611b44565b610ae8565b6102ea7f58dddaa4dace832ab03be4aaaec7240b427c5fea2d9055ce503e15d7ea09ce2481565b610281610432366004611bc5565b600a6020526000908152604090205460ff1681565b6102ea610455366004611bc5565b6001600160a01b031660009081526020819052604090205490565b6102d161047e366004611aab565b610b1a565b6102ea7fd85a4cf5d37a04dd33dd5be180981c3f745ce2f4ee8a4dbd26e87bff5857702381565b6102d16104b8366004611bc5565b610b2f565b6102d1610c60565b6102816104d3366004611b5d565b610c92565b61029e610cbd565b6102ea600081565b6102ea60095481565b6102816104ff366004611aab565b610ccc565b610281610512366004611aab565b610d47565b6102d1610525366004611aab565b610d55565b6102d1610538366004611aab565b610d7f565b60075461030b906001600160a01b031681565b6102ea7f18f2e6085d5811142b8c6597e0f2141f5a661e3eaa75b261016dce0b6f99208b81565b6102d1610585366004611bc5565b610da9565b6102d1610598366004611b5d565b610eac565b6102ea6105ab366004611be0565b610ed1565b6102ea600181565b6102ea7f65d7a28e3265b37a6474929f336521b332c1681b933f6cb9f3376673440d862a81565b60006001600160e01b03198216637965db0b60e01b148061061057506301ffc9a760e01b6001600160e01b03198316145b92915050565b60606003805461062590611c0a565b80601f016020809104026020016040519081016040528092919081815260200182805461065190611c0a565b801561069e5780601f106106735761010080835404028352916020019161069e565b820191906000526020600020905b81548152906001019060200180831161068157829003601f168201915b5050505050905090565b6000336106b6818585610efc565b5060019392505050565b7f18f2e6085d5811142b8c6597e0f2141f5a661e3eaa75b261016dce0b6f99208b6106ea81611020565b6106f261102a565b600083116107475760405162461bcd60e51b815260206004820152601e60248201527f526576656e7565206d7573742062652067726561746572207468616e2030000060448201526064015b60405180910390fd5b600082116107a35760405162461bcd60e51b815260206004820152602360248201527f4d61726b65742076616c7565206d75737420626520677265617465722074686160448201526206e20360ec1b606482015260840161073e565b6000826107b26012600a611d3e565b6107bc9086611d4d565b6107c69190611d64565b9050600081116108185760405162461bcd60e51b815260206004820152601b60248201527f43616c63756c61746564206d696e7420616d6f756e7420697320300000000000604482015260640161073e565b6108228582611072565b60408051828152602081018690529081018490526001600160a01b038616907fa5ecdf360f29f7a15c93888df8fe32e8fb7efe5859c95d321f4aed31149b47509060600160405180910390a25050505050565b7f58dddaa4dace832ab03be4aaaec7240b427c5fea2d9055ce503e15d7ea09ce2461089f81611020565b6108a761102a565b6108b18383611072565b505050565b6000336108c485828561110a565b6108cf858585611184565b506001949350505050565b6000828152600660205260409020600101546108f581611020565b6108b183836112f5565b61090b6012600a611d3e565b610919906305f5e100611d4d565b81565b60095460009061092e6012600a611d3e565b61093c906305f5e100611d4d565b6109469190611d86565b905090565b6001600160a01b03811633146109bb5760405162461bcd60e51b815260206004820152602f60248201527f416363657373436f6e74726f6c3a2063616e206f6e6c792072656e6f756e636560448201526e103937b632b9903337b91039b2b63360891b606482015260840161073e565b6109c5828261137b565b5050565b6000336106b68185856109dc8383610ed1565b6109e69190611d99565b610efc565b60006109f681611020565b6001600160a01b038316610a5a5760405162461bcd60e51b815260206004820152602560248201527f43616e6e6f7420736574206578656d7074696f6e20666f72207a65726f206164604482015264647265737360d81b606482015260840161073e565b6001600160a01b0383166000818152600a6020908152604091829020805460ff19168615159081179091559151918252600080516020611eed83398151915291015b60405180910390a2505050565b7f65d7a28e3265b37a6474929f336521b332c1681b933f6cb9f3376673440d862a610ad381611020565b610adb6113e2565b50565b610adb3382611434565b6000610af66012600a611d3e565b610b04906305f5e100611d4d565b82600954610b129190611d99565b111592915050565b610b2582338361110a565b6109c58282611434565b6000610b3a81611020565b6001600160a01b038216610b905760405162461bcd60e51b815260206004820152601f60248201527f547265617375727920616464726573732063616e6e6f74206265207a65726f00604482015260640161073e565b600780546001600160a01b039081166000818152600a6020526040808220805460ff19908116909155938716808352818320805490951660011790945584546001600160a01b03191684179094559251909283917f430359a6d97ced2b6f93c77a91e7ce9dfd43252eb91e916adba170485cd8a6a49190a3604051600081526001600160a01b03821690600080516020611eed833981519152906020015b60405180910390a2604051600181526001600160a01b03841690600080516020611eed83398151915290602001610a9c565b7f65d7a28e3265b37a6474929f336521b332c1681b933f6cb9f3376673440d862a610c8a81611020565b610adb611572565b60009182526006602090815260408084206001600160a01b0393909316845291905290205460ff1690565b60606004805461062590611c0a565b60003381610cda8286610ed1565b905083811015610d3a5760405162461bcd60e51b815260206004820152602560248201527f45524332303a2064656372656173656420616c6c6f77616e63652062656c6f77604482015264207a65726f60d81b606482015260840161073e565b6108cf8286868403610efc565b6000336106b6818585611184565b7f18f2e6085d5811142b8c6597e0f2141f5a661e3eaa75b261016dce0b6f99208b61089f81611020565b7fd85a4cf5d37a04dd33dd5be180981c3f745ce2f4ee8a4dbd26e87bff5857702361089f81611020565b6000610db481611020565b6001600160a01b038216610e0a5760405162461bcd60e51b815260206004820152601a60248201527f44414f20616464726573732063616e6e6f74206265207a65726f000000000000604482015260640161073e565b600880546001600160a01b039081166000818152600a6020526040808220805460ff19908116909155938716808352818320805490951660011790945584546001600160a01b03191684179094559251909283917f71f214b1b2613615a479cc45e38993fe86141a5ceb7ccf4330a76479b29d86da9190a3604051600081526001600160a01b03821690600080516020611eed83398151915290602001610c2e565b600082815260066020526040902060010154610ec781611020565b6108b1838361137b565b6001600160a01b03918216600090815260016020908152604080832093909416825291909152205490565b6001600160a01b038316610f5e5760405162461bcd60e51b8152602060048201526024808201527f45524332303a20617070726f76652066726f6d20746865207a65726f206164646044820152637265737360e01b606482015260840161073e565b6001600160a01b038216610fbf5760405162461bcd60e51b815260206004820152602260248201527f45524332303a20617070726f766520746f20746865207a65726f206164647265604482015261737360f01b606482015260840161073e565b6001600160a01b0383811660008181526001602090815260408083209487168084529482529182902085905590518481527f8c5be1e5ebec7d5bd14f71427d1e84f3dd0314c0f7b2291e5b200ac8c7c3b925910160405180910390a3505050565b610adb81336115af565b60055460ff16156110705760405162461bcd60e51b815260206004820152601060248201526f14185d5cd8589b194e881c185d5cd95960821b604482015260640161073e565b565b61107e6012600a611d3e565b61108c906305f5e100611d4d565b8160095461109a9190611d99565b11156110e85760405162461bcd60e51b815260206004820152601f60248201527f4d696e74696e6720776f756c6420657863656564206d617820737570706c7900604482015260640161073e565b80600960008282546110fa9190611d99565b909155506109c590508282611608565b60006111168484610ed1565b9050600019811461117e57818110156111715760405162461bcd60e51b815260206004820152601d60248201527f45524332303a20696e73756666696369656e7420616c6c6f77616e6365000000604482015260640161073e565b61117e8484848403610efc565b50505050565b6001600160a01b0383166111aa5760405162461bcd60e51b815260040161073e90611dac565b6001600160a01b0382166111d05760405162461bcd60e51b815260040161073e90611df1565b6001600160a01b0383166000908152600a602052604090205460ff168061120f57506001600160a01b0382166000908152600a602052604090205460ff165b1561121f576108b18383836116d3565b6000606461122e600184611d4d565b6112389190611d64565b905060006064611249600185611d4d565b6112539190611d64565b90506000816112628486611d86565b61126c9190611d86565b90506112798686836116d3565b8215611289576112898684611434565b81156112ed576007546112a79087906001600160a01b0316846116d3565b6007546040518381526001600160a01b03918216918816907fe9b448cce44ad73a5e65365743b806bdf42d8f3b588a8e4e21650497d969ea529060200160405180910390a35b505050505050565b6112ff8282610c92565b6109c55760008281526006602090815260408083206001600160a01b03851684529091529020805460ff191660011790556113373390565b6001600160a01b0316816001600160a01b0316837f2f8788117e7eff1d82e926ec794901d17c78024a50270940304540a733656f0d60405160405180910390a45050565b6113858282610c92565b156109c55760008281526006602090815260408083206001600160a01b0385168085529252808320805460ff1916905551339285917ff6391f5c32d9c69d2a47ea670b442974b53935d1edc7fd64eb21e047a839171b9190a45050565b6113ea611808565b6005805460ff191690557f5db9ee0a495bf2e6ff9c91a7834c1ba4fdd244a5e8aa4e537bd38aeae4b073aa335b6040516001600160a01b03909116815260200160405180910390a1565b6001600160a01b0382166114945760405162461bcd60e51b815260206004820152602160248201527f45524332303a206275726e2066726f6d20746865207a65726f206164647265736044820152607360f81b606482015260840161073e565b6114a082600083611851565b6001600160a01b038216600090815260208190526040902054818110156115145760405162461bcd60e51b815260206004820152602260248201527f45524332303a206275726e20616d6f756e7420657863656564732062616c616e604482015261636560f01b606482015260840161073e565b6001600160a01b0383166000818152602081815260408083208686039055600280548790039055518581529192917fddf252ad1be2c89b69c2b068fc378daa952ba7f163c4a11628f55a4df523b3ef910160405180910390a3505050565b61157a61102a565b6005805460ff191660011790557f62e78cea01bee320cd4e420270b5ea74000d11b0c9f74754ebdbfc544b05a2586114173390565b6115b98282610c92565b6109c5576115c681611859565b6115d183602061186b565b6040516020016115e2929190611e34565b60408051601f198184030181529082905262461bcd60e51b825261073e91600401611a5c565b6001600160a01b03821661165e5760405162461bcd60e51b815260206004820152601f60248201527f45524332303a206d696e7420746f20746865207a65726f206164647265737300604482015260640161073e565b61166a60008383611851565b806002600082825461167c9190611d99565b90915550506001600160a01b038216600081815260208181526040808320805486019055518481527fddf252ad1be2c89b69c2b068fc378daa952ba7f163c4a11628f55a4df523b3ef910160405180910390a35050565b6001600160a01b0383166116f95760405162461bcd60e51b815260040161073e90611dac565b6001600160a01b03821661171f5760405162461bcd60e51b815260040161073e90611df1565b61172a838383611851565b6001600160a01b038316600090815260208190526040902054818110156117a25760405162461bcd60e51b815260206004820152602660248201527f45524332303a207472616e7366657220616d6f756e7420657863656564732062604482015265616c616e636560d01b606482015260840161073e565b6001600160a01b03848116600081815260208181526040808320878703905593871680835291849020805487019055925185815290927fddf252ad1be2c89b69c2b068fc378daa952ba7f163c4a11628f55a4df523b3ef910160405180910390a361117e565b60055460ff166110705760405162461bcd60e51b815260206004820152601460248201527314185d5cd8589b194e881b9bdd081c185d5cd95960621b604482015260640161073e565b6108b161102a565b60606106106001600160a01b03831660145b6060600061187a836002611d4d565b611885906002611d99565b67ffffffffffffffff81111561189d5761189d611ea9565b6040519080825280601f01601f1916602001820160405280156118c7576020820181803683370190505b509050600360fc1b816000815181106118e2576118e2611ebf565b60200101906001600160f81b031916908160001a905350600f60fb1b8160018151811061191157611911611ebf565b60200101906001600160f81b031916908160001a9053506000611935846002611d4d565b611940906001611d99565b90505b60018111156119b8576f181899199a1a9b1b9c1cb0b131b232b360811b85600f166010811061197457611974611ebf565b1a60f81b82828151811061198a5761198a611ebf565b60200101906001600160f81b031916908160001a90535060049490941c936119b181611ed5565b9050611943565b508315611a075760405162461bcd60e51b815260206004820181905260248201527f537472696e67733a20686578206c656e67746820696e73756666696369656e74604482015260640161073e565b9392505050565b600060208284031215611a2057600080fd5b81356001600160e01b031981168114611a0757600080fd5b60005b83811015611a53578181015183820152602001611a3b565b50506000910152565b6020815260008251806020840152611a7b816040850160208701611a38565b601f01601f19169190910160400192915050565b80356001600160a01b0381168114611aa657600080fd5b919050565b60008060408385031215611abe57600080fd5b611ac783611a8f565b946020939093013593505050565b600080600060608486031215611aea57600080fd5b611af384611a8f565b95602085013595506040909401359392505050565b600080600060608486031215611b1d57600080fd5b611b2684611a8f565b9250611b3460208501611a8f565b9150604084013590509250925092565b600060208284031215611b5657600080fd5b5035919050565b60008060408385031215611b7057600080fd5b82359150611b8060208401611a8f565b90509250929050565b60008060408385031215611b9c57600080fd5b611ba583611a8f565b915060208301358015158114611bba57600080fd5b809150509250929050565b600060208284031215611bd757600080fd5b611a0782611a8f565b60008060408385031215611bf357600080fd5b611bfc83611a8f565b9150611b8060208401611a8f565b600181811c90821680611c1e57607f821691505b602082108103611c3e57634e487b7160e01b600052602260045260246000fd5b50919050565b634e487b7160e01b600052601160045260246000fd5b600181815b80851115611c95578160001904821115611c7b57611c7b611c44565b80851615611c8857918102915b93841c9390800290611c5f565b509250929050565b600082611cac57506001610610565b81611cb957506000610610565b8160018114611ccf5760028114611cd957611cf5565b6001915050610610565b60ff841115611cea57611cea611c44565b50506001821b610610565b5060208310610133831016604e8410600b8410161715611d18575081810a610610565b611d228383611c5a565b8060001904821115611d3657611d36611c44565b029392505050565b6000611a0760ff841683611c9d565b808202811582820484141761061057610610611c44565b600082611d8157634e487b7160e01b600052601260045260246000fd5b500490565b8181038181111561061057610610611c44565b8082018082111561061057610610611c44565b60208082526025908201527f45524332303a207472616e736665722066726f6d20746865207a65726f206164604082015264647265737360d81b606082015260800190565b60208082526023908201527f45524332303a207472616e7366657220746f20746865207a65726f206164647260408201526265737360e81b606082015260800190565b7f416363657373436f6e74726f6c3a206163636f756e7420000000000000000000815260008351611e6c816017850160208801611a38565b7001034b99036b4b9b9b4b733903937b6329607d1b6017918401918201528351611e9d816028840160208801611a38565b01602801949350505050565b634e487b7160e01b600052604160045260246000fd5b634e487b7160e01b600052603260045260246000fd5b600081611ee457611ee4611c44565b50600019019056fe6c3adfee332544f29232690459f4fe23a1c9573efbaac65c9fc033355fb413f0a26469706673582212205457b4931def04cf6e94a9459c4ed8f7e6c67c5515158804607108a1d126785064736f6c634300081300336c3adfee332544f29232690459f4fe23a1c9573efbaac65c9fc033355fb413f0",
  "linkReferences": {},
  "deployedLinkReferences": {}
}