{
  "_format": "hh-sol-artifact-1",
  "contractName": "SEED",
  "sourceName": "contracts/SEED.sol",
  "abi": [
    {
      "inputs": [
        {
          "internalType": "address",
          "name": "admin",
          "type": "address"
        }
      ],
      "stateMutability": "nonpayable",
      "type": "constructor"
    },
    {
      "inputs": [],
      "name": "AdminMustBeContract",
      "type": "error"
    },
    {
      "inputs": [],
      "name": "AllowanceOverflow",
      "type": "error"
    },
    {
      "inputs": [],
      "name": "AllowanceUnderflow",
      "type": "error"
    },
    {
      "inputs": [],
      "name": "AlreadyInitialized",
      "type": "error"
    },
    {
      "inputs": [],
      "name": "InsufficientAllowance",
      "type": "error"
    },
    {
      "inputs": [],
      "name": "InsufficientBalance",
      "type": "error"
    },
    {
      "inputs": [],
      "name": "InvalidAmount",
      "type": "error"
    },
    {
      "inputs": [],
      "name": "InvalidPermit",
      "type": "error"
    },
    {
      "inputs": [],
      "name": "MaxSupplyExceeded",
      "type": "error"
    },
    {
      "inputs": [],
      "name": "NewOwnerIsZeroAddress",
      "type": "error"
    },
    {
      "inputs": [],
      "name": "NoHandoverRequest",
      "type": "error"
    },
    {
      "inputs": [],
      "name": "Permit2AllowanceIsFixedAtInfinity",
      "type": "error"
    },
    {
      "inputs": [],
      "name": "PermitExpired",
      "type": "error"
    },
    {
      "inputs": [],
      "name": "TotalSupplyOverflow",
      "type": "error"
    },
    {
      "inputs": [],
      "name": "Unauthorized",
      "type": "error"
    },
    {
      "inputs": [],
      "name": "ZeroAddress",
      "type": "error"
    },
    {
      "anonymous": false,
      "inputs": [
        {
          "indexed": true,
          "internalType": "address",
          "name": "owner",
          "type": "address"
        },
        {
          "indexed": true,
          "internalType": "address",
          "name": "spender",
          "type": "address"
        },
        {
          "indexed": false,
          "internalType": "uint256",
          "name": "amount",
          "type": "uint256"
        }
      ],
      "name": "Approval",
      "type": "event"
    },
    {
      "anonymous": false,
      "inputs": [
        {
          "indexed": true,
          "internalType": "address",
          "name": "pendingOwner",
          "type": "address"
        }
      ],
      "name": "OwnershipHandoverCanceled",
      "type": "event"
    },
    {
      "anonymous": false,
      "inputs": [
        {
          "indexed": true,
          "internalType": "address",
          "name": "pendingOwner",
          "type": "address"
        }
      ],
      "name": "OwnershipHandoverRequested",
      "type": "event"
    },
    {
      "anonymous": false,
      "inputs": [
        {
          "indexed": true,
          "internalType": "address",
          "name": "oldOwner",
          "type": "address"
        },
        {
          "indexed": true,
          "internalType": "address",
          "name": "newOwner",
          "type": "address"
        }
      ],
      "name": "OwnershipTransferred",
      "type": "event"
    },
    {
      "anonymous": false,
      "inputs": [
        {
          "indexed": false,
          "internalType": "address",
          "name": "account",
          "type": "address"
        }
      ],
      "name": "Paused",
      "type": "event"
    },
    {
      "anonymous": false,
      "inputs": [
        {
          "indexed": true,
          "internalType": "address",
          "name": "to",
          "type": "address"
        },
        {
          "indexed": false,
          "internalType": "uint256",
          "name": "amount",
          "type": "uint256"
        },
        {
          "indexed": true,
          "internalType": "uint256",
          "name": "role",
          "type": "uint256"
        }
      ],
      "name": "RewardMint",
      "type": "event"
    },
    {
      "anonymous": false,
      "inputs": [
        {
          "indexed": true,
          "internalType": "uint256",
          "name": "role",
          "type": "uint256"
        },
        {
          "indexed": true,
          "internalType": "address",
          "name": "account",
          "type": "address"
        },
        {
          "indexed": true,
          "internalType": "address",
          "name": "sender",
          "type": "address"
        }
      ],
      "name": "RoleGranted",
      "type": "event"
    },
    {
      "anonymous": false,
      "inputs": [
        {
          "indexed": true,
          "internalType": "uint256",
          "name": "role",
          "type": "uint256"
        },
        {
          "indexed": true,
          "internalType": "address",
          "name": "account",
          "type": "address"
        },
        {
          "indexed": true,
          "internalType": "address",
          "name": "sender",
          "type": "address"
        }
      ],
      "name": "RoleRevoked",
      "type": "event"
    },
    {
      "anonymous": false,
      "inputs": [
        {
          "indexed": true,
          "internalType": "address",
          "name": "user",
          "type": "address"
        },
        {
          "indexed": true,
          "internalType": "uint256",
          "name": "roles",
          "type": "uint256"
        }
      ],
      "name": "RolesUpdated",
      "type": "event"
    },
    {
      "anonymous": false,
      "inputs": [
        {
          "indexed": true,
          "internalType": "address",
          "name": "from",
          "type": "address"
        },
        {
          "indexed": true,
          "internalType": "address",
          "name": "to",
          "type": "address"
        },
        {
          "indexed": false,
          "internalType": "uint256",
          "name": "amount",
          "type": "uint256"
        }
      ],
      "name": "Transfer",
      "type": "event"
    },
    {
      "anonymous": false,
      "inputs": [
        {
          "indexed": false,
          "internalType": "address",
          "name": "account",
          "type": "address"
        }
      ],
      "name": "Unpaused",
      "type": "event"
    },
    {
      "inputs": [],
      "name": "DEFAULT_ADMIN_ROLE",
      "outputs": [
        {
          "internalType": "bytes32",
          "name": "",
          "type": "bytes32"
        }
      ],
      "stateMutability": "pure",
      "type": "function"
    },
    {
      "inputs": [],
      "name": "DOMAIN_SEPARATOR",
      "outputs": [
        {
          "internalType": "bytes32",
          "name": "result",
          "type": "bytes32"
        }
      ],
      "stateMutability": "view",
      "type": "function"
    },
    {
      "inputs": [],
      "name": "REWARD_MINTER_ROLE",
      "outputs": [
        {
          "internalType": "uint256",
          "name": "",
          "type": "uint256"
        }
      ],
      "stateMutability": "view",
      "type": "function"
    },
    {
      "inputs": [
        {
          "internalType": "address",
          "name": "owner",
          "type": "address"
        },
        {
          "internalType": "address",
          "name": "spender",
          "type": "address"
        }
      ],
      "name": "allowance",
      "outputs": [
        {
          "internalType": "uint256",
          "name": "result",
          "type": "uint256"
        }
      ],
      "stateMutability": "view",
      "type": "function"
    },
    {
      "inputs": [
        {
          "internalType": "address",
          "name": "spender",
          "type": "address"
        },
        {
          "internalType": "uint256",
          "name": "amount",
          "type": "uint256"
        }
      ],
      "name": "approve",
      "outputs": [
        {
          "internalType": "bool",
          "name": "",
          "type": "bool"
        }
      ],
      "stateMutability": "nonpayable",
      "type": "function"
    },
    {
      "inputs": [
        {
          "internalType": "address",
          "name": "owner",
          "type": "address"
        }
      ],
      "name": "balanceOf",
      "outputs": [
        {
          "internalType": "uint256",
          "name": "result",
          "type": "uint256"
        }
      ],
      "stateMutability": "view",
      "type": "function"
    },
    {
      "inputs": [
        {
          "internalType": "uint256",
          "name": "amount",
          "type": "uint256"
        }
      ],
      "name": "burn",
      "outputs": [],
      "stateMutability": "nonpayable",
      "type": "function"
    },
    {
      "inputs": [
        {
          "internalType": "address",
          "name": "from",
          "type": "address"
        },
        {
          "internalType": "uint256",
          "name": "amount",
          "type": "uint256"
        }
      ],
      "name": "burnFrom",
      "outputs": [],
      "stateMutability": "nonpayable",
      "type": "function"
    },
    {
      "inputs": [],
      "name": "cancelOwnershipHandover",
      "outputs": [],
      "stateMutability": "payable",
      "type": "function"
    },
    {
      "inputs": [
        {
          "internalType": "address",
          "name": "pendingOwner",
          "type": "address"
        }
      ],
      "name": "completeOwnershipHandover",
      "outputs": [],
      "stateMutability": "payable",
      "type": "function"
    },
    {
      "inputs": [],
      "name": "decimals",
      "outputs": [
        {
          "internalType": "uint8",
          "name": "",
          "type": "uint8"
        }
      ],
      "stateMutability": "view",
      "type": "function"
    },
    {
      "inputs": [],
      "name": "getMaxSupply",
      "outputs": [
        {
          "internalType": "uint256",
          "name": "",
          "type": "uint256"
        }
      ],
      "stateMutability": "pure",
      "type": "function"
    },
    {
      "inputs": [],
      "name": "getTotalMinted",
      "outputs": [
        {
          "internalType": "uint256",
          "name": "",
          "type": "uint256"
        }
      ],
      "stateMutability": "view",
      "type": "function"
    },
    {
      "inputs": [
        {
          "internalType": "address",
          "name": "user",
          "type": "address"
        },
        {
          "internalType": "uint256",
          "name": "roles",
          "type": "uint256"
        }
      ],
      "name": "grantRoles",
      "outputs": [],
      "stateMutability": "payable",
      "type": "function"
    },
    {
      "inputs": [
        {
          "internalType": "address",
          "name": "user",
          "type": "address"
        },
        {
          "internalType": "uint256",
          "name": "roles",
          "type": "uint256"
        }
      ],
      "name": "hasAllRoles",
      "outputs": [
        {
          "internalType": "bool",
          "name": "",
          "type": "bool"
        }
      ],
      "stateMutability": "view",
      "type": "function"
    },
    {
      "inputs": [
        {
          "internalType": "address",
          "name": "user",
          "type": "address"
        },
        {
          "internalType": "uint256",
          "name": "roles",
          "type": "uint256"
        }
      ],
      "name": "hasAnyRole",
      "outputs": [
        {
          "internalType": "bool",
          "name": "",
          "type": "bool"
        }
      ],
      "stateMutability": "view",
      "type": "function"
    },
    {
      "inputs": [
        {
          "internalType": "uint256",
          "name": "role",
          "type": "uint256"
        },
        {
          "internalType": "address",
          "name": "user",
          "type": "address"
        }
      ],
      "name": "hasRole",
      "outputs": [
        {
          "internalType": "bool",
          "name": "",
          "type": "bool"
        }
      ],
      "stateMutability": "view",
      "type": "function"
    },
    {
      "inputs": [],
      "name": "isOwnerMultisig",
      "outputs": [
        {
          "internalType": "bool",
          "name": "",
          "type": "bool"
        }
      ],
      "stateMutability": "view",
      "type": "function"
    },
    {
      "inputs": [],
      "name": "name",
      "outputs": [
        {
          "internalType": "string",
          "name": "",
          "type": "string"
        }
      ],
      "stateMutability": "pure",
      "type": "function"
    },
    {
      "inputs": [
        {
          "internalType": "address",
          "name": "owner",
          "type": "address"
        }
      ],
      "name": "nonces",
      "outputs": [
        {
          "internalType": "uint256",
          "name": "result",
          "type": "uint256"
        }
      ],
      "stateMutability": "view",
      "type": "function"
    },
    {
      "inputs": [],
      "name": "owner",
      "outputs": [
        {
          "internalType": "address",
          "name": "result",
          "type": "address"
        }
      ],
      "stateMutability": "view",
      "type": "function"
    },
    {
      "inputs": [
        {
          "internalType": "address",
          "name": "pendingOwner",
          "type": "address"
        }
      ],
      "name": "ownershipHandoverExpiresAt",
      "outputs": [
        {
          "internalType": "uint256",
          "name": "result",
          "type": "uint256"
        }
      ],
      "stateMutability": "view",
      "type": "function"
    },
    {
      "inputs": [],
      "name": "pause",
      "outputs": [],
      "stateMutability": "nonpayable",
      "type": "function"
    },
    {
      "inputs": [],
      "name": "paused",
      "outputs": [
        {
          "internalType": "bool",
          "name": "",
          "type": "bool"
        }
      ],
      "stateMutability": "view",
      "type": "function"
    },
    {
      "inputs": [
        {
          "internalType": "address",
          "name": "owner",
          "type": "address"
        },
        {
          "internalType": "address",
          "name": "spender",
          "type": "address"
        },
        {
          "internalType": "uint256",
          "name": "value",
          "type": "uint256"
        },
        {
          "internalType": "uint256",
          "name": "deadline",
          "type": "uint256"
        },
        {
          "internalType": "uint8",
          "name": "v",
          "type": "uint8"
        },
        {
          "internalType": "bytes32",
          "name": "r",
          "type": "bytes32"
        },
        {
          "internalType": "bytes32",
          "name": "s",
          "type": "bytes32"
        }
      ],
      "name": "permit",
      "outputs": [],
      "stateMutability": "nonpayable",
      "type": "function"
    },
    {
      "inputs": [],
      "name": "renounceOwnership",
      "outputs": [],
      "stateMutability": "payable",
      "type": "function"
    },
    {
      "inputs": [
        {
          "internalType": "uint256",
          "name": "roles",
          "type": "uint256"
        }
      ],
      "name": "renounceRoles",
      "outputs": [],
      "stateMutability": "payable",
      "type": "function"
    },
    {
      "inputs": [],
      "name": "requestOwnershipHandover",
      "outputs": [],
      "stateMutability": "payable",
      "type": "function"
    },
    {
      "inputs": [
        {
          "internalType": "address",
          "name": "user",
          "type": "address"
        },
        {
          "internalType": "uint256",
          "name": "roles",
          "type": "uint256"
        }
      ],
      "name": "revokeRoles",
      "outputs": [],
      "stateMutability": "payable",
      "type": "function"
    },
    {
      "inputs": [
        {
          "internalType": "address",
          "name": "to",
          "type": "address"
        },
        {
          "internalType": "uint256",
          "name": "amount",
          "type": "uint256"
        }
      ],
      "name": "rewardMint",
      "outputs": [],
      "stateMutability": "nonpayable",
      "type": "function"
    },
    {
      "inputs": [
        {
          "internalType": "address",
          "name": "user",
          "type": "address"
        }
      ],
      "name": "rolesOf",
      "outputs": [
        {
          "internalType": "uint256",
          "name": "roles",
          "type": "uint256"
        }
      ],
      "stateMutability": "view",
      "type": "function"
    },
    {
      "inputs": [],
      "name": "symbol",
      "outputs": [
        {
          "internalType": "string",
          "name": "",
          "type": "string"
        }
      ],
      "stateMutability": "pure",
      "type": "function"
    },
    {
      "inputs": [],
      "name": "totalSupply",
      "outputs": [
        {
          "internalType": "uint256",
          "name": "result",
          "type": "uint256"
        }
      ],
      "stateMutability": "view",
      "type": "function"
    },
    {
      "inputs": [
        {
          "internalType": "address",
          "name": "to",
          "type": "address"
        },
        {
          "internalType": "uint256",
          "name": "amount",
          "type": "uint256"
        }
      ],
      "name": "transfer",
      "outputs": [
        {
          "internalType": "bool",
          "name": "",
          "type": "bool"
        }
      ],
      "stateMutability": "nonpayable",
      "type": "function"
    },
    {
      "inputs": [
        {
          "internalType": "address",
          "name": "from",
          "type": "address"
        },
        {
          "internalType": "address",
          "name": "to",
          "type": "address"
        },
        {
          "internalType": "uint256",
          "name": "amount",
          "type": "uint256"
        }
      ],
      "name": "transferFrom",
      "outputs": [
        {
          "internalType": "bool",
          "name": "",
          "type": "bool"
        }
      ],
      "stateMutability": "nonpayable",
      "type": "function"
    },
    {
      "inputs": [
        {
          "internalType": "address",
          "name": "newOwner",
          "type": "address"
        }
      ],
      "name": "transferOwnership",
      "outputs": [],
      "stateMutability": "payable",
      "type": "function"
    },
    {
      "inputs": [],
      "name": "unpause",
      "outputs": [],
      "stateMutability": "nonpayable",
      "type": "function"
    }
  ],
  "bytecode": "0x608060405234801561001057600080fd5b5060405161164c38038061164c83398101604081905261002f9161013e565b6000805460ff191690556001600160a01b0381166100605760405163d92e233d60e01b815260040160405180910390fd5b803b61007f5760405163b597f86560e01b815260040160405180910390fd5b61008881610099565b6100938160016100d5565b5061016e565b6001600160a01b0316638b78c6d8198190558060007f8be0079c531659141344cd1fd0a4f28419497f9722a3daafe3b4186f6b6457e08180a350565b6100e1828260016100e5565b5050565b638b78c6d8600c52826000526020600c20805483811783610107575080841681185b80835580600c5160601c7f715ad5ce61fc9595c7b415289d59cf203f23a94fa06f04af7e489a0a76e1fe26600080a3505050505050565b60006020828403121561015057600080fd5b81516001600160a01b038116811461016757600080fd5b9392505050565b6114cf8061017d6000396000f3fe60806040526004361061021a5760003560e01c80635c975abb11610123578063a217fddf116100ab578063de9bb6351161006f578063de9bb635146105d7578063ec2606c0146105ec578063f04e283e1461060c578063f2fde38b1461061f578063fee81cf41461063257600080fd5b8063a217fddf1461054e578063a9059cbb14610562578063c33cd4cb14610582578063d505accf14610597578063dd62ed3e146105b757600080fd5b806379cc6790116100f257806379cc6790146104ba5780637ecebe00146104da5780638456cb591461050d5780638da5cb5b1461052257806395d89b411461021f57600080fd5b80635c975abb1461044757806370a082311461045f578063715018a614610492578063721042051461049a57600080fd5b80632de94807116101a657806342966c681161017557806342966c68146103b65780634a4ee7b1146103d65780634c0f38c2146103e9578063514e62fc1461040857806354d1f13d1461043f57600080fd5b80632de948071461033d578063313ce567146103705780633644e5151461038c5780633f4ba83a146103a157600080fd5b8063183a4f6e116101ed578063183a4f6e146102b65780631c10893f146102cb5780631cd64df4146102de57806323b872dd14610315578063256929621461033557600080fd5b806306fdde031461021f578063095ea7b31461024a5780630ca1c5c91461027a57806318160ddd14610299575b600080fd5b34801561022b57600080fd5b50610234610665565b604051610241919061128a565b60405180910390f35b34801561025657600080fd5b5061026a6102653660046112f4565b610683565b6040519015158152602001610241565b34801561028657600080fd5b506001545b604051908152602001610241565b3480156102a557600080fd5b506805345cdf77eb68f44c5461028b565b6102c96102c436600461131e565b610708565b005b6102c96102d93660046112f4565b610715565b3480156102ea57600080fd5b5061026a6102f93660046112f4565b638b78c6d8600c90815260009290925260209091205481161490565b34801561032157600080fd5b5061026a610330366004611337565b610763565b6102c9610780565b34801561034957600080fd5b5061028b610358366004611374565b638b78c6d8600c908152600091909152602090205490565b34801561037c57600080fd5b5060405160128152602001610241565b34801561039857600080fd5b5061028b6107d0565b3480156103ad57600080fd5b506102c961084d565b3480156103c257600080fd5b506102c96103d136600461131e565b61085f565b6102c96103e43660046112f4565b61088a565b3480156103f557600080fd5b506b204fce5e3e2502611000000061028b565b34801561041457600080fd5b5061026a6104233660046112f4565b638b78c6d8600c90815260009290925260209091205416151590565b6102c96108d8565b34801561045357600080fd5b5060005460ff1661026a565b34801561046b57600080fd5b5061028b61047a366004611374565b6387a211a2600c908152600091909152602090205490565b6102c9610914565b3480156104a657600080fd5b506102c96104b53660046112f4565b610969565b3480156104c657600080fd5b506102c96104d53660046112f4565b610a8e565b3480156104e657600080fd5b5061028b6104f5366004611374565b6338377508600c908152600091909152602090205490565b34801561051957600080fd5b506102c9610aef565b34801561052e57600080fd5b50638b78c6d819546040516001600160a01b039091168152602001610241565b34801561055a57600080fd5b50600061028b565b34801561056e57600080fd5b5061026a61057d3660046112f4565b610aff565b34801561058e57600080fd5b5061026a610b1a565b3480156105a357600080fd5b506102c96105b236600461138f565b610b37565b3480156105c357600080fd5b5061028b6105d2366004611402565b610cf3565b3480156105e357600080fd5b5061028b600181565b3480156105f857600080fd5b5061026a610607366004611435565b610d3a565b6102c961061a366004611374565b610d58565b6102c961062d366004611374565b610d88565b34801561063e57600080fd5b5061028b61064d366004611374565b63389a75e1600c908152600091909152602090205490565b60408051808201909152600481526314d1515160e21b602082015290565b60006001600160a01b0383166e22d473030f116ddee9f6b43ac78ba318821915176106b657633f68539a6000526004601cfd5b82602052637f5e9f20600c5233600052816034600c205581600052602c5160601c337f8c5be1e5ebec7d5bd14f71427d1e84f3dd0314c0f7b2291e5b200ac8c7c3b92560206000a35060015b92915050565b6107123382610db8565b50565b61071d610dc4565b6107278282610ddf565b60405133906001600160a01b0384169083907f1ec1667fba5e43c5c76fff54e76d7a4a20a4fecf7b49724ad8d52a3f726e9dbd90600090a45050565b600061076d610df1565b610778848484610e37565b949350505050565b60006202a30067ffffffffffffffff164201905063389a75e1600c5233600052806020600c2055337fdbf36a107da19e49527a7176a1babf963b4b0ff8cde35ee35d6cd8f1f9ac7e1d600080a250565b6000806107db610665565b805190602001209050604080517f8b73c3c69bb8fe3d512ecc4cf759cc79239f7b179b0ffacaa9a75d522b39400f815260208101929092527fc89efdaa54c0f20c7adf612882df0950f5a951637e0307cdcb4c672f298b8bc69082015246606082015230608082015260a09020919050565b610855610dc4565b61085d610ef8565b565b600081116108805760405163162908e360e11b815260040160405180910390fd5b6107123382610f4a565b610892610dc4565b61089c8282610faf565b60405133906001600160a01b0384169083907fe0df21b65c73c27081b8f042a012b124085b41d78d27b7e3c4780f5650f5ebb890600090a45050565b63389a75e1600c523360005260006020600c2055337ffa7b8eab7da67f412cc9575ed43464468f9bfbae89d1675917346ca6d8fe3c92600080a2565b61091c610dc4565b60405162461bcd60e51b815260206004820152601d60248201527f4f776e6572736869702063616e6e6f742062652072656e6f756e63656400000060448201526064015b60405180910390fd5b610971610df1565b638b78c6d8600c908152336000526020902054600190811681146109a7576040516282b42960e81b815260040160405180910390fd5b6001600160a01b0383166109ce5760405163d92e233d60e01b815260040160405180910390fd5b600082116109ef5760405163162908e360e11b815260040160405180910390fd5b6b204fce5e3e2502611000000082600154610a0a9190611458565b1115610a2957604051638a164f6360e01b815260040160405180910390fd5b81600154610a379190611458565b600155610a448383610fc1565b6001836001600160a01b03167fe52fa6d3d16281c545e97068f2521bb0f18b167a26b1012badb3ab471be0adb784604051610a8191815260200190565b60405180910390a3505050565b6001600160a01b038216610ab55760405163d92e233d60e01b815260040160405180910390fd5b60008111610ad65760405163162908e360e11b815260040160405180910390fd5b610ae182338361102e565b610aeb8282610f4a565b5050565b610af7610dc4565b61085d611094565b6000610b09610df1565b610b1383836110d1565b9392505050565b6000610b32610b2c638b78c6d8195490565b3b151590565b905090565b6001600160a01b0386166e22d473030f116ddee9f6b43ac78ba31885191517610b6857633f68539a6000526004601cfd5b6000610b72610665565b8051906020012090507fc89efdaa54c0f20c7adf612882df0950f5a951637e0307cdcb4c672f298b8bc642861015610bb257631a15a3cc6000526004601cfd5b6040518960601b60601c99508860601b60601c985065383775081901600e52896000526020600c2080547f8b73c3c69bb8fe3d512ecc4cf759cc79239f7b179b0ffacaa9a75d522b39400f835284602084015283604084015246606084015230608084015260a08320602e527f6e71edae12b1b97f4d1f60370fef10105fa2faae0126114a169c64845d6126c983528b60208401528a60408401528960608401528060808401528860a084015260c08320604e526042602c206000528760ff1660205286604052856060526020806080600060015afa8c3d5114610c9e5763ddafbaef6000526004601cfd5b0190556303faf4f960a51b89176040526034602c20889055888a7f8c5be1e5ebec7d5bd14f71427d1e84f3dd0314c0f7b2291e5b200ac8c7c3b925602060608501a36040525050600060605250505050505050565b60006e22d473030f116ddee9f6b43ac78ba2196001600160a01b03831601610d1e5750600019610702565b50602052637f5e9f20600c908152600091909152603490205490565b638b78c6d8600c908152600082815260209091205483168314610b13565b610d60610dc4565b803b610d7f5760405163b597f86560e01b815260040160405180910390fd5b6107128161113a565b610d90610dc4565b803b610daf5760405163b597f86560e01b815260040160405180910390fd5b61071281611177565b610aeb8282600061119e565b638b78c6d81954331461085d576382b429006000526004601cfd5b610de7610dc4565b610aeb82826111f7565b60005460ff161561085d5760405162461bcd60e51b815260206004820152601060248201526f14185d5cd8589b194e881c185d5cd95960821b6044820152606401610960565b60008360601b6e22d473030f116ddee9f6b43ac78ba33314610e8e5733602052637f5e9f208117600c526034600c208054801915610e8b5780851115610e85576313be252b6000526004601cfd5b84810382555b50505b6387a211a28117600c526020600c20805480851115610eb55763f4d678b86000526004601cfd5b84810382555050836000526020600c208381540181555082602052600c5160601c8160601c60008051602061147a833981519152602080a3505060019392505050565b610f00611203565b6000805460ff191690557f5db9ee0a495bf2e6ff9c91a7834c1ba4fdd244a5e8aa4e537bd38aeae4b073aa335b6040516001600160a01b03909116815260200160405180910390a1565b6387a211a2600c52816000526020600c20805480831115610f735763f4d678b86000526004601cfd5b82900390556805345cdf77eb68f44c8054829003905560008181526001600160a01b03831660008051602061147a833981519152602083a35050565b610fb7610dc4565b610aeb8282610db8565b6805345cdf77eb68f44c5481810181811015610fe55763e5cfe9576000526004601cfd5b806805345cdf77eb68f44c5550506387a211a2600c52816000526020600c208181540181555080602052600c5160601c600060008051602061147a833981519152602080a35050565b6e22d473030f116ddee9f6b43ac78ba2196001600160a01b0383160161105357505050565b81602052637f5e9f20600c52826000526034600c20805480191561108d5780831115611087576313be252b6000526004601cfd5b82810382555b5050505050565b61109c610df1565b6000805460ff191660011790557f62e78cea01bee320cd4e420270b5ea74000d11b0c9f74754ebdbfc544b05a258610f2d3390565b60006387a211a2600c52336000526020600c208054808411156110fc5763f4d678b86000526004601cfd5b83810382555050826000526020600c208281540181555081602052600c5160601c3360008051602061147a833981519152602080a350600192915050565b611142610dc4565b63389a75e1600c52806000526020600c20805442111561116a57636f5e88186000526004601cfd5b600090556107128161124c565b61117f610dc4565b8060601b61119557637448fbae6000526004601cfd5b6107128161124c565b638b78c6d8600c52826000526020600c208054838117836111c0575080841681185b80835580600c5160601c7f715ad5ce61fc9595c7b415289d59cf203f23a94fa06f04af7e489a0a76e1fe26600080a3505050505050565b610aeb8282600161119e565b60005460ff1661085d5760405162461bcd60e51b815260206004820152601460248201527314185d5cd8589b194e881b9bdd081c185d5cd95960621b6044820152606401610960565b638b78c6d81980546001600160a01b039092169182907f8be0079c531659141344cd1fd0a4f28419497f9722a3daafe3b4186f6b6457e0600080a355565b602081526000825180602084015260005b818110156112b8576020818601810151604086840101520161129b565b506000604082850101526040601f19601f83011684010191505092915050565b80356001600160a01b03811681146112ef57600080fd5b919050565b6000806040838503121561130757600080fd5b611310836112d8565b946020939093013593505050565b60006020828403121561133057600080fd5b5035919050565b60008060006060848603121561134c57600080fd5b611355846112d8565b9250611363602085016112d8565b929592945050506040919091013590565b60006020828403121561138657600080fd5b610b13826112d8565b600080600080600080600060e0888a0312156113aa57600080fd5b6113b3886112d8565b96506113c1602089016112d8565b95506040880135945060608801359350608088013560ff811681146113e557600080fd5b9699959850939692959460a0840135945060c09093013592915050565b6000806040838503121561141557600080fd5b61141e836112d8565b915061142c602084016112d8565b90509250929050565b6000806040838503121561144857600080fd5b8235915061142c602084016112d8565b8082018082111561070257634e487b7160e01b600052601160045260246000fdfeddf252ad1be2c89b69c2b068fc378daa952ba7f163c4a11628f55a4df523b3efa264697066735822122078ee760e7d436309b9be789553449d418f59c7fb18ea6775bb977d8f6a3d1e3864736f6c634300081e0033",
  "linkReferences": {},
  "deployedLinkReferences": {}
}